:100000000C94F7050C94091D0C943E060C943E06C6
:100010000C943E060C943E060C943E060C943E0650
:100020000C943E060C943E060C9400310C94D23194
:100030000C947A2B0C943E060C943E060C943E06CF
:100040000C943E060C943E060C943E060C943E0620
:100050000C943E060C94C72B0C943E060C943E0662
:100060000C943E060C943E060C943E060C943E0600
:100070000C943E060C943E060C943E060C943E06F0
:100080000C943E060C943E060C943E060C943E06E0
:100090000C943E060C943E060C943E060C943E06D0
:1000A0000C943E060C943E060C943E06E416E716AD
:1000B000EC16F316F816FD16021707170C17111792
:1000C00016171B171D1720172317261729172C176C
:1000D0002E173317182118214A214A219721CB22A4
:1000E000CB22CB22B5214A225B225B22BB22CB2230
:1000F000CB22C422672367237923792370237923B2
:10010000792379236723672375237923792375233B
:100110003F3266325E3366325E33B232D5325E33A0
:100120002C333B330101370001013300010136005C
:100130000103E10101330102E10000001E001F0084
:100140002000210022002B0014001A0008001500D6
:100150001700296204001600070009000A0008556C
:100160001C001B00060019000500000000000152E1
:10017000E2002C61E6000000270026002500240094
:1001800023002A00130012000C0018001D00280094
:1001900038000F000E000D000B0034002D002A5D0A
:1001A000295D1000110000000000025204540354A5
:1001B000E60035001E001F002000210022002B0059
:1001C00014001A00080015001700E10004001600D2
:1001D000070009000A00E0001D001B0006001900CE
:1001E0000500000000003A00E2002C0029002A006F
:1001F000270026002500240023004C0013001200D5
:100200000C0018001C00340033000F000E000D001D
:100210000B00E50038003700360010001100000028
:10022000000043000052E000280000001E001F00F4
:100230002000210022002B0033003600370013007D
:100240001C00296204001200080018000C00085568
:10025000340014000D000E001B0000000000E6003A
:10026000E2002C61E60000002700260025002400A3
:1002700023002A000F00150006000A0009002800CC
:100280001600110017000B00070038001D001900B0
:100290001A0010000500000000000052045403542E
:1002A000E60001001E001F002000210022000100C6
:1002B0002502340250004F00350001002F003602A5
:1002C0002F0226022402010035022E0227002102FD
:1002D00031000000000001000100010001000000E9
:1002E00027002600250024002300010031023400ED
:1002F000520051001E000100300037023002270278
:100300002E00010022021F0220021E022302000012
:1003100000000100010001000100010001000100D6
:10032000010001000100010046000100BD00BE0007
:1003300001000100680001004A004D0001000100B9
:100340006A006B006C006D006E0000000000010090
:100350000100010001000100010001000100010095
:100360000100010001000100A900AA000100010034
:10037000690001004B004E00010001007300720093
:10038000710070006F00000000000100010001001A
:10039000010044454255473A2064697361626C65C7
:1003A000642E0A0044454255473A20656E61626CEE
:1003B00065642E0A0000000000000000002A2B28BF
:1003C000000000000000000000000000000000002D
:1003D00029000000002C1E34202122243426272549
:1003E0002E362D3738271E1F202122232425263381
:1003F00033362E37381F0405060708090A0B0C0D83
:100400000E0F101112131415161718191A1B1C1D94
:100410002F3130232D350405060708090A0B0C0D72
:100420000E0F101112131415161718191A1B1C1D74
:100430002F3130354C0000000000000000000000AB
:100440000000000000000000007E0F00D4FFFFFF4E
:10045000C7000000780A0025303862003A200025E5
:10046000303258000A722F6320303132333435363F
:10047000370A007267626C6967687420616E696D23
:100480006174696F6E207469636B207265706F723E
:100490007420746F20736C6176650A007267626CF9
:1004A000696768742074696D65722064697361623C
:1004B0006C652E0A007267626C69676874207469E3
:1004C0006D657220656E61626C65642E0A007267EC
:1004D000626C696768742073657420687376205B4A
:1004E0004E4F454550524F4D5D3A2025752C257590
:1004F0002C25750A007267626C69676874207365E1
:100500007420687376205B454550524F4D5D3A200C
:1005100025752C25752C25750A007267626C696734
:100520006874207261696E626F77207365742068E9
:1005300073763A2025642C25642C25642C25750AB5
:10054000007267626C696768742064697361626CC9
:1005500065205B4E4F454550524F4D5D3A207267C6
:10056000626C696768745F636F6E6669672E656E3B
:1005700061626C65203D2025750A007267626C69B6
:100580006768742064697361626C65205B454550DF
:10059000524F4D5D3A207267626C696768745F63A1
:1005A0006F6E6669672E656E61626C65203D202501
:1005B000750A007267626C6967687420656E6162B3
:1005C0006C65205B454550524F4D5D3A2072676225
:1005D0006C696768745F636F6E6669672E656E61CC
:1005E000626C65203D2025750A007267626C696740
:1005F000687420746F67676C65205B454550524F87
:100600004D5D3A207267626C696768745F636F6EF4
:100610006669672E656E61626C65203D2025750AEE
:10062000007267626C69676874206D6F6465205B37
:100630004E4F454550524F4D5D3A2025750A007288
:1006400067626C69676874206D6F6465205B4545FF
:1006500050524F4D5D3A2025750A007267626C69F1
:100660006768745F696E6974207267626C69676835
:10067000745F636F6E6669672E6D6F6465203D20E1
:10068000302E2057726974652064656661756C74DC
:100690002076616C75657320746F20454550524F0C
:1006A0004D2E0A007267626C696768745F696E69D3
:1006B00074206565636F6E666967206973206E6F6D
:1006C0007420656E61626C65642E0A007267626CEC
:1006D000696768745F696E697420737461727421EC
:1006E0000A007267626C696768745F696E6974207A
:1006F00063616C6C65642E0A007267626C6967687E
:10070000745F636F6E6669672E7370656564203D04
:100710002025640A007267626C696768745F636FA2
:100720006E6669672E76616C203D2025640A007232
:1007300067626C696768745F636F6E6669672E7362
:100740006174203D2025640A007267626C696768E5
:10075000745F636F6E6669672E687565203D20253E
:10076000640A007267686C696768745F636F6E66BD
:1007700069672E6D6F6465203D2025640A007267ED
:10078000626C696768745F636F6E6669672E656E19
:1007900061626C65203D2025640A007267626C69A5
:1007A0006768745F636F6E66696720454550524F96
:1007B0004D3A0A0032190A00047F3F1F6432146464
:1007C0003214783C1E1E140A052223252628292AC5
:1007D0002C2D2F3032333536383A3B3D3E404243A4
:1007E0004547494A4C4E5051535557595A5C5E60E3
:1007F00062646668696B6D6F71737577797B7D7FF5
:1008000081838587898A8C8E90929496989A9C9EF3
:100810009FA1A3A5A7A8AAACAEAFB1B3B4B6B8B90F
:10082000BBBCBEBFC1C2C3C5C6C7C9CACBCCCDCE77
:10083000D0D1D2D2D3D4D5D6D7D7D8D9D9DADADB5A
:10084000DBDBDCDCDCDCDCDDDDDDDDDCDCDCDCDCE6
:10085000DBDBDBDADAD9D9D8D7D7D6D5D4D3D2D225
:10086000D1D0CECDCCCBCAC9C7C6C5C3C2C1BFBE0D
:10087000BCBBB9B8B6B4B3B1AFAEACAAA8A7A5A378
:10088000A19F9E9C9A98969492908E8C8A89878537
:1008900083817F7D7B79777573716F6D6B69686616
:1008A0006462605E5C5A5957555351504E4C4A49E8
:1008B00047454342403E3D3B3A3836353332302F90
:1008C0002D2C2A292826252322FFAA7F5540626144
:1008D000636B6C6967687420737465703A20257562
:1008E0000A006261636B6C69676874206469736194
:1008F000626C650A006261636B6C6967687420658D
:100900006E61626C650A006261636B6C6967687432
:1009100020746F67676C653A2025750A0062616311
:100920006B6C696768742064656372656173653AAE
:100930002025750A006261636B6C696768742069C1
:100940006E6372656173653A2025750A00000101C6
:10095000010101010101010202020202020202027E
:10096000030303030303030304040404040404054E
:100970000505050506060606060707070707080812
:100980000808090909090A0A0A0B0B0B0C0C0C0DC3
:100990000D0D0E0E0E0F0F0F10101111111212135C
:1009A000131414151516161717181819191A1A1BD7
:1009B0001B1C1D1D1E1E1F20202122222324242536
:1009C0002626272829292A2B2C2D2D2E2F3031326F
:1009D00032333435363738393A3B3C3D3E3F40417F
:1009E00042434445464748494A4C4D4E4F50515367
:1009F00054555658595A5B5D5E5F6162646566681E
:100A0000696B6C6D6F7072737577787A7B7D7E80A1
:100A100082838587888A8C8E8F91939596989A9CED
:100A20009EA0A2A3A5A7A9ABADAFB1B3B5B7BABC01
:100A3000BEC0C2C4C6C9CBCDCFD1D4D6D8DBDDDFD2
:100A4000E2E4E7E9EBEEF0F3F5F8FAFDFF0A002542
:100A500030325820006B6579626F6172645F726535
:100A6000706F72743A20000A0025303258006B65AE
:100A700079626F6172645F7365745F6C65643A205C
:100A8000005B735D004B6579626F61726420737403
:100A90006172742E0A005B575D005B535D005B5210
:100AA0005D005B445D005B435D00040330000000BB
:100AB00026034B0065006500620069006F0020009E
:100AC0004900720069007300200052006500760042
:100AD0002E002000330000000E034B00650065006F
:100AE000620069006F0000000403090409025B0052
:100AF000030100A0FA09040000010301010009211B
:100B0000110100012240000705810308000A0904C1
:100B1000010001030000000921110100012232003F
:100B20000705820320000A090402000203000000F6
:100B30000921110100012222000705830320000181
:100B40000705030320000112011001000000081036
:100B5000CB56120003010203010631FF0974A10103
:100B60000975150026FF0095207508810209761584
:100B70000026FF00952075089102C005010980A19B
:100B800001850319012AB700150126B700950175E3
:100B9000108100C0050C0901A101850419012AA0DA
:100BA00002150126A002950175108100C0050109FA
:100BB00006A101050719E029E7150025019508752B
:100BC0000181029501750881010507190029FF15AA
:100BD0000026FF0095067508810005081901290502
:100BE000950575019102950175039101C0001124CD
:100BF0001FBECFEFDAE0DEBFCDBF04B603FE27C0D5
:100C000080914C0390914D03A0914E03B0914F03FE
:100C10008730904BA740B04BD1F410924C03109208
:100C20004D0310924E0310924F0314BE84B7877F7A
:100C300084BF0FB6F894A895809160008861809376
:100C40006000109260000FBEE0E0F8E3099511E04B
:100C5000A0E0B1E0ECE1FAE602C005900D92A23FFF
:100C6000B107D9F723E0A2EFB1E001C01D92AC3487
:100C7000B207E1F70E94352E0C940C350C9400005D
:100C8000FF93EF93E091F201F091F301309709F0B7
:100C90000995EF91FF910895FC018591803011F045
:100CA000EFDFFBCF0895FF27E0E230E247FF0CC003
:100CB000419597FF09C0EDE26095709580959095FC
:100CC000611D711D811D911D27FF02C0219530E31B
:100CD00050E2AA27660F771F881F991FAA1FA41723
:100CE00010F0A41B63955A95A9F7AA3008F0A95FE4
:100CF000A05DAF93F395611571058105910541F7ED
:100D0000ED3211F4EF93F395F21718F43F93F39546
:100D1000FBCF8F91B5DFFA95E1F70895E991F9914D
:100D20008591803021F0853219F0AADFF9CF08953E
:100D300020E0E89455915532C1F3503311F4689492
:100D400055915A3348F4505390F3220F022E220F3C
:100D5000220F200D250FF4CF0EF421958991999142
:100D6000533619F3533729F1533559F1BC0188270C
:100D70009927E8945C3621F489919991689455916A
:100D8000543639F446EF7EF077FF0DC08FEF9FEFBA
:100D90000AC055374AE039F0583540E121F0523663
:100DA00042E009F00895FF93EF937DDFEF91FF910B
:100DB000B7CFFF93EF93FC0181918030B9F360DFEF
:100DC000FBCFFF93EF9368DFF1CFDF93CF93CDB7E6
:100DD000DEB72596A3DFCF91DF9108950E94D71744
:100DE00083E00E9487180E94A0144FEF6FEF80E00D
:100DF0000E94D4108BE00E949D1460E070E0CB0153
:100E00000E94622A0C946E2A89322DE5920721F005
:100E10008A329D4591F023C0FB0182818823F9F03D
:100E2000E0912801F0912901808181FF03C080E3D6
:100E300091E013C08CE291E010C0FB018281882315
:100E400071F0E0912801F0912901808181FF03C0B8
:100E500088E291E002C084E291E00E94380881E0DB
:100E6000089581E008950C94040708950C943507C3
:100E70001F93CF93DF9300D000D01F92CDB7DEB782
:100E800049835A836B833091740289819A8131112D
:100E900014C0662359F0222349F00E94DF28182F3E
:100EA000682F89819A810E94862803C00E94B228F7
:100EB000182F69817A81812F04C00E94DF286981FF
:100EC0007A810F900F900F900F900F90DF91CF913C
:100ED0001F910C94D108FC01262F40815181628121
:100EE000738184810C943807CF93DF93EC0160E029
:100EF0000E946B07BE01DF91CF910C943607FF92E1
:100F00000F931F93CF93DF93E82FF0E0EB54FC4F48
:100F1000F490C82FC695C695C695D0E0FE01EB5B50
:100F2000FB4F0491877010E0082E02C015950795BD
:100F30000A94E2F701701127FE01EB5CFB4FC491AC
:100F4000D0E002C0D595C7958A95E2F7C170DD273C
:100F50000115110519F081EE0E94C01F209719F0AC
:100F600086EE0E94C01F8F2D0E94C120CD2B19F04C
:100F700086EE0E946220012B41F081EEDF91CF913D
:100F80001F910F91FF900C946220DF91CF911F91E0
:100F90000F91FF900895EF92FF920F931F93CF93BD
:100FA000DF938C01F62E8AE0E82EF80184918823E5
:100FB00009F457C0813009F042C0E8012196FE01D2
:100FC0008491813031F42196FE0184910E94C120E8
:100FD00039C0823039F4E8012296FE0184910E94E2
:100FE000C01F30C0833039F4E8012296FE0184919D
:100FF0000E94622027C0843029F5E8012296FE0174
:10100000249180E090E030E0205331092A3031050E
:1010100060F4E89EA001E99E500D1124C901840FDF
:10102000951F2196FE012491EECF009759F0EFE92C
:10103000FFE03197F1F700C000000197F6CF0E9462
:101040007F07E8018E010F5F1F4F8F2D882309F462
:10105000ACCFEFE9FFE03197F1F700C0000081501D
:10106000F5CFDF91CF911F910F91FF90EF900895F1
:1010700060E00C94CB070E94282A811102C00E94D4
:10108000CA2A0E9424190C942C0B0C94280B089546
:101090000C94470881E008950C944A08CF93C82F18
:1010A0000E9448088C2F0E944C08CF910895089503
:1010B0000E9455230E9457082FEF84E39CE02150A3
:1010C00080409040E1F700C000000C94ED2B0F939E
:1010D0001F93CF93DF93EC0161E00E946B078C01BB
:1010E000BE010E943307882309F450C0BE01C80125
:1010F0000E948D18882309F449C0BE01C8010E94CE
:10110000AB1A882309F442C0BE01C8010E94FD1A2F
:101110008823E1F1BE01C8010E94281C8823B1F197
:10112000BE01C8010E94CE16882381F18A818823DE
:1011300031F101308CE5180751F00E3D8CE51807B0
:10114000D9F001151C45D9F40E9458081FC08091A0
:10115000EA02C82FC095C170C0FB80F98093EA02F3
:10116000CC2329F084EA93E00E944C060FC082E968
:1011700093E00E944C060BC00E94CA2A07C0CE0111
:10118000DF91CF911F910F910C943107C0E08C2F0C
:10119000DF91CF911F910F91089580E090E0089525
:1011A00008952CE3829FC0011124FC0126E0729F68
:1011B000E00DF11D1124E60FF11DEE0FFF1FE65C9F
:1011C000FE4F859194910895880F991FFC01EB5A69
:1011D000FB4F859194910895CF93DF930E94D1089E
:1011E0000E94FE09EC018115904508F043C0C1152D
:1011F00080E4D80708F0CBC0C03ED10528F5C03C3C
:10120000D10508F0B3C0C83AD10578F4C53AD10584
:1012100008F0A4C0C130D10509F4ECC008F4E8C05E
:10122000C430D10508F0E6C0E3C0CF3BD10508F0DB
:10123000DFC0C85AD0E0CC0FDD1FCB5CDE4F099079
:10124000D881C02DD464D6C0C11590E2D90750F41E
:10125000C11521E0D20708F0CDC0C83ED10508F481
:10126000C9C0C6C0C11580E3D80708F086C0CE014A
:101270009F707FC0C11595E5D90708F043C0C1151F
:1012800024E5D20708F09AC0C11582E5D80708F511
:10129000C11591E5D90708F07DC0CE0174E096959F
:1012A00087957A95E1F783709C2F937021E030E069
:1012B00002C0220F331F9A95E2F73C68382BCF709B
:1012C000C695C69580E2C89FE0011124C22BD32B9E
:1012D00091C09E01237033278C2F86958695C1156A
:1012E000D34508F05CC0C1E0D0E002C0CC0FDD1FE8
:1012F0002A95E2F720E2829FC0011124C82BD92B46
:10130000DC6878C0C11529E5D207A0F4C11588E5CD
:10131000D80708F058C0C11596E5D90708F068C08D
:101320008C2F0E94920A8F71C82FD0E0DC2FCC271F
:10133000D06260C0C1152AE5D20708F449C0CE01C9
:1013400090568115904208F053C08D2F8F710E94E6
:10135000920ADD27D0628F71D82B4CC0C55AD0E0DD
:10136000CD59DE4FC881D0E0D06444C0CE01805C4E
:1013700091090E94E408EC013DC0CE019927D3FFFA
:1013800003C0EC01D86C36C0EC01D06C33C0DF7008
:10139000D06A30C0DC2FCC27C16FD06A2BC0C1E02F
:1013A000D0E002C0CC0FDD1F2A95E2F720E2829F39
:1013B000C0011124C82BD92BDA681CC0DC2FCC2724
:1013C000C46FD06A17C0DC2FCC27C06FD06A12C0A0
:1013D0008C2F8F700E94920A94E0D695C7959A95AB
:1013E000E1F7CF70D0E0DC2FCC27D069C82B02C04A
:1013F000C0E0D0E0CE01DF91CF9108958238910511
:1014000069F1B0F48133910509F46DC048F4893273
:10141000910509F463C08A32910509F469C0089501
:101420008533910509F455C089339105B9F00895C4
:10143000833E910569F138F4803E9105B1F0823E1A
:10144000910509F10895863E9105A9F1873E910520
:10145000B9F1843E910509F064C023C020913D0399
:1014600020FD4FC021FD4DC0089580913D0380FDBA
:1014700044C080913E0380FF44C080913D0384FDC1
:1014800042C083EE4DC080913D0382FF38C0F5CF4E
:1014900080913D0382FD33C080913E0380FD31C0C9
:1014A000ECCF80913E0381FF32C080913D0384FDEB
:1014B0002AC087EE35C080913D0383FF26C0F5CF5B
:1014C00080913D0383FD21C080913E0381FD1FC0BB
:1014D000ECCF80913D0385FD1CC01DC080913D0374
:1014E00085FD19C016C080913D0386FD16C017C04A
:1014F00080913D0386FD13C010C089E311C082EEC8
:101500000FC080EE0DC080E00BC086EE09C084EEF7
:1015100007C089E205C085E303C08AE201C081E318
:1015200090E0089590913D0392FF0DC0282F2871FF
:10153000283019F4877F846006C0282F2471243056
:1015400011F48B7F886093FF0DC0282F28712831FC
:1015500019F4877E846106C0282F2471243111F488
:101560008B7E886120913E0320FF0DC0382F38719B
:10157000383019F4877F816006C0382F31713130DF
:1015800011F48E7F886021FF0DC0282F287128312B
:1015900019F4877E816106C0282F2171213111F451
:1015A0008E7E886194FD877E0895E82FF0E0ED5FE0
:1015B000FC4F80810895CF92DF92EF92FF920F93BC
:1015C0001F93CF93DF9384E694E00E944C0683E060
:1015D000E82E83E0F82EC0E0D0E09FE5C92E94E02D
:1015E000D92E07E514E0DF93CF93DF92CF920E94CC
:1015F000E5068CE594E00E944C06F70181917F019D
:101600000E94162A1F928F931F930F930E94E50644
:1016100085E594E00E944C0621968DB79EB708960A
:101620000FB6F8949EBF0FBE8DBFCA30D105D9F654
:10163000DF91CF911F910F91FF90EF90DF90CF90AE
:10164000089580EA8A95F1F7089508950C94250B82
:101650000C94260B0C94250B0C942A0B0895CF9315
:10166000DF930E94A20C80910401809104018111FA
:1016700002C095E001C090E090930E0385E0891BC5
:1016800080930D03ACE6B1E041E751E061E070E02A
:101690008D91E82FE295EF70F0E021A18F70EB01C2
:1016A00002C0CC0FDD1F8A95E2F7CE019C2F9095EA
:1016B000922391A392A1892B82A34A175B0741F73A
:1016C000A6E6B1E04CE651E061E070E08D91E82FD4
:1016D000E295EF70F0E021A18F70EB0102C0CC0F1A
:1016E000DD1F8A95E2F7CE019C2F9095922391A35E
:1016F00092A1892B82A34A175B0741F7E9EFF2E039
:10170000A3E0B3E083E093E011921D928E179F0750
:10171000D9F785E00E94490C0E943B08DF91CF91E8
:101720000C94B60C0E94850C882309F180910D035E
:1017300090E08D5F9C4F0E94E60C811114C0809157
:10174000F4018F5F8093F401863078F0E0910D030F
:10175000F0E0ED5FFC4F80E090E011920196853063
:101760009105D9F702C01092F4010C9445088091BC
:101770000E0390E08D5F9C4F0E94130D0C942E0B76
:101780006F927F928F929F92AF92BF92CF92DF9291
:10179000EF92FF920F931F93CF93DF938CE6882EE7
:1017A00081E0982E09EF12E09EEFA92E92E0B92E6B
:1017B000712CCC24C394D12CF40181914F01C82FFA
:1017C000C295CF70D0E099A18F70760101C0EE0C68
:1017D0008A95EAF7892F8E2989A38AA16E2C6094B5
:1017E00086218AA30E94210BE6E6F1E040E050E06A
:1017F00020E03191A32FA295AF70B0E090968C912C
:1018000090E03F7002C0959587953A95E2F780FD8C
:1018100007C08C2D042E01C0880F0A94EAF701C07E
:1018200080E0282B4F5F5F4F4630510511F789A1AB
:10183000682269A28AA1E82AEAA2F8018081281711
:1018400019F0208381E001C080E0782A0F5F1F4FEC
:10185000A016B10609F0B0CF60910E0370E06D5F85
:101860007C4F272D45E089EF92E00E944A0C0E94B0
:10187000920B872DDF91CF911F910F91FF90EF90E9
:10188000DF90CF90BF90AF909F908F907F906F90A0
:1018900008950895FF920F931F93CF93DF938C01C8
:1018A000F62ED72FC42F222349F081E08093F70131
:1018B0000E94AC2B9093F6018093F5018091F70183
:1018C0008823C1F08091F5019091F6010E94B82B18
:1018D000069780F0EF2DFD2FD8014C2F50E0CD0161
:1018E000801B910B841795071CF48D918193F7CF82
:1018F0001092F701DF91CF911F910F91FF90089502
:10190000809888988FB1817008958091F801811135
:1019100012C08091D80080618093D8008AE18A95B6
:10192000F1F700C08091D90080FD02C082E001C0C3
:1019300081E08093F80181E09091F801913009F005
:1019400080E008950E94800C80930401809104013E
:1019500066E0882311F080E001C086E00E94C50D9A
:101960000E94850C81110C94BD0C08950E94850C79
:10197000811102C00C94C30C089562E070E085E010
:1019800091E00C94B71C62E070E085E091E00C946B
:10199000C01C0E94C913882361F082E092E00E947B
:1019A000CF1381E090E00E94991D892B11F40C94D3
:1019B000CC13089580910102883039F460E082E010
:1019C00092E00E949E15109201020895CF93DF933A
:1019D000D82FC92F0E94C90C80E090E00E94991D69
:1019E000892BE9F4ED2FFC2F80E090E0DC01A5507D
:1019F000BE4F2C912193019685309105B9F70E9435
:101A00003D17882319F00E94411701C080E08093A0
:101A1000FA0180E092E00E94E01981E001C080E0DC
:101A2000DF91CF910895CF93DF93D82FC92F0E94D4
:101A3000DA0CED2FFC2F80E090E02191DC01A55025
:101A4000BE4F2C93019685309105B9F78091FA012C
:101A50000E94C21880E092E0DF91CF910C94D719D8
:101A6000EF92FF920F931F93CF93DF938B01682F19
:101A700011110AC0442329F0E82FF0E0E35BF64F90
:101A80006491762F862F75C0212F30E0E82FF0E08B
:101A9000442321F0E35BF64FE491F0E046E0049F3D
:101AA000C0011124CFEFD0E0BE010E94BB334BEA4E
:101AB0004603C001479F900D1124800F911D800F98
:101AC000911D982F990F890FAE01421B530B4E9F0A
:101AD000D0014F9FB00D5E9FB00D11249B2F189F1A
:101AE000A0011124452F55278E01041B150B0E9FB5
:101AF000A0010F9F500D1E9F500D11247E01E81A6A
:101B0000F108E29E8001E39E100DF29E100D11245B
:101B1000212F3327C21BD30BCE9F9001CF9F300DB7
:101B2000DE9F300D112462307105A9F048F4611573
:101B3000710569F061307105C9F48B2F752F0DC0E7
:101B40006430710581F058F06630710579F47E2FAC
:101B50008B2F932F0DC0832F7B2F9E2F09C08E2F8D
:101B60007B2F952F05C08E2F732F02C07E2F852FC0
:101B7000692FDF91CF911F910F91FF90EF90089502
:101B800041E00E94300D08950895E8E1F1E080837E
:101B900061830895CF93DF93762FE901682F842F17
:101BA0000E94C00D798368838A83DF91CF91089565
:101BB00080910F03282F269530E02115310519F467
:101BC0008170826005C02B32310524F081708465FC
:101BD00080930F03089588E090E00C94AD34CF9289
:101BE000DF92EF92FF926B017C010E94D80DB7014A
:101BF000A60188E090E0FF90EF90DF90CF900C94EA
:101C0000CB34EFE0F3E083E0808311828FEF8283B7
:101C100083831482A3E5B2E012968C9112978360BD
:101C200012968C9360817181828193810C94EF0D67
:101C30008091EA0280FF08C08BE997E09F938F9321
:101C40000E94E5060F900F908091EA0280FF0FC07E
:101C500080910F0381701F928F938EE797E09F937F
:101C60008F930E94E5060F900F900F900F90809138
:101C7000EA0280FF0FC080910F0386951F928F9319
:101C800083E697E09F938F930E94E5060F900F9055
:101C90000F900F908091EA0280FF0EC08091100398
:101CA0001F928F9389E497E09F938F930E94E5069C
:101CB0000F900F900F900F908091EA0280FF0EC05E
:101CC000809111031F928F938FE297E09F938F93E0
:101CD0000E94E5060F900F900F900F908091EA02FE
:101CE00080FF0EC0809112031F928F9385E197E0D1
:101CF0009F938F930E94E5060F900F900F900F9087
:101D00008091EA0280FF0EC0809113031F928F938F
:101D100089EF96E09F938F930E94E5060F900F90B6
:101D20000F900F90089580910F0380FF02C0869559
:101D3000089580E0089590911303933018F49F5F05
:101D400090931303882351F060910F037091100357
:101D500080911103909112030C94EF0D089581E08E
:101D60000C949B0E90911303992319F0915090932A
:101D70001303882351F060910F0370911003809139
:101D80001103909112030C94EF0D089581E00C94CF
:101D9000B20E70E00C9434196091190180910F0318
:101DA00080FF0AC08091180123E0829FC0011124A6
:101DB0008C5E9C4F0C94C90E80911A0190911B016E
:101DC000891780F7E82FF0E09F01220F331FE20F01
:101DD000F31FEC5EFC4F1182108212828F5FF0CFF6
:101DE00090910F0390FF16C090911A0120911B0152
:101DF000921770F4E92FF0E0DF01AA0FBB1FEA0F82
:101E0000FB1FEC5EFC4F8183608342839F5FF0CFBA
:101E10000C94CC0E0895CF93DF9300D01F92CDB7D2
:101E2000DEB790910F0390FF0AC09E012F5F3F4FD6
:101E30000E94CA0D4B8169818A810E94F00E0F9029
:101E40000F900F90DF91CF910895CF93DF93EC0126
:101E5000EC81F0E0E753F84F4491EFE0F3E062816A
:101E600081810E940B0F8C818F5F8C83DF91CF91DA
:101E70000895CF93DF93EC01EFE0F3E043816281BB
:101E80008C810E940B0F8C818F5F8C83DF91CF91AF
:101E900008950F931F93CF93DF9300D01F92CDB778
:101EA000DEB78C0180910A0281110AC09E012F5F6A
:101EB0003F4F4FEF6FEF0E94CA0D8A8180930A0255
:101EC000F8018481813051F028F0823061F4409132
:101ED0000A020AC080910A0240E007C060910A022B
:101EE00040E080E003C040E080E060E00E94F00E4F
:101EF000F801848190E0019663E070E00E94CF33A6
:101F000084830F900F900F90DF91CF911F910F91CD
:101F100008954F925F926F927F928F929F92AF92AD
:101F2000BF92CF92DF92EF92FF920F931F93CF93C6
:101F3000DF9300D01F92CDB7DEB7F82ED62EE42E59
:101F4000622E90910F0390FFC5C0E92FE695AE2F4A
:101F5000B0E0AA58BE4F8C91809353029E7F92307E
:101F600061F49E012F5F3F4F8F2D0E94CA0D4B8160
:101F700069818A810E94F00E62C0823019F4E0907B
:101F800012035DC0863019F4F090100358C08930F8
:101F9000D9F3893109F053C0E9518E2F8170782E21
:101FA00081E0C72CC826E695F0E0E753F74FA590EF
:101FB000B490412CBB249AE1892E95E0992E609132
:101FC0001C014616D0F5042D10E00A9DC0010B9DA2
:101FD000900D1A9D900D112470E00E94BB335F2C70
:101FE000711002C0560E01C0561A8091EA0280FF9D
:101FF00011C0BF92AF921F92CF921F925F921F9219
:102000004F929F928F920E94E5060FB6F894DEBF22
:102010000FBECDBF80911A01080F111D9801220F2C
:10202000331F020F131F98012C5E3C4F4E2D6D2D58
:10203000852D0E94CA0D4394C2CF0E94CC0E809180
:102040001003F81208C080911103D81204C08091C7
:102050001203E81629F080915502826080935502A0
:10206000F0921003D0921103E09212036620E9F07F
:1020700060910F03709110038091110390911203EE
:102080000E94EF0D8091EA0280FF24C0809112032C
:102090001F928F93809111031F928F938091100351
:1020A0001F928F9385EF94E00CC08091EA0280FF2D
:1020B00011C01F92EF921F92DF921F92FF928EEC3F
:1020C00094E09F938F930E94E5060FB6F894DEBFCD
:1020D0000FBECDBF0F900F900F90DF91CF911F914A
:1020E0000F91FF90EF90DF90CF90BF90AF909F90B7
:1020F0008F907F906F905F904F900895EFE0F3E0A6
:102100009181282F4381628188E0890F0C94890F87
:1021100081E00C947E10EFE0F3E09181282F438161
:10212000628188EF890F0C94890F81E00C948B10E9
:10213000EFE0F3E0628121E1620F08F46FEF282FF6
:10214000438181810C94890F81E00C949810EFE019
:10215000F3E0628121E1621B08F460E0282F4381F3
:1021600081810C94890F81E00C94A710EFE0F3E0DB
:10217000438121E1420F08F44FEF282F62818181D2
:102180000C94890F81E00C94B610EFE0F3E04381EA
:1021900021E1421B08F440E0282F628181810C94E8
:1021A000890F81E00C94C51021E00C94890F20E088
:1021B0000C94890FFF920F931F93CF93DF93EC0141
:1021C000F12C0FEF10E060911C01F616F0F48091F5
:1021D0001A012F2D30E0280F311DC901880F991FDA
:1021E000280F391F2C5E3C4F70E0C8010E94CF338E
:1021F000962F8C814091120360911103F99E800DFE
:1022000011240E94CA0DF394DECF0E94CC0E9A8155
:102210008C8190FF02C08F5F01C081508C83DF9161
:10222000CF911F910F91FF9008958F929F92AF923F
:10223000BF92CF92DF92EF92FF920F931F93CF93B3
:10224000DF93EC018A8180FF03C0BB24BA9402C0F3
:10225000BB24B3948C8181110DC081E0B81206C0FB
:1022600080911C01815080930C0202C010920C02DC
:1022700081E08C83A12C4CE0942E80911C01A81647
:1022800008F044C080911A01CA2CD12C8601080F95
:10229000111DC801880F991F080F191F0C5E1C4FD4
:1022A000F80111821082128234E0E32EF12C812C8D
:1022B00080910C02880D8D302CF0692D0E94AD3379
:1022C000892F05C087FF03C090911C01890F082E3C
:1022D000000C990BC816D90691F4809112038E9DBB
:1022E000A0018F9D500D1124559547955595479503
:1022F000980160911103809110030E94CA0D8B0C0C
:10230000F1E0EF1AF108A1F6A394B7CF0E94CC0E2A
:1023100080910C0291E0B9120EC0811107C080912A
:102320001C01815080930C021C820FC0815080934D
:102330000C02BC820AC090E0019660911C0170E022
:102340000E94CF3380930C028C83DF91CF911F9139
:102350000F91FF90EF90DF90CF90BF90AF909F9044
:102360008F9008951F93CF93DF93EC018C8181119F
:1023700009C081E08C8310920B0292E090931701C8
:102380008093160180911A0190911B01891770F4B6
:10239000E82FF0E09F01220F331FE20FF31FEC5EE6
:1023A000FC4F1182108212828F5FF0CF10E060919B
:1023B0001C011617C0F5E12FF0E070E0CF010E947C
:1023C000CF3320911A01820F20910B02022E000CB4
:1023D000330B90E0E217F307CCF020911701022EA7
:1023E000000C330B2E173F078CF09C01220F331F7C
:1023F000820F931F9C012C5E3C4F40911203609111
:102400001103809110030E94CA0D0BC0FC01EE0F56
:10241000FF1F8E0F9F1FFC01EC5EFC4F118210828C
:1024200012821F5FC4CF0E94CC0E809116012091B2
:102430000B02280F20930B0290911701980F909395
:10244000170119165CF4022E000C330B40911C018D
:1024500050E0415051092417350734F0819580939D
:102460001601813009F41C82DF91CF911F910895EC
:102470008F929F92AF92BF92CF92DF92EF92FF9294
:102480000F931F93CF93DF938C01FC014481C42FE2
:10249000D0E09E01DE010E9413349B01AC010E943A
:1024A00029346B017C01E0E2F0E0EC1BFD0BA5E5BB
:1024B000B0E09B01AC010E9429344B015C019F01FB
:1024C000DF010E940B349B01AC010E9434349B015C
:1024D000AC012C0D3D1D4E1D5F1DC501B4010E94B8
:1024E000E333C22FD22F2A3228F4F3E02F9F90013A
:1024F00011240DC025E530E02C1B3109C901880FDE
:10250000991F280F391F37FF02C02F5F3F4F3595A6
:102510002795C22FC095F12C85E5E82EED1A809104
:102520001C01F816C8F4F1FC02C08E2D01C08D2FDD
:1025300090911A012F2D30E0290F311DA901440F70
:10254000551F240F351F2C5E3C4F4C2F60911103FB
:102550000E94CA0DF394E3CF0E94CC0EF80184814F
:10256000811102C091E003C0803219F49FEF909373
:10257000150190911501890FF8018483DF91CF91A6
:102580001F910F91FF90EF90DF90CF90BF90AF9091
:102590009F908F9008950F931F93CF93DF93EC013B
:1025A00000E010E080911C01282F30E00217130793
:1025B00024F590911A019801290F311DA901440FAA
:1025C000551F240F351F2C5E3C4F869590E04C81A3
:1025D000081719071CF4442331F002C0411103C04D
:1025E0004091120301C040E06091110380911003FB
:1025F0000E94CA0D0F5F1F4FD5CF0E94CC0E8C8159
:1026000090E00196817099278C83DF91CF911F9183
:102610000F9108958F929F92AF92BF92CF92DF92C7
:10262000EF92FF920F931F93CF93DF93FC01B28041
:10263000948081E0848300E015E05BE4A52E88248B
:102640008394EE24EA94F12C7BE4C72ED12C809164
:102650001C01081708F08FC0C02FD0E01C9FF001AC
:102660001D9FF00D1124E05FFD4F911003C01382F8
:10267000128267C02381222389F121502383348170
:10268000332319F09A2D921B01C0922F80911203CF
:102690001C9FF0011D9FF00D1124E05FFD4F899FED
:1026A000C0011124B6010E94BB336283211104C012
:1026B000332311F01482A38222E02B1508F441C0C9
:1026C0001C9FF0011D9FF00D1124E05FFD4F8091D4
:1026D0001003808380911103818333C00E9488346A
:1026E0008230914074F582E08B1530F40E9488347A
:1026F000B7010E94CF3302C0809110031C9FF001EC
:102700001D9FF00D1124E05FFD4F808322E02B150B
:1027100058F40E948834209111032695622F70E0AE
:102720000E94CF33820F02C0809111031C9FF001E1
:102730001D9FF00D1124E05FFD4F81831282A38263
:10274000848280911A019E01280F311DC901880FD2
:10275000991F280F391F2C5E3C4F1C9FF0011D9FB5
:10276000F00D1124E05FFD4F4281618180810E9464
:10277000CA0D0F5F6CCFDF91CF911F910F91FF902A
:10278000EF90DF90CF90BF90AF909F908F900C9480
:10279000CC0E80915502089510925502089525E0BF
:1027A000EFE0F3E0DC0101900D922A95E1F7209132
:1027B00053023091540240915502FC012583368327
:1027C00047830895E3E5F2E0118282818460828389
:1027D000089560910F03669570E04BE050E08DE145
:1027E00091E00E949834892B19F481E0809354027F
:1027F0000E94AC2B90934D0280934C028091550225
:102800008460809355028091EA0280FF08C085EBC6
:1028100094E09F938F930E94E5060F900F90089588
:1028200010925402809155028460809355028091E9
:10283000EA0280FF08C08CE994E09F938F930E9486
:10284000E5060F900F90089590910F0390FF59C0E7
:102850009170811102C0926006C08B3210F09465B5
:1028600002C0880F982B90930F03809155028160CE
:10287000809355026623B1F060910F0370911003AD
:1028800080911103909112030E94EF0D8091EA0252
:1028900080FF1BC080910F0386951F928F938FE35B
:1028A00096E00BC08091EA0280FF0FC080910F0379
:1028B00086951F928F9381E296E09F938F930E945B
:1028C000E5060F900F900F900F9060910F036695A3
:1028D00070E04BE050E08DE191E00E949834892B4C
:1028E00019F00E94101402C00E94E91381E0809345
:1028F0004F024091120360911103809110030C94D8
:10290000D7100895682F90910F03969581E0890F55
:102910008B3208F081E00C94241481E00C94821432
:10292000682F90910F0396958FEF890F09F48AE233
:102930000C94241481E00C94901461E00C94241401
:1029400080910F03816080930F038091EA0280FFE2
:102950000DC01F9281E08F9383EB95E09F938F933F
:102960000E94E5060F900F900F900F9080910F033B
:1029700086950C949D1460E00C942414809152026E
:10298000811165C08091EA0280FF08C082EE96E066
:102990009F938F930E94E5060F900F908091EA021B
:1029A00080FF08C08CEC96E09F938F930E94E50611
:1029B0000F900F900E94282A811110C08091EA0286
:1029C00080FF08C084EA96E09F938F930E94E506FB
:1029D0000F900F900E94CA2A0E94010E0E94EB0DD8
:1029E00060930F037093100380931103909312036D
:1029F000809155028360809355026E7FC1F480916F
:102A0000EA0280FF08C08BE596E09F938F930E94B7
:102A1000E5060F900F900E94010E0E94EB0D60934F
:102A20000F037093100380931103909312030E947D
:102A3000D80D0E94180E0E94E21380910F0380FFB0
:102A400003C086950E94BB1481E0809352020895D2
:102A500080910F038E7F80930F0360910F0370911D
:102A6000100380911103909112030E94EF0D809149
:102A7000EA0280FF0FC080910F0381701F928F9335
:102A80008BE795E09F938F930E94E5060F900F9040
:102A90000F900F900E9410148091550281608093D6
:102AA00055022FEF80E792E0215080409040E1F7FF
:102AB00000C000000C94CC0E8091EA0280FF10C090
:102AC00080910F03809581701F928F938AEE95E01D
:102AD0009F938F930E94E5060F900F900F900F9099
:102AE00080910F0380FD0C9428150C94A014809104
:102AF0000F038E7F80930F038091EA0280FF0CC04A
:102B00001F921F9281E495E09F938F930E94E506A8
:102B10000F900F900F900F900E941014809155020B
:102B20008160809355022FEF80E792E02150804032
:102B30009040E1F700C000000C94CC0E1F93CF939F
:102B4000DF93EC01162F8F8180FF0FC0888180FFFB
:102B50000AC080910F03816080930F03888186955E
:102B60000E94241402C00E9477158F8181FF06C045
:102B7000212F4B816A8189810E94890F8F8182FF79
:102B800008C08E81882319F00E94E91302C00E94B8
:102B900010148F8183FF03C081E080934F02DF9187
:102BA000CF911F910895EF92FF920F931F93CF93B0
:102BB000DF9380915402882309F4CEC080915302A0
:102BC000E0910F03E695E81BE0934E02823049F452
:102BD000F0E0EB53F84FE491CE2FD0E005E21FE098
:102BE00059C0863049F4F0E0EE53F84FE491CE2F0F
:102BF000D0E009E31FE04EC0893051F4E695F0E0E3
:102C0000E154F84FE491CE2FD0E00AED10E142C03C
:102C10008F3051F4E695F0E0E454F84FE491CE2F74
:102C2000D0E005E111E136C0853149F4F0E0E75428
:102C3000F84FE491CE2FD0E002EB11E12BC08831A8
:102C4000D9F0833239F4E7EBF7E0C591D49109E488
:102C50001FE020C08432A9F08532C1F48E2F63E0DA
:102C60000E94A133E92FF0E0EC54F84FE491CE2F0D
:102C7000D0E00AE013E10EC0C8E2D0E008E312E1C0
:102C800009C0C4EFD1E00BEC12E104C0C0EDD7E005
:102C900004EC1DE080914F02882389F010924F02CE
:102CA0000E94AC2B9E0120953095820F931F90932C
:102CB0004D0280934C02109251021092500280916A
:102CC0004C0290914D020E94B82B8C179D0708F47E
:102CD00043C080910F02882311F110920F0280915E
:102CE0000D0290910E020E94B82B80339547B8F0E8
:102CF0000E94AC2B90930E0280930D028091EA0209
:102D000080FF08C083E794E09F938F930E94E506BD
:102D10000F900F9080915502886080935502E0904B
:102D20005002F0905102E0914C02F0914D02CE0F12
:102D3000DF1FD0934D02C0934C028CE492E0F80167
:102D400009958091500290915102892B29F4EF2826
:102D500019F081E080930F02DF91CF911F910F91C5
:102D6000FF90EF900895882311F0FA0101C0FB0154
:102D70000994CF93DF93C82FD62F0E94930E8C1700
:102D800040F00E94930E8D1720F4DF91CF910C94A8
:102D90008D148C2FDF91CF910C949D141F93CF93A2
:102DA000DF93FB011281111163C0EC010E946029C5
:102DB0008272FE01E25CFC45E431F10508F057C087
:102DC000EA5AFF4F0C9405340E945C1551C04AE941
:102DD00054E16DE874E104C04DE854E16AE974E13E
:102DE0000E94B31645C045E950E168E870E1F8CFAC
:102DF00048E850E165E970E1F3CF43EB50E164EA64
:102E000070E1EECF44EA50E163EB70E1E9CF41EDD0
:102E100050E162EC70E1E4CF42EC50E161ED70E131
:102E2000DFCF46EC5EE06FEA7EE0DACF4FEA5EE0AD
:102E300066EC7EE0D5CF81E017C065E082E010C08F
:102E400068E086E00DC06EE089E00AC064E18FE0D2
:102E500007C067E185E104C088E106C062E289E15C
:102E60000E94B91605C083E20E949D1401C011E0C2
:102E7000812FDF91CF911F91089580913803817048
:102E800008958091380386958695869508950E94C9
:102E9000282A811102C00E94CA2A0E94592A8093BE
:102EA0003803282F26952695269530E026303105C3
:102EB00024F087708862809338038091380380FF04
:102EC00004C086958695869501C080E00C94C21852
:102ED00020913803822F869586958695482F50E05D
:102EE0004530510554F48F5F982F990F990F990F22
:102EF000822F8770892B80933803809138038160FB
:102F0000809338030E945D2A8091EA0280FF11C0FD
:102F1000809138038695869586951F928F9385E3D9
:102F200099E09F938F930E94E5060F900F900F906A
:102F30000F90809138038695869586950C94C218DB
:102F400080913803982F969596959695A1F0915E6D
:102F5000990F990F990F8770892B80933803887F79
:102F600091E009F490E08091380390FB80F9809320
:102F700038030E945D2A8091EA0280FF11C080918F
:102F800038038695869586951F928F938DE199E0FB
:102F90009F938F930E94E5060F900F900F900F90D4
:102FA000809138038695869586950C94C2188091F9
:102FB000380380FD1FC0816080933803813019F48D
:102FC00089E080933803809138030E945D2A8091C4
:102FD000EA0280FF08C085EF98E09F938F930E94DC
:102FE000E5060F900F90809138038695869586951B
:102FF0000C94C21808958091380380FF14C08E7F0E
:10300000809338030E945D2A8091EA0280FF08C005
:1030100082EE98E09F938F930E94E5060F900F90A9
:1030200080E00C94C2180895CF93C0913803C1700A
:103030008091EA0280FF0CC01F92CF9387E099E055
:103040009F938F930E94E5060F900F900F900F9023
:10305000CC2319F0CF910C94FB17CF910C94D71778
:1030600090913803892F8695869586958F5F8F710D
:103070009770863038F4880F880F880F892B8093DB
:10308000380302C09093380380913803887F91E021
:1030900009F490E08091380390FB80F98093380325
:1030A0000E945D2A8091EA0280FF11C0809138035E
:1030B0008695869586951F928F938EEC98E09F93C8
:1030C0008F930E94E5060F900F900F900F908091C4
:1030D00038038695869586950C94C218863008F03C
:1030E00085E0909138039770282F220F220F220F2E
:1030F000922B90933803987F21E009F420E090917F
:10310000380320FB90F9909338030C94C2180E9466
:103110006E18809138030C945D2A9C01FB0182811A
:10312000882349F12D3BFCE53F07C9F040F42B3BD8
:10313000ECE53E0769F02C3B3C4561F008952F3BE0
:103140009CE5390791F070F0203C3C4589F00895EA
:1031500085E001C080E00E94871880E008950E9409
:10316000A017FBCF0E946817F8CF0E941418F5CF64
:103170000E943018F2CF81E00895269A2E98089583
:103180002E980895CF92DF92EF92FF92CF93C82F9F
:10319000863050F4811109C0809180008F7D80932A
:1031A00080000E94C01806C0C5E080918000806247
:1031B000809380002C2F30E0AFEFBFEF0E941334DC
:1031C00025E030E040E050E00E94E333C9012C37B5
:1031D00064E1360728F469E070E00E94BB3329C03F
:1031E000DA01C9018A50974DAF4FBF4F6627782F3C
:1031F000892F9A2F25EF38E241E050E00E94E33317
:1032000069017A01CA01B9010E9491339B01AC01A5
:10321000C701B6010E949133BB27A92F982F872F92
:10322000009721E0A207B10511F0BC0102C06FEFC9
:103230007FEF70938B0060938A00CF91FF90EF90A7
:10324000DF90CF90089508950E94BD1882E2809388
:10325000800089E1809381008FEF9FEF909387003A
:10326000809386000C944717879A21B32F7731B348
:1032700030684FB7F894FC01CB01880F991F680F95
:10328000791F6E0F7F1FE617F70789F0819198E08D
:1032900031BB000000C087FF21BB880F000000C0C9
:1032A00000C000C021BB00C09A9591F7ECCF4FBF82
:1032B0008FE594E00197F1F700C0000008950895AC
:1032C0000C945F1925982D9A27982F9A83B185FB26
:1032D000882780F923B130E0220F232F221F330BE0
:1032E000232B11F490E001C092E0892B80935B02C4
:1032F0009091040181E0982790935702891B809355
:1033000056020895CF93E0915B02EE0FEE0FE0932B
:103310005B0223B125FB882780F990E023B130E0E0
:10332000220F232F221F330B2115310511F022E02C
:1033300030E0822B932B8E2B80935B02C09157023F
:103340008F70E82FF0E0EF55FE4F908180915A0288
:10335000890F80935A0284306CF0EC2F0C2E000CF5
:10336000FF0BE85AFD4F80818F5F808360E08C2FD8
:103370000E94601980915A028D3F6CF4EC2F0C2E44
:10338000000CFF0BE85AFD4F80818150808361E083
:103390008C2F0E94601980915A02837887FF03C0A6
:1033A00081508C6F8F5F80935A02CF910895E09186
:1033B0005702F0E0E85AFD4F2081FC012083089578
:1033C000FF920F931F93CF93DF93D09156020D2F4F
:1033D00010E0085A1D4FFC01C081F8018081C81B14
:1033E000FC2E1F1454F4FA94F80180818F5F8083BF
:1033F00060E08D2F0E946019F4CF8C2FC7FD80E014
:10340000C81BCC2351F0CF5FF801808181508083AD
:1034100061E08D2F0E946019F4CFDF91CF911F9151
:103420000F91FF900895AF92BF92CF92DF92EF92EB
:10343000FF920F931F93CF93DF937C015B01C42F07
:10344000D22FFC0182818823F9F040935E020E9412
:10345000AC2B90935D0280935C0280E28C0F8830ED
:1034600008F06EC0C77081E001C0880FCA95EAF706
:10347000DF91CF911F910F91FF90EF90DF90CF9050
:10348000BF90AF900C94D42080915E02481335C059
:1034900080915C0290915D020E94B82B6C01B70193
:1034A000C5010E944826C816D90638F510E21D0F3E
:1034B000CD17B9F080E28C0F883040F4C77081E0FE
:1034C00001C0880FCA95EAF70E94DB20183058F532
:1034D00081E09D2F977001C0880F9A95EAF70E94AE
:1034E000D420802F0E94C120183050F5D77081E081
:1034F00001C0880FDA95EAF70AC080E28C0F8830A5
:10350000F8F4C77081E001C0880FCA95EAF7DF912F
:10351000CF911F910F91FF90EF90DF90CF90BF90D0
:10352000AF900C94DB20802FDF91CF911F910F91F2
:10353000FF90EF90DF90CF90BF90AF900C94C120A0
:10354000DF91CF911F910F91FF90EF90DF90CF907F
:10355000BF90AF9008950F939C01CB01233F4CE5A2
:10356000340731F188F4283DFCE53F07D9F0293DC7
:103570004CE5340779F1273D3C45A9F506E221EEFB
:1035800041EE67ED7CE52BC0253FFCE53F07E1F010
:10359000A8F0263F3C4539F507E225EE46EE66EFFA
:1035A0007CE51DC007E225EE45EE68ED7CE517C021
:1035B00006E221EE40EE63EF7CE511C007E225EE66
:1035C00044EE64EF7CE50BC006E221EE42EE65EFCF
:1035D0007CE505C008E221E045EE69ED7CE50E944E
:1035E000131A80E008C0FC018281882319F0109230
:1035F0005E0201C081E00F910895CF93DF93EC014B
:10360000FB018281882309F41FC1C230FCE5DF077A
:1036100008F41BC1C6319CE5D90738F09E012A5F2A
:103620003C452930310508F010C10E943B2A909397
:103630003E0380933D03C031ECE5DE0709F4C3C0CF
:1036400008F041C0C8308CE5D80709F49AC0F0F4FE
:10365000C430ECE5DE0709F487C068F4C2308CE5BD
:10366000D80709F477C0C330DC4509F0E3C0809186
:103670003D03826076C0C630ECE5DE0709F46EC01B
:1036800008F07BC080913D0388606BC0CC308CE536
:10369000D80709F485C068F4CA30ECE5DE0709F400
:1036A00074C008F079C00E94552380913D03806862
:1036B00058C0CE308CE5D80709F476C008F07FC03A
:1036C00080913D038BC0CB3FECE5DE0709F44FC092
:1036D00018F5C3318CE5D80709F47DC078F4C13101
:1036E000ECE5DE0709F473C0C231DC4509F0A2C085
:1036F0000E94552380913D038F7733C0C5318CE5FF
:10370000D80709F472C008F486C0CA3FDC4509F046
:1037100091C080913E033EC0CF3FFCE5DF0709F436
:103720005FC058F4CD3F9CE5D90709F444C008F4C4
:103730003FC080913E0382602DC0C130FDE5DF07B0
:1037400009F475C008F45DC0C230DD4509F072C0EF
:1037500080E06EC080913D03816003C080913D0395
:10376000806180933D0366C080913D0311C08091CC
:103770003E03826080933E035DC080913D03806282
:10378000F0CF80913D038064ECCF80913D03886051
:103790008460E7CF8160EECF80913D038E7FE1CFE3
:1037A00080913D038D7FDDCF80913D03877FD9CF11
:1037B00080913E0318C080913E038D7FDBCF8091C6
:1037C0003D038F7ECECF80913D038F7DCACF809108
:1037D0003D038F7BC6CF80913D03877F8B7FC1CF19
:1037E00080913E038D7F8E7FC5CF80913D0382FB0C
:1037F000222720F991E0922790FB82F990FB83F930
:10380000B0CF80913E03982F909591708E7F892B39
:1038100090FB81F9AFCF0E94552380913D0387FB38
:10382000222720F991E0922790FB87F99ACF81E037
:103830000E94CC2A80913D0390913E030E944C2A25
:103840000E94552380E001C081E0DF91CF9108956F
:10385000CF93DF9386319C4541F5EB010E946029AF
:10386000982F8A812091280130912901882379F0AD
:103870009A7A81E009F480E080935F02911102C09E
:1038800069E201C065E3C9010E94132B0AC080915F
:103890005F02811102C069E201C065E3C9010E94B3
:1038A000152B0E94AE2980E001C081E0DF91CF910D
:1038B00008958EE1489B02C08150E1F7489BFECFFE
:1038C0000895589880E28A95F1F7589A0895FC0176
:1038D0002AE02A95F1F790E020E080E031E0261719
:1038E00079F040E14A95F1F7880F489B02C081606A
:1038F000932700C0000040E14A95F1F72F5FEFCF1A
:1039000020E12A95F1F729B100C0000030E13A9595
:10391000F1F7217092272081920F90830895EF9202
:10392000FF920F931F93CF93DF931F92CDB7DEB714
:1039300019828C017C01E60EF11C0E151F0559F051
:103940000E94591C68E0CE0101960E94671CF80194
:1039500081938F01F2CF81E09981911180E00F90E6
:10396000DF91CF911F910F91FF90EF900895909369
:1039700062028093610260936002509A589A08959F
:103980009093620280936102609360025098589A0B
:10399000E89AE9E6F0E080818C7F808308956150A9
:1039A00091E001C0990F6A95EAF720E031E0992390
:1039B00061F0492F482319F0589A232701C05898DD
:1039C00040E24A95F1F79695F2CF222311F0589AEA
:1039D00001C0589880E28A95F1F758980895FF92AF
:1039E0000F931F93CF93DF93EC018C01060F111DF2
:1039F000C017D10741F0F9900E94611C68E08F2D3B
:103A00000E94CF1CF5CFDF91CF911F910F91FF90B6
:103A100008951F920F920FB60F9211240F931F93C8
:103A20002F933F934F935F936F937F938F939F93C6
:103A3000AF93BF93EF93FF93CF93DF931F92CDB7D5
:103A4000DEB719820E94591C67E0CE0101960E94E0
:103A5000671C382F369536953695932F9695957029
:103A6000232F2570920F292F237096959695877096
:103A7000920F891348C08981811145C080916002ED
:103A8000831708F440C080E18A95F1F7589A509A5C
:103A9000A2E0AA95F1F700C00091610210916202C4
:103AA000B8E03B9F000D111D11245898F801658165
:103AB000662321F0868197810E94EF1C0E94611C81
:103AC000F0E1FA95F1F758985098589A80E18A9564
:103AD000F1F7D80112966C911297662369F013964C
:103AE0008D919C9114970E948F1CD801ED91FC91AF
:103AF000811105C082E004C0D801ED91FC9188E0FD
:103B000080830E94591C0F90DF91CF91FF91EF911C
:103B1000BF91AF919F918F917F916F915F914F91E5
:103B20003F912F911F910F910F900FBE0F901F90FB
:103B300018950F931F93CF93DF932091600230E08D
:103B4000281739070CF471C09C0193E0220F331F32
:103B50009A95E1F7C0916102D0916202C20FD31F22
:103B6000F894509A589845E04A95F1F70000982F3C
:103B7000969595708570890F982F93708695869588
:103B8000890F8901082B0E94611C84E08A95F1F756
:103B900000C067E0802F0E94CF1C40E14A95F1F7FA
:103BA0005098589A489902C000C0FCCF87E090E036
:103BB000489B0EC0019751F4509A589AE881F981B8
:103BC00081E08083789481E090E031C000C0F0CF44
:103BD0006D81662381F08E819F810E948F1C8111EF
:103BE0000AC0509A589AE881F98182E080837894DB
:103BF00082E090E01CC00E94591C80E28A95F1F797
:103C00005898509A40E14A95F1F76A81662321F06D
:103C10008B819C810E94EF1C0E94611CE881F981CC
:103C20001082789480E090E002C084E090E0DF9120
:103C3000CF911F910F91089590936802809367022E
:103C40000895E0916702F0916802309721F00190A9
:103C5000F081E02D099480E00895EF92FF920F9398
:103C60001F93CF93DF93E0916702F0916802309742
:103C7000B1F18C010280F381E02D09958091EA0277
:103C800082FF2DC080FF04C085E59AE00E944C06AB
:103C9000E80118E08FE4E82E8AE0F82E8091EA022D
:103CA00080FF0BC088811F928F93FF92EF920E943A
:103CB000E5060F900F900F900F9011502196111163
:103CC000EDCF8091EA0280FF0AC08DE49AE0DF9197
:103CD000CF911F910F91FF90EF900C944C06DF91C4
:103CE000CF911F910F91FF90EF9008952091650261
:103CF000309166022817390771F09093660280931D
:103D00006502E0916702F0916802309721F0068029
:103D1000F781E02D099408952091630230916402A7
:103D20002817390771F09093640280936302E09141
:103D30006702F0916802309721F00084F185E02D50
:103D40000994089585B7806885BF85B7806885BF69
:103D5000089508950C94A91E0C94AA1E0C94A91EF3
:103D60000C94A91E0E94A21E0E94AE1E0C94AC1EB2
:103D70000C94850C0E94A32B0E942F0B0E94112CE7
:103D80000E9447170E94BE140E9462190C94B01E34
:103D9000CF93C82F8091EA0282FF1EC080FF04C02B
:103DA0008EE69AE00E944C068091EA0280FF0CC0E9
:103DB0001F92CF9389E69AE09F938F930E94E50626
:103DC0000F900F900F900F908091EA0280FF04C037
:103DD00087E69AE00E944C068C2FCF910C944E08F7
:103DE000AF92BF92CF92DF92EF92FF920F931F9309
:103DF000CF93DF93CDB7DEB72A970FB6F894DEBF27
:103E00000FBECDBF0E94C00B0E94B81E811111C011
:103E10008FEF89838A831B820E94AC2B8160782F6D
:103E20009D838C8349815A816B818D810E948C1F77
:103E300040C08AE6A82E82E0B82E00E010E0C02E36
:103E4000802F0E94D50AE82EF501D1905F01D82677
:103E500031F40F5F1F4F0A30110589F7D9CF8091D8
:103E6000EA0281FD0E94DB0A80E0FF24F3949D2D8D
:103E70009F21D1F08E83CF82EF2081E009F480E092
:103E800088870E94AC2B8160782F9A8789874E8122
:103E90005F8168858A850E948C1FF801E659FD4F75
:103EA0008081F826F08205C08F5FFF0C8630F9F61E
:103EB000D0CF0E94D3150E9423190E9482190E941C
:103EC000211E909169028917B1F00E94211E8093F2
:103ED00069022A960FB6F894DEBF0FBECDBFDF9100
:103EE000CF911F910F91FF90EF90DF90CF90BF90F7
:103EF000AF900C94C81E2A960FB6F894DEBF0FBE82
:103F0000CDBFDF91CF911F910F91FF90EF90DF9088
:103F1000CF90BF90AF900895CF93DF93CDB7DEB72A
:103F20002B970FB6F894DEBF0FBECDBF4F835887D7
:103F300069877A878B87DE01119686E0FD011192F1
:103F40008A95E9F785E0FE01379601900D928A95F2
:103F5000E1F749815A816B817C818D819E810E942C
:103F60004B262B960FB6F894DEBF0FBECDBFDF9168
:103F7000CF910895FC01808191810E9421290895AB
:103F8000CF93882309F49CC0C82F8238C1F40E94C3
:103F9000211E81FD95C069E380912801909129013E
:103FA0000E94132B0E94AE292FEF81EE94E0215046
:103FB00080409040E1F700C0000069E319C08338F9
:103FC00001F50E94211E80FD7BC063E580912801E0
:103FD000909129010E94132B0E94AE292FEF81EEB0
:103FE00094E0215080409040E1F700C0000063E57C
:103FF00080912801909129010E94152BCF910C945A
:10400000AE298438C1F40E94211E82FD59C067E4A4
:1040100080912801909129010E94132B0E94AE29C2
:104020002FEF81EE94E0215080409040E1F700C0F6
:10403000000067E4DDCF8CEF8C0F813AD0F46C2F59
:1040400080912801909129010E94DD2A882349F05E
:104050006C2F80912801909129010E94152B0E94BC
:10406000AE296C2F80912801909129010E94132B79
:10407000C5CF80E28C0F883048F4C77081E001C062
:10408000880FCA95EAF70E946329B8CFEBE5EC0FD9
:10409000E33040F4F0E0E152FE4F808190E0CF91B8
:1040A0000C94761EC85AC73158F4EC2FF0E0EE0F8E
:1040B000FF1FEF54FE4F80819181CF910C948C1E95
:1040C000CF910895882309F45BC0682F823879F472
:1040D0000E94211E81FF54C069E3809128019091C4
:1040E00029010E94132B0E94AE2969E310C0833876
:1040F000B1F40E94211E80FF43C063E58091280136
:10410000909129010E94132B0E94AE2963E58091B2
:104110002801909129010E94152B0C94AE29843816
:1041200079F40E94211E82FF2BC067E48091280150
:10413000909129010E94132B0E94AE2967E4E7CFDA
:104140008CEF860F813A18F380E2860F883048F4AE
:10415000677081E001C0880F6A95EAF70E946929BB
:10416000DCCF8BE5860F833020F480E090E00C9468
:10417000761E685A673120F480E090E00C948C1E23
:104180000895CF93C82F0E94C01FC93349F42FEF61
:1041900087EE93E0215080409040E1F700C000009E
:1041A0008C2FCF910C946220882321F00E946329E8
:1041B0000C94AE290895882321F00E9469290C945B
:1041C000AE290895CF92DF92EF92FF920F931F9343
:1041D000CF93DF937C01062FC72FFC011581129529
:1041E0001F70D281D1110E9480290E9459298823F1
:1041F00099F0DD2389F08C2F807F803421F080E2DC
:10420000800F883048F082E00E94F8290E945929E6
:1042100091E0D82ED92601C0D12CCC2EC2948FE0AB
:10422000C8228C2D90E0FC01E659FF4F0C94053418
:104230008C2F807FCF70882311F0C295C07FDD2343
:1042400099F0CC2309F482C180E2800F883010F00D
:10425000011104C08C2F0E94632903C08C2F0E947F
:1042600073290E94AE2972C1802F0E946220CC2344
:1042700009F491C180E2800F883010F0011104C070
:104280008C2F0E94692903C08C2F0E9479290E94DB
:10429000AE2981C18C2F807FCF70803211F0C29502
:1042A000C07F002319F00130C9F022C0DD2371F076
:1042B000112341F0113031F40E9493298C2B0E947C
:1042C0009B2969C10E9493298C2B1DC0112319F0D1
:1042D000113009F460C10E94A42925C0DD2321F01A
:1042E000163008F058C10EC0153008F054C11BC07C
:1042F000DD2361F0112331F0F701858180FF26C1B4
:104300008F7085838C2F0E94D42045C1112359F0D2
:10431000093309F02CC1FFEF27EE83E0F150204074
:104320008040E1F722C18C2F0E94DB2034C18C2F0A
:1043300086958695837019F0813061F02CC1DD235C
:1043400021F0802F9C2F937002C080E090E00E94AB
:10435000761E29C1DD2321F0802F9C2F937002C08F
:1043600080E090E00E948C1E1EC18C2F837009F0AB
:1043700045C0D11114C1402F429546954770440F56
:10438000440F602F6F70862F90E0A0E0B0E0042E05
:1043900004C0880F991FAA1FBB1F0A94D2F704FFFD
:1043A00010C00FE010E020E030E004C0000F111F4B
:1043B000221F331F4A95D2F700951095209530950E
:1043C00003C000E010E09801C695C695C370BC011B
:1043D000CD01602B712B822B932BC23049F058F406
:1043E000C13019F00E949C27DAC00E948A27D7C0EA
:1043F0000E94AE27D4C00E948827D1C0DD2319F0C7
:104400008C2F817001C08695882309F4C8C0402F85
:10441000429546954770440F440F602F6F70862F6A
:1044200090E0A0E0B0E0042E04C0880F991FAA1FFE
:10443000BB1F0A94D2F704FF10C00FE010E020E089
:1044400030E004C0000F111F221F331F4A95D2F71E
:10445000009510952095309503C000E010E098017C
:10446000C695C695C370BC01CD01602B712B822B04
:10447000932BC23049F058F4C13019F00E946128E2
:104480008EC00E944F288BC00E94732888C00E9453
:10449000C22785C0CF70DD2339F08C2F0E94E8271A
:1044A000802F0E94D4207BC0802F0E94DB208C2F85
:1044B0000E94092874C0023F01F128F4003F41F036
:1044C000013FA1F03FC0033FF9F0043F39F13AC08A
:1044D000DD2341F0153008F05EC08C2F8F710E94F3
:1044E0002E2859C0163008F056C0F7CFDD2339F01A
:1044F0008C2F8F710E94E8274EC0DD23C9F38C2FCB
:104500008F710E94092847C0DD2329F08C2F8F71FD
:104510000E94D32740C00E94CE273DC0DD2349F032
:10452000CF718C2F0E94E82763E08C2F0E94E32933
:1045300032C081E00E94F829123068F182E00E94C6
:10454000F82929C0DD2331F0112391F2802F0E9438
:10455000C01F21C0112399F2093349F49FEFE7EE00
:10456000F3E09150E040F040E1F700C00000802F00
:104570000E94622010C04C2F4F70602FC7010E9414
:10458000CD080E94F9260FC04C2F4F70602FC70135
:104590000E94D00808C088EF8C0D843020F40E945F
:1045A000211E0E944E08DD20C9F00E94552980FD81
:1045B00015C0F70112820E944F290E94E827C70107
:1045C0000E940F230E944F29DF91CF911F910F91DD
:1045D000FF90EF90DF90CF900C940928DF91CF915E
:1045E0001F910F91FF90EF90DF90CF9008950F9360
:1045F0001F93CF93DF93EC01688179818A810E94B8
:104600002C298C010E9485280E947627B801CE01B2
:104610000E94E220DF91CF911F910F910895CF93D7
:10462000DF93EC01988189812B813C81232B31F030
:104630008F3F31F481E09F3F19F403C081E001C056
:1046400080E080FD19C0CE010E94670881110CC076
:104650000E945929882381F08A81882369F082E0A9
:10466000DF91CF910C94F829CE010E94F722CE0160
:10467000DF91CF910C947407DF91CF9108950E9440
:1046800080290E9490290E94AE2980E090E00E943B
:10469000761E80E090E00C948C1E80912801909111
:1046A00029010E94172B0C943F230E9470290C941F
:1046B0004D23E92FE295EF704E2F50E0FA0132972B
:1046C000EE30F105B0F4E658FF4F0C940534803F0E
:1046D00091F018F4883E68F40EC0843F51F40BC08A
:1046E000883E48F0813F29F406C093FB882780F973
:1046F000089580E0089581E008950E9421290E9494
:1047000059230895CF93DF9300D000D01F92CDB7E7
:10471000DEB70F900F900F900F900F90DF91CF9119
:104720000895CF93DF9300D000D000D0CDB7DEB78F
:1047300026960FB6F894DEBF0FBECDBFDF91CF91A6
:1047400008951F93CF93DF93C091750216E0809177
:104750007602C81799F0D0E01C9FF0011D9FF00D64
:104760001124E958FD4F4081518162817381848118
:1047700095810E9491232196C770E9CFDF91CF9157
:104780001F9108954091A7025091A8026091A9023B
:104790007091AA028091AB029091AC020C9491238B
:1047A000209175029091760256E02917A9F030E029
:1047B000529FF001539FF00D1124E958FD4F718174
:1047C000761306C07081781303C07281741306C01B
:1047D0002F5F3F4F2770E9CF80E0089581E0089573
:1047E0000F931F93CF93DF938091AC0282958F70CC
:1047F00009F05DC08091A902882309F458C0809116
:104800007502109176026091A7027091A802C09182
:10481000AA02D091AB0291E06F3F09F090E0292FFE
:1048200006E0811709F443C0209721F07F3F21F073
:1048300030E003C031E001C0322F90E030FD34C0E1
:10484000089FF001099FF00D1124DF01A958BD4F09
:1048500011963C911197371327C03C91361324C011
:1048600012963C91129731111FC013964D915C9195
:1048700014974C1B5D0B483C5105B0F48091AC0281
:104880008F7080618093AC02E458FD4F80818F70FF
:104890008061808387EA92E00E940F23DF91CF91AD
:1048A0001F910F910C94A12301968770BACFDF91CD
:1048B000CF911F910F9108958F929F92AF92BF92C7
:1048C000CF92DF92EF92FF920F931F93CF93DF93DC
:1048D000CDB7DEB761970FB6F894DEBF0FBECDBF80
:1048E0008C0185E0F801DE011D9601900D928A95FC
:1048F000E1F7D801DC901196EC9011971296CC90CC
:104900009091A7022091A8024091AA025091AB0277
:104910004115510531F02F3F31F481E09F3F19F4EB
:1049200003C081E001C080E080FD81C1F801838087
:10493000948087EAA82E82E0B82EF090A902B401F4
:10494000641B750BFF2009F418C18091AC02382F4D
:10495000307F683C710508F0D1C031118AC0E21285
:1049600014C0D91212C0FC2CC1100FC08F7080610E
:104970008093AC020E94C223C5010E940F23809144
:10498000AC02D80115968C936FC18114910439F053
:10499000BFEFEB1206C081E0DB1203C003C081E071
:1049A00001C080E080FD03C081E08C2502C080E072
:1049B00090E080FF10C04C2D6E2D8D2D0E94D023D5
:1049C000882349F087EA92E00E940F23E7EAF2E0A9
:1049D00086E0DF01A4C0892839F0BFEFEB1206C0E2
:1049E00081E0DB1203C003C081E001C080E080FDF4
:1049F00003C081E08C2502C080E090E0E82FE170E8
:104A0000BE2E80FF2CC04C2D6E2D8D2D0E94D023EC
:104A1000F82E811124C0DD86EE868D859E850E944C
:104A20002129292F22952F70223018F0243090F45C
:104A300005C09F7059F0811109C016C19F7031F0F7
:104A4000D80115969C91907F09F40EC1805E883044
:104A500008F40AC1C8010E940F23FB2C05C1FC2CDD
:104A6000CC2009F401C18091AC0281608093AC023A
:104A70005BC0E21206C0D91204C0C11002C0F80126
:104A8000A0C0DD86EE868D859E850E947D238823CD
:104A900079F1CC2069F12091AC02822F82958F7040
:104AA00090E0029774F08091A7029091A8029887F5
:104AB0008F8319869B868A862C87CE0107960E9453
:104AC0000F2386E0F801A7EAB2E001900D928A95E3
:104AD000E1F70E94F0230E94C2230DC0E21631F1DB
:104AE000DD86EE868D859E850E947D2381112DC0F9
:104AF000C8010E940F23FF24F394B6C03111EECFFA
:104B0000782D998A888A4D2D5E2D6C2D89890E9479
:104B1000822387EA92E00E940F2386E0D5011D924E
:104B20008A95E9F70E94C223F12C9EC0D912D8CFF2
:104B3000C110D6CFF8018583C8010E940F2386E0FB
:104B4000D5011D928A95E9F78FC0CC2089F220917A
:104B5000AC02822F82958F7090E002970CF4B1CF57
:104B60008091A7029091A8029A8389831B829D82DB
:104B70008C822E83CE010196A2CF683C710508F08D
:104B800047C0FC2CCC2009F4B3CFE21230C0D912BC
:104B90002EC02091AC0220FD21C0822F82958F7003
:104BA000482F50E041155105C9F0F80125834F30D9
:104BB000510541F08F5F982F9295907F822F8F70D3
:104BC000892B8583C8010E940F2386E0F801A7EA9C
:104BD000B2E001900D928A95E1F744C086E0F801B9
:104BE000A7EAB2E001900D928A95E1F73DC0DD861B
:104BF000EE868D859E850E947D23811162CF8091F6
:104C0000AC0281608093AC02C8010E940F232CC0CB
:104C1000782D998A888A4D2D5E2D6C2D89890E9468
:104C2000822386E0D5011D928A95E9F71BC0CC202E
:104C300009F45ECFDD86EE868D859E850E947D23FC
:104C4000F82E882309F454CF86E0F801A7EAB2E0F1
:104C500001900D928A95E1F787EA92E00E94BA1FCF
:104C60000E94F0230E94C2238F2D61960FB6F89404
:104C7000DEBF0FBECDBFDF91CF911F910F91FF908F
:104C8000EF90DF90CF90BF90AF909F908F9008955E
:104C900088EC90E008951F93CF93DF93CDB7DEB7F4
:104CA0002C970FB6F894DEBF0FBECDBF4F83588749
:104CB00069877A878B879C87CE0107960E945C2440
:104CC0008823D1F09F8188852A853B85232B31F06D
:104CD0008F3F31F481E09F3F19F403C081E001C0B0
:104CE00080E080FD47C04F81588569857A858B8536
:104CF0009C850E9491233EC086E0FE013796DE012E
:104D0000119601900D928A95E1F7FF81E8856A85F9
:104D10007B856115710531F0EF3F31F481E0FF3F94
:104D200019F403C081E001C080E080FD23C0209120
:104D3000760230E0C901019687709927409175028B
:104D400050E084179507F1F1F983EA837D836C8342
:104D500096E0929FD001939FB00D1124A958BD4FAA
:104D6000FE01319601900D929A95E1F780937602BB
:104D70000E94A12316E08091750290917602891716
:104D800071F1189FC001112489589D4F0E945C2425
:104D9000882329F1E09175021E9FF0011124E95842
:104DA000FD4F4081518162817381848195810E9490
:104DB00091238091750290E00196877099278093E6
:104DC0007502D9CF0E945523109276021092750277
:104DD000E7EAF2E086E0DF011D928A95E9F72C967A
:104DE0000FB6F894DEBF0FBECDBFDF91CF911F91FC
:104DF0000895EF92FF920F931F93CF93DF938C014F
:104E0000892B09F46CC0F12CEE24E394E80121967F
:104E1000F8018491843740F4843008F051C0813027
:104E200081F0823019F15BC0853709F444C0A8F1E4
:104E30009CE7980F903708F052C08F770E9462204D
:104E400041C00E5F1F4FFE01849190E2980F983091
:104E500050F48770FE2D01C0FF0F8A95EAF78F2F5F
:104E60000E94832914C00E94C01F2DC00E5F1F4FD7
:104E7000FE01849190E2980F983060F48770FE2DC7
:104E800001C0FF0F8A95EAF78F2F0E9489290E949F
:104E9000AE2919C00E94622016C00E5F1F4FFE018E
:104EA000C491CC2381F08FE99FE00197F1F700C016
:104EB0000000C150F6CF0E5F1F4FFE01F49003C0FB
:104EC0000E94C01F8E018F2D882309F49FCFEFE928
:104ED000FFE03197F1F700C000008150F5CFDF917E
:104EE000CF911F910F91FF90EF900895089508952D
:104EF0000C9477270C9478270E947A276093D90224
:104F00007093DA028093DB029093DC020C943F23CF
:104F10000C947C270F931F930091D9021091DA0211
:104F20002091DB023091DC02602B712B822B932BC2
:104F30001F910F910C947C270F931F930091D9021E
:104F40001091DA022091DB023091DC0260237123A0
:104F5000822393231F910F910C947C270F931F930F
:104F60000091D9021091DA022091DB023091DC022B
:104F700060277127822793271F910F910C947C271C
:104F80000C9477270E94C0276093D5027093D602B5
:104F90008093D7029093D8020C943F2360E070E096
:104FA000CB010C94C2270F931F9341E050E060E0C7
:104FB00070E08A019B0104C0000F111F221F331FE4
:104FC0008A95D2F7C901B8011F910F910C94C2279D
:104FD0000F931F9341E050E060E070E004C0440F85
:104FE000551F661F771F8A95D2F78091D502909141
:104FF000D602A091D702B091D8028A019B01082B5A
:10500000192B2A2B3B2BC901B8011F910F910C942E
:10501000C2270F931F9341E050E060E070E004C0AE
:10502000440F551F661F771F8A95D2F740955095FC
:10503000609570958091D5029091D602A091D7028B
:10504000B091D8028A019B01082319232A233B230C
:10505000C901B8011F910F910C94C2270F931F93A0
:1050600041E050E060E070E004C0440F551F661F4F
:10507000771F8A95D2F78091D5029091D602A091A0
:10508000D702B091D8028A019B01082719272A2745
:105090003B27C901B8011F910F910C94C2270F93B0
:1050A0001F930091D5021091D6022091D702309122
:1050B000D802602B712B822B932B1F910F910C9494
:1050C000C2270F931F930091D5021091D602209111
:1050D000D7023091D80260237123822393231F913A
:1050E0000F910C94C2270F931F930091D50210913A
:1050F000D6022091D7023091D802602771278227EB
:1051000093271F910F910C94C2270895292F220FE6
:10511000920F990F890FE82FE695E695E69587702F
:1051200051E001C0550F8A95EAF785E0E89FF0014C
:105130001124E355FD4F20E030E070E04081CB01C9
:10514000022E02C0969587950A94E2F781708195A8
:1051500084278523842781932F5F3F4F2530310596
:1051600069F70895292F220F920F990F890F682F41
:10517000669566956695982F977085E0689FB00153
:10518000112440E050E080E0FB01E40FF51FE355FF
:10519000FD4F208130E0092E02C0369527950A94F4
:1051A000E2F721703327042E01C0220F0A94EAF798
:1051B000822B4F5F5F4F4530510531F70895BF9205
:1051C000CF92DF92EF92FF920F931F93CF93DF93D3
:1051D0008C01C090D502D090D602E090D702F0901A
:1051E000D8028091D9029091DA02A091DB02B091AD
:1051F000DC02C82AD92AEA2AFB2ACFE1D0E0D7016B
:10520000C6010C2E04C0B695A795979587950A946C
:10521000D2F780FD04C0219790F7B12C07C0BC2EB7
:10522000B8018C2F0E94EC080197A9F38B2DDF9118
:10523000CF911F910F91FF90EF90DF90CF90BF9093
:105240000895CF93DF93EC010E94DF28BE010E94F6
:10525000EC08DF91CF9108951F93CF93DF93EB017B
:1052600090917402992321F0CB010E94212913C04F
:10527000882349F0CB010E94DF28182F682FCE0128
:105280000E94862804C0CB010E94B228182FBE01BC
:10529000812F0E94EC08DF91CF911F91089580919A
:1052A000DD0285958595859508958091DD0287704D
:1052B00008959091DD02977081E009F480E00895EF
:1052C0008091E90208959091E902892B8093E90287
:1052D000089580959091E90289238093E9020895C9
:1052E0001092E90208959091E802892B8093E802D8
:1052F000089580959091E80289238093E8020895AB
:105300001092E80208959091E702892B8093E702BA
:10531000089580959091E70289238093E70208958C
:105320001092E70208958091DE02089508950C948A
:1053300096290C9497299091DE02981721F080937A
:10534000DE020C94992908958091DE02882329F0C9
:105350001092DE0280E00C9499290895E0912801D2
:10536000F09129018091E9028083E0912801F09178
:10537000290190818091E802892B8083E0912801A6
:10538000F091290190818091E702892B808380919F
:10539000DE02882381F0E0912801F09129019081BB
:1053A000892B808380912801909129010E94D12A24
:1053B00081110E94A42980912801909129010C94C7
:1053C0002D1E0C94962998E0899F90011124262B7C
:1053D0002093DD020E94E8278091DD028595859566
:1053E00085950C94E1291092DD0280E00C94E1296E
:1053F0002091DD02809582238093DD02982F9770A3
:1054000079F430E0482F082E000C550B241735078F
:1054100039F08595859585950E9409280C94F32986
:1054200008959093F3018093F20108958295982F47
:10543000937344E0949F900111248C7C869586950B
:10544000282B822F8575880F2A7A2695822B08951E
:1054500080E090E00E94B33421E08C3E9E4F09F042
:1054600020E0822F089582E090E00C94A53483E040
:1054700090E00C94A534CF9384E090E00E94A53492
:10548000C82F81E290E00E94A5342C2F30E0A901C2
:10549000582BCA01CF910895CF93C92F682F84E06C
:1054A00090E00E94B9346C2F81E290E0CF910C948F
:1054B000B93486E090E00C94A534682F86E090E043
:1054C0000C94B934AB01BC018FE090E00C94CB3468
:1054D000AB01BC0183E190E00C94CB3460E070E060
:1054E000CB010C94682A6CEE7EEF80E090E00E9485
:1054F000D73460E082E090E00E94B93460E083E05D
:1055000090E00E94B9341092D9021092DA021092FF
:10551000DB021092DC0260E084E090E00E94B9348B
:1055200060E081E290E00E94B93460E085E090E0C4
:105530000E94B93460E086E090E00E94B9346FEFD9
:1055400087E090E00E94B93440E050E0BA0188E082
:1055500090E00E94CB3460E08DE090E00E94B9348E
:1055600040E050E0BA0188E190E00E94CB3460E076
:1055700087E190E00E94B93440E050E0BA018CE14C
:1055800090E00E94CB3460E080E290E00E94B93469
:105590000C94EE060C94732A682F8EE090E00C9425
:1055A000B934FC01329697E080E0915029F02191C6
:1055B0002223D9F38F5FF9CF0895662349F0FC01C8
:1055C000329608962191621729F0E817F907D1F76A
:1055D00080E0089581E008959C01FC0132969FEFE0
:1055E00080E04191461789F09F3F19F4411101C0B5
:1055F000982F8F5F8630A9F79F3F39F0F901E90FA7
:10560000F11D97FDFA956283089508959C012A5F24
:105610003F4FFC014281461301C01282019682175E
:105620009307B9F708950C94EC2A0C94062B029674
:1056300026E0FC0111922A95E9F7089508950C944B
:105640001E2B0C941E2BCF930E94212B0E94C00B6B
:105650000E941F2BC0E08C2F0E94D50A811104C02C
:10566000CF5FCA30C1F701C081E0CF9108950C949B
:105670001E2B0C94372B0E94392B809143038430CE
:1056800061F11092EB0220E488E190E00FB6F8940B
:10569000A895809360000FBE2093600080E00E9478
:1056A000C21880E00E944E080E94392B83B7817F88
:1056B000846083BF83B7816083BF7894889583B704
:1056C0008E7F83BF0FB6F894A895809160008861A3
:1056D00080936000109260000FBE08950C941E2B02
:1056E0000E9455230E9447170E94211E0E944E08C7
:1056F0000C946E2B1F920F920FB60F9211248F9362
:105700009F93AF93BF938091EB02811113C080915F
:10571000390390913A03A0913B03B0913C03419629
:10572000A11DB11D8093390390933A03A0933B03CD
:10573000B0933C03BF91AF919F918F910F900FBE9B
:105740000F901F90189582E084BD93E095BD9AEF6D
:1057500097BD80936E0008952FB7F8948091390318
:1057600090913A03A0913B03B0913C032FBF089561
:105770009C014FB7F8948091390390913A03A0911E
:105780003B03B0913C034FBF821B930B0895789469
:105790001F920F920FB60F9211248F939F93AF9386
:1057A000BF938091390390913A03A0913B03B0914C
:1057B0003C030196A11DB11D8093390390933A03D8
:1057C000A0933B03B0933C03BF91AF919F918F9106
:1057D0000F900FBE0F901F90189581E08093E0000E
:1057E00080E28093D8001092C9008FE19EE4019777
:1057F000F1F700C0000087E090EBDC0180934C03E0
:1058000090934D03A0934E03B0934F039CE088E127
:105810000FB6F894A895809360000FBE9093600037
:10582000FFCF0E94282A811102C00E94CA2A0E942A
:10583000332A8093EA020E943B2A90933E0380938E
:105840003D030E94372A682F70E080E090E00E94BC
:1058500088276091D5027091D6028091D7029091ED
:10586000D8020C94C0278091F702089508959FB73D
:10587000F8941092EE029FBF90914303943009F088
:1058800057C09091E9009F703091EC00232F217058
:1058900030FD20E8922B23E02093E9002091EB00DB
:1058A00020FF43C02091EE0027FF3FC02091EC0273
:1058B000222321F02091E80025FF37C01092EC024E
:1058C00026E03091E80035FD15C0309143033430B7
:1058D00061F53091EB0035FD28C0215021F481E0C5
:1058E0008093EC0222C0EFE9FFE03197F1F700C0AE
:1058F0000000E7CF8093F1008091E80085FD0AC0A9
:105900008091E80080FFFCCF8091E8008E77809343
:10591000E80006C08FB7F89421E02093EE028FBF15
:105920009F709093E90080E008959F709093E90044
:105930008FEF0895CF93DF9300D01F92CDB7DEB7DE
:1059400090914303943019F589837B836A8382E0C5
:105950008093E9008FEF9091E800815095FD06C09B
:1059600095ED9A95F1F700008111F5CF8091E8004F
:1059700085FF0DC040E050E063E070E0CE0101968D
:105980000E94F42E8091E8008E778093E8000F90BB
:105990000F900F90DF91CF910895BC0184E00C949B
:1059A0009A2CBC0183E00C949A2CCF93DF9321E0D6
:1059B0002093E9002FEF3091E800215035FD06C01B
:1059C00035ED3A95F1F700002111F5CF2091E8006F
:1059D00025FF14C0EC0140E050E068E070E00E9458
:1059E000F42E8091E8008E778093E80088E0FE0135
:1059F000AFEEB2E001900D928A95E1F7DF91CF9181
:105A0000089586EA9AE00E944C0680914203811133
:105A100009C00E9485300E94E2308091E2008460DB
:105A20008093E200089582EA9AE00E944C06109268
:105A3000420308958EE99AE00C944C068AE99AE0B4
:105A40000C944C0686E99AE00E944C060C94702B4C
:105A50002091ED022F5F822F62E30E94A1339923F0
:105A600019F02093ED0208951092ED028091EE025C
:105A7000882371F180914303843041F58091E900DE
:105A80008F702091EC00922F917020FD90E8892B6F
:105A900093E09093E9009091EB0090FF14C09091F7
:105AA000EE0097FF10C09091E80095FF03C01092A0
:105AB000F100F9CF9091E80090FF05C09091E800C7
:105AC0009E779093E8008F708093E9001092EE0229
:105AD000089542E061EC81E00E94FE2F42E261EC19
