:100000000C94FF050C94941C0C9446060C94460624
:100010000C9446060C9446060C9446060C94460630
:100020000C9446060C9446060C94E6300C94B931B8
:100030000C946E2B0C9446060C9446060C944606C3
:100040000C9446060C9446060C9446060C94460600
:100050000C9446060C94B92B0C9446060C94460658
:100060000C9446060C9446060C9446060C944606E0
:100070000C9446060C9446060C9446060C944606D0
:100080000C9446060C9446060C9446060C944606C0
:100090000C9446060C9446060C9446060C944606B0
:1000A0000C9446060C9446060C94460601012D005D
:1000B000010138000101380001012D000101370064
:1000C00001013300010136000103E10101330102A6
:1000D000E10049001E001F002000210022002B002B
:1000E00014001A0008001500170029620400160009
:1000F000070009000A0008551C001B000600190033
:10010000050000000000E60004552C6144004C008E
:10011000270026002500240023004C0013001200B5
:100120000C0018001D002A002B5D0F000E000D00B2
:100130000B0028622C5D2A5D295D10001100000073
:100140000000025208552844055435001E001F00C7
:100150002000210022002B0014001A0008001500C6
:100160001700E10004001600070009000A00E00083
:100170001D001B00060019000500000000003A00E9
:10018000E2002C0029002A00270026002500240078
:1001900023004C00130012000C0018001C00340057
:1001A00033000F000E000D000B00E5003800370093
:1001B0003600100011000000000000520052E00064
:1001C000280049001E001F002000210022002B00F3
:1001D0003800295D2A5D13001C002962040012000A
:1001E000080018000C0008552D0014000D000E002A
:1001F0001B0000000000E60004552C6144004C0088
:10020000270026002500240023004C000F001500C5
:1002100006000A0009002A001600110017000B0052
:10022000070028621D0019001A00100005000000D8
:100230000000035208552844055449001E001F00C1
:100240002000210022002B001400070015001A00D6
:1002500005002962040016000B0017000A0008556B
:100260001D001B0010000600190000000000E60041
:1002700004552C6144004C00270026002500240072
:1002800023004C0013002B5D180009000D002A000C
:100290000C001200080011001C0028622C5D2A5D71
:1002A000295D0F000E00000000000152085528448F
:1002B000055401001E001F00200021002200010043
:1002C000250234022602510050000100310236029C
:1002D0002F022F002402010035022E0222022102E9
:1002E00031000000000001000100010001000100D8
:1002F00027002600250024002300010027003400E9
:10030000270252004F000100350037023002300052
:100310002E00010027001F0220021E0223020000FF
:100320000000010001000100010001003A003B0053
:100330003C003D003E00010046000100BD00BE0043
:1003400001000100440045004A004D006800010022
:100350006A006B006C006D006E0000000000010080
:100360000100010001000100430042004100400083
:100370003F0001000100A800A900AA00010001003F
:1003800069004F00520051005000010073007200DC
:100390004B004E006F000000000001000100010052
:1003A000010044454255473A2064697361626C65B7
:1003B000642E0A0044454255473A20656E61626CDE
:1003C00065642E0A0000000000000000002A2B28AF
:1003D000000000000000000000000000000000001D
:1003E00029000000002C1E34202122243426272539
:1003F0002E362D3738271E1F202122232425263371
:1004000033362E37381F0405060708090A0B0C0D72
:100410000E0F101112131415161718191A1B1C1D84
:100420002F3130232D350405060708090A0B0C0D62
:100430000E0F101112131415161718191A1B1C1D64
:100440002F3130354C00000000000000000000009B
:100450000000000000000000007E0F00D4FFFFFF3E
:10046000C7000000780A0025303862003A200025D5
:10047000303258000A722F6320303132333435362F
:10048000370A007267626C6967687420616E696D13
:100490006174696F6E207469636B207265706F722E
:1004A0007420746F20736C6176650A007267626CE9
:1004B000696768742074696D65722064697361622C
:1004C0006C652E0A007267626C69676874207469D3
:1004D0006D657220656E61626C65642E0A007267DC
:1004E000626C696768742073657420687376205B3A
:1004F0004E4F454550524F4D5D3A2025752C257580
:100500002C25750A007267626C69676874207365D0
:100510007420687376205B454550524F4D5D3A20FC
:1005200025752C25752C25750A007267626C696724
:100530006874207261696E626F77207365742068D9
:1005400073763A2025642C25642C25642C25750AA5
:10055000007267626C696768742064697361626CB9
:1005600065205B4E4F454550524F4D5D3A207267B6
:10057000626C696768745F636F6E6669672E656E2B
:1005800061626C65203D2025750A007267626C69A6
:100590006768742064697361626C65205B454550CF
:1005A000524F4D5D3A207267626C696768745F6391
:1005B0006F6E6669672E656E61626C65203D2025F1
:1005C000750A007267626C6967687420656E6162A3
:1005D0006C65205B454550524F4D5D3A2072676215
:1005E0006C696768745F636F6E6669672E656E61BC
:1005F000626C65203D2025750A007267626C696730
:10060000687420746F67676C65205B454550524F76
:100610004D5D3A207267626C696768745F636F6EE4
:100620006669672E656E61626C65203D2025750ADE
:10063000007267626C69676874206D6F6465205B27
:100640004E4F454550524F4D5D3A2025750A007278
:1006500067626C69676874206D6F6465205B4545EF
:1006600050524F4D5D3A2025750A007267626C69E1
:100670006768745F696E6974207267626C69676825
:10068000745F636F6E6669672E6D6F6465203D20D1
:10069000302E2057726974652064656661756C74CC
:1006A0002076616C75657320746F20454550524FFC
:1006B0004D2E0A007267626C696768745F696E69C3
:1006C00074206565636F6E666967206973206E6F5D
:1006D0007420656E61626C65642E0A007267626CDC
:1006E000696768745F696E697420737461727421DC
:1006F0000A007267626C696768745F696E6974206A
:1007000063616C6C65642E0A007267626C6967686D
:10071000745F636F6E6669672E7370656564203DF4
:100720002025640A007267626C696768745F636F92
:100730006E6669672E76616C203D2025640A007222
:1007400067626C696768745F636F6E6669672E7352
:100750006174203D2025640A007267626C696768D5
:10076000745F636F6E6669672E687565203D20252E
:10077000640A007267686C696768745F636F6E66AD
:1007800069672E6D6F6465203D2025640A007267DD
:10079000626C696768745F636F6E6669672E656E09
:1007A00061626C65203D2025640A007267626C6995
:1007B0006768745F636F6E66696720454550524F86
:1007C0004D3A0A0032190A00047F3F1F6432146454
:1007D0003214783C1E1E140A052223252628292AB5
:1007E0002C2D2F3032333536383A3B3D3E40424394
:1007F0004547494A4C4E5051535557595A5C5E60D3
:1008000062646668696B6D6F71737577797B7D7FE4
:1008100081838587898A8C8E90929496989A9C9EE3
:100820009FA1A3A5A7A8AAACAEAFB1B3B4B6B8B9FF
:10083000BBBCBEBFC1C2C3C5C6C7C9CACBCCCDCE67
:10084000D0D1D2D2D3D4D5D6D7D7D8D9D9DADADB4A
:10085000DBDBDCDCDCDCDCDDDDDDDDDCDCDCDCDCD6
:10086000DBDBDBDADAD9D9D8D7D7D6D5D4D3D2D215
:10087000D1D0CECDCCCBCAC9C7C6C5C3C2C1BFBEFD
:10088000BCBBB9B8B6B4B3B1AFAEACAAA8A7A5A368
:10089000A19F9E9C9A98969492908E8C8A89878527
:1008A00083817F7D7B79777573716F6D6B69686606
:1008B0006462605E5C5A5957555351504E4C4A49D8
:1008C00047454342403E3D3B3A3836353332302F80
:1008D0002D2C2A292826252322FFAA7F5540626134
:1008E000636B6C6967687420737465703A20257552
:1008F0000A006261636B6C69676874206469736184
:10090000626C650A006261636B6C6967687420657C
:100910006E61626C650A006261636B6C6967687422
:1009200020746F67676C653A2025750A0062616301
:100930006B6C696768742064656372656173653A9E
:100940002025750A006261636B6C696768742069B1
:100950006E6372656173653A2025750A00000101B6
:10096000010101010101010202020202020202026E
:10097000030303030303030304040404040404053E
:100980000505050506060606060707070707080802
:100990000808090909090A0A0A0B0B0B0C0C0C0DB3
:1009A0000D0D0E0E0E0F0F0F10101111111212134C
:1009B000131414151516161717181819191A1A1BC7
:1009C0001B1C1D1D1E1E1F20202122222324242526
:1009D0002626272829292A2B2C2D2D2E2F3031325F
:1009E00032333435363738393A3B3C3D3E3F40416F
:1009F00042434445464748494A4C4D4E4F50515357
:100A000054555658595A5B5D5E5F6162646566680D
:100A1000696B6C6D6F7072737577787A7B7D7E8091
:100A200082838587888A8C8E8F91939596989A9CDD
:100A30009EA0A2A3A5A7A9ABADAFB1B3B5B7BABCF1
:100A4000BEC0C2C4C6C9CBCDCFD1D4D6D8DBDDDFC2
:100A5000E2E4E7E9EBEEF0F3F5F8FAFDFF0A002532
:100A600030325820006B6579626F6172645F726525
:100A7000706F72743A20000A0025303258006B659E
:100A800079626F6172645F7365745F6C65643A204C
:100A9000005B735D004B6579626F617264207374F3
:100AA0006172742E0A005B575D005B535D005B5200
:100AB0005D005B445D005B435D00040330000000AB
:100AC00026034B0065006500620069006F0020008E
:100AD0004900720069007300200052006500760032
:100AE0002E002000320000000E034B006500650060
:100AF000620069006F0000000403090409025B0042
:100B0000030100A0FA09040000010301010009210A
:100B1000110100012240000705810308000A0904B1
:100B2000010001030000000921110100012232002F
:100B30000705820320000A090402000203000000E6
:100B40000921110100012222000705830320000171
:100B50000705030320000112011001000000081026
:100B6000CB56220002010203010631FF0974A101E4
:100B70000975150026FF0095207508810209761574
:100B80000026FF00952075089102C005010980A18B
:100B900001850319012AB700150126B700950175D3
:100BA000108100C0050C0901A101850419012AA0CA
:100BB00002150126A002950175108100C0050109EA
:100BC00006A101050719E029E7150025019508751B
:100BD0000181029501750881010507190029FF159A
:100BE0000026FF00950675088100050819012905F2
:100BF000950575019102950175039101C0001124BD
:100C00001FBECFEFDAE0DEBFCDBF04B603FE27C0C4
:100C100080912F0390913003A0913103B091320362
:100C20008730904BA740B04BD1F410922F03109215
:100C30003003109231031092320314BE84B7877FC1
:100C400084BF0FB6F894A895809160008861809366
:100C50006000109260000FBEE0E0F8E3099511E03B
:100C6000A0E0B1E0EEE9FAE602C005900D92AC3DDD
:100C7000B107D9F723E0ACEDB1E001C01D92AF326E
:100C8000B207E1F70E94202E0C9404350C9400006A
:100C9000FF93EF93E091DC01F091DD01309709F0D3
:100CA0000995EF91FF910895FC018591803011F035
:100CB000EFDFFBCF0895FF27E0E230E247FF0CC0F3
:100CC000419597FF09C0EDE26095709580959095EC
:100CD000611D711D811D911D27FF02C0219530E30B
:100CE00050E2AA27660F771F881F991FAA1FA41713
:100CF00010F0A41B63955A95A9F7AA3008F0A95FD4
:100D0000A05DAF93F395611571058105910541F7DC
:100D1000ED3211F4EF93F395F21718F43F93F39536
:100D2000FBCF8F91B5DFFA95E1F70895E991F9913D
:100D30008591803021F0853219F0AADFF9CF08952E
:100D400020E0E89455915532C1F3503311F4689482
:100D500055915A3348F4505390F3220F022E220F2C
:100D6000220F200D250FF4CF0EF421958991999132
:100D7000533619F3533729F1533559F1BC018827FC
:100D80009927E8945C3621F489919991689455915A
:100D9000543639F446EF7EF077FF0DC08FEF9FEFAA
:100DA0000AC055374AE039F0583540E121F0523653
:100DB00042E009F00895FF93EF937DDFEF91FF91FB
:100DC000B7CFFF93EF93FC0181918030B9F360DFDF
:100DD000FBCFFF93EF9368DFF1CFDF93CF93CDB7D6
:100DE000DEB72596A3DFCF91DF9108950E946718A3
:100DF00083E00E9414190E942E154FEF6FEF80E0E0
:100E00000E9442118BE00E942B1560E070E0CB0144
:100E10000E944E2A0C945A2A9C01FB012B328DE52C
:100E20003807E1F148F429328DE53807A9F02A3274
:100E30003D4521F181E008952C323D45D9F782816D
:100E40008823C1F3E0912801F0912901808181FF7D
:100E500035C080EB90E00CC08281882359F3E0918B
:100E60002801F0912901808181FF05C088EC90E084
:100E70000E946908DFCF84EC90E0FACF828188235A
:100E8000C9F2E0912801F0912901808181FF03C01E
:100E900080EC90E0EDCF8CEB90E0EACF828188236C
:100EA00049F2E0912801F0912901808181FF03C07E
:100EB00088EB90E0DDCF84EB90E0DACF8CEA90E035
:100EC000D7CF81E008950C940C0708950C94650722
:100ED0001F93CF93DF9300D000D00F92CDB7DEB732
:100EE00049835A836B833091970289819A813111AA
:100EF0001DC06623B9F02223A9F00E94AF28182F45
:100F0000682F89819A810E94582869817A81812F6E
:100F10000F900F900F900F900F90DF91CF911F9136
:100F20000C94F9080E948628182FEFCF0E94AF2852
:100F300069817A81EDCFFC01262F40815181628148
:100F4000738184810C946807CF93DF93D82FC92FC6
:100F500060E00E949B076D2F7C2FDF91CF910C9456
:100F60006607FF920F931F93CF93DF93E82FF0E074
:100F7000EB53FC4FF490C82FC695C695C695D0E0AC
:100F8000FE01EB5AFB4F0491877010E0082E02C05F
:100F9000159507950A94E2F701701127CB5BDB4F9B
:100FA000FE01C491D0E002C0D595C7958A95E2F7BD
:100FB000C170DD270115110519F081EE0E94351F62
:100FC000209719F086EE0E94351F8F2D0E940D206C
:100FD000CD2B19F086EE0E94BE1F012B41F081EE51
:100FE000DF91CF911F910F91FF900C94BE1FDF9165
:100FF000CF911F910F91FF900895EF92FF920F9361
:101000001F93CF93DF938C01F62E8AE0E82EF80130
:101010008491882309F456C0813009F04FC0E8015B
:101020002196FE018491813099F42196FE018491EC
:101030000E940D208E010F5F1F4F8F2D882339F3E3
:10104000EFE9FFE03197F1F700C000008150F6CFE3
:10105000823039F4E8012296FE0184910E94351F06
:10106000E9CF833039F4E8012296FE0184910E9491
:10107000BE1FE0CF8430F1F6E8012296FE012491F4
:1010800080E090E0FE0131962053330B2A30310589
:1010900050F0009779F2EFE9FFE03197F1F700C0E7
:1010A00000000197F6CFE89EA001E99E500D1124A3
:1010B000C901840F951F2491EF01E4CF0E94B1076D
:1010C000E801B8CFDF91CF911F910F91FF90EF9082
:1010D000089560E00C94FD070E94172A811102C058
:1010E0000E94B62A0E94C0190C94FF0A0C94020BAD
:1010F00008950C94780881E008950C947B08CF93B0
:10110000C82F0E9479088C2FCF910C947D080895E8
:101110000E94CD220E9487082FEF84E39CE021509B
:1011200080409040E1F700C000000C94DD2B0F934D
:101130001F93CF93DF93EC0161E00E949B078C012A
:10114000BE010E946307882371F1BE01C8010E949D
:101150001A19882341F1BE01C8010E94891A882307
:1011600011F1BE01C8010E94DE1A8823E1F0BE0120
:10117000C8010E94B61B8823B1F0BE01C8010E94BD
:101180006F17882381F08A81882341F101308CE533
:10119000180779F00E3D8CE51807E9F001151C459C
:1011A000E9F40E94880880E0DF91CF911F910F91B0
:1011B000089590910D03892F8E7F90FF8160809319
:1011C0000D0380FF05C084EB93E00E945406EBCF33
:1011D00082EA93E0FACF0E94B62AE5CFCE01DF91F2
:1011E000CF911F910F910C94610790E080E00895DA
:1011F0000895972F70E026E0929F600D711D1124D5
:10120000FB019CE3899FE00DF11D1124EE0FFF1FF0
:10121000EE52FF4F859194910895FC01EE0FFF1F50
:10122000EB59FB4F859194910895CF93DF930E94E2
:10123000F9080E94230AEC01811521E5920708F0C4
:101240003FC0811530E5930708F0B1C0803E91059D
:10125000E8F4803C910508F097C0883A910578F44D
:10126000853A910508F082C08130910521F00497FC
:10127000813A910540F4CE01DF91CF9108958F3BE3
:10128000910509F076C0D0E0C0E0F5CFC11580E34C
:10129000D80770F4C11520E2D20708F07BC0C83E21
:1012A000D10548F3CE019A9581159F4120F3EBCFEC
:1012B000C11580E4D80708F470C0DF70D06ADBCFB6
:1012C000811526E5920760F5811535E5930708F04D
:1012D000A2C0C11584E5D807F0F4C11523E5D207F3
:1012E00008F085C0C11532E5D30708F47BC09E0124
:1012F0002370332781E090E002C0880F991F2A9560
:10130000E2F7C695C69520E2C29FE0011124C82BE2
:10131000D92BDC68B0CFDC2FCC27C46FD06AABCF21
:1013200081153AE5930788F4C11589E5D80708F0D7
:101330007CC0CE0198558F3F910511F008F0A3CFE6
:10134000DC2FCC27C06FD06A96CF90568115904283
:1013500008F099CF8D2F8F710E94BB0A90E0982FD3
:10136000882788279F718C2BEC015DC0A497D064DF
:1013700082CFC85AD0E0CC0FDD1FCB5CDE4F099086
:10138000D881C02DD46477CF805C91090E940D096B
:10139000EC0171CFCE019F70F9CFCE019927D3FF19
:1013A00003C0EC01D86C67CFEC01D06C64CF9C011A
:1013B00074E0369527957A95E1F7237086958695A2
:1013C000837030E2839FC0011124922BC37021E00F
:1013D00030E002C0220F331FCA95E2F7822B932B15
:1013E000EC0197CFDC2FCC27C16FD06A44CF9E0190
:1013F0002370332781E090E002C0880F991F2A955F
:10140000E2F7C695C69520E2C29FE0011124C82BE1
:10141000D92BDA6830CF0E94BB0AC82FD0E0DC2F6E
:10142000CC27CC27DF71D06226CF8C2F8F700E9403
:10143000BB0A34E0D695C7953A95E1F7CF709C2F5B
:10144000EC01D06918CF803E910599F1C8F4813341
:10145000910509F476C048F48932910509F46AC00F
:101460008A32910509F474C0089589339105D1F049
:1014700082389105B9F08533910509F454C0089577
:10148000843E910599F138F4823E9105F9F0833E4E
:10149000910509F10895863E910599F1873E9105E0
:1014A000B9F10895209113032370A1F080EE90E02C
:1014B00008952091130320FD52C03091140330FF92
:1014C00009C024FF4FC090E080E004C020911303C6
:1014D00022FDF7CF08952091130322FD46C03091DD
:1014E000140330FDE3CF24FFF5CFEDCF209114039B
:1014F00021FFF0CF8091130384FDE5CF87EE90E0CC
:1015000008952091130323FFE5CF24FDDCCFF6CF10
:101510002091130323FD2CC03091140331FFE3CF3E
:1015200084EE90E008952091130325FFD3CF89E244
:1015300090E008952091130325FFCCCF85E390E040
:1015400008952091130326FFC5CF8AE290E0089505
:101550002091130326FFBECF81E390E0089589E335
:1015600090E0089583EE90E0089582EE90E0089573
:1015700086EE90E008959091130392FF06C0282F05
:1015800028712830F9F4877F846093FF06C0282FE4
:1015900028712831F1F4877E84612091140320FFA3
:1015A00006C0382F38713830D9F4877F816021FF29
:1015B00006C0282F28712831D1F4877E816194FDDF
:1015C000877E0895282F24712430F9F68B7F886058
:1015D000DCCF282F2471243101F78B7E8861DDCF89
:1015E000382F3171313019F78E7F8860E0CF282F86
:1015F0002171213121F78E7E8861E1CF08950C940D
:10160000FE0A08950C94010BE82FF0E0E252FE4F21
:1016100080810895CF92DF92EF92FF920F931F93F4
:10162000CF93DF9384E794E00E9454068EEDE82E7A
:1016300081E0F82ED0E0C0E09FE6C92E94E0D92EDC
:1016400007E614E0DF93CF93DF92CF920E94ED067E
:101650008CE694E00E945406F70181917F010E947C
:10166000032A1F928F931F930F930E94ED0685E626
:1016700094E00E94540621968DB79EB708960FB647
:10168000F8949EBF0FBE8DBFCA30D105D9F6DF9149
:10169000CF911F910F91FF90EF90DF90CF90089521
:1016A00080EA8A95F1F708950895CF93DF930E9419
:1016B000D00C809104018091040195E0811190E0AB
:1016C0009093F40185E0891B8093F301C9E6D1E092
:1016D0002EE631E041E050E08991E82FE295EF708D
:1016E000A1E2AE0FB0E09C918F70BA0101C0660F0D
:1016F0008A95EAF7862F809589238C93EE5DF0E03A
:101700008081862B80832C173D0731F7C3E6D1E01B
:1017100029E631E041E050E08991E82FE295EF7051
:10172000A1E2AE0FB0E09C918F70BA0101C0660FCC
:101730008A95EAF7862F809589238C93EE5DF0E0F9
:101740008081862B80832C173D0731F78AE0E8EEF5
:10175000F1E0DF01982F1D929A95E9F7EEEDF1E0A7
:10176000DF011D928A95E9F785E00E94790C0E94BD
:101770006C08DF91CF910C94E50C0E94B00C88238B
:10178000F9F08091F30190E082529E4F0E94150D76
:10179000811113C08091F2018F5F8093F201863036
:1017A00050F0E091F301F0E0E252FE4F85E0DF01FE
:1017B0001D928A95E9F70C9476081092F201FBCFFE
:1017C0008091F40190E082529E4F0E943E0D0C9455
:1017D000540B6F927F928F929F92AF92BF92CF9253
:1017E000DF92EF92FF920F931F93CF93DF9389E6DF
:1017F000882E81E0982E98EEE92E91E0F92E712C3A
:10180000AA24A394B12CF40181914F01C82FC29551
:10181000CF7001E20C0F10E0F80190818F7065012C
:1018200001C0CC0C8A95EAF7892F8C298083CE5D84
:10183000D0E088816C2C6094862188830E94500BB4
:10184000A3E6B1E030E020E040E05D91E52FE295D5
:10185000EF70E05EF0E0808190E05F7002C09595EF
:1018600087955A95E2F780FD40C08A2D022E01C06F
:10187000880F0A94EAF7482B2F5F3F4F2630310537
:1018800021F7F80180816822608288818C29888311
:10189000F7018081481759F1408381E0782AFFEFF2
:1018A000EF1AFF0A8EE6881681E0980609F0ABCFA2
:1018B0006091F40170E062527E4F272D45E088EE82
:1018C00091E00E947A0C0E94BD0B872DDF91CF9191
:1018D0001F910F91FF90EF90DF90CF90BF90AF904E
:1018E0009F908F907F906F90089580E0C4CF80E0AC
:1018F000D5CF0895FF920F931F93CF93DF93F82EC8
:10190000092F162FD72FC42F222349F081E080936F
:10191000F7010E949E2B9093F6018093F501809130
:10192000F7018823A1F08091F5019091F6010E94C2
:10193000AA2B069760F0EF2DF02FA12FBD2FCF011E
:101940008C0F911DE817F90741F41092F701DF9110
:10195000CF911F910F91FF90089521912D93F2CF78
:101960008091F801811110C08091D800806180932E
:10197000D8008AE18A95F1F700C09091D900917062
:1019800082E0891B8093F80181E09091F801913009
:1019900009F080E008950E94B00C91E08927089535
:1019A0000E94CB0C809304018091040166E088239F
:1019B00049F080E00E94FE0D0E94B00C882321F0C7
:1019C0000C94EC0C86E0F6CF08950E94B00C8111C7
:1019D00002C00C94F20C089562E070E085E091E0A2
:1019E0000C94411C62E070E085E091E00C944A1C8C
:1019F0000E943714882361F081E092E00E943D1438
:101A000081E090E00E94231D892B11F40C943A147C
:101A1000089580910002883039F460E081E092E01E
:101A20000E943E16109200020895CF93DF93D82FA4
:101A3000C92F0E94F80C90E080E00E94231D9C01B9
:101A400080E021153105A9F4ED2FFC2FD901A55017
:101A5000BE4F8C9181932F5F3F4F25303105B1F7F9
:101A60000E94DE17882341F00E94E2178093FA015A
:101A700081E0DF91CF91089580E0F8CFCF93DF939D
:101A8000D82FC92F0E94090DED2FFC2F90E080E088
:101A90002191DC01A550BE4F2C9301968530910514
:101AA000B9F78091FA01DF91CF910C945219AF925E
:101AB000BF92CF92DF92EF92FF920F931F93CF933B
:101AC000DF938B01282F111114C0442329F090E0DB
:101AD000835A964FFC018491682F782FDF91CF9124
:101AE0001F910F91FF90EF90DF90CF90BF90AF903C
:101AF0000895C12FD0E030E0442329F0235A364F17
:101B0000F901249130E0F6E00F9F70011124EFEF0E
:101B1000F0E0C701BF010E949733AB01802F90E036
:101B2000880F991FA5E5A49FB001A59F700D1124F2
:101B3000861B970B782F770F780FCF018C1B9D0B8F
:101B4000829FD001839FB00D929FB00D11246B2F07
:101B5000719FC0011124892F99278F01081B190B30
:101B6000C801829F8001839F100D929F100D112448
:101B7000812F5F01A71AB108AC9E6001AD9ED00C09
:101B8000BC9ED00C1124CD2CDD24EC19FD09E29F64
:101B9000E001E39FD00DF29FD00D1124722F43304E
:101BA0005105D1F09CEFE91693E0F90670F441304D
:101BB0005105B1F042305105B9F0EFEFEE16F104E6
:101BC00008F08CCF8B2F6D2F89CF4430510579F0E1
:101BD00046305105B9F382CF612F822F7B2F7ECF04
:101BE000622F712F8B2F7ACF8D2F622FF7CF822FFD
:101BF0007D2F74CF41E00C94570D0895E8E1F1E09A
:101C0000808361830895CF93DF93982F762F842F5D
:101C1000E901692F0E94FA0D798368838A83DF9135
:101C2000CF91089580917902982F9E7F29F4817039
:101C300082608093790208958635E8F38170846527
:101C4000F8CF88E090E00C94A5340F931F93CF93C6
:101C5000DF938B01D82FC92F0E94120EA8016D2F80
:101C60007C2F88E090E0DF91CF911F910F910C9431
:101C7000C334E9E7F2E083E0808311828FEF82834F
:101C800083831482E6E7F2E082818360828363E0EB
:101C900070E08FEF9FEF0C94250E80910D0380FF75
:101CA00076C08BEA97E09F938F930E94ED06809118
:101CB0000D030F900F9080FF6AC0809179028170B0
:101CC0001F928F938EE897E09F938F930E94ED066B
:101CD00080910D030F900F900F900F9080FF57C0D1
:101CE0008091790286951F928F9383E797E09F9367
:101CF0008F930E94ED0680910D030F900F900F902F
:101D00000F9080FF44C080917A021F928F9389E5E3
:101D100097E09F938F930E94ED0680910D030F90A3
:101D20000F900F900F9080FF32C080917B021F9226
:101D30008F938FE397E09F938F930E94ED0680919E
:101D40000D030F900F900F900F9080FF20C0809197
:101D50007C021F928F9385E297E09F938F930E945E
:101D6000ED0680910D030F900F900F900F9080FF64
:101D70000EC080917D021F928F9389E097E09F9320
:101D80008F930E94ED060F900F900F900F90089583
:101D90008091790280FF02C08695089580E00895C1
:101DA000CF93DF9300D000D0CDB7DEB790917D0206
:101DB000933018F49F5F90937D028823B1F0809157
:101DC000790290917A02A0917B02B0917C02898382
:101DD0009A83AB83BC83BC01CD010F900F900F9011
:101DE0000F90DF91CF910C94250E0F900F900F90D4
:101DF0000F90DF91CF91089581E00C94D00ECF9396
:101E0000DF9300D000D0CDB7DEB790917D0299234B
:101E100019F0915090937D028823B1F0809179025E
:101E200090917A02A0917B02B0917C0289839A837F
:101E3000AB83BC83BC01CD010F900F900F900F902E
:101E4000DF91CF910C94250E0F900F900F900F9073
:101E5000DF91CF91089581E00C94FF0E70E00C9417
:101E6000D019609119018091790280FF0AC0809198
:101E7000180123E0829FC0011124855B9D4F0C94C3
:101E80002E0F80911A0190911B0123E0829FF00197
:101E90001124E55BFD4F891750F7118210821282E1
:101EA0008F5F3396F8CF9091790290FF14C0909194
:101EB0001A0120911B0133E0939FF0011124E55B8F
:101EC000FD4F921710F00C94310F81836083428391
:101ED0009F5F3396F6CF0895CF93DF9300D00F9294
:101EE000CDB7DEB79091790290FF0FC09E012F5FB2
:101EF0003F4F0E94030E4B8169818A810F900F90A2
:101F00000F90DF91CF910C94530F0F900F900F9083
:101F1000DF91CF910895CF93DF93EC01EC81F0E056
:101F2000E752F84F4491E9E7F2E0628181810E9433
:101F30006C0F8C818F5F8C83DF91CF910895CF934D
:101F4000DF93EC01E9E7F2E0438162818C810E943A
:101F50006C0F8C818F5F8C83DF91CF9108950F93ED
:101F60001F93CF93DF9300D00F92CDB7DEB78C01D4
:101F70008091090281110AC09E012F5F3F4F4FEFF0
:101F80006FEF0E94030E8A8180930902F801648139
:101F9000613049F06230F1F08091090240E066233F
:101FA00031F040E019C06091090240E080E00E94F9
:101FB000530FF801848190E0019663E070E00E9485
:101FC000AB3384830F900F900F90DF91CF911F91CF
:101FD0000F9108954091090280E060E0E8CF4F92B0
:101FE0005F926F927F928F929F92AF92BF92CF92A9
:101FF000DF92EF92FF920F931F93CF93DF9300D066
:1020000000D000D00F92CDB7DEB7182FF62E042FD8
:10201000E22E9091790290FF5DC0E92FE695AE2FF8
:10202000B0E0AD58BE4F8C91809376029E7F923087
:1020300009F067C09E012F5F3F4F812F0E94030E62
:102040004B8169818A810E94530F80917A028113AA
:1020500008C080917B028F1104C080917C028017A0
:1020600029F08091780282608093780210937A023E
:10207000F0927B0200937C02EE2009F4A2C08091D2
:10208000790290917A02A0917B02B0917C028C83BC
:102090009D83AE83BF83BC01CD010E94250E80913C
:1020A0000D0380FF17C080917C021F928F93809157
:1020B0007B021F928F9380917A021F928F9385E00B
:1020C00095E09F938F930E94ED060FB6F894DEBFC4
:1020D0000FBECDBF27960FB6F894DEBF0FBECDBFA3
:1020E000DF91CF911F910F91FF90EF90DF90CF90F4
:1020F000BF90AF909F908F907F906F905F904F9028
:102100000895823019F400917C029FCF863019F433
:1021100010917A029ACF8930D9F3893109F095CF9D
:10212000E9518E2F8170682E81E0762C7826E69515
:10213000F0E0E752F74FC590D490512CDD249AE29D
:10214000892E95E0992E60911C01561618F00E9478
:10215000310F7BCFA52CB12C5C9CC0015D9C900DF8
:10216000112470E00E949733412E611028C0460E62
:1021700080910D0380FF11C0DF92CF921F927F925A
:102180001F924F921F925F929F928F920E94ED0634
:102190000FB6F894DEBF0FBECDBF80911A01A80E16
:1021A000B11C9501220F331F2A0D3B1D255B3D4FAE
:1021B000402F6F2D842D0E94030E5394C4CF461AD6
:1021C000D7CF80910D0380FF85CF1F920F931F9271
:1021D000FF921F921F938EED94E073CF282FE9E7B3
:1021E000F2E0818143816281885F0C94EF0F81E08E
:1021F0000C94EE10282FE9E7F2E08181438162819F
:1022000088500C94EF0F81E00C94FA10282FE9E726
:10221000F2E0628131E1630F08F46FEF4381818165
:102220000C94EF0F81E00C940611282FE9E7F2E0FF
:10223000628131E1631B08F460E0438181810C9489
:10224000EF0F81E00C941511282FE9E7F2E04381AC
:1022500031E1430F08F44FEF628181810C94EF0F5D
:1022600081E00C942411282FE9E7F2E0438131E169
:10227000431B08F440E0628181810C94EF0F81E000
:102280000C94331121E00C94EF0F20E00C94EF0F2D
:10229000EF92FF921F93CF93DF93EC0110E0EE24B7
:1022A000EA94F12C60911C01161770F00E94310F16
:1022B0009A818C8190FF25C08F5F8C83DF91CF91B5
:1022C0001F91FF90EF90089580911A01810F992737
:1022D000991F9C01220F331F280F391F255B3D4F8B
:1022E00070E0C7010E94AB33962F8C8140917C0235
:1022F00060917B02199F800D11240E94030E1F5FC5
:10230000D1CF8150DACF9F92AF92BF92CF92DF921E
:10231000EF92FF920F931F93CF93DF93EC018A818B
:10232000BB24BA9480FD02C0BB24B3948C8181117C
:102330000AC091E0B91203C080911C0181508093C2
:102340000B0281E08C83A12C80911C01A816F0F077
:102350000E94310F90910B0281E0B8125BC0809116
:102360001C018150992319F08FEF890F91E0809320
:102370000B029C83DF91CF911F910F91FF90EF9003
:10238000DF90CF90BF90AF909F90089580911A01F9
:10239000CA2CD12C8C0D9D2D911D8C01000F111F6D
:1023A000080F191F055B1D4FF80111821082128260
:1023B00034E0E32EF12C912C80910B02890D8D30AD
:1023C0001CF16CE00E948933892F082E000C990BB8
:1023D000C816D90691F480917C028E9DA0018F9D34
:1023E000500D112455954795559547959801609145
:1023F0007B0280917A020E94030E9B0CF1E0EF1A9F
:10240000F108D1F6A394A0CF87FFDFCF90911C01F4
:10241000890FDBCF892F90E0019660911C0170E05D
:102420000E94AB33982FA3CF0F931F93CF93DF93CB
:10243000EC018C81811109C081E08C8310920A0229
:1024400092E0909317018093160180911A01909168
:102450001B0123E0829FF0011124E55BFD4F8917EA
:1024600058F110E003E060911C01161758F10E942A
:10247000310F8091160120910A02280F20930A0241
:1024800090911701980F90931701191654F4022E8A
:10249000000C330B40911C014150550B241735079C
:1024A00034F0819580931601813009F41C82DF910C
:1024B000CF911F910F9108951182108212828F5F28
:1024C0003396CDCFE12FF0E070E0CF010E94AB3327
:1024D00020911A01280F422F50E080910A02082E05
:1024E000000C990BE817F907BCF080911701082E32
:1024F000000C990B8E179F077CF0209F90011124F0
:10250000255B3D4F40917C0260917B0280917A0275
:102510000E94030E1F5FA7CFFA01EE0FFF1FE40F0B
:10252000F51FE55BFD4F118210821282F3CFEF920F
:10253000FF920F931F93CF93DF93CDB7DEB72E9704
:102540000FB6F894DEBF0FBECDBF8D879E87AD85D9
:10255000BE8514961C91212F30E0D9010E94EF33E3
:102560009B01AC010E94053469837A838B839C8331
:10257000E0E2F0E0E11BF109A5E5B0E09B01AC0170
:102580000E94053469877A878B879C879F01DF01CA
:102590000E94E7339B01AC010E9410346D837E835F
:1025A0008F8398879B01AC0189819A81AB81BC8123
:1025B000280F391F4A1F5B1F69857A858B859C858B
:1025C0000E94BF33F22E422F50E099E29F1588F10E
:1025D000A3E02A9F9001112435952795122F10957D
:1025E00000E085E5E82EEF1880911C01081778F1CE
:1025F0000E94310FED85FE85948181E0992319F0C9
:10260000903219F48FEF8093150180911501890F95
:10261000AD85BE8514968C932E960FB6F894DEBFCA
:102620000FBECDBFDF91CF911F910F91FF90EF9023
:10263000089585E590E0841B950B9C01220F331FC4
:10264000280F391F37FFC8CF2F5F3F4FC5CF8E2DC3
:1026500001FD8F2D40911A01400F5527551F9A01FA
:10266000220F331F240F351F255B3D4F412F6091F3
:102670007B020E94030E0F5FB7CF0F931F93CF9380
:10268000DF93EC0110E000E090911C01901711061F
:1026900009F06CF40E94310F8C8190E001968170FA
:1026A00099278C83DF91CF911F910F91089580918D
:1026B0001A01A801480F511D9A01220F331F240F40
:1026C000351F255B3D4F4C8160917B0280917A02E2
:1026D00096959017110651F04CF0442349F0409123
:1026E0007C020E94030E0F5F1F4FCECF4423B9F32D
:1026F00040E0F7CF8F929F92AF92BF92CF92DF923E
:10270000EF92FF920F931F93CF93DF93FC01B28060
:10271000948081E0848300E015E05BE4A52E8824AA
:102720008394EE24EA94F12C7BE4C72ED12C809183
:102730001C01081770F0DF91CF911F910F91FF904E
:10274000EF90DF90CF90BF90AF909F908F900C94C0
:10275000310FC02FD0E01C9FF0011D9FF00D112400
:10276000E15FFD4F91101CC01382128280911A010B
:102770008C0F9D2F911D9C01220F331F280F391F95
:10278000255B3D4F1C9FF0011D9FF00D1124E15F63
:10279000FD4F4281618180810E94030E0F5FC7CF90
:1027A0002381222379F12150238334818A2D821BB6
:1027B000311101C0822F1C9FF0011D9FF00D1124CB
:1027C000E15FFD4F90917C02899FC0011124B60109
:1027D0000E9497336283211104C0332311F01482C5
:1027E000A38222E02B1510F21C9FF0011D9FF00D1B
:1027F0001124E15FFD4F80917A02808380917B02FA
:102800008183B4CF0E948034823091400CF0AECFEF
:1028100082E08B1530F50E948034B7010E94AB3303
:102820001C9FF0011D9FF00D1124E15FFD4F80837F
:1028300022E02B15C8F40E94803420917B0226955B
:10284000622F70E00E94AB33280F1C9FF0011D9F88
:10285000F00D1124E15FFD4F21831282A382848257
:1028600085CF80917A02DCCF20917B02EECF8091E0
:1028700078020895109278020895CF93DF93EC01C7
:1028800085E0E9E7F2E0DE0101900D928A95E1F73B
:102890008091760290917702A09178028D839E8339
:1028A000AF83DF91CF910895E6E7F2E01182828154
:1028B00084608283089560917902669570E04BE0B0
:1028C00050E08DE191E00E949034892B19F481E071
:1028D000809377020E949E2B9093700280936F02E8
:1028E0008091780284608093780280910D0380FF4C
:1028F00008C085EC94E09F938F930E94ED060F90A3
:102900000F900895109277028091780284608093EE
:10291000780280910D0380FF08C08CEA94E09F93B9
:102920008F930E94ED060F900F900895CF93DF9341
:1029300000D000D0CDB7DEB79091790290FF69C08A
:10294000882309F456C08B3208F055C08F779091D8
:1029500079029170282F220F922B909379029091F7
:102960007802916090937802662309F446C08091C2
:10297000790290917A02A0917B02B0917C028983C6
:102980009A83AB83BC83BC01CD010E94250E80914C
:102990000D0380FF0FC08091790286951F928F935F
:1029A0008FE496E09F938F930E94ED060F900F9017
:1029B0000F900F9060917902669570E04BE050E0C7
:1029C0008DE191E00E949034892B01F10E948214E4
:1029D00081E08093720240917C0260917B02809141
:1029E0007A020F900F900F900F90DF91CF910C947F
:1029F000451181E0ACCF8AE2AACF90910D0390FF00
:102A0000D9CF1F928F9381E396E0CCCF0E945B14C5
:102A1000DFCF0F900F900F900F90DF91CF9108951F
:102A2000682F8091790286958F5F8B3208F081E064
:102A30000C94961481E00C941015682F90917902F3
:102A400096958FEF890F913009F48AE20C949614D1
:102A500081E00C941D1561E00C949614809179022C
:102A600081608093790280910D0380FF0DC01F92D9
:102A700081E08F9383EC95E09F938F930E94ED0606
:102A80000F900F900F900F908091790286950C9483
:102A90002B1560E00C94961480917502811165C02D
:102AA00080910D0380FF14C082EF96E09F938F9377
:102AB0000E94ED0680910D030F900F9080FF08C0DB
:102AC0008CED96E09F938F930E94ED060F900F90F0
:102AD0000E94172A811110C080910D0380FF08C049
:102AE00084EB96E09F938F930E94ED060F900F90DA
:102AF0000E94B62A0E94390E0E94210E609379022C
:102B000070937A0280937B0290937C02809178028A
:102B10008360809378026E7FC1F480910D0380FF03
:102B200008C08BE696E09F938F930E94ED060F906E
:102B30000F900E94390E0E94210E609379027093CB
:102B40007A0280937B0290937C020E94120E0E9474
:102B50004D0E0E9454148091790280FF03C0869527
:102B60000E94491581E0809375020895CF93DF9309
:102B700000D000D0CDB7DEB7809179028E7F8093F0
:102B800079028091790290917A02A0917B02B091B2
:102B90007C0289839A83AB83BC83BC01CD010E94F4
:102BA000250E80910D0380FF0FC080917902817006
:102BB0001F928F938BE895E09F938F930E94ED0671
:102BC0000F900F900F900F900E94821480917802C6
:102BD0008160809378029FEFA0E7B2E09150A0401F
:102BE000B040E1F700C000000F900F900F900F90E1
:102BF000DF91CF910C94310F80910D0380FF10C0B5
:102C000080917902809581701F928F938AEF95E071
:102C10009F938F930E94ED060F900F900F900F904F
:102C20008091790280FD0C94B6150C942E1580913C
:102C300079028E7F8093790280910D0380FF0CC012
:102C40001F921F9281E595E09F938F930E94ED065E
:102C50000F900F900F900F900E9482148091780235
:102C60008160809378022FEF80E792E021508040CE
:102C70009040E1F700C000000C94310F1F93CF93F8
:102C8000DF93EC01162F8F8180FF0CC0888180FFBD
:102C900024C0809179028160809379028881869531
:102CA0000E9496148F8181FF06C0212F4B816A817B
:102CB00089810E94EF0F8F8182FF05C08E8188235A
:102CC00079F00E945B148F8183FF03C081E08093C1
:102CD0007202DF91CF911F9108950E941716E2CFE3
:102CE0000E948214F0CFEF92FF920F931F93CF9325
:102CF000DF9380917702882309F473C08091760274
:102D0000E0917902E695E81BE0937102823009F0C8
:102D10006FC0F0E0EB52F84FE491CE2FD0E00BE81B
:102D20001FE080917202882379F0109272020E9453
:102D30009E2B8C1B9D0B01979093700280936F02CA
:102D4000109274021092730280916F02909170023F
:102D50000E94AA2B8C179D0708F443C080910E0295
:102D6000882311F110920E0280910C0290910D02B5
:102D70000E94AA2B80339547B8F00E949E2B909317
:102D80000D0280930C0280910D0380FF08C083E840
:102D900094E09F938F930E94ED060F900F90809187
:102DA0007802886080937802E0907302F090740259
:102DB00080916F02909170028C0F9D1F9093700212
:102DC00080936F028FE692E0F8010995809173027B
:102DD00090917402892B29F4EF2819F081E08093F7
:102DE0000E02DF91CF911F910F91FF90EF90089508
:102DF000C8E2D0E007E912E1883109F492CFC0F4CB
:102E00008F3009F43AC048F4863021F1893059F105
:102E1000C0EDD7E00DEF1DE084CF8531C9F7F0E0BC
:102E2000E753F84FE491CE2FD0E004E112E179CFDF
:102E3000C4EFD1E00DE313E1843209F472CF85329F
:102E400031F1833229F7E7ECF7E0C591D4910FEA2D
:102E50001FE067CFF0E0EE52F84FE491CE2FD0E0C4
:102E60000FE91FE05ECFE695F0E0E153F84FE49103
:102E7000CE2FD0E008E411E154CFE695F0E0E45322
:102E8000F84FE491CE2FD0E003E811E14ACF8E2F26
:102E900063E00E947D33E92FF0E0EC53F84FE491BA
:102EA000CE2FD0E00AE713E13CCFFA01811109945B
:102EB000FB01FDCFCF93DF93C82FD62F0E94C80E02
:102EC0008C1740F00E94C80E8D1720F4DF91CF912F
:102ED0000C941A158C2FDF91CF910C942B151F9306
:102EE000CF93DF93EC01FB011281111110C00E94FE
:102EF0004C298272FE01E25CFC45E431F10508F0E8
:102F00005BC0EA5FFA4C0C94E1330E94FC15812F00
:102F1000DF91CF911F91089548E255E16AE175E193
:102F20000E945517F4CF4AE155E168E275E1F8CF08
:102F300043E051E167EF70E1F3CF47EF50E163E029
:102F400071E1EECF41E251E162E171E1E9CF42E1AD
:102F500051E161E271E1E4CF4FE351E160E371E1FE
:102F6000DFCF40E351E16FE371E1DACF4BE25FE0A5
:102F70006CEF7EE0D5CF4CEF5EE06BE27FE0D0CF30
:102F800081E00E942B15C3CF65E082E00E945A17B2
:102F9000BECF68E086E0FACF6EE089E0F7CF64E16B
:102FA0008FE0F4CF67E185E1F1CF88E1EACF62E21B
:102FB00089E1ECCF83E2E5CF11E0A9CF80917E02D9
:102FC0008170089580917E028695869586950895F4
:102FD0000E94172A811102C00E94B62A0E94452A27
:102FE00080937E02803320F08770886280937E0217
:102FF00090917E02892F817090FF04C0892F869561
:10300000869586950C94521980917E02982F9695FC
:1030100096959695883240F49F5F990F990F990F76
:103020008770892B80937E0280917E0281608093DD
:103030007E020E94492A80910D0380FF11C0809179
:103040007E028695869586951F928F9385E499E0FA
:103050009F938F930E94ED060F900F900F900F900B
:1030600080917E028695869586950C945219809162
:103070007E02982F987F79F0885080937E02887F17
:1030800091E009F490E080917E0290FB80F98093BA
:103090007E020E94492A80910D0380FF11C0809119
:1030A0007E028695869586951F928F938DE299E094
:1030B0009F938F930E94ED060F900F900F900F90AB
:1030C00080917E028695869586950C945219809102
:1030D0007E0280FD1FC0816080937E02813019F4E2
:1030E00089E080937E0280917E020E94492A80912D
:1030F0000D0380FF08C085E099E09F938F930E94A5
:10310000ED060F900F9080917E02869586958695AC
:103110000C945219089580917E0280FF14C08E7F16
:1031200080937E020E94492A80910D0380FF08C08F
:1031300082EF98E09F938F930E94ED060F900F907F
:1031400080E00C9452190895CF93C0917E02C17013
:1031500080910D0380FF0CC01F92CF9387E199E00F
:103160009F938F930E94ED060F900F900F900F90FA
:10317000CC2319F0CF910C948B18CF910C94671835
:1031800090917E02892F8695869586958F5F8F71A7
:103190009770863020F4880F880F880F982B9093B3
:1031A0007E0280917E02887F91E009F490E0809118
:1031B0007E0290FB80F980937E020E94492A8091D2
:1031C0000D0380FF11C080917E02869586958695BD
:1031D0001F928F938EED98E09F938F930E94ED0640
:1031E0000F900F900F900F9080917E02869586959C
:1031F00086950C945219863008F085E090917E02F5
:103200009770282F220F220F220F922B90937E026D
:10321000987F21E009F420E090917E0220FB90F954
:1032200090937E020C9452190E94FB1880917E02AA
:103230000C94492A9C01FB018281882361F12E3B79
:10324000FCE53F07F9F060F42C3BECE53E07A9F004
:103250002D3BFCE53F0799F02B3B3C4549F0089599
:103260002F3BECE53E0789F0203C3C4589F0089572
:1032700085E00E94141980E0089580E0FACF0E9452
:103280003718F9CF0E940418F6CF0E94A418F3CF84
:103290000E94C018F0CF81E00895259A2D980895D6
:1032A0002D980895CF93DF93CDB7DEB728970FB64B
:1032B000F894DEBF0FBECDBF8983863060F58111E3
:1032C0002CC0809180008F77809380000E945019DD
:1032D0004981242F30E0AFEFBFEF0E94EF3325E0AC
:1032E00030E040E050E00E94BF33C9012C3764E178
:1032F0003607C8F469E070E00E9497337093890044
:103300006093880028960FB6F894DEBF0FBECDBF3D
:10331000DF91CF91089525E0298380918000806816
:1033200080938000D5CF2A50374D4F4F5F4FB42F39
:10333000A32F922F8827BC01CD0125EF38E241E071
:1033400050E00E94BF3329833A834B835C83CA01D8
:10335000B9010E946D339B01AC0169817A818B8137
:103360009C810E946D33BB27A92F982F872FBC010A
:103370000097A140B10511F66FEF7FEFBFCF089521
:103380000E944D1982E88093800089E1809381003A
:103390008FEF9FEF90938700809386000C94E8173F
:1033A0009C01AB01539A6BB1677F7BB17860EFB73B
:1033B000F894CA01880F991F840F951F820F931FDD
:1033C0008217930741F4EFBF8FE594E00197F1F77F
:1033D00000C000000895D9014D919D0158E07BB9CE
:1033E000000000C047FF6BB9440F000000C000C0E0
:1033F00000C06BB900C05A9591F7E2CFAF92BF926F
:10340000CF92DF92EF92FF920F931F93CF93DF93B0
:103410007C015B01C42FD22FFC0182818823F9F04B
:10342000409381020E949E2B9093800280937F02A2
:1034300080E28C0F883008F061C0C77081E001C065
:10344000880FCA95EAF7DF91CF911F910F91FF90F6
:10345000EF90DF90CF90BF90AF900C942020109110
:103460008102141340C080917F02909180020E94DB
:10347000AA2B6C01B701C5010E946925C816D9069F
:1034800090F5C0E2CD0F1D17B9F080E2810F8830B2
:1034900040F4177081E001C0880F1A95EAF70E9486
:1034A0002720C83048F481E09D2F977001C0880F15
:1034B0009A95EAF70E942020802F0E940D20C830A4
:1034C000E8F4D77081E001C0880FDA95EAF7DF9160
:1034D000CF911F910F91FF90EF90DF90CF90BF9011
:1034E000AF900C94272080E28C0F883038F4C7709E
:1034F00081E001C0880FCA95EAF7E9CFDF91CF914B
:103500001F910F91FF90EF90DF90CF90BF90AF9001
:1035100008950F939C01CB01233F4CE53407A1F1A3
:1035200090F4283DFCE53F0749F1293D4CE534077F
:10353000E9F1273D3C45C1F0FC0182818823E1F19E
:103540001092810219C0253FFCE53F0719F1263F83
:103550004CE5340729F1243F3C4571F707E225EE9D
:1035600044EE64EF7CE505C006E221EE41EE67ED36
:103570007CE50E94FE1980E00F91089507E225EE98
:1035800045EE68ED7CE5F5CF06E221EE40EE63EF17
:103590007CE5EFCF06E221EE42EE65EF7CE5E9CF78
:1035A00007E225EE46EE66EF7CE5E3CF08E221E098
:1035B00045EE69ED7CE5DDCF81E0DECFCF93DF9393
:1035C000EC01FB018281882309F4CEC0C631FCE501
:1035D000DF07E0F4C2309CE5D907F0F00E942A2A08
:1035E0009093140380931303C631ECE5DE0720F5B6
:1035F000C230FCE5DF0798F4809113039091140327
:103600000E94382A0E94CD2280E006C09E012A5FD7
:103610003C452930310510F3DF91CF910895FE012B
:10362000E350FC45809113038160E331F105B0F470
:10363000E65EFA4C0C94E133CE018A5F9C45099713
:10364000D8F6FE01EB5FFC45E830F10590F4E35D50
:10365000FA4C0C94E133809113038260809313033E
:10366000CBCF809113038460F9CF809113038860DE
:10367000F5CF80911403816080931403BDCF8091B6
:1036800014038260F9CF809113038061E7CF8091AA
:1036900013038062E3CF809113038064DFCF0E9425
:1036A000CD22809113038068D9CF809113038C6061
:1036B000D5CF809114038360DFCF809113038E7F79
:1036C000CDCF809113038D7FC9CF809113038B7F62
:1036D000C5CF80911303877FC1CF809114038E7F64
:1036E000CBCF809114038D7FC7CF809113038F7E42
:1036F000B5CF809113038F7DB1CF809113038F7B62
:10370000ADCF0E94CD22809113038F77A7CF8091F8
:103710001303837FA3CF809114038C7FADCF80915F
:10372000130382FB992790F921E0922790FB82F9FD
:1037300090FB83F993CF80911403982F909591700B
:103740008E7F892B90FB81F997CF0E94CD2290919B
:103750001303892F97FB87F9805880CF81E00E945F
:10376000B82A4ACF80E0FBCF81E056CFCF93DF93DA
:10377000EB0186319C4511F50E944C299A819923D1
:1037800099F08A7A91E009F490E090938202811195
:1037900009C089E20E9427290E949B2980E0DF91CD
:1037A000CF91089585E3F6CF80918202811104C004
:1037B00089E20E942E29F0CF85E3FBCF81E0EFCF95
:1037C0008EE1489B02C08150E1F7489BFECF0895EF
:1037D000589880E28A95F1F7589A0895FC013BE0E9
:1037E0003A95F1F720E090E080E031E040E14A9541
:1037F000F1F7880F489B02C08160232742E04A9579
:10380000F1F7000040E14A95F1F79F5F6913EECFB1
:1038100090E19A95F1F799B132E03A95F1F700000D
:1038200040E14A95F1F7917092272081920F9083A1
:103830000895EF92FF920F931F93CF93DF930F9210
:10384000CDB7DEB719828C017C01E60EF11C0E1596
:103850001F0561F481E09981911180E00F90DF9163
:10386000CF911F910F91FF90EF9008950E94E01B60
:1038700068E0CE0101960E94EE1BF80181938F0152
:10388000E6CF909385028093840260938302509ADE
:10389000589A0895909385028093840260938302DE
:1038A0005098589AE89AE9E6F0E080818C7F80830E
:1038B00008956150770B91E001C0990F6A95EAF77E
:1038C00020E031E0911108C0222391F0589A80E263
:1038D0008A95F1F758980895492F482339F0589A56
:1038E000232740E24A95F1F79695ECCF5898F9CF07
:1038F0005898EDCFFF920F931F93CF93DF93EC0176
:103900008C01060F111DC017D10731F4DF91CF9143
:103910001F910F91FF900895F9900E94E81B68E0B5
:103920008F2D0E94591CEFCF1F920F920FB60F924E
:1039300011240F931F932F933F934F935F936F9394
:103940007F938F939F93AF93BF93EF93FF93CF9307
:10395000DF930F92CDB7DEB719820E94E01B67E0BC
:10396000CE0101960E94EE1B282F269526952695BE
:10397000982F92959570322F3570930F392F3370A1
:10398000969596958770930F891344C0898181110C
:1039900041C0809183028217E8F180E18A95F1F7B6
:1039A000589A509AA2E0AA95F1F700C0B8E02B9F70
:1039B000900111240091840210918502020F131FBF
:1039C0005898F8016581662321F0868197810E94CD
:1039D0007A1C0E94E81BF0E1FA95F1F7589850988C
:1039E000589A80E18A95F1F7D80112966C91129756
:1039F000662331F113968D919C910E94191CD80178
:103A0000ED91FC91882311F088E001C082E0808371
:103A10000E94E01B0F90DF91CF91FF91EF91BF913A
:103A2000AF919F918F917F916F915F914F913F9156
:103A30002F911F910F910F900FBE0F901F9018950F
:103A4000ED91FC91E1CF0F931F93CF93DF939C01F6
:103A500080918302821713060CF471C0890183E000
:103A6000000F111F8A95E1F7C0918402D091850261
:103A7000C00FD11FF894509A589885E08A95F1F7B5
:103A80000000922F969595702570920F892F837064
:103A900096959695890F082B0E94E81B00C067E059
:103AA000802F0E94591C80E18A95F1F75098589A0E
:103AB000489B17C087E090E0489915C06D81662348
:103AC00021F18E819F810E94191C81111EC0509A84
:103AD000589AE881F98182E08083789482E090E0CE
:103AE0000DC000C0E5CF019771F4509A589AE88153
:103AF000F98181E08083789481E090E0DF91CF913B
:103B00001F910F91089500C0D7CF0E94E01B80E263
:103B10008A95F1F75898509A80E18A95F1F76A8171
:103B2000662321F08B819C810E947A1C0E94E81BF5
:103B3000E881F9811082789490E080E0DFCF84E022
:103B400090E0DCCF90938B0280938A020895E091FD
:103B50008A02F0918B02309721F00190F081E02DE4
:103B6000099480E00895EF92FF920F931F93CF93F3
:103B7000DF938C01E0918A02F0918B023097A9F1DA
:103B80000280F381E02D099580910D0382FF2DC005
:103B900080FF04C085E69AE00E945406E801C8014F
:103BA00008967C010FE51AE080910D0380FF0BC0A1
:103BB00088811F928F931F930F930E94ED060F90A1
:103BC0000F900F900F902196CE15DF0569F7809129
:103BD0000D0380FF0AC08DE59AE0DF91CF911F9120
:103BE0000F91FF90EF900C945406DF91CF911F91AD
:103BF0000F91FF90EF9008952091880230918902F3
:103C00002817390771F09093890280938802E09118
:103C10008A02F0918B02309721F00680F781E02D27
:103C20000994089520918602309187022817390758
:103C300071F09093870280938602E0918A02F0915E
:103C40008B02309721F00084F185E02D09940895CE
:103C500085B7806885BF85B7806885BF089508955A
:103C600008950C942F1E08950C94331E0E94281E54
:103C70000E94301E0C94311E0C94B00C0E94952BA7
:103C80000E94550B0E94EE2B0E94E8170E944C15D3
:103C90000C94341ECF93C82F80910D0382FF1EC059
:103CA00080FF1CC08EE79AE00E94540680910D03AD
:103CB00080FF14C01F92CF9389E79AE09F938F9360
:103CC0000E94ED0680910D030F900F900F900F90C2
:103CD00080FF04C087E79AE00E9454068C2FCF91A2
:103CE0000C947F08BF92CF92DF92EF92FF920F93D6
:103CF0001F93CF93DF9300D000D00F92CDB7DEB7E4
:103D00000E94E90B0E943C1E882309F460C08DE8E4
:103D1000C82E82E0D82E10E000E0B02E802F0E9446
:103D2000040BF82EF601E1906F01E81609F449C082
:103D300080910D0381FD0E940A0B9E2D9F2580E03E
:103D4000EE24E394292F2E21B9F18983BA82FE2033
:103D500081E009F480E08B830E949E2B8160782FA4
:103D60009D838C8349815A816B81892F0E94071F13
:103D7000F801E357FD4F80818E2580830E947316E2
:103D80000E94BF190E94A71D90918C02891781F192
:103D90000E94A71D80938C020F900F900F900F90A0
:103DA0000F90DF91CF911F910F91FF90EF90DF90D7
:103DB000CF90BF900C944A1E8F5FEE0C863009F0B6
:103DC000C1CF0F5F1F4F0A30110509F0A6CF8FEF4B
:103DD00089838A831B820E949E2B8160782F9D831A
:103DE0008C8349815A816B81892F0E94071FC6CF1E
:103DF0000F900F900F900F900F90DF91CF911F9128
:103E00000F91FF90EF90DF90CF90BF900895CF93E8
:103E1000DF93CDB7DEB72B970FB6F894DEBF0FBE9A
:103E2000CDBF4F83588769877A878B871E8285E04D
:103E3000FE013796DE01119601900D928A95E1F709
:103E400049815A816B817C818D819E812B960FB631
:103E5000F894DEBF0FBECDBFDF91CF910C946C25DF
:103E6000FC01808191810C94F128CF93C82F882385
:103E700009F482C08238C1F40E94A71D81FD7CC074
:103E800089E30E9427290E949B292FEF31EE84E0CD
:103E9000215030408040E1F700C0000089E30E94DB
:103EA0002E29CF910C949B298338A1F40E94A71D41
:103EB00080FD62C083E50E9427290E949B299FEF15
:103EC00021EE34E0915020403040E1F700C0000086
:103ED00083E5E5CF8438A1F40E94A71D82FD4CC084
:103EE00087E40E9427290E949B298FEF91EE24E00E
:103EF000815090402040E1F700C0000087E4CFCF20
:103F00008CEF8C0F813A90F46C2F80912801909166
:103F100029010E94CF2A882329F08C2F0E942E2964
:103F20000E949B298C2F0E942729BBCF80E28C0FF7
:103F3000883048F4C77081E001C0880FCA95EAF75D
:103F40000E944F29AECF8BE58C0F833038F42C2F95
:103F50002452330BC901CF910C94FC1DC85AC731B0
:103F600058F4EC2FF0E0EE0FFF1FE256FE4F808179
:103F70009181CF910C94121ECF910895882309F45A
:103F80004BC0823871F40E94A71D81FF45C089E3B0
:103F90000E9427290E949B2989E30E942E290C94C4
:103FA0009B29833859F40E94A71D80FF35C083E503
:103FB0000E9427290E949B2983E5EFCF843859F47A
:103FC0000E94A71D82FF28C087E40E9427290E9423
:103FD0009B2987E4E2CF9CEF980F913AF0F290E2B0
:103FE000980F983050F4877091E001C0990F8A952E
:103FF000EAF7892F0E945529D2CF9BE5980F93307D
:1040000020F490E080E00C94FC1D885A873120F465
:1040100090E080E00C94121E0895CF93C82F0E9468
:10402000351FC93349F42FEF87EE93E021508040CC
:104030009040E1F700C000008C2FCF910C94BE1F80
:10404000882321F00E944F290C949B2908958823EE
:1040500021F00E9455290C949B290895AF92BF929C
:10406000CF92DF92EF92FF920F931F93CF93DF9344
:1040700000D000D00F92CDB7DEB76C016D8379838D
:10408000FC01058102950F70128111110E946E29A9
:104090000E944529E82E882391F01123D1F08981CF
:1040A000807F803421F08D81805E883090F082E0C6
:1040B0000E94E6290E94452991E0E82EE926A98080
:1040C000A2949FE0A922B12CF501EB5CFA4C0C9470
:1040D000E133E12CF4CF09810F70F981F07F11F009
:1040E0000295007F1123B1F0002361F08D81805E85
:1040F000883018F01D81111109C0802F0E944F29AE
:104100000E949B298D810E94351F15C0802F0E941F
:104110006029F6CF8D810E94BE1F002361F08D8142
:10412000805E883018F01D81111133C0802F0E94ED
:1041300055290E949B2998E0A91AB108E4E0AE161F
:10414000B10420F40E94A71D0E947F08EE2009F40C
:10415000C3C10E94412980FDBFC1F60112820E94A5
:104160003B290E944827C6010E9493220E943B29B6
:104170000F900F900F900F900F90DF91CF911F91A4
:104180000F91FF90EF90DF90CF90BF90AF900C9485
:104190007927802F0E946629CCCF29812F70F22E9B
:1041A0003981307F303219F0F29480EFF8228D811E
:1041B000882369F0813049F1112391F1002351F1F5
:1041C000F601858180FF9ECF8F70858323C01123E8
:1041D00081F0011106C00E9482298F290E942020AF
:1041E000AACF0130C1F70E9482298F290E94882915
:1041F000A2CF011106C00E9491298F2D0E94272075
:104200009ACF013009F497CFF6CF112329F0063069
:1042100008F091CF8F2DE2CF053008F08CCFEDCF95
:10422000002359F30D81093349F41FEF27EE33E0E2
:10423000115020403040E1F700C000008D810E9405
:10424000BE1F79CF898186958695837069F081300C
:1042500009F071CF8D8199819370111102C090E0A6
:1042600080E00E94121E67CF8D8199819370111199
:1042700002C090E080E00E94FC1D5DCF89818370C8
:1042800009F050C0111157CF2D8122952695277026
:10429000220F220F4D814F7050E070E060E0022E3F
:1042A00004C0440F551F661F771F0A94D2F70D8173
:1042B00080E090E0DC0104FF0FC08FE090E0A0E020
:1042C000B0E004C0880F991FAA1FBB1F2A95D2F720
:1042D00080959095A095B0951981169516951370B7
:1042E0001D838C019D01042B152B262B372B098355
:1042F0001A832B833C831D8169817A818B819C8108
:10430000123051F0133059F0113019F00E94BE26CE
:1043100012CF0E9496260FCF0E94E6260CCF0E9455
:10432000942609CF112309F448C0098100FF03CF67
:104330002D81229526952770220F220F4D814F70D7
:1043400050E070E060E0022E04C0440F551F661F6D
:10435000771F0A94D2F70D8180E090E0DC0104FF22
:104360000FC08FE090E0A0E0B0E004C0880F991F7C
:10437000AA1FBB1F2A95D2F780959095A095B0955E
:1043800019811695169513701D838C019D01042BC0
:10439000152B262B372B09831A832B833C831D81F6
:1043A00069817A818B819C81123071F0133079F0B0
:1043B000113039F00E940728BECE198111FFBBCE03
:1043C000B7CF0E94DF27B7CE0E942F28B4CE0E941D
:1043D0001227B1CE09810F700983112329F0802F94
:1043E0000E9448278D81FACE8D810E9427208981E5
:1043F0000E947927A0CE2D81223FA1F160F4203FB9
:10440000E1F0213F41F1112309F445C001117ACEB9
:1044100089818F7124C03D81333F49F1343F99F741
:10442000112379F109810F710983802F0E94482798
:1044300063E089810E94D1297ECE112341F00530AD
:1044400008F079CE89818F710E94AE2774CE063034
:1044500008F071CEF7CF89818F71112349F20E9444
:10446000482769CE89818F711123C9F3C1CF1123E8
:1044700029F089818F710E9423275DCE0E941E271B
:104480005ACE81E00E94E629023008F454CE82E040
:104490000E94E62950CE002361F01D81193309F0F6
:1044A000CDCE2FEF37EE83E0215030408040E1F752
:1044B000C3CE89818F719CCF49814F706D81C601B8
:1044C0000E94F5080E94062636CE49814F706D8104
:1044D000C6010E94F8082FCE0F900F900F900F90FA
:1044E0000F90DF91CF911F910F91FF90EF90DF9090
:1044F000CF90BF90AF9008950F931F93CF93DF930A
:10450000EC01688179818A810E94FD288C010E94DA
:1045100057280E949326B801CE01DF91CF911F91B9
:104520000F910C942E20CF93DF93EC019881898119
:104530002B813C81232B19F089238F3F59F4DF9184
:10454000CF910895CE010E947C22CE01DF91CF91C0
:104550000C94A407CE010E9497088111F3CF0E940A
:104560004529882361F38A81882349F382E0DF911A
:10457000CF910C94E6290E946E290E947F290E9407
:104580009B2990E080E00E94FC1D90E080E00C946C
:10459000121E0E9435290C94BB220E945D290C94A6
:1045A000C922282F892F82958F70903C80F48A3001
:1045B000B0F4843020F4823090F480E008958630A6
:1045C000E1F781E0283E88F0213FB9F70EC08C303A
:1045D00011F08F3091F793FB882780F9089581E0DF
:1045E000203F39F018F4283E40F70895243F29F77A
:1045F000FCCF08950E94F1280C94D122CF93DF9331
:1046000000D000D00F92CDB7DEB70F900F900F9073
:104610000F900F90DF91CF910895CF93DF9300D04B
:1046200000D000D0CDB7DEB726960FB6F894DEBF27
:104630000FBECDBFDF91CF9108951F93CF93DF932E
:10464000E091980216E0809199028E1304C0DF91E8
:10465000CF911F910895CE2FD0E01E9FF00111241D
:10466000E656FD4F4081518162817381848195813D
:104670000E940D232196EC2FE770E5CF4091CA02EE
:104680005091CB026091CC027091CD028091CE020C
:104690009091CF020C940D231F93CF93DF938091C1
:1046A000CF02807FA9F48091CC02882389F0809189
:1046B0009802C09199027091CA026091CB02A091B8
:1046C000CD02B091CE02D62FD72316E0C81304C076
:1046D000DF91CF911F91089590E0109711F0DF3F87
:1046E00019F401968770F2CF189F9001199F300D31
:1046F0001124F901E656FD4F41816413F2CF408148
:104700004713EFCF42814111ECCF438154814A1BC3
:104710005B0B483C510528F78091CF028F70806178
:104720008093CF02F901E156FD4F80818F70806147
:1047300080838AEC92E00E949322DF91CF911F91B7
:104740000C941D23AF92BF92CF92DF92EF92FF9213
:104750000F931F93CF93DF93CDB7DEB72B970FB691
:10476000F894DEBF0FBECDBF8C0185E0F801DE01FD
:10477000179601900D928A95E1F7D8011296EC9068
:1047800012979C9111968C9111971396CD90DC9075
:104790003AECA32E32E0B32E3091CA024091CB0204
:1047A0006091CD027091CE026115710529F0232F21
:1047B00024232F3F09F07AC1EE2009F486C18F81AE
:1047C00098850E94FA22F82E882309F47EC186E09B
:1047D000F801AAECB2E001900D928A95E1F78AEC1B
:1047E00092E00E94301F0E944C2335C12091CF02DD
:1047F000522F507F683C710508F0CFC0511118C18D
:10480000FE2C841324C0391322C0E11020C02F7065
:1048100020612093CF020E943E238AEC92E00E9406
:1048200093228091CF02F80185838F2D2B960FB6AE
:10483000F894DEBF0FBECDBFDF91CF911F910F91D6
:10484000FF90EF90DF90CF90BF90AF900895C1148C
:10485000D10429F0282F29232F3F09F0E6C020E0BA
:1048600020FF08C0E09198024091990226E0B22E04
:10487000E4131BC0CD2829F0282F29232F3F09F04E
:10488000C6C020E0F22FF170DF2EE0919802409137
:10489000990256E020FD32C0EE2039F28091CF021D
:1048A00081608093CF02F12CC0CF2E2F30E0BE9ECE
:1048B000F0011124E656FD4F5181851306C0508149
:1048C000951303C052815E11A5C02F5F3F4FE22FA9
:1048D000E770CECF2E2F30E05E9FF0011124E65618
:1048E000FD4F6181861306C06081961303C062810B
:1048F0006E11D2CF2F5F3F4FE22FE770E413EACF64
:104900008F8198850E94F128292F22952F7090324F
:1049100068F0225F2F70223080F49F7059F0D80128
:1049200015969C91907F31F4D12C0AC09F7011F0A4
:104930008823D1F3805E8830B8F3C8010E949322A7
:10494000FD2C73CF8F8198850E94FA22882309F469
:10495000BCC0EE2009F4B9C08091CF02803270F063
:104960002091CA023091CB023A8329831B82DD82D7
:10497000CC828E83CE0101960E94932286E0F801BC
:10498000AAECB2E001900D928A95E1F70E944C23C7
:104990000E943E23FF24F39448CF51115FC04F8102
:1049A000588569857A858B850E94FE228AEC92E083
:1049B0000E94932286E0D5011D928A95E9F70E9414
:1049C0003E2371CF86E0F801AAECB2E001900D928F
:1049D0008A95E1F72ACF8F8198850E94FA2281116A
:1049E000CDCF8091CF0281608093CF02C8010E9419
:1049F00093221BCF4F81588569857A858B850E94CC
:104A0000FE2286E0D5011D928A95E9F724C021E0B7
:104A10002E2538CF8AEC92E00E949322EAECF2E055
:104A2000DF011D92BA94E9F7CACF21E02E2518CFF5
:104A3000841388CF391386CFE11084CFF801258302
:104A4000C8010E94932286E0F801AAECB2E001902E
:104A50000D928A95E1F70E943E23E7CE841372CF30
:104A6000391370CFE1106ECFF8012583C8010E9481
:104A7000932286E0D5011D928A95E9F7D6CE84135C
:104A8000AACF3913A8CF8091CF0280FD9BCF982F5A
:104A9000907F09F497CFF8018583903F89F2982F92
:104AA000907F905F8F70892B8583CACFF090CC0266
:104AB000F601E61BF70BBF01F11098CE683C7105BB
:104AC00008F098CFFE2CE110DACFC8010E949322A3
:104AD00061CF88EC90E008951F93CF93DF93CDB71B
:104AE000DEB72C970FB6F894DEBF0FBECDBF4F8355
:104AF000588769877A878B879C87CE0107960E94A3
:104B0000A223882369F08A859B85892B39F05885F3
:104B10004F81852F84238F3F09F071C016E05FC05D
:104B200086E0FE013796DE01119601900D928A957E
:104B3000E1F78F81988520919902409198026A85CA
:104B40007B85672B59F389238F3F41F330E0C901FF
:104B50000196877099274817190671F40E94CD2293
:104B6000109299021092980286E0EAECF2E0DF01DE
:104B70001D928A95E9F7D2CF96E0929FD001939F3C
:104B8000B00D1124A656BD4FFE01319601900D9235
:104B90009A95E1F7809399020E941D23BFCF819FD0
:104BA000C001112486569D4F0E94A2238823E9F05C
:104BB000E09198021E9FF0011124E656FD4F4081BE
:104BC000518162817381848195810E940D2380913E
:104BD000980290E0019687709927809398028091BF
:104BE0009802909199028913DACF2C960FB6F89417
:104BF000DEBF0FBECDBFDF91CF911F9108956985B4
:104C00007A858B859C850E940D2388CFEF92FF9239
:104C10000F931F93CF93DF938C01892B89F0F12C95
:104C2000EE24E394E8012196F8018491843709F495
:104C300058C0A0F4823009F43FC048F48130D1F06C
:104C4000DF91CF911F910F91FF90EF9008959CEF0E
:104C5000980F9037A8F70E94351F0AC0853709F4CE
:104C60004EC09CE7980F903758F78F770E94BE1F71
:104C70008E0116C00E5F1F4FFE01849190E2980FC7
:104C8000983060F48770FE2D01C0FF0F8A95EAF717
:104C90008F2F0E9471290E949B2902C00E94351FFC
:104CA0008F2D882309F4BECFEFE9FFE03197F1F7AC
:104CB00000C000008150F5CF0E5F1F4FFE018491B0
:104CC00090E2980F983050F48770FE2D01C0FF0FCE
:104CD0008A95EAF78F2F0E947729DDCF0E94BE1FA9
:104CE000DFCF0E5F1F4FFE01C491CC23C9F28FE9C5
:104CF0009FE00197F1F700C00000C150F6CF0E5FB2
:104D00001F4FFE01F490CCCF08950C9484260E948E
:104D100085266093FC027093FD028093FE029093BF
:104D2000FF020C94BB2208950C948726CF93DF9347
:104D300000D000D0CDB7DEB769837A838B839C83A4
:104D40008091FC029091FD02A091FE02B091FF02C1
:104D500029813A814B815C81282B392B4A2B5B2B93
:104D600029833A834B835C83CA01B9010F900F906A
:104D70000F900F90DF91CF910C948726CF93DF9304
:104D800000D000D0CDB7DEB769837A838B839C8354
:104D90008091FC029091FD02A091FE02B091FF0271
:104DA00029813A814B815C81282339234A235B2363
:104DB00029833A834B835C83CA01B9010F900F901A
:104DC0000F900F90DF91CF910C948726CF93DF93B4
:104DD00000D000D0CDB7DEB769837A838B839C8304
:104DE0008091FC029091FD02A091FE02B091FF0221
:104DF00029813A814B815C81282739274A275B2703
:104E000029833A834B835C83CA01B9010F900F90C9
:104E10000F900F90DF91CF910C9487260C948426ED
:104E20000C940E270E9410276093F8027093F902E9
:104E30008093FA029093FB020C94BB2260E070E036
:104E4000CB010C9412270F931F93CF93DF9300D0C5
:104E500000D0CDB7DEB741E050E060E070E08A01FD
:104E60009B0104C0000F111F221F331F8A95D2F728
:104E700009831A832B833C83C901B8010F900F90DB
:104E80000F900F90DF91CF911F910F910C941227EB
:104E90000F931F93CF93DF9300D000D0CDB7DEB731
:104EA00041E050E060E070E004C0440F551F661F11
:104EB000771F8A95D2F78091F8029091F902A0911C
:104EC000FA02B091FB028A019B01082B192B2A2BB5
:104ED0003B2B09831A832B833C83C901B8010F90B4
:104EE0000F900F900F90DF91CF911F910F910C9425
:104EF00012270F931F93CF93DF9300D000D0CDB72D
:104F0000DEB741E050E060E070E004C0440F551FA0
:104F1000661F771F8A95D2F74095509560957095DA
:104F20008091F8029091F902A091FA02B091FB02EF
:104F30008A019B01082319232A233B2309831A830F
:104F40002B833C83C901B8010F900F900F900F90F5
:104F5000DF91CF911F910F910C9412270F931F9304
:104F6000CF93DF9300D000D0CDB7DEB741E050E063
:104F700060E070E004C0440F551F661F771F8A95DC
:104F8000D2F78091F8029091F902A091FA02B091C3
:104F9000FB028A019B01082719272A273B2709833F
:104FA0001A832B833C83C901B8010F900F900F9097
:104FB0000F90DF91CF911F910F910C941227CF93F7
:104FC000DF9300D000D0CDB7DEB769837A838B83BF
:104FD0009C838091F8029091F902A091FA02B0911D
:104FE000FB0229813A814B815C81282B392B4A2B8A
:104FF0005B2B29833A834B835C83CA01B9010F90F1
:105000000F900F900F90DF91CF910C941227CF93B8
:10501000DF9300D000D0CDB7DEB769837A838B836E
:105020009C838091F8029091F902A091FA02B091CC
:10503000FB0229813A814B815C81282339234A2351
:105040005B2329833A834B835C83CA01B9010F90A8
:105050000F900F900F90DF91CF910C941227CF9368
:10506000DF9300D000D0CDB7DEB769837A838B831E
:105070009C838091F8029091F902A091FA02B0917C
:10508000FB0229813A814B815C81282739274A27F5
:105090005B2729833A834B835C83CA01B9010F9054
:1050A0000F900F900F90DF91CF910C9412270895DD
:1050B000E92FEE0FE90FEE0FE80F8E2F877041E01A
:1050C00001C0440F8A95EAF7E695E695E69585E0F6
:1050D000E89FF0011124E053FD4F30E020E070E044
:1050E0005191DF011197CB01022E02C09695879551
:1050F0000A94E2F7817081958527842385278C9314
:105100002F5F3F4F2530310559F70895E92FEE0FF6
:10511000E90FEE0FE80F9E2F9770E695E695E6955E
:1051200085E0E89FF0011124E053FD4F50E040E09E
:1051300080E0219130E0092E02C0369527950A942F
:10514000E2F721703327042E01C0220F0A94EAF7F8
:10515000822B4F5F5F4F4530510559F70895BF923D
:10516000CF92DF92EF92FF920F931F93CF93DF9333
:105170008C01C090F802D090F902E090FA02F09011
:10518000FB028091FC029091FD02A091FE02B09181
:10519000FF02C82AD92AEA2AFB2ACFE1D0E0BC2E96
:1051A000D701C6010C2E04C0B695A7959795879593
:1051B0000A94D2F780FD0EC0219788F7B12C8B2D71
:1051C000DF91CF911F910F91FF90EF90DF90CF90E3
:1051D000BF900895B8018C2F0E941509019761F3C3
:1051E000EECFCF93DF93D82FC92F0E94AF286D2F1A
:1051F0007C2FDF91CF910C9415091F93CF93DF93F0
:10520000162FD72F90919702992339F0862F972F39
:10521000DF91CF911F910C94F128882391F0862F74
:10522000972F0E94AF28C82F682F812F9D2F0E9493
:105230005828612F7D2F8C2FDF91CF911F910C94D7
:105240001509862F972F0E948628C82FF2CF682F26
:1052500080912801909129010C94092B682F80914D
:105260002801909129010C940B2B80912801909199
:1052700029010C940D2B80910003859585958595CA
:1052800008958091000387700895909100039770AE
:1052900081E009F480E0089580910C0308959091D5
:1052A0000C03982B90930C030895982F9095809160
:1052B0000C03892380930C03089510920C03089526
:1052C00090910B03982B90930B030895982F909532
:1052D00080910B03892380930B03089510920B0395
:1052E000089590910A03982B90930A030895982F9C
:1052F000909580910A03892380930A030895109260
:105300000A03089580910103089508950C94852956
:1053100090910103981721F0809301030C94862942
:10532000089580910103882329F01092010380E001
:105330000C9486290895E0912801F091290180912B
:105340000C038083E0912801F091290180819091E4
:105350000B03892B8083E0912801F0912901808142
:1053600090910A03892B808390910103992381F006
:10537000E0912801F09129018081892B808380911F
:105380002801909129010E94BD2A81110E94912932
:1053900080912801909129010C94B31D08950C94DB
:1053A000CE2998E0899F90011124622B609300031D
:1053B0000E944827809100038595859585950C94DA
:1053C000CF291092000380E00C94CF299091000324
:1053D0008095892380930003282F277071F4282F4C
:1053E000082E000C330B9217130639F0859585951E
:1053F00085950E9479270C94E12908959093DD0109
:105400008093DC010895829594E0899F9001112496
:105410002C7C869586958373282B30E0C901880FF4
:10542000991F8A7A359527952575822B089590E0E6
:1054300080E00E94AB349C0181E02C3E3E4F09F09D
:1054400080E0089582E090E00C949D3483E090E049
:105450000C949D34CF9384E090E00E949D34C82F3B
:1054600081E290E00E949D34982F8C2FCF91089577
:10547000CF93682FC92F84E090E00E94B1346C2F45
:1054800081E290E0CF910C94B13486E090E00C94EE
:105490009D34682F86E090E00C94B134AB01BC01E0
:1054A0008FE090E00C94C334AB01BC0183E190E049
:1054B0000C94C33460E070E0CB010C94542A6CEE81
:1054C0007EEF90E080E00E94CF3460E082E090E0E8
:1054D0000E94B13460E083E090E00E94B134109209
:1054E000FC021092FD021092FE021092FF0260E098
:1054F00084E090E00E94B13460E081E290E00E949C
:10550000B13460E085E090E00E94B13460E086E074
:1055100090E00E94B1346FEF87E090E00E94B134D8
:1055200040E050E0BA0188E090E00E94C33460E0BF
:105530008DE090E00E94B13440E050E0BA0188E193
:1055400090E00E94C33460E087E190E00E94B134B3
:1055500040E050E0BA018CE190E00E94C33460E08A
:1055600080E290E00E94B1340C94F6060C945F2A1D
:10557000682F8EE090E00C94B134AC019C012E5F5A
:105580003F4F485F5F4F80E02417350709F40895C7
:10559000F90191919F019923B9F38F5FF5CF9C0198
:1055A000662351F0FC013296285F3F4F81918617A8
:1055B00029F0E217F307D1F780E0089581E008951C
:1055C0009C01FC0132968FEF90E04191461751F01B
:1055D0008F3F19F4411101C0892F9F5F9630A9F7C1
:1055E0008F3F09F40895280F311D87FD3A95F90181
:1055F000628308959C01FC013296285F3F4F8191A0
:10560000861303C0DF0111971C92E217F307B9F765
:1056100008950C94E02A0C94FA2AFC01329686E054
:10562000DF011D928A95E9F70895089508950C9475
:10563000162B0E94172B80912503843061F1109264
:105640000E0388E190E020E40FB6F894A8958093CB
:1056500060000FBE2093600080E00E94521980E03D
:105660000E947F080E94172B83B7817F846083BFCD
:1056700083B7816083BF7894889583B78E7F83BF1B
:105680000FB6F894A89580916000886180936000BF
:10569000109260000FBE08950895CF930E94152BBD
:1056A0000E94E90B0E944C2BC0E08C2F0E94040B3F
:1056B000811105C0CF5FCA30C1F7CF91089581E055
:1056C000FCCF08950C94612B0E94CD220E94E81714
:1056D0000E94A71D0E947F080C94622B1F921FB688
:1056E0001F9211248F939F93AF93BF9380910E03CA
:1056F000811113C080910F0390911003A0911103A9
:10570000B09112034196A11DB11D80930F03909398
:105710001003A0931103B0931203BF91AF919F9117
:105720008F911F901FBE1F90189582E084BD93E05B
:1057300095BD9AEF97BD80936E0008952FB7F894AA
:1057400080910F0390911003A0911103B091120367
:105750002FBF08959C014FB7F89480910F0390914B
:105760001003A0911103B09112034FBF821B930B42
:10577000089578941F921FB61F9211248F939F93C0
:10578000AF93BF9380910F0390911003A0911103E9
:10579000B09112030196A11DB11D80930F03909348
:1057A0001003A0931103B0931203BF91AF919F9187
:1057B0008F911F901FBE1F90189587E797E79093D2
:1057C00001088093000888E19AE00FB6F894A89544
:1057D000809360000FBE90936000FFCFCF93DF9364
:1057E00000D000D0CDB7DEB70E94172A811102C0C9
:1057F0000E94B62A0E94222A80930D030E942A2A20
:1058000090931403809313030E94262A282F30E0DC
:1058100050E040E0CA01B9010E9494268091F8024C
:105820009091F902A091FA02B091FB0289839A83C8
:10583000AB83BC83BC01CD010F900F900F900F90F4
:10584000DF91CF910C941027809120030895089543
:10585000CF93DF9300D00F92CDB7DEB790912503A1
:10586000943019F589836A837B8382E08093E90011
:105870008FEF9091E800815095FD06C095ED9A95C7
:10588000F1F700008111F5CF8091E80085FF0DC090
:1058900050E040E063E070E0CE0101960E94E32E0C
:1058A0008091E8008E778093E8000F900F900F9022
:1058B000DF91CF910895BC0184E00C94282CBC01A9
:1058C00083E00C94282CCF93DF93D82FC92F81E04D
:1058D0008093E9008FEF9091E800815095FD06C01C
:1058E00095ED9A95F1F700008111F5CF8091E800D0
:1058F00085FF16C050E040E068E070E08D2F9C2FDF
:105900000E94E32E8091E8008E778093E80088E083
:10591000ED2FFC2FA8E1B3E001900D928A95E1F7FD
:10592000DF91CF9108959FB7F894109217039FBF0E
:1059300090912503943009F047C02091E90090919F
:10594000EC009795992797952F70922B23E0209341
:10595000E9002091EB0020FF34C02091EE0027FFEA
:1059600030C020911503222321F02091E80025FF6B
:1059700028C01092150326E03091E80035FF14C0CE
:105980008093F1008091E80085FD27C08091E800B8
:1059900080FFFCCF8091E8008E778093E8009F70B5
:1059A0009093E90080E0089530912503343049F464
:1059B0003091EB0035FD05C0215041F481E080932A
:1059C00015039F709093E9008FEF0895EFE9FFE0D2
:1059D0003197F1F700C00000CFCF8FB7F89421E0E6
:1059E000209317038FBFDBCF86EB9AE00E9454060B
:1059F00080912E03811109C00E946B300E94C83033
:105A00008091E20084608093E200089582EB9AE046
:105A10000E94540610922E0308958EEA9AE00C9488
:105A200054068AEA9AE00C94540686EA9AE00E94A8
:105A300054060C94642B209116032F5F822F62E38F
:105A40000E947D33992319F0209316030895109234
:105A50001603809117038823E9F080912503843091
:105A6000B9F49091E9008091EC008795882787959B
:105A70009F70892B93E09093E9009091EB0090FF49
:105A800004C09091EE0097FD08C08F708093E900EC
:105A90001092170308951092F1009091E80095FD7F
:105AA000FACF9091E80090FFF0CF9091E8009E77B8
:105AB0009093E800EACF42E061EC81E00E94E72F9A
:105AC00042E261EC82E00E94E72F42E261EC83E077
:105AD0000C94E72F80912703893089F148F48230B4
