:100000000C94FF050C94211C0C9446060C94460697
:100010000C9446060C9446060C9446060C94460630
:100020000C9446060C9446060C946D2F0C944130AB
:100030000C94042A0C9446060C9446060C9446062E
:100040000C9446060C9446060C9446060C94460600
:100050000C9446060C944F2A0C9446060C944606C3
:100060000C9446060C9446060C9446060C944606E0
:100070000C9446060C9446060C9446060C944606D0
:100080000C9446060C9446060C9446060C944606C0
:100090000C9446060C9446060C9446060C944606B0
:1000A0000C9446060C9446060C94460601012D005D
:1000B000010138000101380001012D000101370064
:1000C00001013300010136000103E10101330102A6
:1000D000E10049001E001F002000210022002B002B
:1000E00014001A0008001500170029620400160009
:1000F000070009000A0008551C001B000600190033
:10010000050000000000E60004552C6144004C008E
:10011000270026002500240023004C0013001200B5
:100120000C0018001D002A002B5D0F000E000D00B2
:100130000B0028622C5D2A5D295D10001100000073
:100140000000025208552844055435001E001F00C7
:100150002000210022002B0014001A0008001500C6
:100160001700E10004001600070009000A00E00083
:100170001D001B00060019000500000000003A00E9
:10018000E2002C0029002A00270026002500240078
:1001900023004C00130012000C0018001C00340057
:1001A00033000F000E000D000B00E5003800370093
:1001B0003600100011000000000000520052E00064
:1001C000280049001E001F002000210022002B00F3
:1001D0003800295D2A5D13001C002962040012000A
:1001E000080018000C0008552D0014000D000E002A
:1001F0001B0000000000E60004552C6144004C0088
:10020000270026002500240023004C000F001500C5
:1002100006000A0009002A001600110017000B0052
:10022000070028621D0019001A00100005000000D8
:100230000000035208552844055449001E001F00C1
:100240002000210022002B001400070015001A00D6
:1002500005002962040016000B0017000A0008556B
:100260001D001B0010000600190000000000E60041
:1002700004552C6144004C00270026002500240072
:1002800023004C0013002B5D180009000D002A000C
:100290000C001200080011001C0028622C5D2A5D71
:1002A000295D0F000E00000000000152085528448F
:1002B000055401001E001F00200021002200010043
:1002C000250234022602510050000100310236029C
:1002D0002F022F002402010035022E0222022102E9
:1002E00031000000000001000100010001000100D8
:1002F00027002600250024002300010027003400E9
:10030000270252004F000100350037023002300052
:100310002E00010027001F0220021E0223020000FF
:100320000000010001000100010001003A003B0053
:100330003C003D003E00010046000100BD00BE0043
:1003400001000100440045004A004D006800010022
:100350006A006B006C006D006E0000000000010080
:100360000100010001000100430042004100400083
:100370003F0001000100A800A900AA00010001003F
:1003800069004F00520051005000010073007200DC
:100390004B004E006F000000000001000100010052
:1003A000010044454255473A2064697361626C65B7
:1003B000642E0A0044454255473A20656E61626CDE
:1003C00065642E0A0000000000000000002A2B28AF
:1003D000000000000000000000000000000000001D
:1003E00029000000002C1E34202122243426272539
:1003F0002E362D3738271E1F202122232425263371
:1004000033362E37381F0405060708090A0B0C0D72
:100410000E0F101112131415161718191A1B1C1D84
:100420002F3130232D350405060708090A0B0C0D62
:100430000E0F101112131415161718191A1B1C1D64
:100440002F3130354C00000000000000000000009B
:100450000000000000000000007E0F00D4FFFFFF3E
:10046000C7000000780A0025303862003A200025D5
:10047000303258000A722F6320303132333435362F
:10048000370A007267626C6967687420616E696D13
:100490006174696F6E207469636B207265706F722E
:1004A0007420746F20736C6176650A007267626CE9
:1004B000696768742074696D65722064697361622C
:1004C0006C652E0A007267626C69676874207469D3
:1004D0006D657220656E61626C65642E0A007267DC
:1004E000626C696768742073657420687376205B3A
:1004F0004E4F454550524F4D5D3A2025752C257580
:100500002C25750A007267626C69676874207365D0
:100510007420687376205B454550524F4D5D3A20FC
:1005200025752C25752C25750A007267626C696724
:100530006874207261696E626F77207365742068D9
:1005400073763A2025642C25642C25642C25750AA5
:10055000007267626C696768742064697361626CB9
:1005600065205B4E4F454550524F4D5D3A207267B6
:10057000626C696768745F636F6E6669672E656E2B
:1005800061626C65203D2025750A007267626C69A6
:100590006768742064697361626C65205B454550CF
:1005A000524F4D5D3A207267626C696768745F6391
:1005B0006F6E6669672E656E61626C65203D2025F1
:1005C000750A007267626C6967687420656E6162A3
:1005D0006C65205B454550524F4D5D3A2072676215
:1005E0006C696768745F636F6E6669672E656E61BC
:1005F000626C65203D2025750A007267626C696730
:10060000687420746F67676C65205B454550524F76
:100610004D5D3A207267626C696768745F636F6EE4
:100620006669672E656E61626C65203D2025750ADE
:10063000007267626C69676874206D6F6465205B27
:100640004E4F454550524F4D5D3A2025750A007278
:1006500067626C69676874206D6F6465205B4545EF
:1006600050524F4D5D3A2025750A007267626C69E1
:100670006768745F696E6974207267626C69676825
:10068000745F636F6E6669672E6D6F6465203D20D1
:10069000302E2057726974652064656661756C74CC
:1006A0002076616C75657320746F20454550524FFC
:1006B0004D2E0A007267626C696768745F696E69C3
:1006C00074206565636F6E666967206973206E6F5D
:1006D0007420656E61626C65642E0A007267626CDC
:1006E000696768745F696E697420737461727421DC
:1006F0000A007267626C696768745F696E6974206A
:1007000063616C6C65642E0A007267626C6967686D
:10071000745F636F6E6669672E7370656564203DF4
:100720002025640A007267626C696768745F636F92
:100730006E6669672E76616C203D2025640A007222
:1007400067626C696768745F636F6E6669672E7352
:100750006174203D2025640A007267626C696768D5
:10076000745F636F6E6669672E687565203D20252E
:10077000640A007267686C696768745F636F6E66AD
:1007800069672E6D6F6465203D2025640A007267DD
:10079000626C696768745F636F6E6669672E656E09
:1007A00061626C65203D2025640A007267626C6995
:1007B0006768745F636F6E66696720454550524F86
:1007C0004D3A0A0032190A00047F3F1F6432146454
:1007D0003214783C1E1E140A052223252628292AB5
:1007E0002C2D2F3032333536383A3B3D3E40424394
:1007F0004547494A4C4E5051535557595A5C5E60D3
:1008000062646668696B6D6F71737577797B7D7FE4
:1008100081838587898A8C8E90929496989A9C9EE3
:100820009FA1A3A5A7A8AAACAEAFB1B3B4B6B8B9FF
:10083000BBBCBEBFC1C2C3C5C6C7C9CACBCCCDCE67
:10084000D0D1D2D2D3D4D5D6D7D7D8D9D9DADADB4A
:10085000DBDBDCDCDCDCDCDDDDDDDDDCDCDCDCDCD6
:10086000DBDBDBDADAD9D9D8D7D7D6D5D4D3D2D215
:10087000D1D0CECDCCCBCAC9C7C6C5C3C2C1BFBEFD
:10088000BCBBB9B8B6B4B3B1AFAEACAAA8A7A5A368
:10089000A19F9E9C9A98969492908E8C8A89878527
:1008A00083817F7D7B79777573716F6D6B69686606
:1008B0006462605E5C5A5957555351504E4C4A49D8
:1008C00047454342403E3D3B3A3836353332302F80
:1008D0002D2C2A292826252322FFAA7F5540626134
:1008E000636B6C6967687420737465703A20257552
:1008F0000A006261636B6C69676874206469736184
:10090000626C650A006261636B6C6967687420657C
:100910006E61626C650A006261636B6C6967687422
:1009200020746F67676C653A2025750A0062616301
:100930006B6C696768742064656372656173653A9E
:100940002025750A006261636B6C696768742069B1
:100950006E6372656173653A2025750A00000101B6
:10096000010101010101010202020202020202026E
:10097000030303030303030304040404040404053E
:100980000505050506060606060707070707080802
:100990000808090909090A0A0A0B0B0B0C0C0C0DB3
:1009A0000D0D0E0E0E0F0F0F10101111111212134C
:1009B000131414151516161717181819191A1A1BC7
:1009C0001B1C1D1D1E1E1F20202122222324242526
:1009D0002626272829292A2B2C2D2D2E2F3031325F
:1009E00032333435363738393A3B3C3D3E3F40416F
:1009F00042434445464748494A4C4D4E4F50515357
:100A000054555658595A5B5D5E5F6162646566680D
:100A1000696B6C6D6F7072737577787A7B7D7E8091
:100A200082838587888A8C8E8F91939596989A9CDD
:100A30009EA0A2A3A5A7A9ABADAFB1B3B5B7BABCF1
:100A4000BEC0C2C4C6C9CBCDCFD1D4D6D8DBDDDFC2
:100A5000E2E4E7E9EBEEF0F3F5F8FAFDFF0A002532
:100A600030325820006B6579626F6172645F726525
:100A7000706F72743A20000A0025303258006B659E
:100A800079626F6172645F7365745F6C65643A204C
:100A9000005B735D004B6579626F617264207374F3
:100AA0006172742E0A005B575D005B535D005B5200
:100AB0005D005B445D005B435D00040330000000AB
:100AC00026034B0065006500620069006F0020008E
:100AD0004900720069007300200052006500760032
:100AE0002E002000320000000E034B006500650060
:100AF000620069006F0000000403090409025B0042
:100B0000030100A0FA09040000010301010009210A
:100B1000110100012240000705810308000A0904B1
:100B2000010001030000000921110100012232002F
:100B30000705820320000A090402000203000000E6
:100B40000921110100012222000705830320000171
:100B50000705030320000112011001000000081026
:100B6000CB56220002010203010631FF0974A101E4
:100B70000975150026FF0095207508810209761574
:100B80000026FF00952075089102C005010980A18B
:100B900001850319012AB700150126B700950175D3
:100BA000108100C0050C0901A101850419012AA0CA
:100BB00002150126A002950175108100C0050109EA
:100BC00006A101050719E029E7150025019508751B
:100BD0000181029501750881010507190029FF159A
:100BE0000026FF00950675088100050819012905F2
:100BF000950575019102950175039101C0001124BD
:100C00001FBECFEFDAE0DEBFCDBF04B603FE27C0C4
:100C10008091350390913603A0913703B09138034A
:100C20008730904BA740B04BD1F41092350310920F
:100C30003603109237031092380314BE84B7877FAF
:100C400084BF0FB6F894A895809160008861809366
:100C50006000109260000FBEE0E0F8E3099511E03B
:100C6000A0E0B1E0EEE8F7E602C005900D92A23EEA
:100C7000B107D9F723E0A2EEB1E001C01D92A53380
:100C8000B207E1F70E94A22C0C9489330C94000067
:100C9000FF93EF93E091E201F091E301309709F0C7
:100CA0000995EF91FF910895FC018591803011F035
:100CB000EFDFFBCF0895FF27E0E230E247FF0CC0F3
:100CC000419597FF09C0EDE26095709580959095EC
:100CD000611D711D811D911D27FF02C0219530E30B
:100CE00050E2AA27660F771F881F991FAA1FA41713
:100CF00010F0A41B63955A95A9F7AA3008F0A95FD4
:100D0000A05DAF93F395611571058105910541F7DC
:100D1000ED3211F4EF93F395F21718F43F93F39536
:100D2000FBCF8F91B5DFFA95E1F70895E991F9913D
:100D30008591803021F0853219F0AADFF9CF08952E
:100D400020E0E89455915532C1F3503311F4689482
:100D500055915A3348F4505390F3220F022E220F2C
:100D6000220F200D250FF4CF0EF421958991999132
:100D7000533619F3533729F1533559F1BC018827FC
:100D80009927E8945C3621F489919991689455915A
:100D9000543639F446EF7EF077FF0DC08FEF9FEFAA
:100DA0000AC055374AE039F0583540E121F0523653
:100DB00042E009F00895FF93EF937DDFEF91FF91FB
:100DC000B7CFFF93EF93FC0181918030B9F360DFDF
:100DD000FBCFFF93EF9368DFF1CFDF93CF93CDB7D6
:100DE000DEB72596A3DFCF91DF9108950E94BD174E
:100DF00083E00E946D180E9497144FEF6FEF80E020
:100E00000E94D1108BE00E94941460E070E0CB014E
:100E10000E94E9280C94F528FB018A322DE59207FF
:100E200061F128F489329D45B1F081E008958B325B
:100E30002DE5920791F18C329D45B9F78281882387
:100E4000A1F3E0912801F0912901808181FF35C053
:100E500080EB90E00CC08281882339F3E091280177
:100E6000F0912901808181FF05C088EC90E00E940B
:100E70006408DBCF84EC90E0FACF82818823A9F26A
:100E8000E0912801F0912901808181FF03C080EC6D
:100E900090E0EDCF8CEB90E0EACF8281882329F2BD
:100EA000E0912801F0912901808181FF03C088EB46
:100EB00090E0DDCF84EB90E0DACF8CEA90E0D7CF02
:100EC00081E008950C940C0708950C9464071F9317
:100ED000CF93DF9300D000D00F92CDB7DEB7498318
:100EE0005A836B8330915D0289819A8131111DC0D3
:100EF0006623B9F02223A9F00E945127182F682FEA
:100F000089819A810E94FA2669817A81812F0F90C6
:100F10000F900F900F900F90DF91CF911F910C9435
:100F2000F4080E942827182FEFCF0E9451276981CB
:100F30007A81EDCFFC01262F40815181628173813E
:100F400084810C946707CF93DF93EC0160E00E94EB
:100F50009A07BE01DF91CF910C946507FF920F9322
:100F60001F93CF93DF93E82FF0E0EB53FC4FF49007
:100F7000C82FC695C695C695D0E0FE01EB5AFB4F2B
:100F80000491877010E0082E02C0159507950A9409
:100F9000E2F701701127CB5BDB4FFE01C491D0E07B
:100FA00002C0D595C7958A95E2F7C170DD27011576
:100FB000110519F081EE0E94CC1E209719F086EEE3
:100FC0000E94CC1E8F2D0E94A51FCD2B19F086EEFE
:100FD0000E94561F012B41F081EEDF91CF911F91AE
:100FE0000F91FF900C94561FDF91CF911F910F919D
:100FF000FF900895EF92FF920F931F93CF93DF938B
:101000008C01F62E8AE0E82EF8018491882309F4F9
:1010100054C0813009F04DC0E8012196FE01849151
:10102000813091F42196FE0184910E94A51F8E01CA
:101030000F5F1F4F8F2D815038F3EFE9FFE031979D
:10104000F1F700C00000F7CF823039F4E8012296B2
:10105000FE0184910E94CC1EEACF833039F4E8016E
:101060002296FE0184910E94561FE1CF8430F9F64A
:10107000E8012296FE01249190E080E0FE01319685
:101080002053330B2A30310548F0019780F2EFE905
:10109000FFE03197F1F700C00000F7CFE89EA00114
:1010A000E99E500D1124C901840F951F2491EF0171
:1010B000E5CF0E94AE07E801BACFDF91CF911F9133
:1010C0000F91FF90EF90089560E00C94FA070E9452
:1010D000B228811102C00E9451290E9407190C9464
:1010E000F70A0C94FA0A08950C94730881E00895A5
:1010F0000C947608CF93C82F0E9474088C2FCF9140
:101100000C94780808950E9425220E9482082FEFEF
:1011100084E39CE0215080409040E1F700C0000053
:101120000C94732A0F931F93CF93DF93EC0161E02C
:101130000E949A078C01BE010E946207882371F108
:10114000BE01C8010E947318882341F1BE01C80185
:101150000E94CE19882311F1BE01C8010E94201AF5
:101160008823E1F0BE01C8010E94431B8823B1F02F
:10117000BE01C8010E94C516882381F08A81882398
:1011800041F101308CE5180779F00E3D8CE5180728
:10119000E9F001151C45E9F40E94830880E0DF9125
:1011A000CF911F910F9108959091D302892F8E7F37
:1011B00090FF81608093D30280FF05C084EB93E0B1
:1011C0000E945406EBCF82EA93E0FACF0E945129A5
:1011D000E5CFCE01DF91CF911F910F910C94600765
:1011E00090E080E008950895972F70E026E0929FA8
:1011F000600D711D1124FB019CE3899FE00DF11D21
:101200001124EE0FFF1FEE52FF4F85919491089528
:10121000FC01EE0FFF1FEB59FB4F85919491089550
:10122000CF93DF930E94F4080E941C0AEC01811501
:1012300020E5920708F041C0811530E4930708F0DB
:10124000B4C0803E910518F5803C910508F09DC022
:10125000883A910570F4853A910508F08EC0813086
:101260009105F9F00097E9F00497D8F4D0E0C0E0D8
:1012700018C08F3B9105D0F7C85AD0E0CC0FDD1FC6
:10128000CB5CDE4F0990D881C02DD4640AC0811593
:10129000904258F4C11581E0D80718F4C83ED10532
:1012A00028F7CE01DF91CF910895C11590E3D907BA
:1012B00008F071C0CE019F706AC0811525E59207C4
:1012C00058F5811534E5930708F09EC0811542E575
:1012D000940750F4C11581E5D80708F469C0DC2FE4
:1012E000CC27C16FD06ADDCF982F969596959E0139
:1012F00023703327C115D34508F077C0C1E0D0E093
:1013000002C0CC0FDD1F2A95E2F720E2929FC001B8
:101310001124C82BD92B67C0C11589E5D807A8F4BB
:10132000C11598E5D90708F074C0C11526E5D207A4
:1013300008F09CCF8C2F0E94B30AC82FD0E0DC2F7E
:10134000CC27CC27DF71D062ACCFC1153AE5D307EB
:1013500008F464C0CE0190568115904208F086CF03
:101360008D2F8F710E94B30A90E0982F88278827CD
:101370009F719C012C2BE901E6CFC55AD0E0CD59D5
:10138000DE4FC881D0E0D0648CCF805C91090E9490
:101390000809EC0186CFCE019927D3FF03C0EC01E9
:1013A000D86C7FCFEC01D06C7CCFDF70D06A79CF66
:1013B000CE01E4E096958795EA95E1F783702C2FAE
:1013C00026952695237090E2299F90011124382BB1
:1013D0008C2F8370C1E0D0E002C0CC0FDD1F8A9556
:1013E000E2F7C22BD32BDC685CCFC1E0D0E002C0B7
:1013F000CC0FDD1F2A95E2F730E2939FC001112444
:10140000C82BD92BDA684DCFD82FCC27C46FD06A20
:1014100048CFDC2FCC27C06FD06A43CF8C2F8F7082
:101420000E94B30A34E0D695C7953A95E1F7CF709C
:101430009C2FEC01D06935CF82389105B1F1B0F421
:101440008133910509F475C048F48932910509F496
:1014500069C08A32910509F473C0089585339105F6
:1014600009F459C08933910501F10895833E91052E
:10147000A9F138F4803E9105F9F0823E910549F1D9
:101480000895863E9105A9F1873E9105C9F1843EF4
:10149000910519F52091270321FF1FC08091260394
:1014A00084FD14C087EE90E00895209126032370F8
:1014B000A1F080EE90E008952091260320FD47C022
:1014C0003091270330FF09C024FF44C090E080E042
:1014D00004C02091260322FDF7CF08952091260312
:1014E00022FD3BC03091270330FDE3CF24FFF5CF31
:1014F000EDCF2091260323FFF0CF24FDE7CFD2CFFD
:101500002091260323FD2CC03091270331FFEECF1D
:1015100084EE90E008952091260325FFDECF89E236
:1015200090E008952091260325FFD7CF85E390E032
:1015300008952091260326FFD0CF8AE290E00895F7
:101540002091260326FFC9CF81E390E0089589E327
:1015500090E0089583EE90E0089582EE90E0089583
:1015600086EE90E008959091260392FF06C0282F02
:1015700028712830F9F4877F846093FF06C0282FF4
:1015800028712831F1F4877E84612091270320FFA0
:1015900006C0382F38713830D9F4877F816021FF39
:1015A00006C0282F28712831D1F4877E816194FDEF
:1015B000877E0895282F24712430F9F68B7F886068
:1015C000DCCF282F2471243101F78B7E8861DDCF99
:1015D000382F3171313019F78E7F8860E0CF282F96
:1015E0002171213121F78E7E8861E1CF08950C941D
:1015F000F60A08950C94F90AE82FF0E0E451FD4F43
:1016000080810895CF92DF92EF92FF920F931F9304
:10161000CF93DF9384E794E00E9454068CEEE82E8B
:1016200082E0F82ED0E0C0E09FE6C92E94E0D92EEB
:1016300007E614E0DF93CF93DF92CF920E94ED068E
:101640008CE694E00E945406F70181917F010E948C
:101650009A281F928F931F930F930E94ED0685E6A1
:1016600094E00E94540621968DB79EB708960FB657
:10167000F8949EBF0FBE8DBFCA30D105D9F6DF9159
:10168000CF911F910F91FF90EF90DF90CF90089531
:1016900080EA8A95F1F7089508950E94AB0C809135
:1016A00004018091040195E0811190E09093F7028C
:1016B00085E0891B8093F602ACE6B1E061E070E062
:1016C0008D91E82FE295EF70F0E041A18F709B01C2
:1016D00001C0220F8A95EAF7922F9095942391A347
:1016E00082A1822B82A381E0A137B80749F7A6E641
:1016F000B1E061E070E08D91E82FE295EF70F0E0ED
:1017000041A18F709B0101C0220F8A95EAF7922FA9
:101710009095942391A382A1822B82A381E0AC3681
:10172000B80749F7E2EEF2E0ACEEB2E08CEE92E000
:1017300011921D928E179F07D9F785E00E94530CD6
:101740000E9467080C94C00C0E948A0C8823F9F050
:101750008091F60290E084519D4F0E94F00C81111F
:1017600013C08091E4018F5F8093E401863050F0D4
:10177000E091F602F0E0E451FD4F108211821282F6
:10178000138214820C9471081092E401FBCF8091B3
:10179000F70290E084519D4F0E94170D0C944C0B62
:1017A0008F929F92AF92BF92CF92DF92EF92FF9271
:1017B0000F931F93CF93DF938CE6A82E81E0B82E72
:1017C00002EE12E0912CCC24C394D12CF50181912E
:1017D0005F01C82FC295CF70D0E099A18F707601BC
:1017E00001C0EE0C8A95EAF7892F8E2989A38AA178
:1017F0008E2C809488218AA30E94480BE6E6F1E0B3
:1018000050E040E020E03191A32FA295AF70B0E00E
:1018100090968C9190E03F7002C0959587953A958F
:10182000E2F780FD3CC08C2D042E01C0880F0A9485
:10183000EAF7282B4F5F5F4F4630510521F789A10A
:10184000882289A28AA1E82AEAA2F80180812817C1
:1018500041F1208381E0982A0F5F1F4FF1E7AF1617
:10186000F1E0BF0609F0B2CF6091F70270E0645179
:101870007D4F292D45E082EE92E00E94540C0E949B
:10188000A40B892DDF91CF911F910F91FF90EF90C5
:10189000DF90CF90BF90AF909F908F90089580E0A1
:1018A000C8CF80E0D8CF0895FF920F931F93CF93B6
:1018B000DF93F82E092F162FD72FC42F222349F09C
:1018C00081E08093E7010E94342A9093E60180939F
:1018D000E5018091E7018823A1F08091E5019091D5
:1018E000E6010E94402A069760F0EF2DF02FA12F0D
:1018F000BD2FCE0FDF2FD11DEC17FD0741F4109245
:10190000E701DF91CF911F910F91FF900895819191
:101910008D93F2CF8091E801811111C08091D800A0
:1019200080618093D8008AE18A95F1F700C0909198
:10193000D900892F817090FF82E08093E80181E0D7
:101940009091E801913009F080E008950E948A0C9E
:1019500091E0892708950E94A60C8093040180914C
:10196000040166E0882349F080E00E94C90D0E94CE
:101970008A0C882321F00C94C70C86E0F6CF0895DA
:101980000E948A0C811102C00C94CD0C089562E073
:1019900070E085E091E00C94CE1B62E070E085E0A1
:1019A00091E00C94D71B0E94C013882361F081EF53
:1019B00091E00E94C61381E090E00E94B01C892B48
:1019C00011F40C94C31308958091F001883039F418
:1019D00060E081EF91E00E9495151092F00108956A
:1019E000CF93DF93D82FC92F0E94D30C90E080E0D3
:1019F0000E94B01C0097C9F4ED2FFC2FDC01A5510B
:101A0000BE4F2C912193019685309105B9F70E9424
:101A10003417882341F00E9438178093EA0181E04F
:101A2000DF91CF91089580E0F8CF80E0F9CFCF9398
:101A3000DF93D82FC92F0E94E40CED2FFC2F90E0EC
:101A400080E02191DC01A551BE4F2C930196853099
:101A50009105B9F78091EA01DF91CF910C94A81814
:101A6000EF92FF920F931F93CF93DF93EB01E82F39
:101A7000D11110C0442321F0F0E0E35AF64FE49175
:101A80006E2F7E2F8E2FDF91CF911F910F91FF90A0
:101A9000EF9008950D2F10E0282F30E0442329F017
:101AA000235A364FF901249130E0F6E0CF9FC00170
:101AB0001124EFEFF0E0BF010E941C32AB018C2F2C
:101AC00090E0880F991FA5E5A49FB001A59F700D18
:101AD0001124861B970B982F990F980FBF01601B3D
:101AE000710B629FD001639FB00D729FB00D1124E6
:101AF0008B2F9D9FB0011124672F7727EF01C61B05
:101B0000D70BBE01629FE001639FD00D729FD00D85
:101B100011247F01E91AF108E09EB001E19E700DE9
:101B2000F09E700D1124672F7727E61BF70BE29FBD
:101B30008001E39F100DF29F100D1124E12F722FF1
:101B40004230510599F048F44115510569F0413092
:101B5000510581F0EB2F8D2F07C04430510569F0FE
:101B600080F046305105B1F76E2F8DCFE22F7B2FDD
:101B7000812FFACFE22F7D2FF7CFEB2F822F712FFE
:101B8000F3CF7B2F822FED2FEFCF41E00C94300D60
:101B90000895E8E1F1E0808361830895CF93DF93B6
:101BA000762FE901682F842F0E94C50D7983688301
:101BB0008A83DF91CF9108958091F802982F9E7FBC
:101BC00029F4817082608093F80208958635E8F3E5
:101BD00081708465F8CF88E090E00C942A33CF922E
:101BE000DF92EF92FF926B017C010E94DC0DB70146
:101BF000A60188E090E0FF90EF90DF90CF900C94EA
:101C00004833E8EFF2E083E0808311828FEF828334
:101C100083831482A2E4B2E012968C9112978360BF
:101C200012968C9360817181828193810C94EF0D67
:101C30008091D30280FF76C08BEA97E09F938F93C9
:101C40000E94ED068091D3020F900F9080FF6AC032
:101C50008091F80281701F928F938EE897E09F9396
:101C60008F930E94ED068091D3020F900F900F90FA
:101C70000F9080FF57C08091F80286951F928F9336
:101C800083E797E09F938F930E94ED068091D302A4
:101C90000F900F900F900F9080FF44C08091F90239
:101CA0001F928F9389E597E09F938F930E94ED0693
:101CB0008091D3020F900F900F900F9080FF32C051
:101CC0008091FA021F928F938FE397E09F938F93F7
:101CD0000E94ED068091D3020F900F900F900F900D
:101CE00080FF20C08091FB021F928F9385E297E0D6
:101CF0009F938F930E94ED068091D3020F900F90D7
:101D00000F900F9080FF0EC08091FC021F928F9366
:101D100089E097E09F938F930E94ED060F900F90BC
:101D20000F900F9008958091F80280FF02C0869571
:101D3000089580E008959091FC02933018F49F5F1D
:101D40009093FC02882351F06091F8027091F9029F
:101D50008091FA029091FB020C94EF0D089581E0BE
:101D60000C949B0E9091FC02992319F09150909342
:101D7000FC02882351F06091F8027091F902809181
:101D8000FA029091FB020C94EF0D089581E00C94FF
:101D9000B20E70E00C941719609119018091F8024D
:101DA00080FF0AC08091180123E0829FC0011124A6
:101DB00083509D4F0C94C90E80911A0190911B0184
:101DC00023E0829FF0011124E350FD4F891750F763
:101DD0001182108212828F5F3396F8CF9091F802B1
:101DE00090FF14C090911A0120911B0133E0939F42
:101DF000F0011124E350FD4F921710F00C94CC0E1B
:101E00008183608342839F5F3396F6CF0895CF939B
:101E1000DF9300D00F92CDB7DEB79091F80290FF1C
:101E20000AC09E012F5F3F4F0E94CE0D4B816981FA
:101E30008A810E94EE0E0F900F900F90DF91CF914C
:101E40000895CF93DF93EC01EC81F0E0E752F84F77
:101E50004491E8EFF2E0628181810E94070F8C815A
:101E60008F5F8C83DF91CF910895CF93DF93EC0147
:101E7000E8EFF2E0438162818C810E94070F8C8140
:101E80008F5F8C83DF91CF9108950F931F93CF9332
:101E9000DF9300D00F92CDB7DEB78C018091F901AE
:101EA00081110AC09E012F5F3F4F4FEF6FEF0E94DD
:101EB000CE0D8A818093F901F8016481613069F067
:101EC0008091F90140E0662361F040E0623011F456
:101ED0004091F90180E060E004C06091F90140E0C8
:101EE00080E00E94EE0EF801848190E0019663E0AC
:101EF00070E00E94303284830F900F900F90DF913A
:101F0000CF911F910F9108954F925F926F927F92A0
:101F10008F929F92AF92BF92CF92DF92EF92FF92F9
:101F20000F931F93CF93DF9300D00F92CDB7DEB7FF
:101F3000182FF62E042F722E9091F80290FF57C0A2
:101F4000E92FE695AE2FB0E0AA58BE4F8C91809352
:101F500042029E7F923009F05EC09E012F5F3F4F8C
:101F6000812F0E94CE0D4B8169818A810E94EE0EE5
:101F70008091F902811308C08091FA028F1104C088
:101F80008091FB02801729F0809144028260809347
:101F900044021093F902F092FA020093FB027720B8
:101FA00009F49CC06091F8027091F9028091FA02E4
:101FB0009091FB020E94EF0D8091D30280FF17C029
:101FC0008091FB021F928F938091FA021F928F9350
:101FD0008091F9021F928F9385E095E09F938F93F4
:101FE0000E94ED060FB6F894DEBF0FBECDBF0F9076
:101FF0000F900F90DF91CF911F910F91FF90EF9075
:10200000DF90CF90BF90AF909F908F907F906F9018
:102010005F904F900895823019F40091FB02A8CF91
:10202000863019F41091F902A3CF8930D9F38931A0
:1020300009F09ECFE9518E2F8170682E8E2F8095EA
:102040008170E82EE695F0E0E752F74FC590D49006
:10205000412CDD249AE2A92E95E0B92E60911C0155
:10206000461618F00E94CC0E83CF842C912C8C9CA9
:10207000C0018D9C900D9C9C900D112470E00E94DD
:102080001C32512E611028C0560E8091D30280FF61
:1020900011C0DF92CF921F92EF921F925F921F9218
:1020A0004F92BF92AF920E94ED060FB6F894DEBF3A
:1020B0000FBECDBF20911A01820E911C9401220FF8
:1020C000331F280D391D23503D4F402F6F2D852D77
:1020D0000E94CE0D4394C2CF561AD7CF8091D3021F
:1020E00080FF85CF1F920F931F92FF921F921F9325
:1020F0008EED94E073CFE8EFF2E09181282F4381D9
:10210000628188E0890F0C94840F81E00C947B102D
:10211000E8EFF2E09181282F4381628188EF890FF7
:102120000C94840F81E00C948810E8EFF2E0628157
:1021300021E1620F08F46FEF282F438181810C9415
:10214000840F81E00C949510E8EFF2E0628121E1C8
:10215000621B08F460E0282F438181810C94840F76
:1021600081E00C94A410E8EFF2E0438121E1420FFA
:1021700008F44FEF282F628181810C94840F81E055
:102180000C94B310E8EFF2E0438121E1421B08F424
:1021900040E0282F628181810C94840F81E00C94AF
:1021A000C21021E00C94840F20E00C94840FEF9275
:1021B000FF921F93CF93DF93EC0110E0EE24EA949B
:1021C000F12C60911C01161770F00E94CC0E9A81C0
:1021D0008C8190FF27C08F5F8C83DF91CF911F91FF
:1021E000FF90EF90089520911A01422F410F55273B
:1021F000551FCA019A01220F331F280F391F235080
:102200003D4F70E0C7010E943032962F8C81409183
:10221000FB026091FA02199F800D11240E94CE0DDD
:102220001F5FCFCF8150D8CF8F929F92AF92BF9236
:10223000CF92DF92EF92FF920F931F93CF93DF9392
:10224000EC018A81BB24BA9480FD02C0BB24B39404
:102250008C8181110AC081E0B8122AC080911C01D2
:1022600081508093FB0181E08C83A12C4CE0942E63
:1022700080911C01A816F8F00E94CC0E8091FB0101
:1022800091E0B91261C081115AC080911C01815046
:102290008093FB011C82DF91CF911F910F91FF90E2
:1022A000EF90DF90CF90BF90AF909F908F90089568
:1022B0001092FB01D8CF00911A01CA2CD12C0C0D21
:1022C0001D2D111DC801880F991F080F191F0350DC
:1022D0001D4FF80111821082128234E0E32EF12C9E
:1022E000812C8091FB01880D8D301CF1692D0E949D
:1022F0000E32892F082E000C990BC816D90691F4BE
:102300008091FB028E9DA0018F9D500D112455954B
:1023100047955595479598016091FA028091F90289
:102320000E94CE0D8B0CF1E0EF1AF108D1F6A394C8
:102330009FCF87FFDFCF90911C01890FDBCF8150AA
:102340008093FB01BC82A7CF90E0019660911C01B5
:1023500070E00E9430328093FB018C839CCFEF921F
:10236000FF920F931F93CF93DF93EC018C81811128
:1023700009C081E08C831092FA0192E090931701DA
:102380008093160180911A0190911B0123E0829F96
:10239000F0011124E350FD4F891768F110E003E0CC
:1023A00060911C01161768F10E94CC0E80911601F5
:1023B0002091FA01280F2093FA0190911701980FAC
:1023C00090931701191654F4022E000C330B409110
:1023D0001C014150550B2417350734F0819580932B
:1023E0001601813009F41C82DF91CF911F910F916A
:1023F000FF90EF9008951182108212828F5F3396C2
:10240000CBCFE12EF12C70E0C7010E943032209139
:102410001A01820F482F50E02091FA01022E000C81
:10242000330BE216F306BCF020911701022E000CCC
:10243000330B2E153F057CF0809F90011124235013
:102440003D4F4091FB026091FA028091F9020E9497
:10245000CE0D1F5FA5CFFA01EE0FFF1FE40FF51F92
:10246000E350FD4F118210821282F3CF8F929F9220
:10247000AF92BF92CF92DF92EF92FF920F931F9392
:10248000CF93DF93EC014C81042F10E09801D80129
:102490000E9474329B01AC010E948A324B015C01A4
:1024A000E0E2F0E0E01BF10BA5E5B0E0AC019B0140
:1024B0000E948A326B017C019F01DF010E946C3215
:1024C0009B01AC010E9495329B01AC01280D391D86
:1024D0004A1D5B1DC701B6010E944432F22E822FB5
:1024E00090E039E23F1560F143E0249F9001112410
:1024F00035952795122F109500E085E5E82EEF1809
:1025000080911C01081758F10E94CC0E9C8181E03B
:10251000992319F0903219F48FEF8093150180916F
:102520001501890F8C83DF91CF911F910F91FF903F
:10253000EF90DF90CF90BF90AF909F908F900895D5
:1025400025E530E0B901681B790B9B01220F331F91
:10255000260F371F37FFCCCF2F5F3F4FC9CF8E2DB0
:1025600001FD8F2D20911A01622F600F7727771FB1
:102570009B01220F331F260F371F23503D4F412F42
:102580006091FA020E94CE0D0F5FBACF0F931F9396
:10259000CF93DF93EC0110E000E090911C019017C5
:1025A000110609F06CF40E94CC0E8C8190E001962B
:1025B000817099278C83DF91CF911F910F9108959E
:1025C00020911A01A801420F511D9A01220F331FB9
:1025D000240F351F23503D4F4C816091FA028091AA
:1025E000F90296959017110651F04CF0442349F0EA
:1025F0004091FB020E94CE0D0F5F1F4FCECF4423B0
:10260000B9F340E0F7CF8F929F92AF92BF92CF92F3
:10261000DF92EF92FF920F931F93CF93DF93FC0112
:10262000B280948081E0848300E015E05BE4A52E15
:1026300088248394EE24EA94F12C7BE4C72ED12CD9
:1026400080911C01081770F0DF91CF911F910F91BD
:10265000FF90EF90DF90CF90BF90AF909F908F90C2
:102660000C94CC0EC02FD0E01C9FF0011D9FF00DEC
:102670001124E150FE4F91101CC013821282209150
:102680001A01CE01820F911D9C01220F331F280FCA
:10269000391F23503D4F1C9FF0011D9FF00D112449
:1026A000E150FE4F4281618180810E94CE0D0F5F1B
:1026B000C7CF2381222379F12150238334818A2DAE
:1026C000821B311101C0822F1C9FF0011D9FF00D54
:1026D0001124E150FE4F9091FB02899FC00111240B
:1026E000B6010E941C326283211104C0332311F011
:1026F0001482A38222E02B1510F21C9FF0011D9F73
:10270000F00D1124E150FE4F8091F90280838091F9
:10271000FA028183B4CF0E940533823091400CF0DD
:10272000AECF82E08B1530F50E940533B7010E94D1
:1027300030321C9FF0011D9FF00D1124E150FE4F1F
:10274000808322E02B15C8F40E9405332091FA0201
:102750002695622F70E00E943032280F1C9FF001F6
:102760001D9FF00D1124E150FE4F21831282A382A0
:10277000848285CF8091F902DCCF2091FA02EECFDE
:1027800080914402089510924402089525E0E8EFF4
:10279000F2E0DC0101900D922A95E1F720914202CE
:1027A0003091430240914402FC01258336834783E4
:1027B0000895E2E4F2E011828281846082830895C8
:1027C0006091F802669570E04BE050E08DE191E099
:1027D0000E941533892B19F481E0809343020E94F3
:1027E000342A90933C0280933B028091440284609F
:1027F000809344028091D30280FF08C085EC94E06E
:102800009F938F930E94ED060F900F900895109262
:102810004302809144028460809344028091D302F9
:1028200080FF08C08CEA94E09F938F930E94ED068E
:102830000F900F9008959091F80290FF59C09170F9
:10284000811140C092609093F802809144028160AF
:10285000809344026623E9F16091F8027091F902D5
:102860008091FA029091FB020E94EF0D8091D302B9
:1028700080FF0FC08091F80286951F928F938FE49E
:1028800096E09F938F930E94ED060F900F900F900C
:102890000F906091F802669570E04BE050E08DE19A
:1028A00091E00E941533892B01F10E94071481E009
:1028B00080933E024091FB026091FA028091F902FE
:1028C0000C94D4108B3210F09465BDCF880F982BE8
:1028D000BACF8091D30280FFDCCF8091F802869539
:1028E0001F928F9381E396E0CCCF0E94E013DFCF5D
:1028F0000895682F9091F802969581E0890F8B32A8
:1029000008F081E00C941B1481E00C947914682F7A
:102910009091F80296958FEF890F09F48AE20C9452
:102920001B1481E00C94871461E00C941B148091BB
:10293000F80281608093F8028091D30280FF0DC07D
:102940001F9281E08F9383EC95E09F938F930E9479
:10295000ED060F900F900F900F908091F8028695E2
:102960000C94941460E00C941B148091410281112A
:1029700065C08091D30280FF14C082EF96E09F93E0
:102980008F930E94ED068091D3020F900F9080FFED
:1029900008C08CED96E09F938F930E94ED060F90F8
:1029A0000F900E94B228811110C08091D30280FF45
:1029B00008C084EB96E09F938F930E94ED060F90E2
:1029C0000F900E9451290E94010E0E94EB0D60930E
:1029D000F8027093F9028093FA029093FB028091BF
:1029E00044028360809344026E7FC1F48091D302DD
:1029F00080FF08C08BE696E09F938F930E94ED06C0
:102A00000F900F900E94010E0E94EB0D6093F80250
:102A10007093F9028093FA029093FB020E94DC0DFE
:102A20000E94180E0E94D9138091F80280FF03C003
:102A300086950E94B21481E08093410208958091AE
:102A4000F8028E7F8093F8026091F8027091F9028B
:102A50008091FA029091FB020E94EF0D8091D302C7
:102A600080FF0FC08091F80281701F928F938BE8D6
:102A700095E09F938F930E94ED060F900F900F901B
:102A80000F900E9407148091440281608093440259
:102A90002FEF80E792E0215080409040E1F700C0A6
:102AA00000000C94CC0E8091D30280FF10C0809166
:102AB000F802809581701F928F938AEF95E09F9323
:102AC0008F930E94ED060F900F900F900F908091C2
:102AD000F80280FD0C941F150C9497148091F80255
:102AE0008E7F8093F8028091D30280FF0CC01F92EA
:102AF0001F9281E595E09F938F930E94ED060F90C2
:102B00000F900F900F900E940714809144028160F3
:102B1000809344022FEF80E792E021508040904064
:102B2000E1F700C000000C94CC0E1F93CF93DF930D
:102B3000EC01162F8F8180FF0CC0888180FF24C09C
:102B40008091F80281608093F802888186950E94C6
:102B50001B148F8181FF06C0212F4B816A818981DF
:102B60000E94840F8F8182FF05C08E81882379F0B7
:102B70000E94E0138F8183FF03C081E080933E02B7
:102B8000DF91CF911F9108950E946E15E2CF0E94B0
:102B90000714F0CFEF92FF920F931F93CF93DF9321
:102BA00080914302882309F475C080914202E0912C
:102BB000F802E695E81BE0933D02823009F071C00F
:102BC000F0E0EB52F84FE491CE2FD0E001E21FE0AD
:102BD00080913E02882389F010923E020E94342A9E
:102BE0009E0120953095820F931F90933C02809315
:102BF0003B021092400210923F0280913B02909162
:102C00003C020E94402A8C179D0708F443C0809123
:102C1000FE01882311F11092FE018091FC01909138
:102C2000FD010E94402A80339547B8F00E94342A63
:102C30009093FD018093FC018091D30280FF08C036
:102C400083E894E09F938F930E94ED060F900F907E
:102C500080914402886080934402E0903F02F090AB
:102C60004002E0913B02F0913C02CE0FDF1FD09377
:102C70003C02C0933B028BE392E0F80109958091FE
:102C80003F0290914002892B29F4EF2819F081E04E
:102C90008093FE01DF91CF911F910F91FF90EF90F4
:102CA0000895863049F4F0E0EE52F84FE491CE2FCB
:102CB000D0E005E31FE08CCF893051F4E695F0E0D9
:102CC000E153F84FE491CE2FD0E007ED10E180CF33
:102CD0008F3051F4E695F0E0E453F84FE491CE2FB5
:102CE000D0E004E111E174CF853149F4F0E0E7531D
:102CF000F84FE491CE2FD0E00FEA11E169CFC8E29E
:102D0000D0E006E312E1883109F462CF833239F46E
:102D1000E7ECF7E0C591D49105E41FE059CFC4EF8B
:102D2000D1E006EC12E1843209F452CFC0EDD7E0D5
:102D300008EC1DE0853209F04BCF8E2F63E00E9436
:102D40000232E92FF0E0EC53F84FE491CE2FD0E0BF
:102D500003E013E13DCFFA01811101C0FB010994A9
:102D6000CF93DF93C82FD62F0E94930E8C1740F07D
:102D70000E94930E8D1720F4DF91CF910C94841450
:102D80008C2FDF91CF910C9494141F93CF93DF93EA
:102D9000EC01FB011281111110C00E94E627827222
:102DA000FE01E25CFC45E431F10508F05BC0E5574B
:102DB000FC4C0C9466320E945315812FDF91CF9109
:102DC0001F91089541E954E164E874E10E94AB1653
:102DD000F4CF44E854E161E974E1F8CF42E950E10D
:102DE00065E870E1F3CF45E850E162E970E1EECFCC
:102DF00040EB50E161EA70E1E9CF41EA50E160EB7C
:102E000070E1E4CF4EEC50E16FEB70E1DFCF4FEBC0
:102E100050E16EEC70E1DACF46EC5EE06FEA7EE006
:102E2000D5CF4FEA5EE066EC7EE0D0CF81E00E9435
:102E30009414C3CF65E082E00E94B016BECF68E074
:102E400086E0FACF6EE089E0F7CF64E18FE0F4CF5F
:102E500067E185E1F1CF88E1EACF62E289E1ECCF79
:102E600083E2E5CF11E0A9CF80912103817008951D
:102E70008091210386958695869508950E94B228B3
:102E8000811102C00E9451290E94E02880932103F1
:102E9000803320F087708862809321039091210312
:102EA000892F817090FF04C0892F8695869586951D
:102EB0000C94A81880912103982F96959695969535
:102EC000953040F49F5F990F990F990F8770892B68
:102ED00080932103809121038160809321030E94CC
:102EE000E4288091D30280FF11C080912103869550
:102EF000869586951F928F9385E499E09F938F9393
:102F00000E94ED060F900F900F900F90809121037B
:102F10008695869586950C94A81880912103982F04
:102F2000987F79F0885080932103887F91E009F49D
:102F300090E08091210390FB80F9809321030E940F
:102F4000E4288091D30280FF11C0809121038695EF
:102F5000869586951F928F938DE299E09F938F932C
:102F60000E94ED060F900F900F900F90809121031B
:102F70008695869586950C94A8188091210380FDEE
:102F80001FC0816080932103813019F489E0809310
:102F90002103809121030E94E4288091D30280FFC5
:102FA00008C085E099E09F938F930E94ED060F90F3
:102FB0000F90809121038695869586950C94A8188C
:102FC00008958091210380FF14C08E7F8093210398
:102FD0000E94E4288091D30280FF08C082EF98E02D
:102FE0009F938F930E94ED060F900F9080E00C94BA
:102FF000A8180895CF93C0912103C1708091D30286
:1030000080FF0CC01F92CF9387E199E09F938F932D
:103010000E94ED060F900F900F900F90CC2319F0A7
:10302000CF910C94E117CF910C94BD17909121038F
:10303000892F8695869586958F5F8F7197708630DC
:1030400080F5880F880F880F892B8093210380914A
:103050002103887F91E009F490E08091210390FBA7
:1030600080F9809321030E94E4288091D30280FF9D
:1030700011C0809121038695869586951F928F9326
:103080008EED98E09F938F930E94ED060F900F9026
:103090000F900F90809121038695869586950C94CC
:1030A000A81890932103D3CF863008F085E0909143
:1030B00021039770282F220F220F220F922B90931B
:1030C0002103987F21E009F420E09091210320FB67
:1030D00090F9909321030C94A8180E9454188091A1
:1030E00021030C94E4289C01FB018281882349F18F
:1030F0002D3BFCE53F07C9F040F42B3BECE53E07D8
:1031000069F02C3B3C4579F008952F3B9CE539074D
:1031100091F070F0203C3C4589F0089585E00E94D4
:103120006D1880E0089580E0FACF0E948D17F9CFE6
:103130000E945A17F6CF0E94FA17F3CF0E94161872
:10314000F0CF81E00895259A2D9808952D9808953F
:10315000CF92DF92EF92FF92CF93C82F863040F547
:10316000811127C0809180008F77809380000E941A
:10317000A6182C2F30E0AFEFBFEF0E94743225E08D
:1031800030E040E050E00E944432C9012C3764E155
:103190003607A8F469E070E00E941C327093890041
:1031A00060938800CF91FF90EF90DF90CF900895CB
:1031B000C5E080918000806880938000DACF2A503B
:1031C000374D4F4F5F4F942F832F722F662725EF78
:1031D00038E241E050E00E94443269017A01CA01BC
:1031E000B9010E94F2319B01AC01C701B6010E94F6
:1031F000F231672F782F892F99276115710521E00A
:103200008207910559F66FEF7FEFC8CF08950E94AE
:10321000A31882E88093800089E1809381008FEF7A
:103220009FEF90938700809386000C943E17539AEB
:103230004BB1477F5BB15860EFB7F8949B01220F09
:10324000331F260F371F280F391F2817390741F45E
:10325000EFBF8FE594E00197F1F700C000000895FB
:10326000DC016D91CD0178E05BB9000000C067FF23
:103270004BB9660F000000C000C000C04BB900C0D1
:103280007A9591F7E2CFAF92BF92CF92DF92EF9211
:10329000FF920F931F93CF93DF937C015B01C42FA9
:1032A000D22FFC0182818823F9F0409347020E94CB
:1032B000342A909346028093450280E28C0F883036
:1032C00008F061C0C77081E001C0880FCA95EAF7B5
:1032D000DF91CF911F910F91FF90EF90DF90CF90F2
:1032E000BF90AF900C94B81F10914702141340C0C8
:1032F00080914502909146020E94402A6C01B701DC
:10330000C5010E94D724C816D90690F5C0E2CD0F9A
:103310001D17B9F080E2810F883040F4177081E00A
:1033200001C0880F1A95EAF70E94BF1FC83048F401
:1033300081E09D2F977001C0880F9A95EAF70E944F
:10334000B81F802F0E94A51FC830E8F4D77081E015
:1033500001C0880FDA95EAF7DF91CF911F910F91A5
:10336000FF90EF90DF90CF90BF90AF900C94BF1F75
:1033700080E28C0F883038F4C77081E001C0880F7C
:10338000CA95EAF7E9CFDF91CF911F910F91FF9096
:10339000EF90DF90CF90BF90AF9008950F939C0176
:1033A000CB01233F4CE5340759F1A8F4283DFCE557
:1033B0003F0701F1293D4CE53407D1F1273D3C455C
:1033C00091F406E221EE41EE67ED7CE50E9443199F
:1033D00080E00F910895253FFCE53F07E9F0B0F04C
:1033E000263F3C45F9F0FC018281882339F1109297
:1033F0004702EFCF07E225EE45EE68ED7CE5E6CF2C
:1034000006E221EE40EE63EF7CE5E0CF07E225EE39
:1034100044EE64EF7CE5DACF06E221EE42EE65EFA2
:103420007CE5D4CF07E225EE46EE66EF7CE5CECF15
:1034300008E221E045EE69ED7CE5C8CF81E0C9CF27
:10344000CF93DF93EC01FB018281882309F419C13A
:10345000C230FCE5DF07C0F1C6319CE5D90730F08A
:103460009E012A5F3C452930310570F50E94C52830
:103470009093270380932603C031ECE5DE0709F41F
:10348000CFC008F05BC0C8308CE5D80709F4B6C0DF
:1034900088F5C430ECE5DE0709F4A8C0C0F4C230FA
:1034A0008CE5D80709F49CC0809126038260C33064
:1034B000DC4509F498C080912603909127030E946F
:1034C000D3280E94252280E0DF91CF91089580913A
:1034D00026038061C630ECE5DE0709F484C08091E4
:1034E00026038860C730DC4508F47DC08091260340
:1034F000806279C0CC308CE5D80709F489C070F4BB
:10350000809126038C60CA30ECE5DE0709F46BC0BD
:1035100008F478C0809126038E7F65C0CE308CE59C
:10352000D80709F479C0809126038B7FCF30DC4522
:1035300008F459C0809126038F7E55C0CB3FECE53F
:10354000DE0709F457C030F5C3318CE5D80709F41C
:103550006FC078F4C131ECE5DE0709F465C0C23113
:10356000DC4509F0A8CF0E942522809126038F77A1
:103570003AC0C5318CE5D80709F462C008F476C0BA
:10358000809127038160CA3FDC4509F094CF809386
:10359000270391CFCF3FFCE5DF0709F44DC088F446
:1035A000809127038D7FCD3F9CE5D90781F38091E2
:1035B00027038E7FCE3FDC4550F380912703836045
:1035C000E6CFC130FDE5DF0709F459C008F444C077
:1035D00080E0C230DD4509F06ECF0E9453296BCFE9
:1035E0008091260381608093260365CF8091260316
:1035F0008460F9CF809127038260C9CF8091260330
:103600008064F1CF0E942522809126038068EBCF51
:10361000809126038D7FE7CF80912603877FE3CFBC
:10362000809126038F7DDFCF809126038F7BDBCFB8
:1036300080912603837FD7CF809127038C7FA7CFEC
:103640008091260382FB992790F921E0922790FB35
:1036500082F990FB83F9C7CF80912703982F90952B
:1036600091708E7F892B90FB81F991CF0E9425224A
:1036700090912603892F97FB87F98058B4CF81E07A
:10368000ACCF81E021CFCF93DF93EB0186319C4516
:1036900011F50E94E6279A81992399F08A7A91E0A0
:1036A00009F490E090934802811109C089E20E94D8
:1036B000C1270E94322880E0DF91CF91089585E3F1
:1036C000F6CF80914802811104C089E20E94C82788
:1036D000F0CF85E3FBCF81E0EFCF8EE1489B02C0C6
:1036E0008150E1F7489BFECF0895589880E28A9573
:1036F000F1F7589A0895FC013BE03A95F1F720E084
:1037000090E080E031E040E14A95F1F7880F489B76
:1037100002C08160232742E04A95F1F7000040E1B2
:103720004A95F1F79F5F6913EECF90E19A95F1F713
:1037300099B132E03A95F1F7000040E14A95F1F78E
:10374000917092272081920F90830895EF92FF92BB
:103750000F931F93CF93DF930F92CDB7DEB71982EC
:103760008C017C01E60EF11C0E151F0561F481E051
:103770009981911180E00F90DF91CF911F910F916E
:10378000FF90EF9008950E946D1B68E0CE010196B6
:103790000E947B1BF80181938F01E6CF90934B022F
:1037A00080934A0260934902509A589A08959093E0
:1037B0004B0280934A02609349025098589AE89AC3
:1037C000E9E6F0E080818C7F808308956150770B7B
:1037D00091E001C0990F6A95EAF720E031E091117C
:1037E00008C0222391F0589A80E28A95F1F7589800
:1037F0000895492F482339F0589A232740E24A95E3
:10380000F1F79695ECCF5898F9CF5898EDCFFF92F5
:103810000F931F93CF93DF93EC018C01060F111DC3
:10382000C017D10731F4DF91CF911F910F91FF9015
:103830000895F9900E94751B68E08F2D0E94E61B89
:10384000EFCF1F920F920FB60F9211240F931F9379
:103850002F933F934F935F936F937F938F939F9398
:10386000AF93BF93EF93FF93CF93DF930F92CDB7B7
:10387000DEB719820E946D1B67E0CE0101960E949F
:103880007B1B082F069506950695982F92959570A7
:10389000202F2570920F292F23709695969587706B
:1038A000920F891344C08981811141C080914902DE
:1038B0008017E8F120E12A95F1F7589A509A82E0B2
:1038C0008A95F1F700C0A8E00A9FC0011124009179
:1038D0004A0210914B02080F191F5898F801658190
:1038E000662321F0868197810E94071C0E94751B28
:1038F000F0E1FA95F1F758985098589A20E12A95F6
:10390000F1F7D80112966C911297662331F1139654
:103910008D919C910E94A61BD801ED91FC9188236A
:1039200011F088E001C082E080830E946D1B0F903F
:10393000DF91CF91FF91EF91BF91AF919F918F91C7
:103940007F916F915F914F913F912F911F910F91B7
:103950000F900FBE0F901F901895ED91FC91E1CF45
:103960000F931F93CF93DF932091490228171906D5
:103970000CF471C08C0193E0000F111F9A95E1F7D0
:10398000C0914A02D0914B02C00FD11FF894509AB7
:10399000589825E02A95F1F70000982F9695957094
:1039A0008570980F892F837096959695980F092B9F
:1039B0000E94751B00C067E0802F0E94E61B80E11B
:1039C0008A95F1F75098589A489B17C087E090E085
:1039D000489915C06D81662321F18E819F810E94D7
:1039E000A61B81111EC0509A589AE881F98182E085
:1039F0008083789482E090E00DC000C0E5CF01970D
:103A000071F4509A589AE881F98181E08083789422
:103A100081E090E0DF91CF911F910F91089500C058
:103A2000D7CF0E946D1B20E22A95F1F75898509A43
:103A300080E18A95F1F76A81662321F08B819C8170
:103A40000E94071C0E94751BE881F98110827894FE
:103A500090E080E0DFCF84E090E0DCCF90935102F3
:103A6000809350020895E0915002F09151023097F6
:103A700021F00190F081E02D099480E00895EF920B
:103A8000FF920F931F93CF93DF938C01E09150022D
:103A9000F09151023097C1F10280F381E02D099538
:103AA0008091D30282FF30C080FF04C085E69AE097
:103AB0000E945406D0E0C0E08FE5E82E8AE0F82EA0
:103AC0008091D30280FF0EC0F801EC0FFD1F8081B2
:103AD0001F928F93FF92EF920E94ED060F900F902E
:103AE0000F900F902196C830D10551F78091D302E5
:103AF00080FF0AC08DE59AE0DF91CF911F910F9171
:103B0000FF90EF900C945406DF91CF911F910F918D
:103B1000FF90EF90089520914E0230914F022817A8
:103B2000390771F090934F0280934E02E09150025A
:103B3000F0915102309721F00680F781E02D099431
:103B4000089520914C0230914D022817390771F0E9
:103B500090934D0280934C02E0915002F0915102FB
:103B6000309721F00084F185E02D0994089585B700
:103B7000806885BF85B7806885BF089508950895DA
:103B80000C94BE1D08950C94C21D0E94B71D0E9486
:103B9000BF1D0C94C01D0C948A0C0E942B2A0E94FD
:103BA0004D0B0E94842A0E943E170E94B5140C946B
:103BB000C31DCF93C82F8091D30282FF1EC080FF08
:103BC0001CC08EE79AE00E9454068091D30280FFC9
:103BD00014C01F92CF9389E79AE09F938F930E941E
:103BE000ED068091D3020F900F900F900F9080FF01
:103BF00004C087E79AE00E9454068C2FCF910C9462
:103C00007A08AF92BF92CF92DF92EF92FF920F931A
:103C10001F93CF93DF93CDB7DEB72A970FB6F894F3
:103C2000DEBF0FBECDBF0E94D00B0E94CB1D8823EC
:103C300009F461C083E5A82E82E0B82E10E000E010
:103C4000C02E802F0E94FC0AE82EF501D1905F0162
:103C5000D81609F44AC08091D30281FD0E94020B5C
:103C600080E0FF24F394DE249D2D9F21C9F18E83F3
:103C7000CF82EF2081E009F480E088870E94342A17
:103C80008160782F9A8789874E815F8168858A85D0
:103C90000E949D1EF801ED5AFD4F8081F826F082AA
:103CA0000E94CA150E9406190E94331D909152026B
:103CB000891791F10E94331D809352022A960FB604
:103CC000F894DEBF0FBECDBFDF91CF911F910F9152
:103CD000FF90EF90DF90CF90BF90AF900C94D91DE4
:103CE0008F5FFF0C863009F0BFCF0F5F1F4F0A3088
:103CF000110509F0A5CF8FEF89838A831B820E946B
:103D0000342A8160782F9D838C8349815A816B810D
:103D10008D810E949D1EC4CF2A960FB6F894DEBFF7
:103D20000FBECDBFDF91CF911F910F91FF90EF900C
:103D3000DF90CF90BF90AF900895CF93DF93CDB732
:103D4000DEB72B970FB6F894DEBF0FBECDBF4F8303
:103D5000588769877A878B871E821D8285E0FE01DE
:103D60003796DE01119601900D928A95E1F749810F
:103D70005A816B817C818D819E812B960FB6F89440
:103D8000DEBF0FBECDBFDF91CF910C94DA24FC01D2
:103D9000808191810C949327CF93C82F882309F4B5
:103DA00083C08238C1F40E94331D81FD7DC089E348
:103DB0000E94C1270E9432282FEF81EE94E021500B
:103DC00080409040E1F700C0000089E30E94C827CE
:103DD000CF910C9432288338A1F40E94331D80FDCA
:103DE00063C083E50E94C1270E9432282FEF81EE35
:103DF00094E0215080409040E1F700C0000083E54E
:103E0000E5CF8438A1F40E94331D82FD4DC087E4C4
:103E10000E94C1270E9432282FEF81EE94E02150AA
:103E200080409040E1F700C0000087E4CFCF8CEFE6
:103E30008C0F813A90F46C2F809128019091290188
:103E40000E946A29882329F08C2F0E94C8270E948B
:103E500032288C2F0E94C127BBCF80E28C0F883084
:103E600048F4C77081E001C0880FCA95EAF70E9444
:103E7000E927AECFEBE5EC0FE33040F4F0E0E1539F
:103E8000FE4F808190E0CF910C948B1DC85AC731B2
:103E900058F4EC2FF0E0EE0FFF1FEF55FE4F80813E
:103EA0009181CF910C94A11DCF910895882309F49D
:103EB0004BC0823871F40E94331D81FF45C089E3F5
:103EC0000E94C1270E94322889E30E94C8270C94CF
:103ED0003228833859F40E94331D80FF35C083E5B2
:103EE0000E94C1270E94322883E5EFCF843859F41D
:103EF0000E94331D82FF28C087E40E94C1270E94D0
:103F0000322887E4E2CF9CEF980F913AF0F290E2EA
:103F1000980F983050F4877091E001C0990F8A95FE
:103F2000EAF7892F0E94EF27D2CF9BE5980F9330B5
:103F300020F490E080E00C948B1D885A873120F4A7
:103F400090E080E00C94A11D0895CF93C82F0E94AB
:103F5000CC1EC93349F42FEF87EE93E02150804007
:103F60009040E1F700C000008C2FCF910C94561FB9
:103F7000882321F00E94E9270C9432280895882391
:103F800021F00E94EF270C9432280895BF92CF921F
:103F9000DF92EF92FF920F931F93CF93DF936C0109
:103FA000D62FC72FFC01058102950F7012811111C8
:103FB0000E9406280E94DF27E82E882391F0112313
:103FC000D1F08C2F807F803421F080E28D0F8830FB
:103FD00090F082E00E947D280E94DF2791E0E82E89
:103FE000E926BC2EB2949FE0B922EB2DF0E0E15619
:103FF000FC4C0C946632E12CF4CF0C2F0F70C07F78
:1040000011F00295007F1123A9F0002359F080E2FE
:104010008D0F883010F0D11109C0802F0E94E92740
:104020000E9432288D2F0E94CC1E14C0802F0E9427
:10403000F927F6CF8D2F0E94561F002359F080E2FA
:104040008D0F883010F0D1112CC0802F0E94EF27E7
:104050000E9432282B2D2850330B2430310520F4B8
:104060000E94331D0E947A08EE2009F493C10E9439
:10407000DB2780FD8FC1F60112820E94D5270E94A6
:104080005E26C6010E94EB210E94D527DF91CF91C9
:104090001F910F91FF90EF90DF90CF90BF900C9405
:1040A0007F26802F0E94FF27D3CFFC2FFF70FF2E8B
:1040B000C07FC03219F0F29480EFF822DD2369F05E
:1040C000D13049F1112391F1002351F1F60185819D
:1040D00080FFA8CF8F70858323C0112381F0011149
:1040E00006C00E9419288F290E94B81FB3CF013043
:1040F000C1F70E9419288F290E941F28ABCF0111F8
:1041000006C00E9428288F2D0E94BF1FA3CF013018
:1041100009F4A0CFF6CF112329F0063008F09ACF8A
:104120008F2DE2CF053008F095CFEDCF002359F366
:10413000D93349F4FFEF27EE33E0F150204030400F
:10414000E1F700C000008D2F0E94561F83CF8C2FF7
:1041500086958695837069F0813009F07BCF8D2F2D
:104160009C2F9370111102C090E080E00E94A11D6D
:1041700071CF8D2F9C2F9370111102C090E080E0C1
:104180000E948B1D67CF8C2F837009F041C01111E5
:1041900061CF4D2F429546954770440F440F0D2F28
:1041A0000F7010E030E020E0042E04C0000F111F5B
:1041B000221F331F0A94D2F760E070E0CB01D4FFD6
:1041C0000FC06FE070E080E090E004C0660F771FE2
:1041D000881F991F4A95D2F76095709580959095A4
:1041E000C695C695C370602B712B822B932BC23062
:1041F00049F058F4C13019F00E9410262BCF0E94CC
:10420000FE2528CF0E94222625CF0E94FC2522CF02
:104210008695112311F08C2F8170882309F41ACF11
:104220004D2F429546954770440F440F0D2F0F7048
:1042300010E030E020E0042E04C0000F111F221F08
:10424000331F0A94D2F760E070E0CB01D4FF0FC0B7
:104250006FE070E080E090E004C0660F771F881F79
:10426000991F4A95D2F76095709580959095C6955F
:10427000C695C370602B712B822B932BC23049F0F3
:1042800058F4C13019F00E94D526E4CE0E94C3260E
:10429000E1CE0E94E726DECE0E943826DBCECF702C
:1042A000112329F08C2F0E945E268D2F1DCF8D2F7C
:1042B0000E94BF1F8C2F0E947F26CCCED23F89F157
:1042C00060F4D03FC9F0D13F29F1112309F442C075
:1042D0000111A8CE8C2F8F7121C0D33F39F1D43F6B
:1042E000A1F7112369F1CF718C2F0E945E2663E044
:1042F0008C2F0E946828AECE112341F0053008F0C3
:10430000A9CE8C2F8F710E94A226A4CE063008F071
:10431000A1CEF7CF8C2F8F71112369F20E945E26F8
:1043200099CE8C2F8F711123C9F3C5CF112329F09A
:104330008C2F8F710E9449268DCE0E9444268ACEF2
:1043400081E00E947D28023008F484CE82E00E9441
:104350007D2880CE002359F0D93309F0F4CE8FEFB9
:1043600097EEE3E081509040E040E1F7EACE8C2FF9
:104370008F71A1CF4C2F4F706D2FC6010E94F00896
:104380000E94742567CE4C2F4F706D2FC6010E947E
:10439000F30860CEDF91CF911F910F91FF90EF90C6
:1043A000DF90CF90BF9008950F931F93CF93DF932B
:1043B000EC01688179818A810E949D278C010E948D
:1043C000F9260E94FB25B801CE01DF91CF911F9104
:1043D0000F910C94C61FCF93DF93EC018B819C81CE
:1043E000892B29F08881998189238F3F59F4DF91A6
:1043F000CF910895CE010E94D421CE01DF91CF91BB
:104400000C94A307CE010E9492088111F3CF0E9461
:10441000DF27882361F38A81882349F382E0DF91D3
:10442000CF910C947D280E9406280E9416280E9495
:10443000322890E080E00E948B1D90E080E00C9498
:10444000A11D0E94CF270C9413220E94F6270C94E2
:104450002122E92FE295EF70E250EE3070F4F0E0A7
:10446000E155FC4C0C946632803F19F020F4883EF4
:1044700020F481E00895843FE1F380E00895883ED0
:10448000C0F3813FD1F7F5CF93FB882780F90895DA
:104490000E9493270C942922CF93DF9300D000D061
:1044A0000F92CDB7DEB70F900F900F900F900F9037
:1044B000DF91CF910895CF93DF9300D000D000D04B
:1044C000CDB7DEB726960FB6F894DEBF0FBECDBFD0
:1044D000DF91CF9108951F93CF93DF93C0915E0238
:1044E00016E080915F028C1304C0DF91CF911F9181
:1044F0000895D0E01C9FF0011D9FF00D1124E05A9B
:10450000FD4F4081518162817381848195810E9438
:104510005B222196C770E5CF4091900250919102A5
:104520006091920270919302809194029091950211
:104530000C945B2220915E0290915F0256E0291359
:1045400002C080E0089530E0529FF001539FF00DCB
:104550001124E05AFD4F7181761306C070817813E3
:1045600003C07281741304C02F5F3F4F2770E7CFE1
:1045700081E008951F93CF93DF9380919502807F10
:10458000A9F480919202882389F080915E02C09103
:104590005F026091900270919102A0919302B0919C
:1045A0009402D62FD72316E0C81304C0DF91CF9111
:1045B0001F91089590E0109711F0DF3F19F40196D4
:1045C0008770F2CF189F9001199F300D1124F901C7
:1045D000E05AFD4F41814713F2CF40814613EFCFA0
:1045E00042814111ECCF438154814A1B5B0B483C13
:1045F000510528F7809195028F7080618093950214
:10460000F901EB59FD4F80818F708061808380E9D3
:1046100092E00E94EB21DF91CF911F910C946B22CD
:104620008F929F92AF92BF92CF92DF92EF92FF92C2
:104630000F931F93CF93DF93CDB7DEB761970FB67C
:10464000F894DEBF0FBECDBF8C0185E0F801DE011E
:104650001D9601900D928A95E1F7D801EC90119684
:10466000FC9011971296CC90129780E9A82E82E0C8
:10467000B82E40919302509194024115510509F4CE
:1046800074C19091900220919102892F82238F3FD3
:1046900009F46BC113968D909C901497D090920260
:1046A000F401E41BF50BDD2009F40AC180919502A9
:1046B000382F307FE83CF10508F0C1C0311189C0C6
:1046C000DC2C2F1126C09E1124C0C11022C08F7077
:1046D0008061809395020E948C22C5010E94EB218B
:1046E00080919502D80115968C938D2D61960FB609
:1046F000F894DEBF0FBECDBFDF91CF911F910F9118
:10470000FF90EF90DF90CF90BF90AF909F908F90F1
:1047100008958114910429F08F2D8E218F3F09F087
:1047200043C180E080FF15C04C2D6F2D8E2D0E945F
:104730009A22882371F080E992E00E94EB2186E0C2
:10474000E0E9F2E0DF011D928A95E9F70E948C22F0
:104750003EC0892829F08F2D8E218F3F09F021C17D
:1047600080E0B82FB170AB2E80FF29C04C2D6F2D8B
:104770008E2D0E949A22B82E811121C0ED86FE86D0
:104780008D859E850E949327292F22952F70223098
:1047900050F0243078F49F7051F0F8019581907FAB
:1047A00031F4DB2CA2CF9F7011F08823D1F3805E0F
:1047B0008830B8F3C8010E94EB21BA2CF2CFCC208C
:1047C00009F493CF80919502816080939502D12C5A
:1047D0008CCF2F1105C09E1103C0CC2009F48DC0D1
:1047E000ED86FE868D859E850E944822882319F1DC
:1047F000CC2009F180919502803270F020919002D6
:104800003091910238872F8319869B868A868C8700
:10481000CE0107960E94EB2186E0F801A0E9B2E004
:1048200001900D928A95E1F70E94BA220E948C2293
:10483000DD24D3945ACFC8010E94EB21F9CF311166
:1048400012C0782D998A888AA7016C2D89890E94C7
:104850004C2280E992E00E94EB2186E0F501119262
:104860008A95E9F773CF2F110FC09E110DC0C110AB
:104870000BC015968C93C8010E94EB2186E0F501D0
:1048800011928A95E9F731CFED86FE868D859E855A
:104890000E944822882379F2CC2069F28091950207
:1048A000803208F4B9CF20919002309191023A837E
:1048B00029831B829D828C828E83CE010196AACF92
:1048C000E83CF10508F043C0DC2CCC2009F4B3CF60
:1048D0002F112CC09E112AC08091950280FD1DC011
:1048E000982F907FD1F015968C931597903F39F0C3
:1048F000982F907F905F8F70892B15968C93C801AD
:104900000E94EB2186E0F801A0E9B2E001900D924F
:104910008A95E1F70E948C22E8CE86E0F801A0E9B2
:10492000B2E001900D928A95E1F7DFCEED86FE862A
:104930008D859E850E94482281116ECF80919502BF
:10494000816080939502C8010E94EB21CECE782D24
:10495000998A888AA7016C2D89890E944C2286E059
:10496000F50111928A95E9F7D5CFCC2009F463CFF0
:10497000ED86FE868D859E850E944822D82E88234E
:1049800009F459CF86E0F801A0E9B2E001900D9258
:104990008A95E1F780E992E00E94C71E0E94BA2240
:1049A000B9CF81E08C25DDCE81E08C25BBCE88ECB3
:1049B00090E008951F93CF93DF93CDB7DEB72C9788
:1049C0000FB6F894DEBF0FBECDBF4F8358876987FF
:1049D0007A878B879C87CE0107960E9410238823B5
:1049E00069F08A859B85892B39F04F815885842F02
:1049F00085238F3F09F071C016E05FC086E0FE019D
:104A00003796DE01119601900D928A95E1F78A851D
:104A10009B85892B89F388859F8189238F3F61F34B
:104A200020915F0230E0C90101968770992740917B
:104A30005E024817190671F40E94252210925F0247
:104A400010925E0286E0E0E9F2E0DF011D928A95B5
:104A5000E9F7D2CF96E0929FD001939FB00D112439
:104A6000A05ABD4FFE01319601900D929A95E1F743
:104A700080935F020E946B22BFCF819FC0011124EF
:104A8000805A9D4F0E9410238823E9F0E0915E0236
:104A90001E9FF0011124E05AFD4F40815181628137
:104AA0007381848195810E945B2280915E0290E0F7
:104AB00001968770992780935E0280915E029091A3
:104AC0005F028913DACF2C960FB6F894DEBF0FBEC3
:104AD000CDBFDF91CF911F91089569857A858B8530
:104AE0009C850E945B2288CFEF92FF920F931F93C9
:104AF000CF93DF938C01892B81F0F12CEE24E3948A
:104B0000E8012196F8018491843770F4843008F02C
:104B10005FC08130B1F08230A1F1DF91CF911F9160
:104B20000F91FF90EF900895853709F44CC008F479
:104B30003DC09CE7980F903780F78F770E94561FF3
:104B400049C00E5F1F4FFE01849190E2980F98308C
:104B500060F48770FE2D01C0FF0F8A95EAF78F2F52
:104B60000E9409280E94322802C00E94CC1E8F2D6C
:104B7000815030F2EFE9FFE03197F1F700C000001B
:104B8000F7CF0E5F1F4FFE01849190E2980F98308F
:104B900050F48770FE2D01C0FF0F8A95EAF78F2F22
:104BA0000E940F28DFCF0E94561FE1CF0E5F1F4FDC
:104BB000FE01C491C150D8F28FE99FE00197F1F74F
:104BC00000C00000F7CF0E5F1F4FFE01F490CFCF63
:104BD0000E94CC1E8E01CBCF08950C94EC250E9430
:104BE000ED256093C2027093C3028093C402909338
:104BF000C5020C94132208950C94EF250F931F9374
:104C00000091C2021091C3022091C4023091C502EA
:104C1000602B712B822B932B1F910F910C94EF25FE
:104C20000F931F930091C2021091C3022091C402FE
:104C30003091C50260237123822393231F910F912A
:104C40000C94EF250F931F930091C2021091C302A1
:104C50002091C4023091C5026027712782279327D3
:104C60001F910F910C94EF250C94EC250C94342695
:104C70000E9436266093BE027093BF028093C002EA
:104C80009093C1020C94132260E070E0CB010C946D
:104C900038260F931F9341E050E060E070E08A01F6
:104CA0009B0104C0000F111F221F331F8A95D2F7EA
:104CB000C901B8011F910F910C9438260F931F93CF
:104CC00041E050E060E070E004C0440F551F661FF3
:104CD000771F8A95D2F78091BE029091BF02A09172
:104CE000C002B091C1028A019B01082B192B2A2B0B
:104CF0003B2BC901B8011F910F910C9438260F93DB
:104D00001F9341E050E060E070E004C0440F551F85
:104D1000661F771F8A95D2F7CB01BA01609570950F
:104D2000809590950091BE021091BF022091C00223
:104D30003091C10260237123822393231F910F912D
:104D40000C9438260F931F9341E050E060E070E030
:104D500004C0440F551F661F771F8A95D2F78091B4
:104D6000BE029091BF02A091C002B091C1028A011F
:104D70009B01082719272A273B27C901B8011F9142
:104D80000F910C9438260F931F930091BE0210913F
:104D9000BF022091C0023091C102602B712B822B87
:104DA000932B1F910F910C9438260F931F93009112
:104DB000BE021091BF022091C0023091C102602357
:104DC0007123822393231F910F910C9438260F9304
:104DD0001F930091BE021091BF022091C00230913A
:104DE000C10260277127822793271F910F910C948E
:104DF00038260895E92FEE0FE90FEE0F8E0F982F4A
:104E0000977041E001C0440F9A95EAF78695869520
:104E1000869595E0899FF0011124EA56FD4F30E018
:104E200020E070E05191DF011197CB01022E02C00A
:104E3000969587950A94E2F781708195852784235A
:104E400085278C932F5F3F4F2530310559F7089503
:104E5000E92FEE0FE90FEE0F8E0F982F97708695C2
:104E60008695869525E0829FF0011124EA56FD4F34
:104E700050E040E080E0219130E0092E02C03695FC
:104E800027950A94E2F721703327042E01C0220FE0
:104E90000A94EAF7822B4F5F5F4F4530510559F76F
:104EA0000895BF92CF92DF92EF92FF920F931F93DC
:104EB000CF93DF938C01C090BE02D090BF02E090F0
:104EC000C002F090C1028091C2029091C302A091F1
:104ED000C402B091C502C82AD92AEA2AFB2ACFE126
:104EE000D0E0BC2ED701C6010C2E04C0B695A79504
:104EF000979587950A94D2F780FD0EC0219788F781
:104F0000B12C8B2DDF91CF911F910F91FF90EF90DE
:104F1000DF90CF90BF900895B8018C2F0E941009A8
:104F2000019761F3EECFCF93DF93EC010E945127FD
:104F3000BE01DF91CF910C9410091F93CF93DF93A3
:104F4000EB0190915D02992331F0CB01DF91CF917C
:104F50001F910C949327882379F0CB010E9451274D
:104F6000182F682FCE010E94FA26BE01812FDF91F3
:104F7000CF911F910C941009CB010E942827182F64
:104F8000F4CF682F80912801909129010C94A029D9
:104F9000682F80912801909129010C94A229809179
:104FA0002801909129010C94A4298091C60285952D
:104FB0008595859508958091C60287700895909192
:104FC000C602977081E009F480E008958091D202D2
:104FD00008959091D202892B8093D20208958095F2
:104FE0009091D20298239093D20208951092D20207
:104FF00008959091D102892B8093D10208958095D4
:105000009091D10298239093D10208951092D102E9
:1050100008959091D002892B8093D00208958095B5
:105020009091D00298239093D00208951092D002CC
:1050300008958091C702089508950C941C289091BA
:10504000C702981721F08093C7020C941D28089579
:105050008091C702882329F01092C70280E00C9447
:105060001D280895E0912801F09129018091D20234
:105070008083E0912801F091290180819091D102F3
:10508000892B8083E0912801F09129018081909102
:10509000D002892B80839091C702992381F0E091FF
:1050A0002801F09129018081892B8083809128013A
:1050B000909129010E94582981110E9428288091ED
:1050C0002801909129010C943F1D08950C946528A6
:1050D00098E0899F90011124622B6093C6020E9480
:1050E0005E268091C6028595859585950C946628E7
:1050F0001092C60280E00C9466289091C6028095BA
:1051000089238093C602282F277071F4282F082E38
:10511000000C330B9217130639F08595859585950C
:105120000E947F260C94782808959093E301809341
:10513000E2010895829590E09C01220F331F220F17
:10514000331F2C7C95958795959587958373282B90
:1051500030E0C901880F991F8A7A35952795257502
:10516000822B089590E080E00E94303321E08C3E55
:105170009E4F09F020E0822F089582E090E00C9489
:10518000223383E090E00C942233CF9384E090E0CC
:105190000E942233C82F81E290E00E942233982F90
:1051A0008C2FCF910895CF93C92F682F84E090E082
:1051B0000E9436336C2F81E290E0CF910C9436330D
:1051C00086E090E00C942233682F86E090E00C9407
:1051D0003633AB01BC018FE090E00C944833AB0157
:1051E000BC0183E190E00C94483360E070E0CB01B7
:1051F0000C94EF286CEE7EEF90E080E00E94543338
:1052000060E082E090E00E94363360E083E090E06E
:105210000E9436331092C2021092C3021092C4024E
:105220001092C50260E084E090E00E94363360E0B6
:1052300081E290E00E94363360E085E090E00E94D9
:10524000363360E086E090E00E9436336FEF87E00F
:1052500090E00E94363340E050E0BA0188E090E0F0
:105260000E94483360E08DE090E00E94363340E0D9
:1052700050E0BA0188E190E00E94483360E087E1A5
:1052800090E00E94363340E050E0BA018CE190E0BB
:105290000E94483360E080E290E00E9436330C9434
:1052A000F6060C94FA28682F8EE090E00C943633C2
:1052B0009C012E5F3F4FAC01485F5F4F80E0241799
:1052C000350709F40895F90191919F019923B9F3E4
:1052D0008F5FF5CF662349F0FC0132960896219145
:1052E000261729F0E817F907D1F780E0089581E043
:1052F00008959C01FC0132969FEF80E04191461792
:1053000051F09F3F19F4411101C0982F8F5F8630F3
:10531000A9F79F3F09F40895290F311D97FD3A958C
:10532000F90162830895FC013296089621912613B3
:1053300003C0DF0111971C92E817F907B9F7089528
:105340000C9479290C949329029626E0FC01119281
:105350002A95E9F70895089508950C94AC290E94C0
:10536000AD2980912C03843061F11092D40288E140
:1053700090E020E40FB6F894A895809360000FBEEB
:105380002093600080E00E94A81880E00E947A08C4
:105390000E94AD2983B7817F846083BF83B781601A
:1053A00083BF7894889583B78E7F83BF0FB6F894B8
:1053B000A8958091600088618093600010926000E1
:1053C0000FBE08950895CF930E94AB290E94D00B81
:1053D0000E94E229C0E08C2F0E94FC0A811105C0C6
:1053E000CF5FCA30C1F7CF91089581E0FCCF089517
:1053F0000C94F7290E9425220E943E170E94331D1B
:105400000E947A080C94F8291F921FB61F9211244B
:105410008F939F93AF93BF938091D402811113C058
:105420008091220390912303A0912403B09125033E
:105430004196A11DB11D8093220390932303A09355
:105440002403B0932503BF91AF919F918F911F903B
:105450001FBE1F90189582E084BD93E095BD9AEF22
:1054600097BD80936E0008952FB7F8948091220322
:1054700090912303A0912403B09125032FBF089599
:105480009C014FB7F8948091220390912303A0913F
:105490002403B09125034FBF821B930B089578948A
:1054A0001F921FB61F9211248F939F93AF93BF93A8
:1054B0008091220390912303A0912403B0912503AE
:1054C0000196A11DB11D8093220390932303A09305
:1054D0002403B0932503BF91AF919F918F911F90AB
:1054E0001FBE1F90189587E797E790930108809358
:1054F000000888E19AE00FB6F894A89580936000C0
:105500000FBE90936000FFCF0E94B228811102C0AD
:105510000E9451290E94BD288093D3020E94C52871
:1055200090932703809326030E94C128682F70E080
:1055300090E080E00E94FC256091BE027091BF0265
:105540008091C0029091C1020C9436268091E002B5
:10555000089508959FB7F8941092D7029FBF909135
:105560002C03943009F048C02091E9002F7030914D
:10557000EC00932F917030FD90E8922B23E0209364
:10558000E9002091EB0020FF34C02091EE0027FFBE
:1055900030C02091D502222321F02091E80025FF80
:1055A00028C01092D50226E03091E80035FF14C0E3
:1055B0008093F1008091E80085FD27C08091E8008C
:1055C00080FFFCCF8091E8008E778093E8009F7089
:1055D0009093E90080E0089530912C03343049F431
:1055E0003091EB0035FD05C0215041F481E08093FE
:1055F000D5029F709093E9008FEF0895EFE9FFE0E7
:105600003197F1F700C00000CFCF8FB7F89421E0B9
:105610002093D7028FBFDBCFCF93DF9300D00F92C1
:10562000CDB7DEB790912C03943019F589837B8335
:105630006A8382E08093E9008FEF9091E8008150C7
:1056400095FD06C095ED9A95F1F700008111F5CF13
:105650008091E80085FF0DC050E040E063E070E01D
:10566000CE0101960E94622D8091E8008E77809392
:10567000E8000F900F900F90DF91CF910895BC013B
:1056800084E00C940C2BBC0183E00C940C2BCF9386
:10569000DF93EC0181E08093E9008FEF9091E800C7
:1056A000815095FD06C095ED9A95F1F700008111A6
:1056B000F5CF8091E80085FF14C050E040E068E03D
:1056C00070E0CE010E94622D8091E8008E77809379
:1056D000E80088E0FE01A8EDB2E001900D928A9505
:1056E000E1F7DF91CF91089586EB9AE00E9454068E
:1056F00080912B03811109C00E94F22E0E944F2F2E
:105700008091E20084608093E200089582EB9AE049
:105710000E94540610922B0308958EEA9AE00C948E
:1057200054068AEA9AE00C94540686EA9AE00E94AB
:1057300054060C94FA292091D6022F5F822F62E33F
:105740000E940232992319F02093D60208951092F4
:10575000D6028091D7028823F1F080912C03843007
:10576000C1F49091E9009F702091EC00822F81702C
:1057700020FD80E8892B93E09093E9009091EB0065
:1057800090FF04C09091EE0097FD08C08F70809349
:10579000E9001092D70208951092F1009091E8006C
:1057A00095FDFACF9091E80090FFF0CF9091E8003E
:1057B0009E779093E800EACF42E061EC81E00E949E
:1057C0006E2E42E261EC82E00E946E2E42E261ECBB
:1057D00083E00C946E2E80912E03833009F45FC019
:1057E00030F48130C1F1823009F49BC008958A30D1
:1057F00009F487C08B3009F46DC0893009F04EC0C0
:1058000080912D03813209F049C08091310390913C
:105810003203029708F042C08091E800877F8093AE
:10582000E8008091E80082FF35C09091F3008091FC
:10583000F200029729F48091F1008B7F813021F4EE
:105840008091F1008093E0028091E8008B77809353
:10585000E8000C94A22E80912D03813AF9F48091F6
:10586000E800877F8093E8008091310390913203B4
:10587000892B61F468E088ED92E070E00E94B12D20
:105880008091E8008B778093E800089560E090E0D5
:1058900080E0F3CF80912C038111C3CF08958091D4
:1058A0002D03813AD9F78091310390913203892BEE
:1058B000A9F78091E800877F8093E8008091E80055
:1058C00080FFFCCF809134018093F1008091E8004B
:1058D0008E77BDCF80912D03813201F78091310306
:1058E00090913203892BD1F68091E800877F8093D5
:1058F000E8000E94A22E80912F03809334010C9423
:10590000252280912D03813249F68091E800877F1E
:105910008093E8000E94A22E809130038093E102E0
:10592000089580912D03813A09F0B8CF8091E80065
:10593000877F8093E8008091E80080FFFCCF809112
:10594000E102C2CF84B7877F84BF0FB6F894A895D1
:1059500080916000886180936000109260000FBEAB
:1059600080E890E00FB6F894809361009093610016
:105970000FBE0E94C51D0E94F22E0E944F2F8091E3
:10598000E20084608093E2008AEA9AE20E9495280D
:1059900078940E94D7310E94CD1D8AE291E00E9446
:1059A0002E1D85E99AE00E94540680912C038530D3
:1059B00019F00E94011EF9CF81E99AE00E94540675
:1059C0000E94AF2980912A03882379F30E94E3295A
:1059D000882359F30E944C2DE8CF0C94EF2C292FEB
:1059E00033272330310521F168F42130310509F4E2
:1059F00049C02230310509F44AC090E080E030E02F
:105A000020E029C02132310581F122323105A9F788
:105A10006330710590F7FB01EE0FFF1FEB52FE4F55
:105A2000208131816E527E4FFB01808190E013C056
:105A300099278130910599F0009741F082309105C6
:105A400089F00397D1F6EAEBFAE002C0E8EFFAE05A
:105A5000849190E09F01FA01318320830895E8EE5C
:105A6000FAE0F6CFE0ECFAE0F3CF6330710528F608
:105A7000660F771FFB01E552FE4F2081318189E0DF
:105A800090E0E9CF82E190E027E53BE0E4CF8BE5D1
:105A900090E02CEF3AE0DFCF80E189BD82E189BD63
:105AA00009B400FEFDCF8091D8008F7D8093D8008F
:105AB0008091E00082608093E0008091E00081FDB1
:105AC000FCCF0895AF92BF92CF92DF92FF920F93D7
:105AD0001F93CF93DF936C01EB018A010E94C12ECB
