:100000000C94BB050C94431D0C9402060C94020640
:100010000C9402060C9402060C9402060C94020640
:100020000C9402060C9402060C9492300C946631E7
:100030000C94292B0C9402060C9402060C940206D4
:100040000C9402060C9402060C9402060C94020610
:100050000C9402060C94742B0C9402060C94020669
:100060000C9402060C9402060C9402060C940206F0
:100070000C9402060C9402060C9402060C940206E0
:100080000C9402060C9402060C9402060C940206D0
:100090000C9402060C9402060C9402060C940206C0
:1000A0000C9402060C9402060C940206010137001F
:1000B00001013300010136000103E10101330102B6
:1000C000E10049001E001F002000210022002B003B
:1000D00014001A0008001500170029620400160019
:1000E000070009000A0004541C001B000600190048
:1000F000050000000000E600E2002C6144004C0016
:10010000270026002500240023002A0013001200E7
:100110000C0018001D00286238000F000E000D00B2
:100120000B00E6002D002A5D295D10001100000083
:1001300000000252E3000057450035001E001F007A
:100140002000210022002B0014001A0008001500D6
:100150001700E10004001600070009000A00E00093
:100160001D001B00060019000500000000003A00F9
:10017000E2002C0029002A00270026002500240088
:1001800023004C00130012000C0018001C00340067
:1001900033000F000E000D000B00E50038003700A3
:1001A0003600100011000000000000520052E00074
:1001B000280049001E001F002000210022002B0003
:1001C0003800295D2A5D13001C002962040012001A
:1001D000080018000C0004542D0014000D000E003F
:1001E0001B0000000000E600E2002C6144004C000F
:1001F000270026002500240023002A000F001500F8
:1002000006000A00090028621600110017000B0002
:100210000700E6001D0019001A001000050000008C
:1002200000000152E3000057450001001E001F00BE
:100230002000210022000100250234022602510084
:1002400035000100240236022F022F002A0001008F
:1002500035022E02270021023100000000000100BB
:1002600001000100010001002700260025002400F4
:100270002300010050003400270252003102010027
:100280004F003702300230002E00010022021F0210
:1002900020021E02230200000000010001000100F4
:1002A000010001003A003B003C003D003E0001001F
:1002B00046000100BD00BE000100010044004500F1
:1002C0004A004D00010001006A006B006C006D00E7
:1002D0006E000000000001000100010001000100AB
:1002E00043004200410040003F0001000100A8001F
:1002F000A900AA0001000100690068004B004E003F
:100300000100010073007200710070006F000000B6
:100310000000010001000100010044454255473A38
:100320002064697361626C65642E0A00444542551D
:10033000473A20656E61626C65642E0A0000000019
:1003400000000000002A2B28000000000000000030
:10035000000000000000000029000000002C1E34F6
:1003600020212224342627252E362D3738271E1FFC
:10037000202122232425263333362E37381F040527
:10038000060708090A0B0C0D0E0F10111213141595
:10039000161718191A1B1C1D2F3130232D35040573
:1003A000060708090A0B0C0D0E0F10111213141575
:1003B000161718191A1B1C1D2F3130354C00000060
:1003C000000000000000000000000000000000002D
:1003D000007E0F00D4FFFFFFC7000000780A002551
:1003E000303862003A200025303258000A722F63FC
:1003F0002030313233343536370A007267626C6927
:1004000067687420616E696D6174696F6E207469CC
:10041000636B207265706F727420746F20736C61EF
:1004200076650A007267626C696768742074696D2A
:1004300065722064697361626C652E0A007267627E
:100440006C696768742074696D657220656E61629D
:100450006C65642E0A007267626C69676874207349
:10046000657420687376205B4E4F454550524F4D62
:100470005D3A2025752C25752C25750A007267625A
:100480006C696768742073657420687376205B45B7
:100490004550524F4D5D3A2025752C25752C2575FC
:1004A0000A007267626C69676874207261696E62C3
:1004B0006F7720736574206873763A2025642C2545
:1004C000642C25642C25750A007267626C69676864
:1004D000742064697361626C65205B4E4F454550C2
:1004E000524F4D5D3A207267626C696768745F6352
:1004F0006F6E6669672E656E61626C65203D2025B2
:10050000750A007267626C69676874206469736158
:10051000626C65205B454550524F4D5D3A207267D5
:10052000626C696768745F636F6E6669672E656E7B
:1005300061626C65203D2025750A007267626C69F6
:1005400067687420656E61626C65205B454550523A
:100550004F4D5D3A207267626C696768745F636FC4
:100560006E6669672E656E61626C65203D2025753B
:100570000A007267626C6967687420746F67676CE1
:1005800065205B454550524F4D5D3A207267626C65
:10059000696768745F636F6E6669672E656E616216
:1005A0006C65203D2025750A007267626C6967687A
:1005B00074206D6F6465205B4E4F454550524F4D22
:1005C0005D3A2025750A007267626C69676874205D
:1005D0006D6F6465205B454550524F4D5D3A202557
:1005E000750A007267626C696768745F696E697426
:1005F000207267626C696768745F636F6E666967B3
:100600002E6D6F6465203D20302E20577269746511
:100610002064656661756C742076616C7565732005
:10062000746F20454550524F4D2E0A007267626C20
:10063000696768745F696E6974206565636F6E666B
:100640006967206973206E6F7420656E61626C65E6
:10065000642E0A007267626C696768745F696E690C
:1006600074207374617274210A007267626C696726
:1006700068745F696E69742063616C6C65642E0ACE
:10068000007267626C696768745F636F6E66696742
:100690002E7370656564203D2025640A00726762D0
:1006A0006C696768745F636F6E6669672E76616CEC
:1006B000203D2025640A007267626C696768745F78
:1006C000636F6E6669672E736174203D2025640A2E
:1006D000007267626C696768745F636F6E666967F2
:1006E0002E687565203D2025640A007267686C6974
:1006F0006768745F636F6E6669672E6D6F646520EF
:100700003D2025640A007267626C696768745F63E4
:100710006F6E6669672E656E61626C65203D20258F
:10072000640A007267626C696768745F636F6E6603
:10073000696720454550524F4D3A0A0032190A0068
:10074000047F3F1F643214643214783C1E1E140A66
:10075000052223252628292A2C2D2F303233353601
:10076000383A3B3D3E4042434547494A4C4E505142
:10077000535557595A5C5E6062646668696B6D6F69
:1007800071737577797B7D7F81838587898A8C8E6C
:1007900090929496989A9C9E9FA1A3A5A7A8AAAC74
:1007A000AEAFB1B3B4B6B8B9BBBCBEBFC1C2C3C5AE
:1007B000C6C7C9CACBCCCDCED0D1D2D2D3D4D5D650
:1007C000D7D7D8D9D9DADADBDBDBDCDCDCDCDCDD83
:1007D000DDDDDDDCDCDCDCDCDBDBDBDADAD9D9D867
:1007E000D7D7D6D5D4D3D2D2D1D0CECDCCCBCAC9FF
:1007F000C7C6C5C3C2C1BFBEBCBBB9B8B6B4B3B12E
:10080000AFAEACAAA8A7A5A3A19F9E9C9A989694C8
:1008100092908E8C8A89878583817F7D7B7977759D
:1008200073716F6D6B6968666462605E5C5A59577C
:10083000555351504E4C4A4947454342403E3D3B3B
:100840003A3836353332302F2D2C2A2928262523C5
:1008500022FFAA7F55406261636B6C6967687420F0
:10086000737465703A2025750A006261636B6C6968
:100870006768742064697361626C650A0062616311
:100880006B6C6967687420656E61626C650A0062F2
:1008900061636B6C6967687420746F67676C653A35
:1008A0002025750A006261636B6C69676874206457
:1008B000656372656173653A2025750A006261633C
:1008C0006B6C6967687420696E6372656173653A01
:1008D0002025750A00000101010101010101010249
:1008E00002020202020202020303030303030303E0
:1008F00004040404040404050505050506060606AB
:1009000006070707070708080808090909090A0A66
:100910000A0B0B0B0C0C0C0D0D0D0E0E0E0F0F0F0A
:100920001010111111121213131414151516161795
:1009300017181819191A1A1B1B1C1D1D1E1E1F2003
:1009400020212222232424252626272829292A2B50
:100950002C2D2D2E2F303132323334353637383975
:100960003A3B3C3D3E3F404142434445464748496F
:100970004A4C4D4E4F50515354555658595A5B5D41
:100980005E5F616264656668696B6C6D6F707273DF
:100990007577787A7B7D7E8082838587888A8C8E46
:1009A0008F91939596989A9C9EA0A2A3A5A7A9AB78
:1009B000ADAFB1B3B5B7BABCBEC0C2C4C6C9CBCD6A
:1009C000CFD1D4D6D8DBDDDFE2E4E7E9EBEEF0F31C
:1009D000F5F8FAFDFF0A002530325820006B6579E2
:1009E000626F6172645F7265706F72743A20000AA0
:1009F0000025303258006B6579626F6172645F73F5
:100A000065745F6C65643A20005B735D004B6579CB
:100A1000626F6172642073746172742E0A005B5796
:100A20005D005B535D005B525D005B445D005B43BA
:100A30005D0004033000000026034B0065006500E4
:100A4000620069006F0020004900720069007300B5
:100A500020005200650076002E00200032000000C9
:100A60000E034B0065006500620069006F00000026
:100A70000403090409025B00030100A0FA09040051
:100A800000010301010009211101000122400007BA
:100A900005810308000A09040100010300000009A0
:100AA00021110100012232000705820320000A09FA
:100AB00004020002030000000921110100012222AA
:100AC000000705830320000107050303200001122E
:100AD0000110010000000810CB56220002010203A1
:100AE000010631FF0974A1010975150026FF009563
:100AF00020750881020976150026FF0095207508EB
:100B00009102C005010980A101850319012AB700DE
:100B1000150126B700950175108100C0050C09016B
:100B2000A101850419012AA002150126A002950140
:100B300075108100C005010906A101050719E0290A
:100B4000E715002501950875018102950175088159
:100B5000010507190029FF150026FF0095067508F5
:100B60008100050819012905950575019102950176
:100B700075039101C00011241FBECFEFDAE0DEBF84
:100B8000CDBF04B603FE27C080914E0390914F0362
:100B9000A0915003B09151038730904BA740B04BC8
:100BA000D1F410924E0310924F0310925003109202
:100BB000510314BE84B7877F84BF0FB6F894A895FD
:100BC00080916000886180936000109260000FBE89
:100BD000E0E0F8E3099511E0A0E0B1E0E8EDF9E626
:100BE00002C005900D92A83FB107D9F723E0A8EF06
:100BF000B1E001C01D92AE34B207E1F70E94C72DEB
:100C00000C94AE340C940000FF93EF93E091F80144
:100C1000F091F901309709F00995EF91FF9108954E
:100C2000FC018591803011F0EFDFFBCF0895FF27A5
:100C3000E0E230E247FF0CC0419597FF09C0EDE2CA
:100C40006095709580959095611D711D811D911D18
:100C500027FF02C0219530E350E2AA27660F771FD5
:100C6000881F991FAA1FA41710F0A41B63955A95FB
:100C7000A9F7AA3008F0A95FA05DAF93F3956115BD
:100C800071058105910541F7ED3211F4EF93F3956C
:100C9000F21718F43F93F395FBCF8F91B5DFFA95D8
:100CA000E1F70895E991F9918591803021F085323D
:100CB00019F0AADFF9CF089520E0E8945591553254
:100CC000C1F3503311F4689455915A3348F450539A
:100CD00090F3220F022E220F220F200D250FF4CFAA
:100CE0000EF4219589919991533619F3533729F1CF
:100CF000533559F1BC0188279927E8945C3621F4D3
:100D00008991999168945591543639F446EF7EF063
:100D100077FF0DC08FEF9FEF0AC055374AE039F0DB
:100D2000583540E121F0523642E009F00895FF9332
:100D3000EF937DDFEF91FF91B7CFFF93EF93FC012E
:100D400081918030B9F360DFFBCFFF93EF9368DFD1
:100D5000F1CFDF93CF93CDB7DEB72596A3DFCF9149
:100D6000DF9108950E94881783E00E9438180E943E
:100D700062144FEF6FEF80E00E949C108BE00E94A6
:100D80005F1460E070E0CB010E940E2A0C941A2AD6
:100D90008091FA01833011F40E94A1271092FA0188
:100DA0000895FC018081813041F48185811107C063
:100DB0008285882321F083E0089581E0089582E010
:100DC00008950E94D1068093FA01823019F0833091
:100DD00031F008950E943E2988600C94442983E0F4
:100DE0000C94802789322DE5920729F08A329D459F
:100DF000A9F081E00895FB0182818823D1F3E0917D
:100E00003F01F0914001808181FF05C088EB90E0B7
:100E10000E942308EECF84EB90E0FACFFB018281A1
:100E2000882339F3E0913F01F0914001808181FFF7
:100E300003C080EB90E0ECCF8CEA90E0E9CF81E05A
:100E400008950C94F20608950C9423071F93CF93F2
:100E5000DF9300D000D00F92CDB7DEB749835A831D
:100E60006B833091760289819A8131111DC066238E
:100E7000B9F02223A9F00E947328182F682F8981C6
:100E80009A810E941C2869817A81812F0F900F908E
:100E90000F900F900F90DF91CF911F910C94BF088E
:100EA0000E944A28182FEFCF0E94732869817A8107
:100EB000EDCFFC01262F40815181628173818481B5
:100EC0000C942607CF93DF93EC0160E00E94590752
:100ED000BE01DF91CF910C942407FF920F931F93D3
:100EE000CF93DF93E82FF0E0E35CFC4FF490C82F42
:100EF000C695C695C695D0E0FE01E353FC4F04911C
:100F0000877010E0082E02C0159507950A94E2F745
:100F100001701127C354DC4FFE01C491D0E002C020
:100F2000D595C7958A95E2F7C170DD2701151105A2
:100F300019F081EE0E94EE1F209719F086EE0E94B4
:100F4000EE1F8F2D0E94C720CD2B19F086EE0E9438
:100F50007820012B41F081EEDF91CF911F910F910D
:100F6000FF900C947820DF91CF911F910F91FF900B
:100F70000895EF92FF920F931F93CF93DF938C010D
:100F8000F62E8AE0E82EF8018491882309F454C0F3
:100F9000813009F04DC0E8012196FE018491813035
:100FA00091F42196FE0184910E94C7208E010F5F6B
:100FB0001F4F8F2D815038F3EFE9FFE03197F1F7A4
:100FC00000C00000F7CF823039F4E8012296FE011C
:100FD00084910E94EE1FEACF833039F4E801229613
:100FE000FE0184910E947820E1CF8430F9F6E80177
:100FF0002296FE01249190E080E0FE01319620537C
:10100000330B2A30310548F0019780F2EFE9FFE019
:101010003197F1F700C00000F7CFE89EA001E99EEC
:10102000500D1124C901840F951F2491EF01E5CFC4
:101030000E946D07E801BACFDF91CF911F910F9108
:10104000FF90EF90089560E00C94B9070E94D729B3
:10105000811102C00E94762A0E94D2180C94C20A02
:101060000E94381C0C94C50A08950C94340881E041
:1010700008950C943708CF93C82F0E9435088C2F01
:10108000CF910C94390808950E9447230E94430889
:101090002FEF84E39CE0215080409040E1F700C0B6
:1010A00000000C94982B0F931F93CF93DF93EC01C8
:1010B00061E00E9459078C01BE010E94981BBE018D
:1010C000C8010E9421078823A1F1BE01C8010E9426
:1010D0003E18882371F1BE01C8010E94DE1B8823DF
:1010E00041F1BE01C8010E949919882311F1BE0186
:1010F000C8010E94EB198823E1F0BE01C8010E94DB
:101100000E1B8823B1F0BE01C8010E9490168823EF
:1011100081F08A81882341F101308CE5180779F04C
:101120000E3D8CE51807E9F001151C45E9F40E9415
:10113000440880E0DF91CF911F910F910895909125
:10114000EC02892F8E7F90FF81608093EC0280FFFC
:1011500005C08CE293E00E941006EBCF8AE193E099
:10116000FACF0E94762AE5CFCE01DF91CF911F9171
:101170000F910C941F0790E080E008950895972F39
:1011800070E026E0929F600D711D1124FB019CE32D
:10119000899FE00DF11D1124EE0FFF1FEE53FF4F4D
:1011A000859194910895FC01EE0FFF1FE352FC4FCF
:1011B000859194910895CF93DF930E94BF080E9478
:1011C000E709EC01811520E5920708F041C081157F
:1011D00030E4930708F0B4C0803E910518F5803CD8
:1011E000910508F09DC0883A910570F4853A910503
:1011F00008F08EC081309105F9F00097E9F004976E
:10120000D8F4D0E0C0E018C08F3B9105D0F7C85AA1
:10121000D0E0CC0FDD1FC45BDE4F0990D881C02D1C
:10122000D4640AC08115904258F4C11581E0D807F2
:1012300018F4C83ED10528F7CE01DF91CF9108956B
:10124000C11590E3D90708F071C0CE019F706AC044
:10125000811525E5920758F5811534E5930708F0C7
:101260009EC0811542E5940750F4C11581E5D80769
:1012700008F469C0DC2FCC27C16FD06ADDCF982F6E
:10128000969596959E0123703327C115D34508F096
:1012900077C0C1E0D0E002C0CC0FDD1F2A95E2F795
:1012A00020E2929FC0011124C82BD92B67C0C11521
:1012B00089E5D807A8F4C11598E5D90708F074C0E6
:1012C000C11526E5D20708F09CCF8C2F0E947E0A1C
:1012D000C82FD0E0DC2FCC27CC27DF71D062ACCF79
:1012E000C1153AE5D30708F464C0CE0190568115C4
:1012F000904208F086CF8D2F8F710E947E0A90E079
:10130000982F882788279F719C012C2BE901E6CF15
:10131000C55AD0E0C658DE4FC881D0E0D0648CCF2B
:10132000805C91090E94D308EC0186CFCE019927F9
:10133000D3FF03C0EC01D86C7FCFEC01D06C7CCF25
:10134000DF70D06A79CFCE01E4E096958795EA9573
:10135000E1F783702C2F26952695237090E2299F24
:1013600090011124382B8C2F8370C1E0D0E002C093
:10137000CC0FDD1F8A95E2F7C22BD32BDC685CCF44
:10138000C1E0D0E002C0CC0FDD1F2A95E2F730E2C9
:10139000939FC0011124C82BD92BDA684DCFD82FC9
:1013A000CC27C46FD06A48CFDC2FCC27C06FD06A5F
:1013B00043CF8C2F8F700E947E0A34E0D695C7955C
:1013C0003A95E1F7CF709C2FEC01D06935CF823888
:1013D0009105B1F1B0F48133910509F475C048F479
:1013E0008932910509F469C08A32910509F473C004
:1013F00008958533910509F459C08933910501F1A8
:101400000895833E9105A9F138F4803E9105F9F0E5
:10141000823E910549F10895863E9105A9F1873EE6
:101420009105C9F1843E910519F52091400321FFF2
:101430001FC080913F0384FD14C087EE90E00895A3
:1014400020913F032370A1F080EE90E00895209159
:101450003F0320FD47C03091400330FF09C024FF07
:1014600044C090E080E004C020913F0322FDF7CF0C
:10147000089520913F0322FD3BC03091400330FD91
:10148000E3CF24FFF5CFEDCF20913F0323FFF0CF33
:1014900024FDE7CFD2CF20913F0323FD2CC0309114
:1014A000400331FFEECF84EE90E0089520913F039A
:1014B00025FFDECF89E290E0089520913F0325FFCC
:1014C000D7CF85E390E0089520913F0326FFD0CF4A
:1014D0008AE290E0089520913F0326FFC9CF81E37F
:1014E00090E0089589E390E0089583EE90E00895F8
:1014F00082EE90E0089586EE90E0089590913F038B
:1015000092FF06C0282F28712830F9F4877F846065
:1015100093FF06C0282F28712831F1F4877E84615B
:101520002091400320FF06C0382F38713830D9F49D
:10153000877F816021FF06C0282F28712831D1F4D0
:10154000877E816194FD877E0895282F2471243041
:10155000F9F68B7F8860DCCF282F2471243101F7C6
:101560008B7E8861DDCF382F3171313019F78E7F56
:101570008860E0CF282F2171213121F78E7E88618C
:10158000E1CF08950C94C10A08950C94C40AE82F81
:10159000F0E0EB5FFC4F80810895CF92DF92EF92F5
:1015A000FF920F931F93CF93DF938CEE93E00E94F3
:1015B000100685E0E82E83E0F82ED0E0C0E097EE3C
:1015C000C92E93E0D92E0FED13E0DF93CF93DF9276
:1015D000CF920E94A90684EE93E00E941006F701C4
:1015E00081917F010E94BF291F928F931F930F93B8
:1015F0000E94A9068DED93E00E94100621968DB7FA
:101600009EB708960FB6F8949EBF0FBE8DBFCA3026
:10161000D105D9F6DF91CF911F910F91FF90EF90F7
:10162000DF90CF90089580EA8A95F1F708950895A4
:101630000E94760C80911A0180911A0195E0811127
:1016400090E09093100385E0891B80930F03A3E83B
:10165000B1E061E070E08D91E82FE295EF70F0E08D
:1016600041A18F709B0101C0220F8A95EAF7922F4A
:101670009095942391A382A1822B82A381E0A83824
:10168000B80749F7ADE7B1E061E070E08D91E82F70
:10169000E295EF70F0E041A18F709B0101C0220F35
:1016A0008A95EAF7922F9095942391A382A1822B99
:1016B00082A381E0A338B80749F7EBEFF2E0A5E099
:1016C000B3E085E093E011921D928E179F07D9F742
:1016D00085E00E941E0C0E9426080C948B0C0E9430
:1016E000550C8823F9F080910F0390E08B5F9C4F9D
:1016F0000E94BB0C811113C08091FB018F5F80930E
:10170000FB01863050F0E0910F03F0E0EB5FFC4FFF
:10171000108211821282138214820C94300810926B
:10172000FB01FBCF8091100390E08B5F9C4F0E94E8
:10173000E20C0C94170B8F929F92AF92BF92CF92B4
:10174000DF92EF92FF920F931F93CF93DF9383E883
:10175000A82E81E0B82E0BEF12E0912CCC24C3947C
:10176000D12CF50181915F01C82FC295CF70D0E0D7
:1017700099A18F70760101C0EE0C8A95EAF7892F46
:101780008E2989A38AA18E2C809488218AA30E9405
:10179000130BEDE7F1E050E040E020E03191A32FA2
:1017A000A295AF70B0E090968C9190E03F7002C02F
:1017B000959587953A95E2F780FD3CC08C2D042ED7
:1017C00001C0880F0A94EAF7282B4F5F5F4F46301D
:1017D000510521F789A1882289A28AA1E82AEAA2D3
:1017E000F8018081281741F1208381E0982A0F5F5A
:1017F0001F4FF8E8AF16F1E0BF0609F0B2CF6091D5
:10180000100370E06B5F7C4F292D45E08BEF92E079
:101810000E941F0C0E946F0B892DDF91CF911F91A9
:101820000F91FF90EF90DF90CF90BF90AF909F907F
:101830008F90089580E0C8CF80E0D8CF0895FF92C0
:101840000F931F93CF93DF93F82E092F162FD72FC7
:10185000C42F222349F081E08093FE010E94592B7E
:101860009093FD018093FC018091FE018823A1F0FB
:101870008091FC019091FD010E94652B069760F01C
:10188000EF2DF02FA12FBD2FCE0FDF2FD11DEC1785
:10189000FD0741F41092FE01DF91CF911F910F914E
:1018A000FF90089581918D93F2CF8091FF01811176
:1018B00011C08091D80080618093D8008AE18A9518
:1018C000F1F700C09091D900892F817090FF82E0DC
:1018D0008093FF0181E09091FF01913009F080E059
:1018E00008950E94550C91E0892708950E94710C7B
:1018F00080931A0180911A0166E0882349F080E004
:101900000E94940D0E94550C882321F00C94920C97
:1019100086E0F6CF08950E94550C811102C00C9408
:10192000980C089562E070E08BE191E00C94F01C5B
:1019300062E070E08BE191E00C94F91C0E948B1343
:10194000882361F088E092E00E94911381E090E0AA
:101950000E94D21D892B11F40C948E13089580914E
:101960000702883039F460E088E092E00E94601558
:10197000109207020895CF93DF93D82FC92F0E94AA
:101980009E0C90E080E00E94D21D0097C9F4ED2FDC
:10199000FC2FDC01AE5FBD4F2C9121930196853069
:1019A0009105B9F70E94FF16882341F00E940317A2
:1019B0008093010281E0DF91CF91089580E0F8CF1C
:1019C00080E0F9CFCF93DF93D82FC92F0E94AF0CBF
:1019D000ED2FFC2F90E080E02191DC01AE5FBD4F48
:1019E0002C93019685309105B9F780910102DF9122
:1019F000CF910C947318EF92FF920F931F93CF9394
:101A0000DF93EB01E82FD11110C0442321F0F0E067
:101A1000EB52F74FE4916E2F7E2F8E2FDF91CF91F7
:101A20001F910F91FF90EF9008950D2F10E0282F38
:101A300030E0442329F02B52374FF901249130E054
:101A4000F6E0CF9FC0011124EFEFF0E0BF010E944C
:101A50004133AB018C2F90E0880F991FA5E5A49F1F
:101A6000B001A59F700D1124861B970B982F990F1D
:101A7000980FBF01601B710B629FD001639FB00D77
:101A8000729FB00D11248B2F9D9FB0011124672FE1
:101A90007727EF01C61BD70BBE01629FE001639F52
:101AA000D00D729FD00D11247F01E91AF108E09E3C
:101AB000B001E19E700DF09E700D1124672F772705
:101AC000E61BF70BE29F8001E39F100DF29F100DC4
:101AD0001124E12F722F4230510599F048F441153D
:101AE000510569F04130510581F0EB2F8D2F07C072
:101AF0004430510569F080F046305105B1F76E2F42
:101B00008DCFE22F7B2F812FFACFE22F7D2FF7CFC2
:101B1000EB2F822F712FF3CF7B2F822FED2FEFCF63
:101B200041E00C94FB0C0895EEE2F1E080836183C8
:101B30000895CF93DF93762FE901682F842F0E94B9
:101B4000900D798368838A83DF91CF910895809186
:101B50001103982F9E7F29F4817082608093110376
:101B600008958635E8F381708465F8CF88E090E0C9
:101B70000C944F34CF92DF92EF92FF926B017C0175
:101B80000E94A70DB701A60188E090E0FF90EF90BA
:101B9000DF90CF900C946D34E1E1F3E083E080833B
:101BA00011828FEF828383831482A9E5B2E01296BB
:101BB0008C911297836012968C93608171818281DF
:101BC00093810C94BA0D8091EC0280FF76C083E281
:101BD00097E09F938F930E94A9068091EC020F904B
:101BE0000F9080FF6AC08091110381701F928F93C4
:101BF00086E097E09F938F930E94A9068091EC0264
:101C00000F900F900F900F9080FF57C0809111039D
:101C100086951F928F938BEE96E09F938F930E94F1
:101C2000A9068091EC020F900F900F900F9080FF0B
:101C300044C0809112031F928F9381ED96E09F9391
:101C40008F930E94A9068091EC020F900F900F9045
:101C50000F9080FF32C0809113031F928F9387EB08
:101C600096E09F938F930E94A9068091EC020F90BB
:101C70000F900F900F9080FF20C0809114031F924F
:101C80008F938DE996E09F938F930E94A906809190
:101C9000EC020F900F900F900F9080FF0EC080917C
:101CA00015031F928F9381E896E09F938F930E9474
:101CB000A9060F900F900F900F9008958091110337
:101CC00080FF02C08695089580E0089590911503E5
:101CD000933018F49F5F90931503882351F060911F
:101CE00011037091120380911303909114030C94CB
:101CF000BA0D089581E00C94660E90911503992316
:101D000019F0915090931503882351F060911103BD
:101D10007091120380911303909114030C94BA0DE7
:101D2000089581E00C947D0E70E00C94E2186091AF
:101D30002F018091110380FF0AC080912E0123E0C2
:101D4000829FC00111248A5E9C4F0C94940E809156
:101D500030019091310123E0829FF0011124EA5E6D
:101D6000FC4F891750F71182108212828F5F3396D1
:101D7000F8CF9091110390FF14C090913001209101
:101D8000310133E0939FF0011124EA5EFC4F92177A
:101D900010F00C94970E8183608342839F5F33968B
:101DA000F6CF0895CF93DF9300D00F92CDB7DEB773
:101DB0009091110390FF0AC09E012F5F3F4F0E9438
:101DC000990D4B8169818A810E94B90E0F900F9005
:101DD0000F90DF91CF910895CF93DF93EC01EC81C9
:101DE000F0E0EF5AF84F4491E1E1F3E06281818144
:101DF0000E94D20E8C818F5F8C83DF91CF910895EA
:101E0000CF93DF93EC01E1E1F3E0438162818C81C8
:101E10000E94D20E8C818F5F8C83DF91CF910895C9
:101E20000F931F93CF93DF9300D00F92CDB7DEB700
:101E30008C018091100281110AC09E012F5F3F4FDB
:101E40004FEF6FEF0E94990D8A8180931002F80185
:101E50006481613069F08091100240E0662361F096
:101E600040E0623011F44091100280E060E004C074
:101E70006091100240E080E00E94B90EF801848178
:101E800090E0019663E070E00E94553384830F90E8
:101E90000F900F90DF91CF911F910F9108954F9266
:101EA0005F926F927F928F929F92AF92BF92CF92EA
:101EB000DF92EF92FF920F931F93CF93DF9300D0A7
:101EC0000F92CDB7DEB7182FF62E042F722E9091F9
:101ED000110390FF57C0E92FE695AE2FB0E0A3574E
:101EE000BE4F8C91809359029E7F923009F05EC064
:101EF0009E012F5F3F4F812F0E94990D4B81698179
:101F00008A810E94B90E80911203811308C08091CA
:101F100013038F1104C080911403801729F080915E
:101F20005B02826080935B0210931203F0921303B2
:101F300000931403772009F49CC060911103709101
:101F4000120380911303909114030E94BA0D8091A3
:101F5000EC0280FF17C0809114031F928F93809131
:101F600013031F928F93809112031F928F938DE71B
:101F700094E09F938F930E94A9060FB6F894DEBF5A
:101F80000FBECDBF0F900F900F90DF91CF911F919B
:101F90000F91FF90EF90DF90CF90BF90AF909F9008
:101FA0008F907F906F905F904F900895823019F4DA
:101FB00000911403A8CF863019F410911203A3CF17
:101FC0008930D9F3893109F09ECFE9518E2F817084
:101FD000682E8E2F80958170E82EE695F0E0EF5AFE
:101FE000F74FC590D490412CDD2492EAA92E94E0BD
:101FF000B92E60913201461618F00E94970E83CFD9
:10200000842C912C8C9CC0018D9C900D9C9C900DDF
:10201000112470E00E944133512E611028C0560EE9
:102020008091EC0280FF11C0DF92CF921F92EF925D
:102030001F925F921F924F92BF92AF920E94A90689
:102040000FB6F894DEBF0FBECDBF20913001820ED7
:10205000911C9401220F331F280D391D2A5E3C4F1D
:10206000402F6F2D852D0E94990D4394C2CF561A93
:10207000D7CF8091EC0280FF85CF1F920F931F92E4
:10208000FF921F921F9386E594E073CFE1E1F3E0A6
:102090009181282F4381628188E0890F0C944F0F32
:1020A00081E00C944610E1E1F3E09181282F438117
:1020B000628188EF890F0C944F0F81E00C945310CC
:1020C000E1E1F3E0628121E1620F08F46FEF282F74
:1020D000438181810C944F0F81E00C946010E1E109
:1020E000F3E0628121E1621B08F460E0282F438164
:1020F00081810C944F0F81E00C946F10E1E1F3E0CB
:10210000438121E1420F08F44FEF282F6281818142
:102110000C944F0F81E00C947E10E1E1F3E04381D9
:1021200021E1421B08F440E0282F628181810C9458
:102130004F0F81E00C948D1021E00C944F0F20E0A4
:102140000C944F0FEF92FF921F93CF93DF93EC010C
:1021500010E0EE24EA94F12C60913201161770F031
:102160000E94970E9A818C8190FF27C08F5F8C838D
:10217000DF91CF911F91FF90EF9008952091300152
:10218000422F410F5527551FCA019A01220F331FB5
:10219000280F391F2A5E3C4F70E0C7010E9455335B
:1021A000962F8C814091140360911303199F800D29
:1021B00011240E94990D1F5FCFCF8150D8CF8F92ED
:1021C0009F92AF92BF92CF92DF92EF92FF920F93C6
:1021D0001F93CF93DF93EC018A81BB24BA9480FDD7
:1021E00002C0BB24B3948C8181110AC081E0B81273
:1021F0002AC08091320181508093120281E08C8349
:10220000A12C4CE0942E80913201A816F8F00E9487
:10221000970E8091120291E0B91261C081115AC0EB
:10222000809132018150809312021C82DF91CF9104
:102230001F910F91FF90EF90DF90CF90BF90AF90E4
:102240009F908F90089510921202D8CF0091300184
:10225000CA2CD12C0C0D1D2D111DC801880F991FE2
:10226000080F191F0A5E1C4FF8011182108212829A
:1022700034E0E32EF12C812C80911202880D8D30F8
:102280001CF1692D0E943333892F082E000C990B05
:10229000C816D90691F4809114038E9DA0018F9DDC
:1022A000500D112455954795559547959801609186
:1022B0001303809112030E94990D8B0CF1E0EF1A29
:1022C000F108D1F6A3949FCF87FFDFCF9091320121
:1022D000890FDBCF815080931202BC82A7CF90E0A0
:1022E00001966091320170E00E9455338093120292
:1022F0008C839CCFEF92FF920F931F93CF93DF932A
:10230000EC018C81811109C081E08C831092110253
:1023100092E090932D0180932C0180913001909157
:10232000310123E0829FF0011124EA5EFC4F8917FE
:1023300068F110E003E060913201161768F10E9425
:10234000970E80912C0120911102280F20931102E9
:1023500090912D01980F90932D01191654F4022E8F
:10236000000C330B409132014150550B24173507B7
:1023700034F0819580932C01813009F41C82DF9127
:10238000CF911F910F91FF90EF90089511821082CD
:1023900012828F5F3396CBCFE12EF12C70E0C70114
:1023A0000E94553320913001820F482F50E0209138
:1023B0001102022E000C330BE216F306BCF0209142
:1023C0002D01022E000C330B2E153F057CF0809F53
:1023D000900111242A5E3C4F409114036091130335
:1023E000809112030E94990D1F5FA5CFFA01EE0F95
:1023F000FF1FE40FF51FEA5EFC4F1182108212826C
:10240000F3CF8F929F92AF92BF92CF92DF92EF92D3
:10241000FF920F931F93CF93DF93EC014C81042F16
:1024200010E09801D8010E9499339B01AC010E94F1
:10243000AF334B015C01E0E2F0E0E01BF10BA5E5FE
:10244000B0E0AC019B010E94AF336B017C019F01A6
:10245000DF010E9491339B01AC010E94BA339B01C2
:10246000AC01280D391D4A1D5B1DC701B6010E9434
:102470006933F22E822F90E039E23F1560F143E09C
:10248000249F9001112435952795122F109500E077
:1024900085E5E82EEF1880913201081758F10E9467
:1024A000970E9C8181E0992319F0903219F48FEFF7
:1024B00080932B0180912B01890F8C83DF91CF9129
:1024C0001F910F91FF90EF90DF90CF90BF90AF9052
:1024D0009F908F90089525E530E0B901681B790B36
:1024E0009B01220F331F260F371F37FFCCCF2F5FE3
:1024F0003F4FC9CF8E2D01FD8F2D20913001622FCE
:10250000600F7727771F9B01220F331F260F371F7E
:102510002A5E3C4F412F609113030E94990D0F5F7B
:10252000BACF0F931F93CF93DF93EC0110E000E03D
:10253000909132019017110609F06CF40E94970EE9
:102540008C8190E00196817099278C83DF91CF91E7
:102550001F910F91089520913001A801420F511D44
:102560009A01220F331F240F351F2A5E3C4F4C81E6
:10257000609113038091120396959017110651F004
:102580004CF0442349F0409114030E94990D0F5FD1
:102590001F4FCECF4423B9F340E0F7CF8F929F92E5
:1025A000AF92BF92CF92DF92EF92FF920F931F9361
:1025B000CF93DF93FC01B280948081E0848300E0BC
:1025C00015E05BE4A52E88248394EE24EA94F12C94
:1025D0007BE4C72ED12C80913201081770F0DF9177
:1025E000CF911F910F91FF90EF90DF90CF90BF9010
:1025F000AF909F908F900C94970EC02FD0E01C9FAF
:10260000F0011D9FF00D1124EA5EFD4F91101CC0DA
:102610001382128220913001CE01820F911D9C0104
:10262000220F331F280F391F2A5E3C4F1C9FF001D9
:102630001D9FF00D1124EA5EFD4F42816181808172
:102640000E94990D0F5FC7CF2381222379F121507A
:10265000238334818A2D821B311101C0822F1C9F5C
:10266000F0011D9FF00D1124EA5EFD4F90911403BF
:10267000899FC0011124B6010E9441336283211158
:1026800004C0332311F01482A38222E02B1510F230
:102690001C9FF0011D9FF00D1124EA5EFD4F8091FB
:1026A00012038083809113038183B4CF0E942A3464
:1026B000823091400CF0AECF82E08B1530F50E9455
:1026C0002A34B7010E9455331C9FF0011D9FF00D65
:1026D0001124EA5EFD4F808322E02B15C8F40E948E
:1026E0002A34209113032695622F70E00E945533FF
:1026F000280F1C9FF0011D9FF00D1124EA5EFD4F75
:1027000021831282A382848285CF80911203DCCF41
:1027100020911303EECF80915B02089510925B022B
:10272000089525E0E1E1F3E0DC0101900D922A95A6
:10273000E1F72091590230915A0240915B02FC016D
:102740002583368347830895E9E5F2E0118282818B
:1027500084608283089560911103669570E04BE078
:1027600050E083E391E00E943A34892B19F481E030
:1027700080935A020E94592B9093530280935202E5
:1027800080915B02846080935B028091EC0280FF09
:1027900008C08DE394E09F938F930E94A9060F9049
:1027A0000F90089510925A0280915B02846080938A
:1027B0005B028091EC0280FF08C084E294E09F936A
:1027C0008F930E94A9060F900F9008959091110386
:1027D00090FF59C09170811140C092609093110395
:1027E00080915B02816080935B026623E9F16091D6
:1027F00011037091120380911303909114030E94AE
:10280000BA0D8091EC0280FF0FC080911103869574
:102810001F928F9387EC95E09F938F930E94A90658
:102820000F900F900F900F9060911103669570E0DC
:102830004BE050E083E391E00E943A34892B01F1B0
:102840000E94D21381E0809355024091140360915D
:102850001303809112030C949F108B3210F0946537
:10286000BDCF880F982BBACF8091EC0280FFDCCFD0
:102870008091110386951F928F9389EA95E0CCCFC2
:102880000E94AB13DFCF0895682F909111039695A6
:1028900081E0890F8B3208F081E00C94E61381E02F
:1028A0000C944414682F9091110396958FEF890F23
:1028B00009F48AE20C94E61381E00C94521461E06E
:1028C0000C94E61380911103816080931103809131
:1028D000EC0280FF0DC01F9281E08F938BE395E0A7
:1028E0009F938F930E94A9060F900F900F900F90C7
:1028F0008091110386950C945F1460E00C94E613AC
:1029000080915802811165C08091EC0280FF14C053
:102910008AE696E09F938F930E94A9068091EC022D
:102920000F900F9080FF08C084E596E09F938F93EF
:102930000E94A9060F900F900E94D729811110C004
:102940008091EC0280FF08C08CE296E09F938F9309
:102950000E94A9060F900F900E94762A0E94CC0D2B
:102960000E94B60D609311037093120380931303BA
:102970009093140380915B02836080935B026E7F6F
:10298000C1F48091EC0280FF08C083EE95E09F9334
:102990008F930E94A9060F900F900E94CC0D0E9469
:1029A000B60D6093110370931203809313039093F9
:1029B00014030E94A70D0E94E30D0E94A4138091AE
:1029C000110380FF03C086950E947D1481E08093EF
:1029D00058020895809111038E7F809311036091B6
:1029E00011037091120380911303909114030E94BC
:1029F000BA0D8091EC0280FF0FC0809111038170AD
:102A00001F928F9383E095E09F938F930E94A90676
:102A10000F900F900F900F900E94D21380915B0245
:102A2000816080935B022FEF80E792E0215080402D
:102A30009040E1F700C000000C94970E8091EC02EA
:102A400080FF10C080911103809581701F928F9339
:102A500082E795E09F938F930E94A9060F900F90B5
:102A60000F900F908091110380FD0C94EA140C9448
:102A70006214809111038E7F809311038091EC0288
:102A800080FF0CC01F921F9289EC94E09F938F935C
:102A90000E94A9060F900F900F900F900E94D213E2
:102AA00080915B02816080935B022FEF80E792E070
:102AB000215080409040E1F700C000000C94970E38
:102AC0001F93CF93DF93EC01162F8F8180FF0CC0F3
:102AD000888180FF24C0809111038160809311035D
:102AE000888186950E94E6138F8181FF06C0212F81
:102AF0004B816A8189810E944F0F8F8182FF05C0BF
:102B00008E81882379F00E94AB138F8183FF03C0ED
:102B100081E080935502DF91CF911F9108950E942B
:102B20003915E2CF0E94D213F0CFEF92FF920F93AC
:102B30001F93CF93DF9380915A02882309F475C0C5
:102B400080915902E0911103E695E81BE09354024D
:102B5000823009F071C0F0E0E35BF84FE491CE2FD2
:102B6000D0E00CEE1EE080915502882389F010928F
:102B700055020E94592B9E0120953095820F931F7C
:102B80009093530280935202109257021092560271
:102B900080915202909153020E94652B8C179D07E1
:102BA00008F443C080911502882311F11092150298
:102BB00080911302909114020E94652B80339547F7
:102BC000B8F00E94592B90931402809313028091C5
:102BD000EC0280FF08C08BEF93E09F938F930E94DD
:102BE000A9060F900F9080915B02886080935B0232
:102BF000E0905602F0905702E0915202F091530299
:102C0000CE0FDF1FD0935302C093520282E592E0B1
:102C1000F80109958091560290915702892B29F469
:102C2000EF2819F081E080931502DF91CF911F9179
:102C30000F91FF90EF900895863049F4F0E0E65B45
:102C4000F84FE491CE2FD0E000E01FE08CCF893028
:102C500051F4E695F0E0E95BF84FE491CE2FD0E037
:102C600002EA10E180CF8F3051F4E695F0E0EC5BA2
:102C7000F84FE491CE2FD0E00FED10E174CF853105
:102C800049F4F0E0EF5BF84FE491CE2FD0E00AE793
:102C900011E169CFC8E2D0E001E012E1883109F426
:102CA00062CF833239F4EFE3F7E0C591D49100E1CC
:102CB0001FE059CFC4EFD1E001E912E1843209F4F9
:102CC00052CFC0EDD7E003E91DE0853209F04BCFCC
:102CD0008E2F63E00E942733E92FF0E0E45CF84F89
:102CE000E491CE2FD0E00EEC12E13DCFFA0181113C
:102CF00001C0FB010994CF93DF93C82FD62F0E9408
:102D00005E0E8C1740F00E945E0E8D1720F4DF914E
:102D1000CF910C944F148C2FDF91CF910C945F14B2
:102D20001F93CF93DF93EC01FB011281111110C0AF
:102D30000E9408298272FE01E25CFC45E431F10543
:102D400008F05BC0E055FB4C0C948B330E941E15C1
:102D5000812FDF91CF911F9108954CE554E16FE4ED
:102D600074E10E947616F4CF4FE454E16CE574E10F
:102D7000F8CF4DE550E160E570E1F3CF40E550E17B
:102D80006DE570E1EECF4BE750E16CE670E1E9CF25
:102D90004CE650E16BE770E1E4CF49E950E16AE8C5
:102DA00070E1DFCF4AE850E169E970E1DACF41E94B
:102DB0005EE06AE77EE0D5CF4AE75EE061E97EE06B
:102DC000D0CF81E00E945F14C3CF65E082E00E9413
:102DD0007B16BECF68E086E0FACF6EE089E0F7CFE1
:102DE00064E18FE0F4CF67E185E1F1CF88E1EACFDC
:102DF00062E289E1ECCF83E2E5CF11E0A9CF8091D7
:102E00003A038170089580913A0386958695869558
:102E100008950E94D729811102C00E94762A0E943B
:102E2000052A80933A03803320F08770886280936C
:102E30003A0390913A03892F817090FF04C0892F43
:102E40008695869586950C94731880913A03982FF1
:102E5000969596959695953040F49F5F990F990FAA
:102E6000990F8770892B80933A0380913A03816090
:102E700080933A030E94092A8091EC0280FF11C0DE
:102E800080913A038695869586951F928F938DEB58
:102E900098E09F938F930E94A9060F900F900F9038
:102EA0000F9080913A038695869586950C947318B9
:102EB00080913A03982F987F79F0885080933A0355
:102EC000887F91E009F490E080913A0390FB80F9CB
:102ED00080933A030E94092A8091EC0280FF11C07E
:102EE00080913A038695869586951F928F9385EA01
:102EF00098E09F938F930E94A9060F900F900F90D8
:102F00000F9080913A038695869586950C94731858
:102F100080913A0380FD1FC0816080933A03813025
:102F200019F489E080933A0380913A030E94092AB8
:102F30008091EC0280FF08C08DE798E09F938F930B
:102F40000E94A9060F900F9080913A03869586956E
:102F500086950C947318089580913A0380FF14C0ED
:102F60008E7F80933A030E94092A8091EC0280FFB1
:102F700008C08AE698E09F938F930E94A9060F905D
:102F80000F9080E00C9473180895CF93C0913A038A
:102F9000C1708091EC0280FF0CC01F92CF938FE82C
:102FA00098E09F938F930E94A9060F900F900F9027
:102FB0000F90CC2319F0CF910C94AC17CF910C94B7
:102FC000881790913A03892F8695869586958F5F0D
:102FD0008F719770863080F5880F880F880F892B46
:102FE00080933A0380913A03887F91E009F490E05E
:102FF00080913A0390FB80F980933A030E94092A5A
:103000008091EC0280FF11C080913A0386958695ED
:1030100086951F928F9386E598E09F938F930E94E9
:10302000A9060F900F900F900F9080913A0386950C
:10303000869586950C94731890933A03D3CF863077
:1030400008F085E090913A039770282F220F220F05
:10305000220F922B90933A03987F21E009F420E00D
:1030600090913A0320FB90F990933A030C947318D3
:103070000E941F1880913A030C94092A9C01FB01BD
:103080008281882349F12D3BFCE53F07C9F040F4DC
:103090002B3BECE53E0769F02C3B3C4579F008956D
:1030A0002F3B9CE5390791F070F0203C3C4589F0BE
:1030B000089585E00E94381880E0089580E0FACFF6
:1030C0000E945817F9CF0E942517F6CF0E94C51706
:1030D000F3CF0E94E117F0CF81E00895259A2D9853
:1030E00008952D980895CF92DF92EF92FF92CF939B
:1030F000C82F863040F5811127C0809180008F77DE
:10310000809380000E9471182C2F30E0AFEFBFEF4A
:103110000E94993325E030E040E050E00E9469339E
:10312000C9012C3764E13607A8F469E070E00E9419
:1031300041337093890060938800CF91FF90EF90A6
:10314000DF90CF900895C5E08091800080688093E3
:103150008000DACF2A50374D4F4F5F4F942F832F87
:10316000722F662725EF38E241E050E00E94693374
:1031700069017A01CA01B9010E9417339B01AC01B0
:10318000C701B6010E941733672F782F892F99271F
:103190006115710521E08207910559F66FEF7FEF08
:1031A000C8CF08950E946E1882E88093800089E15C
:1031B000809381008FEF9FEF90938700809386002C
:1031C0000C940917539A4BB1477F5BB15860EFB726
:1031D000F8949B01220F331F260F371F280F391F2A
:1031E0002817390741F4EFBF8FE594E00197F1F715
:1031F00000C000000895DC016D91CD0178E05BB95D
:10320000000000C067FF4BB9660F000000C000C09F
:1032100000C04BB900C07A9591F7E2CFAF92BF9250
:10322000CF92DF92EF92FF920F931F93CF93DF9392
:103230007C015B01C42FD22FFC0182818823F9F02D
:1032400040935E020E94592B90935D0280935C0232
:1032500080E28C0F883008F061C0C77081E001C047
:10326000880FCA95EAF7DF91CF911F910F91FF90D8
:10327000EF90DF90CF90BF90AF900C94DA20109138
:103280005E02141340C080915C0290915D020E9426
:10329000652B6C01B701C5010E94F925C816D90636
:1032A00090F5C0E2CD0F1D17B9F080E2810F883094
:1032B00040F4177081E001C0880F1A95EAF70E9468
:1032C000E120C83048F481E09D2F977001C0880F3D
:1032D0009A95EAF70E94DA20802F0E94C720C83012
:1032E000E8F4D77081E001C0880FDA95EAF7DF9142
:1032F000CF911F910F91FF90EF90DF90CF90BF90F3
:10330000AF900C94E12080E28C0F883038F4C770C5
:1033100081E001C0880FCA95EAF7E9CFDF91CF912C
:103320001F910F91FF90EF90DF90CF90BF90AF90E3
:1033300008950F939C01CB01233F4CE5340759F1CD
:10334000A8F4283DFCE53F0701F1293D4CE5340791
:10335000D1F1273D3C4591F406E221EE41EE67EDC7
:103360007CE50E940E1980E00F910895253FFCE551
:103370003F07E9F0B0F0263F3C45F9F0FC018281BF
:10338000882339F110925E02EFCF07E225EE45EE79
:1033900068ED7CE5E6CF06E221EE40EE63EF7CE5EA
:1033A000E0CF07E225EE44EE64EF7CE5DACF06E2FB
:1033B00021EE42EE65EF7CE5D4CF07E225EE46EE46
:1033C00066EF7CE5CECF08E221E045EE69ED7CE5D5
:1033D000C8CF81E0C9CFCF93DF93EC01FB0182819D
:1033E000882309F419C1C230FCE5DF07C0F1C631FA
:1033F0009CE5D90730F09E012A5F3C452930310514
:1034000070F50E94EA299093400380933F03C031F6
:10341000ECE5DE0709F4CFC008F05BC0C8308CE5EE
:10342000D80709F4B6C088F5C430ECE5DE0709F426
:10343000A8C0C0F4C2308CE5D80709F49CC08091C4
:103440003F038260C330DC4509F498C080913F039C
:10345000909140030E94F8290E94472380E0DF9169
:10346000CF91089580913F038061C630ECE5DE077F
:1034700009F484C080913F038860C730DC4508F4BC
:103480007DC080913F03806279C0CC308CE5D80745
:1034900009F489C070F480913F038C60CA30ECE578
:1034A000DE0709F46BC008F478C080913F038E7F7B
:1034B00065C0CE308CE5D80709F479C080913F0310
:1034C0008B7FCF30DC4508F459C080913F038F7E5D
:1034D00055C0CB3FECE5DE0709F457C030F5C331EA
:1034E0008CE5D80709F46FC078F4C131ECE5DE074C
:1034F00009F465C0C231DC4509F0A8CF0E9447231A
:1035000080913F038F773AC0C5318CE5D80709F425
:1035100062C008F476C0809140038160CA3FDC45F8
:1035200009F094CF8093400391CFCF3FFCE5DF07B4
:1035300009F44DC088F4809140038D7FCD3F9CE518
:10354000D90781F3809140038E7FCE3FDC4550F355
:10355000809140038360E6CFC130FDE5DF0709F4C9
:1035600059C008F444C080E0C230DD4509F06ECF98
:103570000E94782A6BCF80913F03816080933F0344
:1035800065CF80913F038460F9CF809140038260D2
:10359000C9CF80913F038064F1CF0E94472380917F
:1035A0003F038068EBCF80913F038D7FE7CF809111
:1035B0003F03877FE3CF80913F038F7DDFCF8091F3
:1035C0003F038F7BDBCF80913F03837FD7CF8091F9
:1035D00040038C7FA7CF80913F0382FB992790F90E
:1035E00021E0922790FB82F990FB83F9C7CF80916D
:1035F0004003982F909591708E7F892B90FB81F9D5
:1036000091CF0E94472390913F03892F97FB87F921
:103610008058B4CF81E0ACCF81E021CFCF93DF934E
:10362000EB0186319C4511F50E9408299A81992366
:1036300099F08A7A91E009F490E090935F02811109
:1036400009C089E20E94E3280E94572980E0DF91A7
:10365000CF91089585E3F6CF80915F02811104C078
:1036600089E20E94EA28F0CF85E3FBCF81E0EFCF2B
:10367000CF93DF93EC0181E0898B8F810E940B292E
:1036800088850E941E290E945729EA81FB81309774
:1036900039F06C897D89CE010696DF91CF9109942E
:1036A000DF91CF910895EF92FF920F931F93CF93E5
:1036B000DF93EC018A85811134C0EB80FC8087E5C3
:1036C000F81A26E12E9DC0012F9D900D1124DC01DA
:1036D000AC5FBE4F1496ED91FC911597309731F089
:1036E00054966D917C91865F9E4F099586E18E9DE3
:1036F00080018F9D100D11240C5F1E4FF8018781F2
:103700000E941129F80180850E9424290E945729CE
:10371000188219861B861E821D82109261021092E9
:103720006002DF91CF911F910F91FF90EF9008956C
:10373000DF92EF92FF920F931F93CF93DF937C0161
:10374000FB018281882391F080913E018F3F71F0CF
:10375000C4E0D1E010E000E0DD24D39480913E018C
:10376000082E000C990B8017910744F4DF91CF913C
:103770001F910F91FF90EF90DF9008958E81882325
:10378000C9F089859A858E159F0539F4809160026C
:10379000909161028E159F0569F0DF86FC86EB86AD
:1037A0008989811103C0CE010E94381BCE01069683
:1037B0000E94531B0F5F1F4F6696D0CFEF92FF9270
:1037C0000F931F93CF93DF937C0197558F3F910504
:1037D00009F0D8F520913E01022E000C330B28177A
:1037E000390714F480933E01FB01228136E1389FB2
:1037F0008001399F100D1124E801CC5FDE4F288B2A
:1038000092818E81992349F1FA86E9868F5F8E83B2
:103810000E94592B9E878D870E943E298F830E948C
:10382000082988870E941B299885892B8887E88129
:10383000F981309731F06C897D89C801865F9E4F90
:103840000995F0926102E092600281E0DF91CF91F0
:103850001F910F91FF90EF9008958823B1F389890C
:10386000882399F3C801865F9E4F0E94531BEDCFBA
:10387000CF92DF92EF92FF920F931F93CF93DF933C
:1038800080913E0110E006E18F3FF1F5DF91CF918D
:103890001F910F91FF90EF90DF90CF9008950E9DB4
:1038A000F0010F9DF00D1124EC5FFE4FC288D3880C
:1038B000C114D10439F470E060E0818592850E94E2
:1038C000F9256C010E9DE0010F9DD00D1124CC5FF8
:1038D000DE4F8E818823B9F08D859E850E94652BF1
:1038E000C816D90680F4109F7001112489898111AE
:1038F00005C0C7018C5F9E4F0E94381BC701865FC1
:103900009E4F0E94531B1F5FE12EF12C80913E01C0
:10391000082E000C990B8E159F050CF6B7CF8EE183
:10392000489B02C08150E1F7489BFECF089558980C
:1039300080E28A95F1F7589A0895FC013BE03A95A8
:10394000F1F720E090E080E031E040E14A95F1F7C6
:10395000880F489B02C08160232742E04A95F1F717
:10396000000040E14A95F1F79F5F6913EECF90E1C7
:103970009A95F1F799B132E03A95F1F7000040E1FC
:103980004A95F1F7917092272081920F90830895C4
:10399000EF92FF920F931F93CF93DF930F92CDB7C8
:1039A000DEB719828C017C01E60EF11C0E151F0595
:1039B00061F481E09981911180E00F90DF91CF91C6
:1039C0001F910F91FF90EF9008950E948F1C68E067
:1039D000CE0101960E949D1CF80181938F01E6CFD4
:1039E000909364028093630260936202509A589AA3
:1039F00008959093640280936302609362025098EA
:103A0000589AE89AE9E6F0E080818C7F80830895F7
:103A10006150770B91E001C0990F6A95EAF720E0B9
:103A200031E0911108C0222391F0589A80E28A95E2
:103A3000F1F758980895492F482339F0589A2327C9
:103A400040E24A95F1F79695ECCF5898F9CF5898FF
:103A5000EDCFFF920F931F93CF93DF93EC018C0177
:103A6000060F111DC017D10731F4DF91CF911F91BF
:103A70000F91FF900895F9900E94971C68E08F2D98
:103A80000E94081DEFCF1F920F920FB60F921124C4
:103A90000F931F932F933F934F935F936F937F9356
:103AA0008F939F93AF93BF93EF93FF93CF93DF9346
:103AB0000F92CDB7DEB719820E948F1C67E0CE014E
:103AC00001960E949D1C082F069506950695982F35
:103AD00092959570202F2570920F292F237096951F
:103AE00096958770920F891344C08981811141C0D6
:103AF000809162028017E8F120E12A95F1F7589A47
:103B0000509A82E08A95F1F700C0A8E00A9FC001B0
:103B100011240091630210916402080F191F589834
:103B2000F8016581662321F0868197810E94291D15
:103B30000E94971CF0E1FA95F1F758985098589A1E
:103B400020E12A95F1F7D80112966C91129766231D
:103B500031F113968D919C910E94C81CD801ED9172
:103B6000FC91882311F088E001C082E080830E94EC
:103B70008F1C0F90DF91CF91FF91EF91BF91AF918B
:103B80009F918F917F916F915F914F913F912F9175
:103B90001F910F910F900FBE0F901F901895ED91F0
:103BA000FC91E1CF0F931F93CF93DF93209162029B
:103BB000281719060CF471C08C0193E0000F111F37
:103BC0009A95E1F7C0916302D0916402C00FD11FB2
:103BD000F894509A589825E02A95F1F70000982F0C
:103BE000969595708570980F892F83709695969508
:103BF000980F092B0E94971C00C067E0802F0E943D
:103C0000081D80E18A95F1F75098589A489B17C093
:103C100087E090E0489915C06D81662321F18E817F
:103C20009F810E94C81C81111EC0509A589AE88139
:103C3000F98182E08083789482E090E00DC000C03A
:103C4000E5CF019771F4509A589AE881F98181E0A3
:103C50008083789481E090E0DF91CF911F910F9164
:103C6000089500C0D7CF0E948F1C20E22A95F1F75B
:103C70005898509A80E18A95F1F76A81662321F07D
:103C80008B819C810E94291D0E94971CE881F981EB
:103C90001082789490E080E0DFCF84E090E0DCCF89
:103CA00090936A02809369020895E0916902F0910D
:103CB0006A02309721F00190F081E02D099480E0B4
:103CC0000895EF92FF920F931F93CF93DF938C0190
:103CD000E0916902F0916A023097C1F10280F381AC
:103CE000E02D09958091EC0282FF30C080FF04C076
:103CF0008DED99E00E941006D0E0C0E087EDE82E3F
:103D000089E0F82E8091EC0280FF0EC0F801EC0FE4
:103D1000FD1F80811F928F93FF92EF920E94A90650
:103D20000F900F900F900F902196C830D10551F74A
:103D30008091EC0280FF0AC085ED99E0DF91CF9180
:103D40001F910F91FF90EF900C941006DF91CF918F
:103D50001F910F91FF90EF9008952091670230918D
:103D600068022817390771F0909368028093670200
:103D7000E0916902F0916A02309721F00680F781A4
:103D8000E02D09940895209165023091660228176C
:103D9000390771F09093660280936502E0916902A1
:103DA000F0916A02309721F00084F185E02D0994AA
:103DB000089585B7806885BF85B7806885BF0895F9
:103DC000089508950C94E01E08950C94E41E0E943A
:103DD000D91E0E94E11E0C94E21E0C94550C0E9408
:103DE000502B0E94180B0E94A92B0E9409170E94B9
:103DF00080140C94E51ECF93C82F8091EC0282FFB3
:103E00001EC080FF1CC086EF99E00E9410068091C2
:103E1000EC0280FF14C01F92CF9381EF99E09F9333
:103E20008F930E94A9068091EC020F900F900F9043
:103E30000F9080FF04C08FEE99E00E9410068C2F37
:103E4000CF910C943B08AF92BF92CF92DF92EF924A
:103E5000FF920F931F93CF93DF93CDB7DEB72A97CF
:103E60000FB6F894DEBF0FBECDBF0E949B0B0E9421
:103E7000ED1E882309F461C08CE6A82E82E0B82EDE
:103E800010E000E0C02E802F0E94C70AE82EF50146
:103E9000D1905F01D81609F44AC08091EC0281FDEF
:103EA0000E94CD0A80E0FF24F394DE249D2D9F2103
:103EB000C9F18E83CF82EF2081E009F480E088870A
:103EC0000E94592B8160782F9A8789874E815F8164
:103ED00068858A850E94BF1FF801E459FD4F8081E3
:103EE000F826F0820E9495150E94D1180E94551E56
:103EF00090916B02891791F10E94551E80936B027D
:103F00002A960FB6F894DEBF0FBECDBFDF91CF91DA
:103F10001F910F91FF90EF90DF90CF90BF90AF90E7
:103F20000C94FB1E8F5FFF0C863009F0BFCF0F5F34
:103F30001F4F0A30110509F0A5CF8FEF89838A83BF
:103F40001B820E94592B8160782F9D838C8349812D
:103F50005A816B818D810E94BF1FC4CF2A960FB6F4
:103F6000F894DEBF0FBECDBFDF91CF911F910F91AF
:103F7000FF90EF90DF90CF90BF90AF900895CF93D8
:103F8000DF93CDB7DEB72B970FB6F894DEBF0FBE29
:103F9000CDBF4F83588769877A878B871E821D82A2
:103FA00085E0FE013796DE01119601900D928A950B
:103FB000E1F749815A816B817C818D819E812B96AD
:103FC0000FB6F894DEBF0FBECDBFDF91CF910C943A
:103FD000FC25FC01808191810C94B528CF93C82FDA
:103FE000882309F483C08238C1F40E94551E81FDE4
:103FF0007DC089E30E94E3280E9457292FEF81EEBC
:1040000094E0215080409040E1F700C0000089E337
:104010000E94EA28CF910C9457298338A1F40E947A
:10402000551E80FD63C083E50E94E3280E94572946
:104030002FEF81EE94E0215080409040E1F700C0E6
:10404000000083E5E5CF8438A1F40E94551E82FD6F
:104050004DC087E40E94E3280E9457292FEF81EE8C
:1040600094E0215080409040E1F700C0000087E4D8
:10407000CFCF8CEF8C0F813A90F46C2F80913F0161
:10408000909140010E948F2A882329F08C2F0E9452
:10409000EA280E9457298C2F0E94E328BBCF80E298
:1040A0008C0F883048F4C77081E001C0880FCA9532
:1040B000EAF70E940B29AECFEBE5EC0FE33040F4BA
:1040C000F0E0EA51FE4F808190E0CF910C94AD1E5C
:1040D000C85AC73158F4EC2FF0E0EE0FFF1FE85438
:1040E000FE4F80819181CF910C94C31ECF91089592
:1040F000882309F44BC0823871F40E94551E81FF59
:1041000045C089E30E94E3280E94572989E30E9461
:10411000EA280C945729833859F40E94551E80FFD1
:1041200035C083E50E94E3280E94572983E5EFCF3D
:10413000843859F40E94551E82FF28C087E40E94EB
:10414000E3280E94572987E4E2CF9CEF980F913A29
:10415000F0F290E2980F983050F4877091E001C02F
:10416000990F8A95EAF7892F0E941129D2CF9BE5F2
:10417000980F933020F490E080E00C94AD1E885AA4
:10418000873120F490E080E00C94C31E0895CF9313
:10419000C82F0E94EE1FC93349F42FEF87EE93E03A
:1041A000215080409040E1F700C000008C2FCF915B
:1041B0000C947820882321F00E940B290C94572915
:1041C0000895882321F00E9411290C9457290895FD
:1041D000BF92CF92DF92EF92FF920F931F93CF93F4
:1041E000DF936C01D62FC72FFC01058102950F705C
:1041F000128111110E942B290E940129E82E882387
:1042000091F01123D1F08C2F807F803421F080E257
:104210008D0F883090F082E00E94A2290E9401292F
:1042200091E0E82EE926BC2EB2949FE0B922EB2D56
:10423000F0E0EC53FB4C0C948B33E12CF4CF0C2FBF
:104240000F70C07F11F00295007F1123A9F00023A9
:1042500059F080E28D0F883010F0D11109C0802F05
:104260000E940B290E9457298D2F0E94EE1F14C017
:10427000802F0E941E29F6CF8D2F0E9478200023C8
:1042800059F080E28D0F883010F0D1112CC0802FB2
:104290000E9411290E9457292B2D2850330B2430BE
:1042A000310520F40E94551E0E943B08EE2009F4BF
:1042B00093C10E94FD2880FD8FC1F60112820E94E9
:1042C000F7280E948027C6010E940D230E94F7282C
:1042D000DF91CF911F910F91FF90EF90DF90CF90E2
:1042E000BF900C94A127802F0E942429D3CFFC2FAC
:1042F000FF70FF2EC07FC03219F0F29480EFF822D9
:10430000DD2369F0D13049F1112391F1002351F1FE
:10431000F601858180FFA8CF8F70858323C011238C
:1043200081F0011106C00E943E298F290E94DA20E7
:10433000B3CF0130C1F70E943E298F290E94442942
:10434000ABCF011106C00E944D298F2D0E94E120A4
:10435000A3CF013009F4A0CFF6CF112329F0063006
:1043600008F09ACF8F2DE2CF053008F095CFEDCF32
:10437000002359F3D93349F4FFEF27EE33E0F1502E
:1043800020403040E1F700C000008D2F0E947820CF
:1043900083CF8C2F86958695837069F0813009F0E4
:1043A0007BCF8D2F9C2F9370111102C090E080E085
:1043B0000E94C31E71CF8D2F9C2F9370111102C0CC
:1043C00090E080E00E94AD1E67CF8C2F837009F0D3
:1043D00041C0111161CF4D2F429546954770440F52
:1043E000440F0D2F0F7010E030E020E0042E04C0C9
:1043F000000F111F221F331F0A94D2F760E070E0F4
:10440000CB01D4FF0FC06FE070E080E090E004C00B
:10441000660F771F881F991F4A95D2F76095709590
:1044200080959095C695C695C370602B712B822B95
:10443000932BC23049F058F4C13019F00E94322752
:104440002BCF0E94202728CF0E94442725CF0E94EF
:104450001E2722CF8695112311F08C2F817088237F
:1044600009F41ACF4D2F429546954770440F440FDB
:104470000D2F0F7010E030E020E0042E04C0000F7C
:10448000111F221F331F0A94D2F760E070E0CB01A6
:10449000D4FF0FC06FE070E080E090E004C0660FD2
:1044A000771F881F991F4A95D2F760957095809560
:1044B0009095C695C695C370602B712B822B932B5C
:1044C000C23049F058F4C13019F00E94F727E4CE09
:1044D0000E94E527E1CE0E940928DECE0E945A27DD
:1044E000DBCECF70112329F08C2F0E9480278D2FD7
:1044F0001DCF8D2F0E94E1208C2F0E94A127CCCEB2
:10450000D23F89F160F4D03FC9F0D13F29F11123A6
:1045100009F442C00111A8CE8C2F8F7121C0D33F66
:1045200039F1D43FA1F7112369F1CF718C2F0E948B
:10453000802763E08C2F0E948D29AECE112341F09D
:10454000053008F0A9CE8C2F8F710E94C427A4CE0D
:10455000063008F0A1CEF7CF8C2F8F71112369F2AE
:104560000E94802799CE8C2F8F711123C9F3C5CF5C
:10457000112329F08C2F8F710E946B278DCE0E9402
:1045800066278ACE81E00E94A229023008F484CEF8
:1045900082E00E94A22980CE002359F0D93309F08D
:1045A000F4CE8FEF97EEE3E081509040E040E1F7EA
:1045B000EACE8C2F8F71A1CF4C2F4F706D2FC6017B
:1045C0000E94BB080E94962667CE4C2F4F706D2F1D
:1045D000C6010E94BE0860CEDF91CF911F910F915E
:1045E000FF90EF90DF90CF90BF9008950F931F93AF
:1045F000CF93DF93EC01688179818A810E94BF2883
:104600008C010E941B280E941D27B801CE01DF915A
:10461000CF911F910F910C94E820CF93DF93EC0181
:104620008B819C81892B29F08881998189238F3FF7
:1046300059F4DF91CF910895CE010E94F622CE0168
:10464000DF91CF910C946207CE010E945308811133
:10465000F3CF0E940129882361F38A81882349F3DB
:1046600082E0DF91CF910C94A2290E942B290E9415
:104670003B290E94572990E080E00E94AD1E90E007
:1046800080E00C94C31E0E94F1280C9435230E94F4
:1046900018290C944323E92FE295EF70E250EE3095
:1046A00070F4F0E0EC52FB4C0C948B33803F19F02B
:1046B00020F4883E20F481E00895843FE1F380E017
:1046C0000895883EC0F3813FD1F7F5CF93FB88274B
:1046D00080F908950E94B5280C944B23CF93DF9363
:1046E00000D000D00F92CDB7DEB70F900F900F9093
:1046F0000F900F90DF91CF910895CF93DF9300D06B
:1047000000D000D0CDB7DEB726960FB6F894DEBF46
:104710000FBECDBFDF91CF9108951F93CF93DF934D
:10472000C091770216E0809178028C1304C0DF916B
:10473000CF911F910895D0E01C9FF0011D9FF00DB7
:104740001124E758FD4F408151816281738184813A
:1047500095810E947D232196C770E5CF4091A902E3
:104760005091AA026091AB027091AC028091AD02AF
:104770009091AE020C947D23209177029091780263
:1047800056E0291302C080E0089530E0529FF00106
:10479000539FF00D1124E758FD4F7181761306C029
:1047A0007081781303C07281741304C02F5F3F4F70
:1047B0002770E7CF81E008951F93CF93DF93809117
:1047C000AE02807FA9F48091AB02882389F08091AA
:1047D0007702C09178026091A9027091AA02A0911B
:1047E000AC02B091AD02D62FD72316E0C81304C097
:1047F000DF91CF911F91089590E0109711F0DF3F66
:1048000019F401968770F2CF189F9001199F300D0F
:104810001124F901E758FD4F41814713F2CF408140
:104820004613EFCF42814111ECCF438154814A1BA3
:104830005B0B4436510528F78091AE028F70806182
:104840008093AE02F901E258FD4F80818F70806144
:10485000808389EA92E00E940D23DF91CF911F911E
:104860000C948D238F929F92AF92BF92CF92DF9242
:10487000EF92FF920F931F93CF93DF93CDB7DEB7E5
:1048800061970FB6F894DEBF0FBECDBF8C0185E0F7
:10489000F801DE011D9601900D928A95E1F7D8018D
:1048A000EC901196FC9011971296CC90129789EA91
:1048B000A82E82E0B82E4091AC025091AD02411575
:1048C000510509F474C19091A9022091AA02892F7F
:1048D00082238F3F09F46BC113968D909C9014979F
:1048E000D090AB02F401E41BF50BDD2009F40AC102
:1048F0008091AE02382F307FE436F10508F0C1C058
:10490000311189C0DC2C2F1126C09E1124C0C1108A
:1049100022C08F7080618093AE020E94AE23C501D9
:104920000E940D238091AE02D80115968C938D2D97
:1049300061960FB6F894DEBF0FBECDBFDF91CF9169
:104940001F910F91FF90EF90DF90CF90BF90AF90AD
:104950009F908F9008958114910429F08F2D8E21BE
:104960008F3F09F043C180E080FF15C04C2D6F2DB3
:104970008E2D0E94BC23882371F089EA92E00E9468
:104980000D2386E0E9EAF2E0DF011D928A95E9F75E
:104990000E94AE233EC0892829F08F2D8E218F3FA3
:1049A00009F021C180E0B82FB170AB2E80FF29C083
:1049B0004C2D6F2D8E2D0E94BC23B82E811121C04D
:1049C000ED86FE868D859E850E94B528292F22952D
:1049D0002F70223050F0243078F49F7051F0F8019D
:1049E0009581907F31F4DB2CA2CF9F7011F088234A
:1049F000D1F3805E8830B8F3C8010E940D23BA2C31
:104A0000F2CFCC2009F493CF8091AE0281608093E5
:104A1000AE02D12C8CCF2F1105C09E1103C0CC202B
:104A200009F48DC0ED86FE868D859E850E946A23E1
:104A3000882319F1CC2009F18091AE02803270F008
:104A40002091A9023091AA0238872F8319869B866C
:104A50008A868C87CE0107960E940D2386E0F80196
:104A6000A9EAB2E001900D928A95E1F70E94DC2359
:104A70000E94AE23DD24D3945ACFC8010E940D2397
:104A8000F9CF311112C0782D998A888AA7016C2D2F
:104A900089890E946E2389EA92E00E940D2386E0B4
:104AA000F50111928A95E9F773CF2F110FC09E116E
:104AB0000DC0C1100BC015968C93C8010E940D2328
:104AC00086E0F50111928A95E9F731CFED86FE86F1
:104AD0008D859E850E946A23882379F2CC2069F215
:104AE0008091AE02803208F4B9CF2091A9023091B2
:104AF000AA023A8329831B829D828C828E83CE01F7
:104B00000196AACFE436F10508F043C0DC2CCC2096
:104B100009F4B3CF2F112CC09E112AC08091AE0290
:104B200080FD1DC0982F907FD1F015968C9315971E
:104B3000903F39F0982F907F905F8F70892B15965A
:104B40008C93C8010E940D2386E0F801A9EAB2E027
:104B500001900D928A95E1F70E94AE23E8CE86E09F
:104B6000F801A9EAB2E001900D928A95E1F7DFCE53
:104B7000ED86FE868D859E850E946A2381116ECF0B
:104B80008091AE0281608093AE02C8010E940D2325
:104B9000CECE782D998A888AA7016C2D89890E94AA
:104BA0006E2386E0F50111928A95E9F7D5CFCC20E6
:104BB00009F463CFED86FE868D859E850E946A236B
:104BC000D82E882309F459CF86E0F801A9EAB2E08B
:104BD00001900D928A95E1F789EA92E00E94E91F1F
:104BE0000E94DC23B9CF81E08C25DDCE81E08C25CD
:104BF000BBCE84E690E008951F93CF93DF93CDB7AB
:104C0000DEB72C970FB6F894DEBF0FBECDBF4F8333
:104C1000588769877A878B879C87CE0107960E9481
:104C20003224882369F08A859B85892B39F04F814E
:104C30005885842F85238F3F09F071C016E05FC02F
:104C400086E0FE013796DE01119601900D928A955D
:104C5000E1F78A859B85892B89F388859F81892344
:104C60008F3F61F32091780230E0C901019687708F
:104C70009927409177024817190671F40E9447233B
:104C8000109278021092770286E0E9EAF2E0DF0102
:104C90001D928A95E9F7D2CF96E0929FD001939F1B
:104CA000B00D1124A758BD4FFE01319601900D9211
:104CB0009A95E1F7809378020E948D23BFCF819F60
:104CC000C001112487589D4F0E9432248823E9F0A7
:104CD000E09177021E9FF0011124E758FD4F4081BB
:104CE000518162817381848195810E947D238091AD
:104CF000770290E0019687709927809377028091E0
:104D00007702909178028913DACF2C960FB6F89437
:104D1000DEBF0FBECDBFDF91CF911F910895698592
:104D20007A858B859C850E947D2388CFEF92FF92A8
:104D30000F931F93CF93DF938C01892B81F0F12C7C
:104D4000EE24E394E8012196F8018491843770F40D
:104D5000843008F05FC08130B1F08230A1F1DF9182
:104D6000CF911F910F91FF90EF900895853709F42F
:104D70004CC008F43DC09CE7980F903780F78F77C0
:104D80000E94782049C00E5F1F4FFE01849190E27F
:104D9000980F983060F48770FE2D01C0FF0F8A9540
:104DA000EAF78F2F0E942E290E94572902C00E94E5
:104DB000EE1F8F2D815030F2EFE9FFE03197F1F7D0
:104DC00000C00000F7CF0E5F1F4FFE01849190E2FC
:104DD000980F983050F48770FE2D01C0FF0F8A9510
:104DE000EAF78F2F0E943429DFCF0E947820E1CF8D
:104DF0000E5F1F4FFE01C491C150D8F28FE99FE0B2
:104E00000197F1F700C00000F7CF0E5F1F4FFE01C2
:104E1000F490CFCF0E94EE1F8E01CBCF08950C945B
:104E20000E270E940F276093DB027093DC028093B1
:104E3000DD029093DE020C94352308950C94112723
:104E40000F931F930091DB021091DC022091DD0291
:104E50003091DE02602B712B822B932B1F910F91CF
:104E60000C9411270F931F930091DB021091DC0229
:104E70002091DD023091DE0260237123822393238F
:104E80001F910F910C9411270F931F930091DB0238
:104E90001091DC022091DD023091DE026027712743
:104EA000822793271F910F910C9411270C940E27A2
:104EB0000C9456270E9458276093D7027093D8020B
:104EC0008093D9029093DA020C94352360E070E06D
:104ED000CB010C945A270F931F9341E050E060E000
:104EE00070E08A019B0104C0000F111F221F331FB5
:104EF0008A95D2F7C901B8011F910F910C945A27D6
:104F00000F931F9341E050E060E070E004C0440F55
:104F1000551F661F771F8A95D2F78091D70290910F
:104F2000D802A091D902B091DA028A019B01082B24
:104F3000192B2A2B3B2BC901B8011F910F910C94FF
:104F40005A270F931F9341E050E060E070E004C0E7
:104F5000440F551F661F771F8A95D2F7CB01BA0100
:104F600060957095809590950091D7021091D80228
:104F70002091D9023091DA02602371238223932396
:104F80001F910F910C945A270F931F9341E050E00B
:104F900060E070E004C0440F551F661F771F8A95BC
:104FA000D2F78091D7029091D802A091D902B09106
:104FB000DA028A019B01082719272A273B27C90102
:104FC000B8011F910F910C945A270F931F930091D2
:104FD000D7021091D8022091D9023091DA02602BC9
:104FE000712B822B932B1F910F910C945A270F93A7
:104FF0001F930091D7021091D8022091D9023091CD
:10500000DA0260237123822393231F910F910C9462
:105010005A270F931F930091D7021091D802209125
:10502000D9023091DA0260277127822793271F91D6
:105030000F910C945A270895E92FEE0FE90FEE0F08
:105040008E0F982F977041E001C0440F9A95EAF7B0
:1050500086958695869595E0899FF0011124E15506
:10506000FD4F30E020E070E05191DF011197CB015E
:10507000022E02C0969587950A94E2F78170819579
:105080008527842385278C932F5F3F4F253031055B
:1050900059F70895E92FEE0FE90FEE0F8E0F982FB5
:1050A000977086958695869525E0829FF00111245C
:1050B000E155FD4F50E040E080E0219130E0092EC5
:1050C00002C0369527950A94E2F721703327042E03
:1050D00001C0220F0A94EAF7822B4F5F5F4F4530E1
:1050E000510559F70895BF92CF92DF92EF92FF9248
:1050F0000F931F93CF93DF938C01C090D702D09072
:10510000D802E090D902F090DA028091DB0290910F
:10511000DC02A091DD02B091DE02C82AD92AEA2A77
:10512000FB2ACFE1D0E0BC2ED701C6010C2E04C073
:10513000B695A795979587950A94D2F780FD0EC0EE
:10514000219788F7B12C8B2DDF91CF911F910F9173
:10515000FF90EF90DF90CF90BF900895B8018C2F13
:105160000E94DB08019761F3EECFCF93DF93EC0150
:105170000E947328BE01DF91CF910C94DB081F932E
:10518000CF93DF93EB0190917602992331F0CB011D
:10519000DF91CF911F910C94B528882379F0CB0132
:1051A0000E947328182F682FCE010E941C28BE0170
:1051B000812FDF91CF911F910C94DB08CB010E94CE
:1051C0004A28182FF4CF682F80913F019091400119
:1051D0000C94C52A682F80913F01909140010C9456
:1051E000C72A80913F01909140010C94C92A809177
:1051F000DF0285958595859508958091DF028770FA
:1052000008959091DF02977081E009F480E008959D
:105210008091EB0208959091EB02892B8093EB0231
:10522000089580959091EB0298239093EB02089556
:105230001092EB0208958091EA0208959091EA029B
:10524000892B8093EA02089580959091EA02982331
:105250009093EA0208951092EA0208959091E9026B
:10526000892B8093E902089580959091E902982313
:105270009093E90208951092E90208958091E00266
:10528000089508950C9441299091E002981721F017
:105290008093E0020C94422908958091E0028823D3
:1052A00029F01092E00280E00C9442290895E091E8
:1052B0003F01F09140018091EB028083E0913F013A
:1052C000F091400180819091EA02892B8083E091E6
:1052D0003F01F091400180819091E902892B808308
:1052E0009091E002992381F0E0913F01F09140011B
:1052F0008081892B808380913F01909140010E94A1
:105300007D2A81110E944D2980913F019091400199
:105310000C94611E08950C948A2998E0899F90014D
:105320001124622B6093DF020E9480278091DF02AC
:105330008595859585950C948B291092DF0280E0E8
:105340000C948B299091DF02809589238093DF0252
:10535000282F277071F4282F082E000C330B92177A
:10536000130639F08595859585950E94A1270C94A3
:105370009D2908959093F9018093F80108958295ED
:1053800090E09C01220F331F220F331F2C7C959538
:105390008795959587958373282B30E0C901880FF1
:1053A000991F8A7A359527952575822B089590E067
:1053B00080E00E94553421E08C3E9E4F09F020E0B1
:1053C000822F089582E090E00C94473483E090E0CF
:1053D0000C944734CF9384E090E00E944734C82F68
:1053E00081E290E00E944734982F8C2FCF9108954E
:1053F000CF93C92F682F84E090E00E945B346C2F1C
:1054000081E290E0CF910C945B3486E090E00C94C4
:105410004734682F86E090E00C945B34AB01BC010C
:105420008FE090E00C946D34AB01BC0183E190E01F
:105430000C946D3460E070E0CB010C94142A6CEE97
:105440007EEF90E080E00E94793460E082E090E0BE
:105450000E945B3460E083E090E00E945B34109235
:10546000DB021092DC021092DD021092DE0260E09C
:1054700084E090E00E945B3460E081E290E00E9472
:105480005B3460E085E090E00E945B3460E086E0A1
:1054900090E00E945B346FEF87E090E00E945B3405
:1054A00040E050E0BA0188E090E00E946D3460E096
:1054B0008DE090E00E945B3440E050E0BA0188E16A
:1054C00090E00E946D3460E087E190E00E945B34E0
:1054D00040E050E0BA018CE190E00E946D3460E061
:1054E00080E290E00E945B340C94B2060C941F2A78
:1054F000682F8EE090E00C945B349C012E5F3F4F50
:10550000AC01485F5F4F80E02417350709F4089528
:10551000F90191919F019923B9F38F5FF5CF66232C
:1055200049F0FC01329608962191261729F0E817D8
:10553000F907D1F780E0089581E008959C01FC010E
:1055400032969FEF80E04191461751F09F3F19F44A
:10555000411101C0982F8F5F8630A9F79F3F09F452
:105560000895290F311D97FD3A95F9016283089539
:10557000FC01329608962191261303C0DF01119792
:105580001C92E817F907B9F708950C949E2A0C9419
:10559000B82A029626E0FC0111922A95E9F70895AF
:1055A000089508950C94D12A0E94D22A809145032F
:1055B000843061F11092ED0288E190E020E40FB6B2
:1055C000F894A895809360000FBE2093600080E05F
:1055D0000E94731880E00E943B080E94D22A83B781
:1055E000817F846083BF83B7816083BF789488950F
:1055F00083B78E7F83BF0FB6F894A8958091600023
:10560000886180936000109260000FBE0895089535
:10561000CF930E94D02A0E949B0B0E94072BC0E0D0
:105620008C2F0E94C70A811105C0CF5FCA30C1F715
:10563000CF91089581E0FCCF08950C941C2B0E941B
:1056400047230E9409170E94551E0E943B080C9494
:105650001D2B1F921FB61F9211248F939F93AF9300
:10566000BF938091ED02811113C080913B03909113
:105670003C03A0913D03B0913E034196A11DB11D95
:1056800080933B0390933C03A0933D03B0933E0370
:10569000BF91AF919F918F911F901FBE1F90189542
:1056A00082E084BD93E095BD9AEF97BD80936E0034
:1056B00008952FB7F89480913B0390913C03A091FB
:1056C0003D03B0913E032FBF08959C014FB7F8945E
:1056D00080913B0390913C03A0913D03B0913E0328
:1056E0004FBF821B930B089578941F921FB61F9291
:1056F00011248F939F93AF93BF9380913B0390911D
:105700003C03A0913D03B0913E030196A11DB11D44
:1057100080933B0390933C03A0933D03B0933E03DF
:10572000BF91AF919F918F911F901FBE1F901895B1
:1057300087E797E7909301088093000888E19AE053
:105740000FB6F894A895809360000FBE9093600008
:10575000FFCF0E94D729811102C00E94762A0E94A1
:10576000E2298093EC020E94EA29909340038093FF
:105770003F030E94E629682F70E090E080E00E94DD
:105780001E276091D7027091D8028091D902909122
:10579000DA020C9458278091F902089508959FB772
:1057A000F8941092F0029FBF90914503943009F055
:1057B00048C02091E9002F703091EC00932F917038
:1057C00030FD90E8922B23E02093E9002091EB003C
:1057D00020FF34C02091EE0027FF30C02091EE0260
:1057E000222321F02091E80025FF28C01092EE022C
:1057F00026E03091E80035FF14C08093F1008091DD
:10580000E80085FD27C08091E80080FFFCCF8091F3
:10581000E8008E778093E8009F709093E90080E025
:10582000089530914503343049F43091EB0035FD53
:1058300005C0215041F481E08093EE029F70909367
:10584000E9008FEF0895EFE9FFE03197F1F700C02D
:105850000000CFCF8FB7F89421E02093F0028FBFE4
:10586000DBCFCF93DF9300D00F92CDB7DEB790910F
:105870004503943019F589837B836A8382E08093A2
:10588000E9008FEF9091E800815095FD06C095EDFD
:105890009A95F1F700008111F5CF8091E80085FF1E
:1058A0000DC050E040E063E070E0CE0101960E9440
:1058B000872E8091E8008E778093E8000F900F90FC
:1058C0000F90DF91CF910895BC0184E00C94312CAE
:1058D000BC0183E00C94312CCF93DF93EC0181E089
:1058E0008093E9008FEF9091E800815095FD06C00C
:1058F00095ED9A95F1F700008111F5CF8091E800C0
:1059000085FF14C050E040E068E070E0CE010E94E6
:10591000872E8091E8008E778093E80088E0FE0172
:10592000A1EFB2E001900D928A95E1F7DF91CF915E
:1059300008958EE29AE00E9410068091440381113E
:1059400009C00E9417300E9474308091E200846088
:105950008093E20008958AE29AE00E941006109275
:105960004403089586E29AE00C94100682E29AE0DD
:105970000C9410068EE19AE00E9410060C941F2BE6
:105980002091EF022F5F822F62E30E942733992339
:1059900019F02093EF0208951092EF028091F00227
:1059A0008823F1F0809145038430C1F49091E9009F
:1059B0009F702091EC00822F817020FD80E8892B60
:1059C00093E09093E9009091EB0090FF04C09091D8
:1059D000EE0097FD08C08F708093E9001092F002EE
:1059E00008951092F1009091E80095FDFACF909102
:1059F000E80090FFF0CF9091E8009E779093E80048
:105A0000EACF42E061EC81E00E94932F42E261EC38
:105A100082E00E94932F42E261EC83E00C94932F8A
:105A200080914703833009F45FC030F48130C1F1C5
:105A3000823009F49BC008958A3009F487C08B3006
:105A400009F46DC0893009F04EC08091460381325F
:105A500009F049C080914A0390914B03029708F0E6
:105A600042C08091E800877F8093E8008091E80041
:105A700082FF35C09091F3008091F200029729F4E3
:105A80008091F1008B7F813021F48091F10080932F
:105A9000F9028091E8008B778093E8000C94C72F7F
:105AA00080914603813AF9F48091E800877F8093E2
:105AB000E80080914A0390914B03892B61F468E0E0
:105AC00081EF92E070E00E94D62E8091E8008B7703
:105AD0008093E800089560E090E080E0F3CF80914B
