:100000000C94BB050C946D1C0C9402060C94020617
:100010000C9402060C9402060C9402060C94020640
:100020000C9402060C9402060C94D02F0C94A4306D
:100030000C94542A0C9402060C9402060C940206AA
:100040000C9402060C9402060C9402060C94020610
:100050000C9402060C949F2A0C9402060C9402063F
:100060000C9402060C9402060C9402060C940206F0
:100070000C9402060C9402060C9402060C940206E0
:100080000C9402060C9402060C9402060C940206D0
:100090000C9402060C9402060C9402060C940206C0
:1000A0000C9402060C9402060C940206010137001F
:1000B00001013300010136000103E10101330102B6
:1000C000E10049001E001F002000210022002B003B
:1000D00014001A0008001500170029620400160019
:1000E000070009000A0004541C001B000600190048
:1000F000050000000000E60008552C6144004C009B
:10010000270026002500240023002A0013001200E7
:100110000C0018001D00286238000F000E000D00B2
:100120000B00E6002D002A5D295D10001100000083
:1001300000000252E2000354450035001E001F007B
:100140002000210022002B0014001A0008001500D6
:100150001700E10004001600070009000A00E00093
:100160001D001B00060019000500000000003A00F9
:10017000E2002C0029002A00270026002500240088
:1001800023004C00130012000C0018001C00340067
:1001900033000F000E000D000B00E50038003700A3
:1001A0003600100011000000000000520052E00074
:1001B000280049001E001F002000210022002B0003
:1001C00033003600370013001C00296204001200BF
:1001D000080018000C000454340014000D000E0038
:1001E0001B0000000000E60008552C6144004C0094
:1001F000270026002500240023002A000F001500F8
:1002000006000A00090028621600110017000B0002
:100210000700E6001D0019001A001000050000008C
:1002200000000152E2000354450001001E001F00BF
:100230002000210022000100250234022602510084
:10024000350001004A0036022F022F00240201006F
:1002500035022E02270021023100000000000100BB
:1002600001000100010001002700260025002400F4
:100270002300010027003400270252003102010050
:100280004D003702300230002E00010022021F0212
:1002900020021E02230200000000010001000100F4
:1002A000010001003A003B003C003D003E0001001F
:1002B00046000100BD00BE000100010044004500F1
:1002C0004A004D00010001006A006B006C006D00E7
:1002D0006E000000000001000100010001000100AB
:1002E00043004200410040003F0001000100A8001F
:1002F000A900AA0001000100690068004B004E003F
:100300000100010073007200710070006F000000B6
:100310000000010001000100010044454255473A38
:100320002064697361626C65642E0A00444542551D
:10033000473A20656E61626C65642E0A0000000019
:1003400000000000002A2B28000000000000000030
:10035000000000000000000029000000002C1E34F6
:1003600020212224342627252E362D3738271E1FFC
:10037000202122232425263333362E37381F040527
:10038000060708090A0B0C0D0E0F10111213141595
:10039000161718191A1B1C1D2F3130232D35040573
:1003A000060708090A0B0C0D0E0F10111213141575
:1003B000161718191A1B1C1D2F3130354C00000060
:1003C000000000000000000000000000000000002D
:1003D000007E0F00D4FFFFFFC7000000780A002551
:1003E000303862003A200025303258000A722F63FC
:1003F0002030313233343536370A007267626C6927
:1004000067687420616E696D6174696F6E207469CC
:10041000636B207265706F727420746F20736C61EF
:1004200076650A007267626C696768742074696D2A
:1004300065722064697361626C652E0A007267627E
:100440006C696768742074696D657220656E61629D
:100450006C65642E0A007267626C69676874207349
:10046000657420687376205B4E4F454550524F4D62
:100470005D3A2025752C25752C25750A007267625A
:100480006C696768742073657420687376205B45B7
:100490004550524F4D5D3A2025752C25752C2575FC
:1004A0000A007267626C69676874207261696E62C3
:1004B0006F7720736574206873763A2025642C2545
:1004C000642C25642C25750A007267626C69676864
:1004D000742064697361626C65205B4E4F454550C2
:1004E000524F4D5D3A207267626C696768745F6352
:1004F0006F6E6669672E656E61626C65203D2025B2
:10050000750A007267626C69676874206469736158
:10051000626C65205B454550524F4D5D3A207267D5
:10052000626C696768745F636F6E6669672E656E7B
:1005300061626C65203D2025750A007267626C69F6
:1005400067687420656E61626C65205B454550523A
:100550004F4D5D3A207267626C696768745F636FC4
:100560006E6669672E656E61626C65203D2025753B
:100570000A007267626C6967687420746F67676CE1
:1005800065205B454550524F4D5D3A207267626C65
:10059000696768745F636F6E6669672E656E616216
:1005A0006C65203D2025750A007267626C6967687A
:1005B00074206D6F6465205B4E4F454550524F4D22
:1005C0005D3A2025750A007267626C69676874205D
:1005D0006D6F6465205B454550524F4D5D3A202557
:1005E000750A007267626C696768745F696E697426
:1005F000207267626C696768745F636F6E666967B3
:100600002E6D6F6465203D20302E20577269746511
:100610002064656661756C742076616C7565732005
:10062000746F20454550524F4D2E0A007267626C20
:10063000696768745F696E6974206565636F6E666B
:100640006967206973206E6F7420656E61626C65E6
:10065000642E0A007267626C696768745F696E690C
:1006600074207374617274210A007267626C696726
:1006700068745F696E69742063616C6C65642E0ACE
:10068000007267626C696768745F636F6E66696742
:100690002E7370656564203D2025640A00726762D0
:1006A0006C696768745F636F6E6669672E76616CEC
:1006B000203D2025640A007267626C696768745F78
:1006C000636F6E6669672E736174203D2025640A2E
:1006D000007267626C696768745F636F6E666967F2
:1006E0002E687565203D2025640A007267686C6974
:1006F0006768745F636F6E6669672E6D6F646520EF
:100700003D2025640A007267626C696768745F63E4
:100710006F6E6669672E656E61626C65203D20258F
:10072000640A007267626C696768745F636F6E6603
:10073000696720454550524F4D3A0A0032190A0068
:10074000047F3F1F643214643214783C1E1E140A66
:10075000052223252628292A2C2D2F303233353601
:10076000383A3B3D3E4042434547494A4C4E505142
:10077000535557595A5C5E6062646668696B6D6F69
:1007800071737577797B7D7F81838587898A8C8E6C
:1007900090929496989A9C9E9FA1A3A5A7A8AAAC74
:1007A000AEAFB1B3B4B6B8B9BBBCBEBFC1C2C3C5AE
:1007B000C6C7C9CACBCCCDCED0D1D2D2D3D4D5D650
:1007C000D7D7D8D9D9DADADBDBDBDCDCDCDCDCDD83
:1007D000DDDDDDDCDCDCDCDCDBDBDBDADAD9D9D867
:1007E000D7D7D6D5D4D3D2D2D1D0CECDCCCBCAC9FF
:1007F000C7C6C5C3C2C1BFBEBCBBB9B8B6B4B3B12E
:10080000AFAEACAAA8A7A5A3A19F9E9C9A989694C8
:1008100092908E8C8A89878583817F7D7B7977759D
:1008200073716F6D6B6968666462605E5C5A59577C
:10083000555351504E4C4A4947454342403E3D3B3B
:100840003A3836353332302F2D2C2A2928262523C5
:1008500022FFAA7F55406261636B6C6967687420F0
:10086000737465703A2025750A006261636B6C6968
:100870006768742064697361626C650A0062616311
:100880006B6C6967687420656E61626C650A0062F2
:1008900061636B6C6967687420746F67676C653A35
:1008A0002025750A006261636B6C69676874206457
:1008B000656372656173653A2025750A006261633C
:1008C0006B6C6967687420696E6372656173653A01
:1008D0002025750A00000101010101010101010249
:1008E00002020202020202020303030303030303E0
:1008F00004040404040404050505050506060606AB
:1009000006070707070708080808090909090A0A66
:100910000A0B0B0B0C0C0C0D0D0D0E0E0E0F0F0F0A
:100920001010111111121213131414151516161795
:1009300017181819191A1A1B1B1C1D1D1E1E1F2003
:1009400020212222232424252626272829292A2B50
:100950002C2D2D2E2F303132323334353637383975
:100960003A3B3C3D3E3F404142434445464748496F
:100970004A4C4D4E4F50515354555658595A5B5D41
:100980005E5F616264656668696B6C6D6F707273DF
:100990007577787A7B7D7E8082838587888A8C8E46
:1009A0008F91939596989A9C9EA0A2A3A5A7A9AB78
:1009B000ADAFB1B3B5B7BABCBEC0C2C4C6C9CBCD6A
:1009C000CFD1D4D6D8DBDDDFE2E4E7E9EBEEF0F31C
:1009D000F5F8FAFDFF0A002530325820006B6579E2
:1009E000626F6172645F7265706F72743A20000AA0
:1009F0000025303258006B6579626F6172645F73F5
:100A000065745F6C65643A20005B735D004B6579CB
:100A1000626F6172642073746172742E0A005B5796
:100A20005D005B535D005B525D005B445D005B43BA
:100A30005D0004033000000026034B0065006500E4
:100A4000620069006F0020004900720069007300B5
:100A500020005200650076002E00200033000000C8
:100A60000E034B0065006500620069006F00000026
:100A70000403090409025B00030100A0FA09040051
:100A800000010301010009211101000122400007BA
:100A900005810308000A09040100010300000009A0
:100AA00021110100012232000705820320000A09FA
:100AB00004020002030000000921110100012222AA
:100AC000000705830320000107050303200001122E
:100AD0000110010000000810CB56120003010203B0
:100AE000010631FF0974A1010975150026FF009563
:100AF00020750881020976150026FF0095207508EB
:100B00009102C005010980A101850319012AB700DE
:100B1000150126B700950175108100C0050C09016B
:100B2000A101850419012AA002150126A002950140
:100B300075108100C005010906A101050719E0290A
:100B4000E715002501950875018102950175088159
:100B5000010507190029FF150026FF0095067508F5
:100B60008100050819012905950575019102950176
:100B700075039101C00011241FBECFEFDAE0DEBF84
:100B8000CDBF04B603FE27C080914C0390914D0366
:100B9000A0914E03B0914F038730904BA740B04BCC
:100BA000D1F410924C0310924D0310924E03109208
:100BB0004F0314BE84B7877F84BF0FB6F894A895FF
:100BC00080916000886180936000109260000FBE89
:100BD000E0E0F8E3099511E0A0E0B1E0E4E5F8E633
:100BE00002C005900D92A23FB107D9F723E0A2EF12
:100BF000B1E001C01D92AC34B207E1F70E94052DAF
:100C00000C94EC330C940000FF93EF93E091F2010D
:100C1000F091F301309709F00995EF91FF91089554
:100C2000FC018591803011F0EFDFFBCF0895FF27A5
:100C3000E0E230E247FF0CC0419597FF09C0EDE2CA
:100C40006095709580959095611D711D811D911D18
:100C500027FF02C0219530E350E2AA27660F771FD5
:100C6000881F991FAA1FA41710F0A41B63955A95FB
:100C7000A9F7AA3008F0A95FA05DAF93F3956115BD
:100C800071058105910541F7ED3211F4EF93F3956C
:100C9000F21718F43F93F395FBCF8F91B5DFFA95D8
:100CA000E1F70895E991F9918591803021F085323D
:100CB00019F0AADFF9CF089520E0E8945591553254
:100CC000C1F3503311F4689455915A3348F450539A
:100CD00090F3220F022E220F220F200D250FF4CFAA
:100CE0000EF4219589919991533619F3533729F1CF
:100CF000533559F1BC0188279927E8945C3621F4D3
:100D00008991999168945591543639F446EF7EF063
:100D100077FF0DC08FEF9FEF0AC055374AE039F0DB
:100D2000583540E121F0523642E009F00895FF9332
:100D3000EF937DDFEF91FF91B7CFFF93EF93FC012E
:100D400081918030B9F360DFFBCFFF93EF9368DFD1
:100D5000F1CFDF93CF93CDB7DEB72596A3DFCF9149
:100D6000DF9108950E945A1783E00E940A180E949A
:100D700034144FEF6FEF80E00E946E108BE00E9402
:100D8000311460E070E0CB010E9439290C944529B0
:100D900089322DE5920729F08A329D45A9F081E03C
:100DA0000895FB0182818823D1F3E0912801F0911D
:100DB0002901808181FF05C088EB90E00E94F9073E
:100DC000EECF84EB90E0FACFFB018281882339F3E8
:100DD000E0912801F0912901808181FF03C080EB1F
:100DE00090E0ECCF8CEA90E0E9CF81E008950C949C
:100DF000C80608950C94F9061F93CF93DF9300D093
:100E000000D00F92CDB7DEB749835A836B83309100
:100E1000740289819A8131111DC06623B9F02223A1
:100E2000A9F00E94A127182F682F89819A810E941A
:100E30004A2769817A81812F0F900F900F900F9030
:100E40000F90DF91CF911F910C9489080E94782711
:100E5000182FEFCF0E94A12769817A81EDCFFC0185
:100E6000262F408151816281738184810C94FC061C
:100E7000CF93DF93EC0160E00E942F07BE01DF916A
:100E8000CF910C94FA06FF920F931F93CF93DF93A9
:100E9000E82FF0E0E35CFC4FF490C82FC695C695B0
:100EA000C695D0E0FE01E353FC4F0491877010E03B
:100EB000082E02C0159507950A94E2F701701127D4
:100EC000C354DC4FFE01C491D0E002C0D595C79554
:100ED0008A95E2F7C170DD270115110519F081EE41
:100EE0000E941C1F209719F086EE0E941C1F8F2D58
:100EF0000E94F51FCD2B19F086EE0E94A61F012B34
:100F000041F081EEDF91CF911F910F91FF900C94F2
:100F1000A61FDF91CF911F910F91FF900895EF923F
:100F2000FF920F931F93CF93DF938C01F62E8AE0ED
:100F3000E82EF8018491882309F454C0813009F027
:100F40004DC0E8012196FE018491813091F42196F3
:100F5000FE0184910E94F51F8E010F5F1F4F8F2DA0
:100F6000815038F3EFE9FFE03197F1F700C000005E
:100F7000F7CF823039F4E8012296FE0184910E9475
:100F80001C1FEACF833039F4E8012296FE018491D8
:100F90000E94A61FE1CF8430F9F6E8012296FE01F7
:100FA000249190E080E0FE0131962053330B2A30EB
:100FB000310548F0019780F2EFE9FFE03197F1F752
:100FC00000C00000F7CFE89EA001E99E500D11245B
:100FD000C901840F951F2491EF01E5CF0E944307BB
:100FE000E801BACFDF91CF911F910F91FF90EF9061
:100FF000089560E00C948F070E940229811102C0BD
:101000000E94A1290E94A4180C948C0A0C948F0AA7
:1010100008950C94080881E008950C940B08CF9370
:10102000C82F0E9409088C2FCF910C940D080895A9
:101030000E9475220E9417082FEF84E39CE0215044
:1010400080409040E1F700C000000C94C32A0F9349
:101050001F93CF93DF93EC0161E00E942F078C0177
:10106000BE010E94F706882371F1BE01C8010E94EB
:101070001018882341F1BE01C8010E941A1A882362
:1010800011F1BE01C8010E946C1A8823E1F0BE0173
:10109000C8010E948F1B8823B1F0BE01C8010E94C5
:1010A0006216882381F08A81882341F101308CE522
:1010B000180779F00E3D8CE51807E9F001151C457D
:1010C000E9F40E94180880E0DF91CF911F910F9101
:1010D00008959091EA02892F8E7F90FF816080931E
:1010E000EA0280FF05C08CE293E00E941006EBCF7D
:1010F0008AE193E0FACF0E94A129E5CFCE01DF91EA
:10110000CF911F910F910C94F50690E080E0089527
:101110000895972F70E026E0929F600D711D1124B5
:10112000FB019CE3899FE00DF11D1124EE0FFF1FD1
:10113000EE53FF4F859194910895FC01EE0FFF1F30
:10114000E352FC4F859194910895CF93DF930E94D1
:1011500089080E94B109EC01811520E5920708F089
:1011600041C0811530E4930708F0B4C0803E91057A
:1011700018F5803C910508F09DC0883A910570F4FF
:10118000853A910508F08EC081309105F9F00097FD
:10119000E9F00497D8F4D0E0C0E018C08F3B910587
:1011A000D0F7C85AD0E0CC0FDD1FCB5CDE4F0990E2
:1011B000D881C02DD4640AC08115904258F4C1155D
:1011C00081E0D80718F4C83ED10528F7CE01DF9199
:1011D000CF910895C11590E3D90708F071C0CE01F1
:1011E0009F706AC0811525E5920758F5811534E591
:1011F000930708F09EC0811542E5940750F4C1158D
:1012000081E5D80708F469C0DC2FCC27C16FD06A0C
:10121000DDCF982F969596959E0123703327C115A3
:10122000D34508F077C0C1E0D0E002C0CC0FDD1F8D
:101230002A95E2F720E2929FC0011124C82BD92BF6
:1012400067C0C11589E5D807A8F4C11598E5D90785
:1012500008F074C0C11526E5D20708F09CCF8C2F8A
:101260000E94480AC82FD0E0DC2FCC27CC27DF71A2
:10127000D062ACCFC1153AE5D30708F464C0CE0103
:1012800090568115904208F086CF8D2F8F710E9465
:10129000480A90E0982F882788279F719C012C2B63
:1012A000E901E6CFC55AD0E0CD59DE4FC881D0E084
:1012B000D0648CCF805C91090E949D08EC0186CFA0
:1012C000CE019927D3FF03C0EC01D86C7FCFEC018E
:1012D000D06C7CCFDF70D06A79CFCE01E4E09695F8
:1012E0008795EA95E1F783702C2F26952695237034
:1012F00090E2299F90011124382B8C2F8370C1E03C
:10130000D0E002C0CC0FDD1F8A95E2F7C22BD32BB1
:10131000DC685CCFC1E0D0E002C0CC0FDD1F2A95B5
:10132000E2F730E2939FC0011124C82BD92BDA6871
:101330004DCFD82FCC27C46FD06A48CFDC2FCC2715
:10134000C06FD06A43CF8C2F8F700E94480A34E060
:10135000D695C7953A95E1F7CF709C2FEC01D069EF
:1013600035CF82389105B1F1B0F48133910509F49C
:1013700075C048F48932910509F469C08A32910533
:1013800009F473C008958533910509F459C0893370
:10139000910501F10895833E9105A9F138F4803E4D
:1013A0009105F9F0823E910549F10895863E910537
:1013B000A9F1873E9105C9F1843E910519F5209167
:1013C0003E0321FF1FC080913D0384FD14C087EEC2
:1013D00090E0089520913D032370A1F080EE90E00D
:1013E000089520913D0320FD47C030913E0330FF1A
:1013F00009C024FF44C090E080E004C020913D0378
:1014000022FDF7CF089520913D0322FD3BC030918E
:101410003E0330FDE3CF24FFF5CFEDCF20913D0318
:1014200023FFF0CF24FDE7CFD2CF20913D0323FD52
:101430002CC030913E0331FFEECF84EE90E0089552
:1014400020913D0325FFDECF89E290E008952091B1
:101450003D0325FFD7CF85E390E0089520913D031C
:1014600026FFD0CF8AE290E0089520913D0326FF29
:10147000C9CF81E390E0089589E390E0089583EE79
:1014800090E0089582EE90E0089586EE90E0089551
:1014900090913D0392FF06C0282F28712830F9F45F
:1014A000877F846093FF06C0282F28712831F1F4CC
:1014B000877E846120913E0320FF06C0382F38715B
:1014C0003830D9F4877F816021FF06C0282F28712A
:1014D0002831D1F4877E816194FD877E0895282F7D
:1014E00024712430F9F68B7F8860DCCF282F24719B
:1014F000243101F78B7E8861DDCF382F3171313097
:1015000019F78E7F8860E0CF282F2171213121F7D4
:101510008E7E8861E1CF08950C948B0A08950C9417
:101520008E0AE82FF0E0ED5FFC4F80810895CF92A6
:10153000DF92EF92FF920F931F93CF93DF938CEE86
:1015400093E00E94100683E0E82E83E0F82ED0E0BE
:10155000C0E097EEC92E93E0D92E0FED13E0DF9394
:10156000CF93DF92CF920E94A90684EE93E00E946F
:101570001006F70181917F010E94EA281F928F9344
:101580001F930F930E94A9068DED93E00E94100611
:1015900021968DB79EB708960FB6F8949EBF0FBEE2
:1015A0008DBFCA30D105D9F6DF91CF911F910F9130
:1015B000FF90EF90DF90CF90089580EA8A95F1F741
:1015C000089508950E94400C8091040180910401C7
:1015D00095E0811190E090930E0385E0891B809344
:1015E0000D03ACE6B1E061E070E08D91E82FE2958B
:1015F000EF70F0E041A18F709B0101C0220F8A952E
:10160000EAF7922F9095942391A382A1822B82A333
:1016100081E0A137B80749F7A6E6B1E061E070E0E4
:101620008D91E82FE295EF70F0E041A18F709B0162
:1016300001C0220F8A95EAF7922F9095942391A3E7
:1016400082A1822B82A381E0AC36B80749F7E9EF8B
:10165000F2E0A3E0B3E083E093E011921D928E17D5
:101660009F07D9F785E00E94E80B0E94FC070C94C5
:10167000550C0E94240C8823F9F080910D0390E012
:101680008D5F9C4F0E94850C811113C08091F401E5
:101690008F5F8093F401863050F0E0910D03F0E00D
:1016A000ED5FFC4F108211821282138214820C941F
:1016B00006081092F401FBCF80910E0390E08D5F3D
:1016C0009C4F0E94B00C0C94E10A8F929F92AF92B3
:1016D000BF92CF92DF92EF92FF920F931F93CF931F
:1016E000DF938CE6A82E81E0B82E09EF12E0912C52
:1016F000CC24C394D12CF50181915F01C82FC295F0
:10170000CF70D0E099A18F70760101C0EE0C8A9560
:10171000EAF7892F8E2989A38AA18E2C80948821AB
:101720008AA30E94DD0AE6E6F1E050E040E020E016
:101730003191A32FA295AF70B0E090968C9190E07C
:101740003F7002C0959587953A95E2F780FD3CC0C1
:101750008C2D042E01C0880F0A94EAF7282B4F5FC6
:101760005F4F4630510521F789A1882289A28AA1BD
:10177000E82AEAA2F8018081281741F1208381E05C
:10178000982A0F5F1F4FF1E7AF16F1E0BF0609F08F
:10179000B2CF60910E0370E06D5F7C4F292D45E064
:1017A00089EF92E00E94E90B0E94390B892DDF91AD
:1017B000CF911F910F91FF90EF90DF90CF90BF904E
:1017C000AF909F908F90089580E0C8CF80E0D8CFF1
:1017D0000895FF920F931F93CF93DF93F82E092F55
:1017E000162FD72FC42F222349F081E08093F701D1
:1017F0000E94842A9093F6018093F5018091F7016D
:101800008823A1F08091F5019091F6010E94902A21
:10181000069760F0EF2DF02FA12FBD2FCE0FDF2FF9
:10182000D11DEC17FD0741F41092F701DF91CF9124
:101830001F910F91FF90089581918D93F2CF809821
:1018400088988FB1817008958091F801811111C03D
:101850008091D80080618093D8008AE18A95F1F761
:1018600000C09091D900892F817090FF82E0809311
:10187000F80181E09091F801913009F080E008953D
:101880000E941F0C809304018091040166E088236C
:1018900049F080E00E94660D0E94240C882321F00C
:1018A0000C945C0C86E0F6CF08950E94240C811104
:1018B00002C00C94620C089562E070E085E091E053
:1018C0000C941A1C62E070E085E091E00C94231CFB
:1018D0000E945D13882361F082E092E00E9463130E
:1018E00081E090E00E94FC1C892B11F40C946013A1
:1018F000089580910102883039F460E082E092E03E
:101900000E943215109201020895CF93DF93D82FD1
:10191000C92F0E94680C90E080E00E94FC1C009798
:10192000E9F4ED2FFC2FDC01A550BE4F2C91219343
:10193000019685309105B9F70E94D116882361F090
:101940000E94D5168093FA0180E092E00E945C1913
:1019500081E0DF91CF91089580E0F4CF80E0F9CF6E
:10196000CF93DF93D82FC92F0E94790CED2FFC2F36
:1019700090E080E02191DC01A550BE4F2C930196B0
:1019800085309105B9F78091FA010E94451880E0F1
:1019900092E0DF91CF910C945319EF92FF920F9345
:1019A0001F93CF93DF93EB01E82FD11110C0442395
:1019B00021F0F0E0EB52F74FE4916E2F7E2F8E2F47
:1019C000DF91CF911F910F91FF90EF9008950D2F10
:1019D00010E0282F30E0442329F02B52374FF90133
:1019E000249130E0F6E0CF9FC0011124EFEFF0E04A
:1019F000BF010E947F32AB018C2F90E0880F991FAE
:101A0000A5E5A49FB001A59F700D1124861B970B1F
:101A1000982F990F980FBF01601B710B629FD00127
:101A2000639FB00D729FB00D11248B2F9D9FB0014D
:101A30001124672F7727EF01C61BD70BBE01629FCA
:101A4000E001639FD00D729FD00D11247F01E91A30
:101A5000F108E09EB001E19E700DF09E700D112422
:101A6000672F7727E61BF70BE29F8001E39F100D9E
:101A7000F29F100D1124E12F722F4230510599F081
:101A800048F44115510569F04130510581F0EB2FC3
:101A90008D2F07C04430510569F080F04630510564
:101AA000B1F76E2F8DCFE22F7B2F812FFACFE22F50
:101AB0007D2FF7CFEB2F822F712FF3CF7B2F822F2C
:101AC000ED2FEFCF41E00C94CD0C0895E8E1F1E06B
:101AD000808361830895CF93DF93762FE901682F88
:101AE000842F0E94620D798368838A83DF91CF916E
:101AF000089580910F03982F9E7F29F48170826052
:101B000080930F0308958635E8F381708465F8CFDC
:101B100088E090E00C948D33CF92DF92EF92FF92A9
:101B20006B017C010E94790DB701A60188E090E06D
:101B3000FF90EF90DF90CF900C94AB33EFE0F3E0A9
:101B400083E0808311828FEF828383831482A3E5F5
:101B5000B2E012968C911297836012968C936081FA
:101B60007181828193810C948C0D8091EA0280FFB7
:101B700076C083E297E09F938F930E94A90680919D
:101B8000EA020F900F9080FF6AC080910F0381706E
:101B90001F928F9386E097E09F938F930E94A906F0
:101BA0008091EA020F900F900F900F9080FF57C026
:101BB00080910F0386951F928F938BEE96E09F93F3
:101BC0008F930E94A9068091EA020F900F900F90C8
:101BD0000F9080FF44C0809110031F928F9381ED7E
:101BE00096E09F938F930E94A9068091EA020F903E
:101BF0000F900F900F9080FF32C0809111031F92C1
:101C00008F9387EB96E09F938F930E94A906809114
:101C1000EA020F900F900F900F9080FF20C08091EC
:101C200012031F928F938DE996E09F938F930E94EA
:101C3000A9068091EA020F900F900F900F9080FFFD
:101C40000EC0809113031F928F9381E896E09F93BB
:101C50008F930E94A9060F900F900F900F900895F8
:101C600080910F0380FF02C08695089580E008955B
:101C700090911303933018F49F5F9093130388237C
:101C800051F060910F0370911003809111039091B6
:101C900012030C948C0D089581E00C94380E9091F1
:101CA0001303992319F0915090931303882351F053
:101CB00060910F03709110038091110390911203B2
:101CC0000C948C0D089581E00C944F0E70E00C94F0
:101CD000B4186091190180910F0380FF0AC08091B0
:101CE000180123E0829FC00111248C5E9C4F0C944C
:101CF000660E80911A0190911B0123E0829FF001F2
:101D00001124EC5EFC4F891750F711821082128269
:101D10008F5F3396F8CF90910F0390FF14C090918E
:101D20001A0120911B0133E0939FF0011124EC5E16
:101D3000FC4F921710F00C94690E818360834283EC
:101D40009F5F3396F6CF0895CF93DF9300D00F9225
:101D5000CDB7DEB790910F0390FF0AC09E012F5FB1
:101D60003F4F0E946B0D4B8169818A810E948B0ECF
:101D70000F900F900F90DF91CF910895CF93DF9345
:101D8000EC01EC81F0E0EF5AF84F4491EFE0F3E022
:101D9000628181810E94A40E8C818F5F8C83DF9190
:101DA000CF910895CF93DF93EC01EFE0F3E043810F
:101DB00062818C810E94A40E8C818F5F8C83DF9165
:101DC000CF9108950F931F93CF93DF9300D00F927D
:101DD000CDB7DEB78C0180910A0281110AC09E0145
:101DE0002F5F3F4F4FEF6FEF0E946B0D8A81809303
:101DF0000A02F8016481613069F080910A0240E0D2
:101E0000662361F040E0623011F440910A0280E004
:101E100060E004C060910A0240E080E00E948B0E06
:101E2000F801848190E0019663E070E00E949332B3
:101E300084830F900F900F90DF91CF911F910F919E
:101E400008954F925F926F927F928F929F92AF927E
:101E5000BF92CF92DF92EF92FF920F931F93CF9397
:101E6000DF9300D00F92CDB7DEB7182FF62E042FD8
:101E7000722E90910F0390FF57C0E92FE695AE2F79
:101E8000B0E0AA58BE4F8C91809353029E7F92304F
:101E900009F05EC09E012F5F3F4F812F0E946B0DA6
:101EA0004B8169818A810E948B0E8091100381137E
:101EB00008C0809111038F1104C080911203801714
:101EC00029F080915502826080935502109310038F
:101ED000F092110300931203772009F49CC06091E3
:101EE0000F037091100380911103909112030E94CF
:101EF0008C0D8091EA0280FF17C0809112031F921F
:101F00008F93809111031F928F93809110031F92E2
:101F10008F938DE794E09F938F930E94A9060FB64D
:101F2000F894DEBF0FBECDBF0F900F900F90DF91E2
:101F3000CF911F910F91FF90EF90DF90CF90BF90C6
:101F4000AF909F908F907F906F905F904F9008958B
:101F5000823019F400911203A8CF863019F4109141
:101F60001003A3CF8930D9F3893109F09ECFE9510D
:101F70008E2F8170682E8E2F80958170E82EE695C9
:101F8000F0E0EF5AF74FC590D490412CDD2492EA4F
:101F9000A92E94E0B92E60911C01461618F00E94FB
:101FA000690E83CF842C912C8C9CC0018D9C900D4C
:101FB0009C9C900D112470E00E947F32512E611084
:101FC00028C0560E8091EA0280FF11C0DF92CF92A6
:101FD0001F92EF921F925F921F924F92BF92AF9209
:101FE0000E94A9060FB6F894DEBF0FBECDBF2091A8
:101FF0001A01820E911C9401220F331F280D391DE6
:102000002C5E3C4F402F6F2D852D0E946B0D43940D
:10201000C2CF561AD7CF8091EA0280FF85CF1F9298
:102020000F931F92FF921F921F9386E594E073CF48
:10203000EFE0F3E09181282F4381628188E0890FEE
:102040000C94210F81E00C941810EFE0F3E09181E3
:10205000282F4381628188EF890F0C94210F81E042
:102060000C942510EFE0F3E0628121E1620F08F4A7
:102070006FEF282F438181810C94210F81E00C9414
:102080003210EFE0F3E0628121E1621B08F460E0CE
:10209000282F438181810C94210F81E00C94411001
:1020A000EFE0F3E0438121E1420F08F44FEF282FE6
:1020B000628181810C94210F81E00C945010EFE03B
:1020C000F3E0438121E1421B08F440E0282F6281C4
:1020D00081810C94210F81E00C945F1021E00C941D
:1020E000210F20E00C94210FEF92FF921F93CF93CA
:1020F000DF93EC0110E0EE24EA94F12C60911C01D6
:10210000161770F00E94690E9A818C8190FF27C08B
:102110008F5F8C83DF91CF911F91FF90EF90089597
:1021200020911A01422F410F5527551FCA019A01CC
:10213000220F331F280F391F2C5E3C4F70E0C70160
:102140000E949332962F8C8140911203609111036B
:10215000199F800D11240E946B0D1F5FCFCF8150FE
:10216000D8CF8F929F92AF92BF92CF92DF92EF9291
:10217000FF920F931F93CF93DF93EC018A81BB24CF
:10218000BA9480FD02C0BB24B3948C8181110AC033
:1021900081E0B8122AC080911C01815080930C020A
:1021A00081E08C83A12C4CE0942E80911C01A81618
:1021B000F8F00E94690E80910C0291E0B91261C0A2
:1021C00081115AC080911C01815080930C021C82A5
:1021D000DF91CF911F910F91FF90EF90DF90CF9003
:1021E000BF90AF909F908F90089510920C02D8CF1F
:1021F00000911A01CA2CD12C0C0D1D2D111DC801E6
:10220000880F991F080F191F0C5E1C4FF8011182CF
:102210001082128234E0E32EF12C812C80910C028A
:10222000880D8D301CF1692D0E947132892F082E86
:10223000000C990BC816D90691F4809112038E9D5B
:10224000A0018F9D500D11245595479555954795A3
:10225000980160911103809110030E946B0D8B0C0B
:10226000F1E0EF1AF108D1F6A3949FCF87FFDFCFFB
:1022700090911C01890FDBCF815080930C02BC82AE
:10228000A7CF90E0019660911C0170E00E9493320C
:1022900080930C028C839CCFEF92FF920F931F933D
:1022A000CF93DF93EC018C81811109C081E08C8395
:1022B00010920B0292E09093170180931601809187
:1022C0001A0190911B0123E0829FF0011124EC5E22
:1022D000FC4F891768F110E003E060911C011617AC
:1022E00068F10E94690E8091160120910B02280F5F
:1022F00020930B0290911701980F909317011916D4
:1023000054F4022E000C330B40911C014150550B2C
:102310002417350734F0819580931601813009F434
:102320001C82DF91CF911F910F91FF90EF90089544
:102330001182108212828F5F3396CBCFE12EF12C67
:1023400070E0C7010E94933220911A01820F482F3A
:1023500050E020910B02022E000C330BE216F30624
:10236000BCF020911701022E000C330B2E153F05F7
:102370007CF0809F900111242C5E3C4F4091120311
:1023800060911103809110030E946B0D1F5FA5CF18
:10239000FA01EE0FFF1FE40FF51FEC5EFC4F1182F8
:1023A00010821282F3CF8F929F92AF92BF92CF9200
:1023B000DF92EF92FF920F931F93CF93DF93EC0185
:1023C0004C81042F10E09801D8010E94D7329B0164
:1023D000AC010E94ED324B015C01E0E2F0E0E01B59
:1023E000F10BA5E5B0E0AC019B010E94ED326B0161
:1023F0007C019F01DF010E94CF329B01AC010E9452
:10240000F8329B01AC01280D391D4A1D5B1DC70127
:10241000B6010E94A732F22E822F90E039E23F15DA
:1024200060F143E0249F9001112435952795122FE8
:10243000109500E085E5E82EEF1880911C01081743
:1024400058F10E94690E9C8181E0992319F0903225
:1024500019F48FEF8093150180911501890F8C83FA
:10246000DF91CF911F910F91FF90EF90DF90CF9070
:10247000BF90AF909F908F90089525E530E0B9010F
:10248000681B790B9B01220F331F260F371F37FF65
:10249000CCCF2F5F3F4FC9CF8E2D01FD8F2D2091C7
:1024A0001A01622F600F7727771F9B01220F331FBE
:1024B000260F371F2C5E3C4F412F609111030E9465
:1024C0006B0D0F5FBACF0F931F93CF93DF93EC0188
:1024D00010E000E090911C019017110609F06CF4D7
:1024E0000E94690E8C8190E00196817099278C83FF
:1024F000DF91CF911F910F91089520911A01A801AA
:10250000420F511D9A01220F331F240F351F2C5EDD
:102510003C4F4C8160911103809110039695901768
:10252000110651F04CF0442349F0409112030E94EF
:102530006B0D0F5F1F4FCECF4423B9F340E0F7CFB1
:102540008F929F92AF92BF92CF92DF92EF92FF92C3
:102550000F931F93CF93DF93FC01B280948081E0AF
:10256000848300E015E05BE4A52E88248394EE24A8
:10257000EA94F12C7BE4C72ED12C80911C01081722
:1025800070F0DF91CF911F910F91FF90EF90DF904E
:10259000CF90BF90AF909F908F900C94690EC02FFA
:1025A000D0E01C9FF0011D9FF00D1124E05FFD4F56
:1025B00091101CC01382128220911A01CE01820F49
:1025C000911D9C01220F331F280F391F2C5E3C4F99
:1025D0001C9FF0011D9FF00D1124E05FFD4F428113
:1025E000618180810E946B0D0F5FC7CF2381222301
:1025F00079F12150238334818A2D821B311101C04E
:10260000822F1C9FF0011D9FF00D1124E05FFD4FF4
:1026100090911203899FC0011124B6010E947F325C
:102620006283211104C0332311F01482A38222E0BB
:102630002B1510F21C9FF0011D9FF00D1124E05F7F
:10264000FD4F809110038083809111038183B4CF6B
:102650000E946833823091400CF0AECF82E08B153F
:1026600030F50E946833B7010E9493321C9FF0013D
:102670001D9FF00D1124E05FFD4F808322E02B159C
:10268000C8F40E946833209111032695622F70E0F0
:102690000E949332280F1C9FF0011D9FF00D112402
:1026A000E05FFD4F21831282A382848285CF8091D7
:1026B0001003DCCF20911103EECF809155020895D5
:1026C00010925502089525E0EFE0F3E0DC0101905F
:1026D0000D922A95E1F720915302309154024091D6
:1026E0005502FC012583368347830895E3E5F2E034
:1026F0001182828184608283089560910F036695C0
:1027000070E04BE050E08DE191E00E947833892B3E
:1027100019F481E0809354020E94842A90934D0220
:1027200080934C0280915502846080935502809181
:10273000EA0280FF08C08DE394E09F938F930E948C
:10274000A9060F900F90089510925402809155029F
:102750008460809355028091EA0280FF08C084E281
:1027600094E09F938F930E94A9060F900F90089575
:1027700090910F0390FF59C09170811140C09260F9
:1027800090930F03809155028160809355026623D8
:10279000E9F160910F037091100380911103909102
:1027A00012030E948C0D8091EA0280FF0FC080917D
:1027B0000F0386951F928F9387EC95E09F938F93DD
:1027C0000E94A9060F900F900F900F9060910F0339
:1027D000669570E04BE050E08DE191E00E94783327
:1027E000892B01F10E94A41381E080934F02409154
:1027F000120360911103809110030C9471108B32BD
:1028000010F09465BDCF880F982BBACF8091EA0263
:1028100080FFDCCF80910F0386951F928F9389EA0A
:1028200095E0CCCF0E947D13DFCF0895682F909163
:102830000F03969581E0890F8B3208F081E00C94AC
:10284000B81381E00C941614682F90910F0396959D
:102850008FEF890F09F48AE20C94B81381E00C948D
:10286000241461E00C94B81380910F03816080936D
:102870000F038091EA0280FF0DC01F9281E08F93C9
:102880008BE395E09F938F930E94A9060F900F9082
:102890000F900F9080910F0386950C94311460E097
:1028A0000C94B81380915202811165C08091EA02A4
:1028B00080FF14C08AE696E09F938F930E94A9063A
:1028C0008091EA020F900F9080FF08C084E596E0A7
:1028D0009F938F930E94A9060F900F900E94022948
:1028E000811110C08091EA0280FF08C08CE296E05E
:1028F0009F938F930E94A9060F900F900E94A12989
:102900000E949E0D0E94880D60930F037093100328
:1029100080931103909312038091550283608093FA
:1029200055026E7FC1F48091EA0280FF08C083EEF9
:1029300095E09F938F930E94A9060F900F900E949D
:102940009E0D0E94880D60930F0370931003809377
:102950001103909312030E94790D0E94B50D0E94FD
:10296000761380910F0380FF03C086950E944F1459
:1029700081E080935202089580910F038E7F8093AF
:102980000F0360910F0370911003809111039091D8
:1029900012030E948C0D8091EA0280FF0FC080918B
:1029A0000F0381701F928F9383E095E09F938F9325
:1029B0000E94A9060F900F900F900F900E94A413F1
:1029C000809155028160809355022FEF80E792E05D
:1029D000215080409040E1F700C000000C94690E47
:1029E0008091EA0280FF10C080910F038095817072
:1029F0001F928F9382E795E09F938F930E94A90681
:102A00000F900F900F900F9080910F0380FD0C940A
:102A1000BC140C94341480910F038E7F80930F03A9
:102A20008091EA0280FF0CC01F921F9289EC94E013
:102A30009F938F930E94A9060F900F900F900F9075
:102A40000E94A413809155028160809355022FEF5C
:102A500080E792E0215080409040E1F700C0000004
:102A60000C94690E1F93CF93DF93EC01162F8F8187
:102A700080FF0CC0888180FF24C080910F0381609B
:102A800080930F03888186950E94B8138F8181FF00
:102A900006C0212F4B816A8189810E94210F8F817D
:102AA00082FF05C08E81882379F00E947D138F817B
:102AB00083FF03C081E080934F02DF91CF911F918C
:102AC00008950E940B15E2CF0E94A413F0CFEF925D
:102AD000FF920F931F93CF93DF938091540288232B
:102AE00009F475C080915302E0910F03E695E81B4D
:102AF000E0934E02823009F071C0F0E0E35BF84FE2
:102B0000E491CE2FD0E00EEB1EE080914F0288239F
:102B100089F010924F020E94842A9E0120953095E0
:102B2000820F931F90934D0280934C02109251029A
:102B30001092500280914C0290914D020E94902A76
:102B40008C179D0708F443C080910F02882311F170
:102B500010920F0280910D0290910E020E94902A15
:102B600080339547B8F00E94842A90930E02809398
:102B70000D028091EA0280FF08C08BEF93E09F93E3
:102B80008F930E94A9060F900F9080915502886044
:102B900080935502E0905002F0905102E0914C0277
:102BA000F0914D02CE0FDF1FD0934D02C0934C0227
:102BB0008CE492E0F80109958091500290915102C5
:102BC000892B29F4EF2819F081E080930F02DF911F
:102BD000CF911F910F91FF90EF900895863049F4A7
:102BE000F0E0E65BF84FE491CE2FD0E002ED1EE07E
:102BF0008CCF893051F4E695F0E0E95BF84FE49131
:102C0000CE2FD0E004E710E180CF8F3051F4E6956D
:102C1000F0E0EC5BF84FE491CE2FD0E001EB10E157
:102C200074CF853149F4F0E0EF5BF84FE491CE2F9B
:102C3000D0E00CE411E169CFC8E2D0E003ED11E18E
:102C4000883109F462CF833239F4EFE3F7E0C591BC
:102C5000D49102EE1EE059CFC4EFD1E003E612E1B9
:102C6000843209F452CFC0EDD7E005E61DE085328D
:102C700009F04BCF8E2F63E00E946532E92FF0E020
:102C8000E45CF84FE491CE2FD0E000EA12E13DCFB2
:102C9000FA01811101C0FB010994CF93DF93C82F82
:102CA000D62F0E94300E8C1740F00E94300E8D17E8
:102CB00020F4DF91CF910C9421148C2FDF91CF91D0
:102CC0000C9431141F93CF93DF93EC01FB0112811D
:102CD000111110C00E9436288272FE01E25CFC4590
:102CE000E431F10508F05BC0E251FC4C0C94C932B0
:102CF0000E94F014812FDF91CF911F9108954EE231
:102D000054E161E274E10E944816F4CF41E254E1DB
:102D10006EE274E1F8CF4FE250E162E270E1F3CF8E
:102D200042E250E16FE270E1EECF4DE450E16EE33C
:102D300070E1E9CF4EE350E16DE470E1E4CF4BE6A2
:102D400050E16CE570E1DFCF4CE550E16BE670E1FE
:102D5000DACF43E65EE06CE47EE0D5CF4CE45EE0A3
:102D600063E67EE0D0CF81E00E943114C3CF65E0FE
:102D700082E00E944D16BECF68E086E0FACF6EE09A
:102D800089E0F7CF64E18FE0F4CF67E185E1F1CF2F
:102D900088E1EACF62E289E1ECCF83E2E5CF11E09E
:102DA000A9CF80913803817008958091380386956A
:102DB0008695869508950E940229811102C00E947D
:102DC000A1290E94302980933803803320F0877036
:102DD00088628093380390913803892F817090FF27
:102DE00004C0892F8695869586950C944518809108
:102DF0003803982F969596959695953040F49F5F59
:102E0000990F990F990F8770892B809338038091C0
:102E100038038160809338030E9434298091EA024C
:102E200080FF11C0809138038695869586951F9204
:102E30008F938DEB98E09F938F930E94A9060F903C
:102E40000F900F900F908091380386958695869508
:102E50000C94451880913803982F987F79F088500A
:102E600080933803887F91E009F490E080913803E3
:102E700090FB80F9809338030E9434298091EA0204
:102E800080FF11C0809138038695869586951F92A4
:102E90008F9385EA98E09F938F930E94A9060F90E5
:102EA0000F900F900F9080913803869586958695A8
:102EB0000C9445188091380380FD1FC08160809379
:102EC0003803813019F489E0809338038091380306
:102ED0000E9434298091EA0280FF08C08DE798E0C3
:102EE0009F938F930E94A9060F900F9080913803B3
:102EF0008695869586950C9445180895809138039B
:102F000080FF14C08E7F809338030E943429809103
:102F1000EA0280FF08C08AE698E09F938F930E94A0
:102F2000A9060F900F9080E00C9445180895CF9358
:102F3000C0913803C1708091EA0280FF0CC01F92DB
:102F4000CF938FE898E09F938F930E94A9060F90EC
:102F50000F900F900F90CC2319F0CF910C947E1707
:102F6000CF910C945A1790913803892F86958695A6
:102F700086958F5F8F719770863080F5880F880FE8
:102F8000880F892B8093380380913803887F91E0E4
:102F900009F490E08091380390FB80F98093380326
:102FA0000E9434298091EA0280FF11C08091380389
:102FB0008695869586951F928F9386E598E09F93D8
:102FC0008F930E94A9060F900F900F900F90809101
:102FD00038038695869586950C944518909338030A
:102FE000D3CF863008F085E0909138039770282F72
:102FF000220F220F220F922B90933803987F21E00B
:1030000009F420E09091380320FB90F99093380365
:103010000C9445180E94F117809138030C943429C0
:103020009C01FB018281882349F12D3BFCE53F0790
:10303000C9F040F42B3BECE53E0769F02C3B3C45E6
:1030400079F008952F3B9CE5390791F070F0203C12
:103050003C4589F0089585E00E940A1880E00895B3
:1030600080E0FACF0E942A17F9CF0E94F716F6CF18
:103070000E949717F3CF0E94B317F0CF81E0089515
:10308000269A2E9808952E980895CF92DF92EF9267
:10309000FF92CF93C82F863040F5811127C08091D1
:1030A00080008F7D809380000E9443182C2F30E099
:1030B000AFEFBFEF0E94D73225E030E040E050E0B4
:1030C0000E94A732C9012C3764E13607A8F469E0F1
:1030D00070E00E947F3270938B0060938A00CF91E2
:1030E000FF90EF90DF90CF900895C5E08091800031
:1030F000806280938000DACF2A50374D4F4F5F4F68
:10310000942F832F722F662725EF38E241E050E09D
:103110000E94A73269017A01CA01B9010E945532A1
:103120009B01AC01C701B6010E945532672F782F71
:10313000892F99276115710521E08207910559F6BC
:103140006FEF7FEFC8CF08950E94401882E280930E
:10315000800089E1809381008FEF9FEF909387003B
:10316000809386000C94DB16879A41B34F7751B356
:103170005068EFB7F8949B01220F331F260F371FBB
:10318000280F391F2817390741F4EFBF8FE594E066
:103190000197F1F700C000000895DC016D91CD01A9
:1031A00078E051BB000000C067FF41BB660F000024
:1031B00000C000C000C041BB00C07A9591F7E2CFCB
:1031C00008950C94E01825982D9A27982F9A83B18A
:1031D00085FB882780F923B130E0220F232F221F9F
:1031E000330B90E0232B09F092E0892B80935B0254
:1031F0009091040181E0982790935702891B809356
:1032000056020895CF93E0915B02EE0FEE0FE0932C
:103210005B0283B185FB222720F983B190E0880F00
:10322000892F881F990B009711F082E090E0822B84
:10323000E82BE0935B02C0915702EF70F0E0EF558E
:10324000FE4F808190915A02890F80935A028430F8
:103250006CF0EC2F0C2E000CFF0BE85AFD4F808118
:103260008F5F808360E08C2F0E94E11880915A026A
:103270008D3F6CF4EC2F0C2E000CFF0BE85AFD4F29
:1032800080818150808361E08C2F0E94E1188091C1
:103290005A02837887FF03C081508C6F8F5F8093C1
:1032A0005A02CF910895E0915702F0E0E85AFD4F9D
:1032B0002081FC0120830895FF920F931F93CF93E9
:1032C000DF93D09156020D2F10E0085A1D4FFC01DC
:1032D000C081F8018081C81BFC2E1F1464F08C2F64
:1032E000C7FD80E0C81BC11110C0DF91CF911F91B5
:1032F0000F91FF900895FA94F80180818F5F808389
:1033000060E08D2F0E94E118E8CFCF5FF801808147
:103310008150808361E08D2F0E94E118E4CFAF924D
:10332000BF92CF92DF92EF92FF920F931F93CF93B2
:10333000DF937C015B01C42FD22FFC0182818823A3
:10334000F9F040935E020E94842A90935D0280937C
:103350005C0280E28C0F883008F061C0C77081E0A9
:1033600001C0880FCA95EAF7DF91CF911F910F91A5
:10337000FF90EF90DF90CF90BF90AF900C9408201B
:1033800010915E02141340C080915C0290915D0226
:103390000E94902A6C01B701C5010E942725C8161A
:1033A000D90690F5C0E2CD0F1D17B9F080E2810F6C
:1033B000883040F4177081E001C0880F1A95EAF751
:1033C0000E940F20C83048F481E09D2F977001C003
:1033D000880F9A95EAF70E940820802F0E94F51F17
:1033E000C830E8F4D77081E001C0880FDA95EAF7B9
:1033F000DF91CF911F910F91FF90EF90DF90CF90D1
:10340000BF90AF900C940F2080E28C0F883038F47E
:10341000C77081E001C0880FCA95EAF7E9CFDF9154
:10342000CF911F910F91FF90EF90DF90CF90BF90C1
:10343000AF9008950F939C01CB01233F4CE53407D7
:1034400059F1A8F4283DFCE53F0701F1293D4CE581
:103450003407D1F1273D3C4591F406E221EE41EEDF
:1034600067ED7CE50E948F1980E00F910895253F5C
:10347000FCE53F07E9F0B0F0263F3C45F9F0FC01E0
:103480008281882339F110925E02EFCF07E225EEA8
:1034900045EE68ED7CE5E6CF06E221EE40EE63EF17
:1034A0007CE5E0CF07E225EE44EE64EF7CE5DACF81
:1034B00006E221EE42EE65EF7CE5D4CF07E225EE91
:1034C00046EE66EF7CE5CECF08E221E045EE69ED01
:1034D0007CE5C8CF81E0C9CFCF93DF93EC01FB013E
:1034E0008281882309F419C1C230FCE5DF07C0F1ED
:1034F000C6319CE5D90730F09E012A5F3C45293052
:10350000310570F50E94152990933E0380933D0389
:10351000C031ECE5DE0709F4CFC008F05BC0C8306D
:103520008CE5D80709F4B6C088F5C430ECE5DE07B1
:1035300009F4A8C0C0F4C2308CE5D80709F49CC0D7
:1035400080913D038260C330DC4509F498C08091CE
:103550003D0390913E030E9423290E94752280E042
:10356000DF91CF91089580913D038061C630ECE5F5
:10357000DE0709F484C080913D038860C730DC45D4
:1035800008F47DC080913D03806279C0CC308CE529
:10359000D80709F489C070F480913D038C60CA306B
:1035A000ECE5DE0709F46BC008F478C080913D03B8
:1035B0008E7F65C0CE308CE5D80709F479C0809144
:1035C0003D038B7FCF30DC4508F459C080913D032B
:1035D0008F7E55C0CB3FECE5DE0709F457C030F5D0
:1035E000C3318CE5D80709F46FC078F4C131ECE53C
:1035F000DE0709F465C0C231DC4509F0A8CF0E949E
:10360000752280913D038F773AC0C5318CE5D8078C
:1036100009F462C008F476C080913E038160CA3F1D
:10362000DC4509F094CF80933E0391CFCF3FFCE57A
:10363000DF0709F44DC088F480913E038D7FCD3FB4
:103640009CE5D90781F380913E038E7FCE3FDC4518
:1036500050F380913E038360E6CFC130FDE5DF0784
:1036600009F459C008F444C080E0C230DD4509F0D7
:103670006ECF0E94A3296BCF80913D038160809320
:103680003D0365CF80913D038460F9CF80913E0377
:103690008260C9CF80913D038064F1CF0E94752282
:1036A00080913D038068EBCF80913D038D7FE7CF14
:1036B00080913D03877FE3CF80913D038F7DDFCFF6
:1036C00080913D038F7BDBCF80913D03837FD7CFFC
:1036D00080913E038C7FA7CF80913D0382FB992789
:1036E00090F921E0922790FB82F990FB83F9C7CFF4
:1036F00080913E03982F909591708E7F892B90FB3F
:1037000081F991CF0E94752290913D03892F97FBFB
:1037100087F98058B4CF81E0ACCF81E021CFCF933F
:10372000DF93EB0186319C4511F50E9436289A8182
:10373000992399F08A7A91E009F490E090935F02DE
:10374000811109C089E20E9411280E94822880E02C
:10375000DF91CF91089585E3F6CF80915F028111CB
:1037600004C089E20E941828F0CF85E3FBCF81E0F6
:10377000EFCF8EE1489B02C08150E1F7489BFECF1E
:103780000895589880E28A95F1F7589A0895FC01B7
:103790003BE03A95F1F720E090E080E031E040E155
:1037A0004A95F1F7880F489B02C08160232742E0C9
:1037B0004A95F1F7000040E14A95F1F79F5F6913E0
:1037C000EECF90E19A95F1F799B132E03A95F1F7A1
:1037D000000040E14A95F1F7917092272081920F05
:1037E00090830895EF92FF920F931F93CF93DF93EF
:1037F0000F92CDB7DEB719828C017C01E60EF11C69
:103800000E151F0561F481E09981911180E00F9000
:10381000DF91CF911F910F91FF90EF9008950E943B
:10382000B91B68E0CE0101960E94C71BF801819385
:103830008F01E6CF909362028093610260936002F1
:10384000509A589A0895909362028093610260930F
:1038500060025098589AE89AE9E6F0E080818C7FFF
:10386000808308956150770B91E001C0990F6A95AC
:10387000EAF720E031E0911108C0222391F0589A34
:1038800080E28A95F1F758980895492F482339F036
:10389000589A232740E24A95F1F79695ECCF58982D
:1038A000F9CF5898EDCFFF920F931F93CF93DF93EB
:1038B000EC018C01060F111DC017D10731F4DF9107
:1038C000CF911F910F91FF900895F9900E94C11B15
:1038D00068E08F2D0E94321CEFCF1F920F920FB61F
:1038E0000F9211240F931F932F933F934F935F9346
:1038F0006F937F938F939F93AF93BF93EF93FF93B8
:10390000CF93DF930F92CDB7DEB719820E94B91B18
:1039100067E0CE0101960E94C71B082F0695069509
:103920000695982F92959570202F2570920F292F2C
:103930002370969596958770920F891344C089815C
:10394000811141C0809160028017E8F120E12A9541
:10395000F1F7589A509A82E08A95F1F700C0A8E0F2
:103960000A9FC00111240091610210916202080FA8
:10397000191F5898F8016581662321F08681978187
:103980000E94531C0E94C11BF0E1FA95F1F7589870
:103990005098589A20E12A95F1F7D80112966C9127
:1039A0001297662331F113968D919C910E94F21B20
:1039B000D801ED91FC91882311F088E001C082E0EC
:1039C00080830E94B91B0F90DF91CF91FF91EF91FF
:1039D000BF91AF919F918F917F916F915F914F9127
:1039E0003F912F911F910F910F900FBE0F901F903D
:1039F0001895ED91FC91E1CF0F931F93CF93DF9337
:103A000020916002281719060CF471C08C0193E014
:103A1000000F111F9A95E1F7C0916102D0916202E7
:103A2000C00FD11FF894509A589825E02A95F1F7C5
:103A30000000982F969595708570980F892F837048
:103A400096959695980F092B0E94C11B00C067E0C0
:103A5000802F0E94321C80E18A95F1F75098589A85
:103A6000489B17C087E090E0489915C06D81662398
:103A700021F18E819F810E94F21B81111EC0509AFC
:103A8000589AE881F98182E08083789482E090E01E
:103A90000DC000C0E5CF019771F4509A589AE881A3
:103AA000F98181E08083789481E090E0DF91CF918B
:103AB0001F910F91089500C0D7CF0E94B91B20E23B
:103AC0002A95F1F75898509A80E18A95F1F76A8122
:103AD000662321F08B819C810E94531C0E94C11B94
:103AE000E881F9811082789490E080E0DFCF84E073
:103AF00090E0DCCF90936802809367020895E09194
:103B00006702F0916802309721F00190F081E02D7A
:103B1000099480E00895EF92FF920F931F93CF9343
:103B2000DF938C01E0916702F09168023097C1F158
:103B30000280F381E02D09958091EA0282FF30C076
:103B400080FF04C08DED99E00E941006D0E0C0E037
:103B500087EDE82E89E0F82E8091EA0280FF0EC002
:103B6000F801EC0FFD1F80811F928F93FF92EF925F
:103B70000E94A9060F900F900F900F902196C830C9
:103B8000D10551F78091EA0280FF0AC085ED99E0E6
:103B9000DF91CF911F910F91FF90EF900C94100641
:103BA000DF91CF911F910F91FF90EF900895209199
:103BB0006502309166022817390771F0909366020A
:103BC00080936502E0916702F0916802309721F0DE
:103BD0000680F781E02D09940895209163023091C9
:103BE00064022817390771F090936402809363028E
:103BF000E0916702F0916802309721F00084F1852E
:103C0000E02D0994089585B7806885BF85B78068E1
:103C100085BF0895089508950C940A1E08950C9484
:103C20000E1E0E94031E0E940B1E0C940C1E0C9470
:103C3000240C0E947B2A0E94E20A0E94E72A0E942A
:103C4000DB160E9452140E94E3180C940F1ECF93AF
:103C5000C82F8091EA0282FF1EC080FF1CC086EF41
:103C600099E00E9410068091EA0280FF14C01F9222
:103C7000CF9381EF99E09F938F930E94A906809143
:103C8000EA020F900F900F900F9080FF04C08FEE0C
:103C900099E00E9410068C2FCF910C940F08AF92E0
:103CA000BF92CF92DF92EF92FF920F931F93CF9329
:103CB000DF93CDB7DEB72A970FB6F894DEBF0FBEFD
:103CC000CDBF0E94650B0E94171E882309F463C0B4
:103CD0008AE6A82E82E0B82E10E000E0C02E802FE9
:103CE0000E94910AE82EF501D1905F01D81609F4DF
:103CF0004CC08091EA0281FD0E94970A80E0FF2477
:103D0000F394DE249D2D9F21D9F18E83CF82EF2065
:103D100081E009F480E088870E94842A8160782FFE
:103D20009A8789874E815F8168858A850E94ED1E0A
:103D3000F801E659FD4F8081F826F0820E94671550
:103D40000E94A3180E9402190E947F1D909169028F
:103D5000891791F10E947F1D809369022A960FB600
:103D6000F894DEBF0FBECDBFDF91CF911F910F91B1
:103D7000FF90EF90DF90CF90BF90AF900C94271EF4
:103D80008F5FFF0C863009F0BDCF0F5F1F4F0A30E9
:103D9000110509F0A3CF8FEF89838A831B820E94CC
:103DA000842A8160782F9D838C8349815A816B811D
:103DB0008D810E94ED1EC2CF2A960FB6F894DEBF09
:103DC0000FBECDBFDF91CF911F910F91FF90EF906C
:103DD000DF90CF90BF90AF900895CF93DF93CDB792
:103DE000DEB72B970FB6F894DEBF0FBECDBF4F8363
:103DF000588769877A878B871E821D8285E0FE013E
:103E00003796DE01119601900D928A95E1F749816E
:103E10005A816B817C818D819E812B960FB6F8949F
:103E2000DEBF0FBECDBFDF91CF910C942A25FC01E0
:103E3000808191810C94E327CF93C82F882309F4C4
:103E400083C08238C1F40E947F1D81FD7DC089E35B
:103E50000E9411280E9482282FEF81EE94E02150C9
:103E600080409040E1F700C0000089E30E941828DC
:103E7000CF910C9482288338A1F40E947F1D80FD8D
:103E800063C083E50E9411280E9482282FEF81EEF3
:103E900094E0215080409040E1F700C0000083E5AD
:103EA000E5CF8438A1F40E947F1D82FD4DC087E4D8
:103EB0000E9411280E9482282FEF81EE94E0215069
:103EC00080409040E1F700C0000087E4CFCF8CEF46
:103ED0008C0F813A90F46C2F8091280190912901E8
:103EE0000E94BA29882329F08C2F0E9418280E944A
:103EF00082288C2F0E941128BBCF80E28C0F883043
:103F000048F4C77081E001C0880FCA95EAF70E94A3
:103F10003928AECFEBE5EC0FE33040F4F0E0E152AE
:103F2000FE4F808190E0CF910C94D71DC85AC731C5
:103F300058F4EC2FF0E0EE0FFF1FEF54FE4F80819E
:103F40009181CF910C94ED1DCF910895882309F4B0
:103F50004BC0823871F40E947F1D81FF45C089E308
:103F60000E9411280E94822889E30E9418280C943C
:103F70008228833859F40E947F1D80FF35C083E575
:103F80000E9411280E94822883E5EFCF843859F4DB
:103F90000E947F1D82FF28C087E40E9411280E9492
:103FA000822887E4E2CF9CEF980F913AF0F290E2FA
:103FB000980F983050F4877091E001C0990F8A955E
:103FC000EAF7892F0E943F28D2CF9BE5980F9330C4
:103FD00020F490E080E00C94D71D885A873120F4BB
:103FE00090E080E00C94ED1D0895CF93C82F0E94BF
:103FF0001C1FC93349F42FEF87EE93E02150804016
:104000009040E1F700C000008C2FCF910C94A61FC8
:10401000882321F00E9439280C948228089588234F
:1040200021F00E943F280C9482280895BF92CF92DD
:10403000DF92EF92FF920F931F93CF93DF936C0168
:10404000D62FC72FFC01058102950F701281111127
:104050000E9456280E942F28E82E882391F01123D1
:10406000D1F08C2F807F803421F080E28D0F88305A
:1040700090F082E00E94CD280E942F2891E0E82E47
:10408000E926BC2EB2949FE0B922EB2DF0E0EE5F62
:10409000FB4C0C94C932E12CF4CF0C2F0F70C07F75
:1040A00011F00295007F1123A9F0002359F080E25E
:1040B0008D0F883010F0D11109C0802F0E9439284F
:1040C0000E9482288D2F0E941C1F14C0802F0E94E6
:1040D0004928F6CF8D2F0E94A61F002359F080E2B9
:1040E0008D0F883010F0D1112CC0802F0E943F28F6
:1040F0000E9482282B2D2850330B2430310520F4C8
:104100000E947F1D0E940F08EE2009F493C10E94B7
:104110002B2880FD8FC1F60112820E9425280E9463
:10412000AE26C6010E943B220E942528DF91CF9136
:104130001F910F91FF90EF90DF90CF90BF900C9464
:10414000CF26802F0E944F28D3CFFC2FFF70FF2E49
:10415000C07FC03219F0F29480EFF822DD2369F0BD
:10416000D13049F1112391F1002351F1F6018581FC
:1041700080FFA8CF8F70858323C0112381F00111A8
:1041800006C00E9469288F290E940820B3CF013001
:10419000C1F70E9469288F290E946F28ABCF0111B7
:1041A00006C00E9478288F2D0E940F20A3CF0130D7
:1041B00009F4A0CFF6CF112329F0063008F09ACFEA
:1041C0008F2DE2CF053008F095CFEDCF002359F3C6
:1041D000D93349F4FFEF27EE33E0F150204030406F
:1041E000E1F700C000008D2F0E94A61F83CF8C2F07
:1041F00086958695837069F0813009F07BCF8D2F8D
:104200009C2F9370111102C090E080E00E94ED1D80
:1042100071CF8D2F9C2F9370111102C090E080E020
:104220000E94D71D67CF8C2F837009F041C01111F8
:1042300061CF4D2F429546954770440F440F0D2F87
:104240000F7010E030E020E0042E04C0000F111FBA
:10425000221F331F0A94D2F760E070E0CB01D4FF35
:104260000FC06FE070E080E090E004C0660F771F41
:10427000881F991F4A95D2F7609570958095909503
:10428000C695C695C370602B712B822B932BC230C1
:1042900049F058F4C13019F00E9460262BCF0E94DB
:1042A0004E2628CF0E94722625CF0E944C2622CF70
:1042B0008695112311F08C2F8170882309F41ACF71
:1042C0004D2F429546954770440F440F0D2F0F70A8
:1042D00010E030E020E0042E04C0000F111F221F68
:1042E000331F0A94D2F760E070E0CB01D4FF0FC017
:1042F0006FE070E080E090E004C0660F771F881FD9
:10430000991F4A95D2F76095709580959095C695BE
:10431000C695C370602B712B822B932BC23049F052
:1043200058F4C13019F00E942527E4CE0E941327CB
:10433000E1CE0E943727DECE0E948826DBCECF70EA
:10434000112329F08C2F0E94AE268D2F1DCF8D2F8B
:104350000E940F208C2F0E94CF26CCCED23F89F115
:1043600060F4D03FC9F0D13F29F1112309F442C0D4
:104370000111A8CE8C2F8F7121C0D33F39F1D43FCA
:10438000A1F7112369F1CF718C2F0E94AE2663E053
:104390008C2F0E94B828AECE112341F0053008F0D2
:1043A000A9CE8C2F8F710E94F226A4CE063008F081
:1043B000A1CEF7CF8C2F8F71112369F20E94AE2608
:1043C00099CE8C2F8F711123C9F3C5CF112329F0FA
:1043D0008C2F8F710E9499268DCE0E9494268ACEB2
:1043E00081E00E94CD28023008F484CE82E00E9451
:1043F000CD2880CE002359F0D93309F0F4CE8FEFC9
:1044000097EEE3E081509040E040E1F7EACE8C2F58
:104410008F71A1CF4C2F4F706D2FC6010E94850860
:104420000E94C42567CE4C2F4F706D2FC6010E948D
:10443000880860CEDF91CF911F910F91FF90EF9090
:10444000DF90CF90BF9008950F931F93CF93DF938A
:10445000EC01688179818A810E94ED278C010E949C
:1044600049270E944B26B801CE01DF91CF911F91C1
:104470000F910C941620CF93DF93EC018B819C81DC
:10448000892B29F08881998189238F3F59F4DF9105
:10449000CF910895CE010E942422CE01DF91CF91C9
:1044A0000C943807CE010E9427088111F3CF0E9497
:1044B0002F28882361F38A81882349F382E0DF91E2
:1044C000CF910C94CD280E9456280E9466280E9405
:1044D000822890E080E00E94D71D90E080E00C945C
:1044E000ED1D0E941F280C9463220E9446280C9404
:1044F0007122E92FE295EF70E250EE3070F4F0E0B7
:10450000EE5EFB4C0C94C932803F19F020F4883EDB
:1045100020F481E00895843FE1F380E00895883E2F
:10452000C0F3813FD1F7F5CF93FB882780F9089539
:104530000E94E3270C947922CF93DF9300D000D020
:104540000F92CDB7DEB70F900F900F900F900F9096
:10455000DF91CF910895CF93DF9300D000D000D0AA
:10456000CDB7DEB726960FB6F894DEBF0FBECDBF2F
:10457000DF91CF9108951F93CF93DF93C091750280
:1045800016E0809176028C1304C0DF91CF911F91C9
:104590000895D0E01C9FF0011D9FF00D1124E958F3
:1045A000FD4F4081518162817381848195810E9498
:1045B000AB222196C770E5CF4091A7025091A80287
:1045C0006091A9027091AA028091AB029091AC0215
:1045D0000C94AB22209175029091760256E029133B
:1045E00002C080E0089530E0529FF001539FF00D2B
:1045F0001124E958FD4F7181761306C0708178133C
:1046000003C07281741304C02F5F3F4F2770E7CF40
:1046100081E008951F93CF93DF938091AC02807F58
:10462000A9F48091A902882389F080917502C09134
:1046300076026091A7027091A802A091AA02B0919F
:10464000AB02D62FD72316E0C81304C0DF91CF9159
:104650001F91089590E0109711F0DF3F19F4019633
:104660008770F2CF189F9001199F300D1124F90126
:10467000E958FD4F41814713F2CF40814613EFCFF8
:1046800042814111ECCF438154814A1B5B0B483C72
:10469000510528F78091AC028F7080618093AC0245
:1046A000F901E458FD4F80818F708061808387EA33
:1046B00092E00E943B22DF91CF911F910C94BB228C
:1046C0008F929F92AF92BF92CF92DF92EF92FF9222
:1046D0000F931F93CF93DF93CDB7DEB761970FB6DC
:1046E000F894DEBF0FBECDBF8C0185E0F801DE017E
:1046F0001D9601900D928A95E1F7D801EC901196E4
:10470000FC9011971296CC90129787EAA82E82E01F
:10471000B82E4091AA025091AB024115510509F4FF
:1047200074C19091A7022091A802892F82238F3F04
:1047300009F46BC113968D909C901497D090A902A8
:10474000F401E41BF50BDD2009F40AC18091AC02F1
:10475000382F307FE83CF10508F0C1C0311189C025
:10476000DC2C2F1126C09E1124C0C11022C08F70D6
:1047700080618093AC020E94DC22C5010E943B2232
:104780008091AC02D80115968C938D2D61960FB651
:10479000F894DEBF0FBECDBFDF91CF911F910F9177
:1047A000FF90EF90DF90CF90BF90AF909F908F9051
:1047B00008958114910429F08F2D8E218F3F09F0E7
:1047C00043C180E080FF15C04C2D6F2D8E2D0E94BF
:1047D000EA22882371F087EA92E00E943B2286E079
:1047E000E7EAF2E0DF011D928A95E9F70E94DC22F8
:1047F0003EC0892829F08F2D8E218F3F09F021C1DD
:1048000080E0B82FB170AB2E80FF29C04C2D6F2DEA
:104810008E2D0E94EA22B82E811121C0ED86FE86DF
:104820008D859E850E94E327292F22952F702230A7
:1048300050F0243078F49F7051F0F8019581907F0A
:1048400031F4DB2CA2CF9F7011F08823D1F3805E6E
:104850008830B8F3C8010E943B22BA2CF2CFCC209A
:1048600009F493CF8091AC0281608093AC02D12C8B
:104870008CCF2F1105C09E1103C0CC2009F48DC030
:10488000ED86FE868D859E850E949822882319F1EB
:10489000CC2009F18091AC02803270F02091A70207
:1048A0003091A80238872F8319869B868A868C8749
:1048B000CE0107960E943B2286E0F801A7EAB2E00B
:1048C00001900D928A95E1F70E940A230E94DC2252
:1048D000DD24D3945ACFC8010E943B22F9CF311175
:1048E00012C0782D998A888AA7016C2D89890E9427
:1048F0009C2287EA92E00E943B2286E0F501119219
:104900008A95E9F773CF2F110FC09E110DC0C1100A
:104910000BC015968C93C8010E943B2286E0F501DE
:1049200011928A95E9F731CFED86FE868D859E85B9
:104930000E949822882379F2CC2069F28091AC02FF
:10494000803208F4B9CF2091A7023091A8023A83AF
:1049500029831B829D828C828E83CE010196AACFF1
:10496000E83CF10508F043C0DC2CCC2009F4B3CFBF
:104970002F112CC09E112AC08091AC0280FD1DC059
:10498000982F907FD1F015968C931597903F39F022
:10499000982F907F905F8F70892B15968C93C8010C
:1049A0000E943B2286E0F801A7EAB2E001900D9256
:1049B0008A95E1F70E94DC22E8CE86E0F801A7EABA
:1049C000B2E001900D928A95E1F7DFCEED86FE868A
:1049D0008D859E850E94982281116ECF8091AC02B8
:1049E00081608093AC02C8010E943B22CECE782D1C
:1049F000998A888AA7016C2D89890E949C2286E069
:104A0000F50111928A95E9F7D5CFCC2009F463CF4F
:104A1000ED86FE868D859E850E949822D82E88235D
:104A200009F459CF86E0F801A7EAB2E001900D92AF
:104A30008A95E1F787EA92E00E94171F0E940A23F5
:104A4000B9CF81E08C25DDCE81E08C25BBCE88EC12
:104A500090E008951F93CF93DF93CDB7DEB72C97E7
:104A60000FB6F894DEBF0FBECDBF4F83588769875E
:104A70007A878B879C87CE0107960E9460238823C4
:104A800069F08A859B85892B39F04F815885842F61
:104A900085238F3F09F071C016E05FC086E0FE01FC
:104AA0003796DE01119601900D928A95E1F78A857D
:104AB0009B85892B89F388859F8189238F3F61F3AB
:104AC0002091760230E0C9010196877099274091C4
:104AD00075024817190671F40E9475221092760229
:104AE0001092750286E0E7EAF2E0DF011D928A95F6
:104AF000E9F7D2CF96E0929FD001939FB00D112499
:104B0000A958BD4FFE01319601900D929A95E1F79B
:104B1000809376020E94BB22BFCF819FC0011124E7
:104B200089589D4F0E9460238823E9F0E091750227
:104B30001E9FF0011124E958FD4F4081518162818F
:104B40007381848195810E94AB228091750290E0EF
:104B500001968770992780937502809175029091D4
:104B600076028913DACF2C960FB6F894DEBF0FBE0B
:104B7000CDBFDF91CF911F91089569857A858B858F
:104B80009C850E94AB2288CFEF92FF920F931F93D8
:104B9000CF93DF938C01892B81F0F12CEE24E394E9
:104BA000E8012196F8018491843770F4843008F08C
:104BB0005FC08130B1F08230A1F1DF91CF911F91C0
:104BC0000F91FF90EF900895853709F44CC008F4D9
:104BD0003DC09CE7980F903780F78F770E94A61F03
:104BE00049C00E5F1F4FFE01849190E2980F9830EC
:104BF00060F48770FE2D01C0FF0F8A95EAF78F2FB2
:104C00000E9459280E94822802C00E941C1F8F2DDA
:104C1000815030F2EFE9FFE03197F1F700C000007A
:104C2000F7CF0E5F1F4FFE01849190E2980F9830EE
:104C300050F48770FE2D01C0FF0F8A95EAF78F2F81
:104C40000E945F28DFCF0E94A61FE1CF0E5F1F4F9B
:104C5000FE01C491C150D8F28FE99FE00197F1F7AE
:104C600000C00000F7CF0E5F1F4FFE01F490CFCFC2
:104C70000E941C1F8E01CBCF08950C943C260E94ED
:104C80003D266093D9027093DA028093DB02909301
:104C9000DC020C94632208950C943F260F931F931B
:104CA0000091D9021091DA022091DB023091DC02EE
:104CB000602B712B822B932B1F910F910C943F260D
:104CC0000F931F930091D9021091DA022091DB0219
:104CD0003091DC0260237123822393231F910F9173
:104CE0000C943F260F931F930091D9021091DA0282
:104CF0002091DB023091DC02602771278227932705
:104D00001F910F910C943F260C943C260C94842602
:104D10000E9486266093D5027093D6028093D702B4
:104D20009093D8020C94632260E070E0CB010C9465
:104D300088260F931F9341E050E060E070E08A0105
:104D40009B0104C0000F111F221F331F8A95D2F749
:104D5000C901B8011F910F910C9488260F931F93DE
:104D600041E050E060E070E004C0440F551F661F52
:104D7000771F8A95D2F78091D5029091D602A091A3
:104D8000D702B091D8028A019B01082B192B2A2B3C
:104D90003B2BC901B8011F910F910C9488260F93EA
:104DA0001F9341E050E060E070E004C0440F551FE5
:104DB000661F771F8A95D2F7CB01BA01609570956F
:104DC000809590950091D5021091D6022091D7023E
:104DD0003091D80260237123822393231F910F9176
:104DE0000C9488260F931F9341E050E060E070E040
:104DF00004C0440F551F661F771F8A95D2F7809114
:104E0000D5029091D602A091D702B091D8028A0122
:104E10009B01082719272A273B27C901B8011F91A1
:104E20000F910C9488260F931F930091D502109137
:104E3000D6022091D7023091D802602B712B822BA1
:104E4000932B1F910F910C9488260F931F93009121
:104E5000D5021091D6022091D7023091D80260235A
:104E60007123822393231F910F910C9488260F9313
:104E70001F930091D5021091D6022091D702309154
:104E8000D80260277127822793271F910F910C94D6
:104E900088260895E92FEE0FE90FEE0F8E0F982F59
:104EA000977041E001C0440F9A95EAF78695869580
:104EB000869595E0899FF0011124E355FD4F30E080
:104EC00020E070E05191DF011197CB01022E02C06A
:104ED000969587950A94E2F78170819585278423BA
:104EE00085278C932F5F3F4F2530310559F7089563
:104EF000E92FEE0FE90FEE0F8E0F982F9770869522
:104F00008695869525E0829FF0011124E355FD4F9B
:104F100050E040E080E0219130E0092E02C036955B
:104F200027950A94E2F721703327042E01C0220F3F
:104F30000A94EAF7822B4F5F5F4F4530510559F7CE
:104F40000895BF92CF92DF92EF92FF920F931F933B
:104F5000CF93DF938C01C090D502D090D602E09021
:104F6000D702F090D8028091D9029091DA02A091F4
:104F7000DB02B091DC02C82AD92AEA2AFB2ACFE157
:104F8000D0E0BC2ED701C6010C2E04C0B695A79563
:104F9000979587950A94D2F780FD0EC0219788F7E0
:104FA000B12C8B2DDF91CF911F910F91FF90EF903E
:104FB000DF90CF90BF900895B8018C2F0E94A50874
:104FC000019761F3EECFCF93DF93EC010E94A1270D
:104FD000BE01DF91CF910C94A5081F93CF93DF936F
:104FE000EB0190917402992331F0CB01DF91CF91C5
:104FF0001F910C94E327882379F0CB010E94A1270D
:10500000182F682FCE010E944A27BE01812FDF9101
:10501000CF911F910C94A508CB010E947827182FDF
:10502000F4CF682F80912801909129010C94F029E8
:10503000682F80912801909129010C94F229809188
:105040002801909129010C94F4298091DD02859525
:105050008595859508958091DD02877008959091DA
:10506000DD02977081E009F480E008958091E90203
:1050700008959091E902892B8093E9020895809523
:105080009091E90298239093E90208951092E90221
:1050900008959091E802892B8093E8020895809505
:1050A0009091E80298239093E80208951092E80204
:1050B00008959091E702892B8093E70208958095E7
:1050C0009091E70298239093E70208951092E702E7
:1050D00008958091DE02089508950C946C289091B3
:1050E000DE02981721F08093DE020C946D2808955B
:1050F0008091DE02882329F01092DE0280E00C9479
:105100006D280895E0912801F09129018091E9022C
:105110008083E0912801F091290180819091E8023B
:10512000892B8083E0912801F09129018081909161
:10513000E702892B80839091DE02992381F0E09130
:105140002801F09129018081892B80838091280199
:10515000909129010E94A82981110E9478288091AC
:105160002801909129010C948B1D08950C94B52869
:1051700098E0899F90011124622B6093DD020E94C8
:10518000AE268091DD028595859585950C94B6288F
:105190001092DD0280E00C94B6289091DD0280959B
:1051A00089238093DD02282F277071F4282F082E81
:1051B000000C330B9217130639F08595859585956C
:1051C0000E94CF260C94C82808959093F3018093F1
:1051D000F2010895829590E09C01220F331F220F67
:1051E000331F2C7C95958795959587958373282BF0
:1051F00030E0C901880F991F8A7A35952795257562
:10520000822B089590E080E00E94933321E08C3E51
:105210009E4F09F020E0822F089582E090E00C94E8
:10522000853383E090E00C948533CF9384E090E065
:105230000E948533C82F81E290E00E948533982F29
:105240008C2FCF910895CF93C92F682F84E090E0E1
:105250000E9499336C2F81E290E0CF910C949933A6
:1052600086E090E00C948533682F86E090E00C9403
:105270009933AB01BC018FE090E00C94AB33AB01F0
:10528000BC0183E190E00C94AB3360E070E0CB01B3
:105290000C943F296CEE7EEF90E080E00E94B733E3
:1052A00060E082E090E00E94993360E083E090E06B
:1052B0000E9499331092D9021092DA021092DB0206
:1052C0001092DC0260E084E090E00E94993360E09C
:1052D00081E290E00E94993360E085E090E00E94D6
:1052E000993360E086E090E00E9499336FEF87E0A9
:1052F00090E00E94993340E050E0BA0188E090E0ED
:105300000E94AB3360E08DE090E00E94993340E072
:1053100050E0BA0188E190E00E94AB3360E087E1A1
:1053200090E00E94993340E050E0BA018CE190E0B7
:105330000E94AB3360E080E290E00E9499330C94CD
:10534000B2060C944A29682F8EE090E00C949933B1
:105350009C012E5F3F4FAC01485F5F4F80E02417F8
:10536000350709F40895F90191919F019923B9F343
:105370008F5FF5CF662349F0FC01329608962191A4
:10538000261729F0E817F907D1F780E0089581E0A2
:1053900008959C01FC0132969FEF80E041914617F1
:1053A00051F09F3F19F4411101C0982F8F5F863053
:1053B000A9F79F3F09F40895290F311D97FD3A95EC
:1053C000F90162830895FC01329608962191261313
:1053D00003C0DF0111971C92E817F907B9F7089588
:1053E0000C94C9290C94E329029626E0FC01119241
:1053F0002A95E9F70895089508950C94FC290E94D0
:10540000FD2980914303843061F11092EB0288E121
:1054100090E020E40FB6F894A895809360000FBE4A
:105420002093600080E00E94451880E00E940F08F1
:105430000E94FD2983B7817F846083BF83B7816029
:1054400083BF7894889583B78E7F83BF0FB6F89417
:10545000A895809160008861809360001092600040
:105460000FBE08950895CF930E94FB290E94650BFB
:105470000E94322AC0E08C2F0E94910A811105C03F
:10548000CF5FCA30C1F7CF91089581E0FCCF089576
:105490000C94472A0E9475220E94DB160E947F1DF1
:1054A0000E940F080C94482A1F921FB61F921124C5
:1054B0008F939F93AF93BF938091EB02811113C0A1
:1054C0008091390390913A03A0913B03B0913C0342
:1054D0004196A11DB11D8093390390933A03A09387
:1054E0003B03B0933C03BF91AF919F918F911F906D
:1054F0001FBE1F90189582E084BD93E095BD9AEF82
:1055000097BD80936E0008952FB7F894809139036A
:1055100090913A03A0913B03B0913C032FBF0895B3
:105520009C014FB7F8948091390390913A03A09170
:105530003B03B0913C034FBF821B930B08957894BB
:105540001F921FB61F9211248F939F93AF93BF9307
:105550008091390390913A03A0913B03B0913C03B1
:105560000196A11DB11D8093390390933A03A09336
:105570003B03B0933C03BF91AF919F918F911F90DC
:105580001FBE1F90189581E08093E00080E2809319
:10559000D8001092C9008FE19EE40197F1F700C096
:1055A000000087E090EBDC0180934C0390934D0367
:1055B000A0934E03B0934F0388E19CE00FB6F8949C
:1055C000A895809360000FBE90936000FFCF0E946B
:1055D0000229811102C00E94A1290E940D298093F5
:1055E000EA020E94152990933E0380933D030E9496
:1055F0001129682F70E090E080E00E944C266091B5
:10560000D5027091D6028091D7029091D8020C9465
:1056100086268091F702089508959FB7F894109216
:10562000EE029FBF90914303943009F048C020914F
:10563000E9002F703091EC00932F917030FD90E8CD
:10564000922B23E02093E9002091EB0020FF34C04F
:105650002091EE0027FF30C02091EC02222321F0A0
:105660002091E80025FF28C01092EC0226E030913E
:10567000E80035FF14C08093F1008091E80085FDBB
:1056800027C08091E80080FFFCCF8091E8008E77F2
:105690008093E8009F709093E90080E00895309136
:1056A0004303343049F43091EB0035FD05C02150FF
:1056B00041F481E08093EC029F709093E9008FEFBA
:1056C0000895EFE9FFE03197F1F700C00000CFCF78
:1056D0008FB7F89421E02093EE028FBFDBCFCF93FA
:1056E000DF9300D00F92CDB7DEB790914303943093
:1056F00019F589837B836A8382E08093E9008FEFC9
:105700009091E800815095FD06C095ED9A95F1F7CE
:1057100000008111F5CF8091E80085FF0DC050E0B9
:1057200040E063E070E0CE0101960E94C52D8091BB
:10573000E8008E778093E8000F900F900F90DF9134
:10574000CF910895BC0184E00C946F2BBC0183E0E1
:105750000C946F2BCF93DF93EC0181E08093E900F1
:105760008FEF9091E800815095FD06C095ED9A95D8
:10577000F1F700008111F5CF8091E80085FF14C09A
:1057800050E040E068E070E0CE010E94C52D8091BD
:10579000E8008E778093E80088E0FE01AFEEB2E08B
:1057A00001900D928A95E1F7DF91CF9108958EE2F5
:1057B0009AE00E94100680914203811109C00E9464
:1057C000552F0E94B22F8091E20084608093E20006
:1057D00008958AE29AE00E9410061092420308950A
:1057E00086E29AE00C94100682E29AE00C9410068D
:1057F0008EE19AE00E9410060C944A2A2091ED0254
:105800002F5F822F62E30E946532992319F0209363
:10581000ED0208951092ED028091EE028823F1F0DE
:10582000809143038430C1F49091E9009F702091EE
:10583000EC00822F817020FD80E8892B93E090930B
:10584000E9009091EB0090FF04C09091EE0097FD6D
:1058500008C08F708093E9001092EE0208951092B4
:10586000F1009091E80095FDFACF9091E80090FF4B
:10587000F0CF9091E8009E779093E800EACF42E065
:1058800061EC81E00E94D12E42E261EC82E00E9454
:10589000D12E42E261EC83E00C94D12E809145033D
:1058A000833009F45FC030F48130C1F1823009F4F3
:1058B0009BC008958A3009F487C08B3009F46DC00D
:1058C000893009F04EC080914403813209F049C00B
:1058D0008091480390914903029708F042C080915B
:1058E000E800877F8093E8008091E80082FF35C060
:1058F0009091F3008091F200029729F48091F100D9
:105900008B7F813021F48091F1008093F7028091A8
:10591000E8008B778093E8000C94052F8091440376
:10592000813AF9F48091E800877F8093E8008091C4
:10593000480390914903892B61F468E08FEE92E06F
:1059400070E00E94142E8091E8008B778093E8002D
:10595000089560E090E080E0F3CF809143038111EF
:10596000C3CF089580914403813AD9F780914803C9
:1059700090914903892BA9F78091E800877F809354
:10598000E8008091E80080FFFCCF80913401809393
:10599000F1008091E8008E77BDCF80914403813281
:1059A00001F78091480390914903892BD1F68091AA
:1059B000E800877F8093E8000E94052F80914603CE
:1059C000809334010C94752280914403813249F60E
:1059D0008091E800877F8093E8000E94052F8091E6
:1059E00047038093F802089580914403813A09F0B7
:1059F000B8CF8091E800877F8093E8008091E8002D
:105A000080FFFCCF8091F802C2CF84B7877F84BF2C
:105A10000FB6F894A895809160008861809360002B
:105A2000109260000FBE80E890E00FB6F89480936B
:105A30006100909361000FBE0E94111E0E94552FBD
:105A40000E94B22F8091E20084608093E2008DE09A
:105A50009BE20E94E52878940E943A320E94191E27
:105A60008AE291E00E947A1D8DE09AE00E94100681
:105A700080914303853019F00E944F1EF9CF89E0D1
:105A80009AE00E9410060E94FF298091410388231A
:105A900079F30E94332A882359F30E94AF2DE8CF6F
:105AA0000C94522D292F33272330310521F168F42E
:105AB0002130310509F449C02230310509F44AC0CA
:105AC00090E080E030E020E029C02132310581F112
:105AD00022323105A9F76330710590F7FB01EE0F13
